:100000000C944A000C9469000C9469000C946900EB
:100010000C9469000C9469000C9469000C946900BC
:100020000C9469000C9469000C9469000C946900AC
:100030000C9415200C9469000C9469000C946900D0
:100040000C9469000C9469000C9469000C9469008C
:100050000C9469000C9469000C9469000C9469007C
:100060000C9469000C9469000C9469000C9469006C
:100070000C9469000C9469000C9469000C9469005C
:100080000C9469000C9469000C9469000C94A520F0
:100090000C94690011241FBECFEFD0E1DEBFCDBFAD
:1000A00012E0A0E0B1E0ECE9FAE500E00BBF02C02D
:1000B00007900D92A838B107D9F727E0A8E8B2E079
:1000C00001C01D92A431B207E1F70E94E3260C940F
:1000D0004C2D0C944220CF93DF9300D000D0CDB7AD
:1000E000DEB71B821C8281E789831A8240E050E0E0
:1000F000BA018CE097E00E94DE1A62E0CE01019620
:100100000E94612062E0CE0103960E948E208CE066
:1001100097E00E94761B8C8180FF0DC01092C00674
:1001200083FF0DC01092A3060F900F900F900F90B9
:10013000DF91CF91089591E09093C006F1CF81E0D7
:100140008093A306F1CFCF93DF9300D000D000D0EF
:10015000CDB7DEB78091010190910201A09103011A
:10016000B091040189839A83AB83BC8340E050E063
:10017000BA018CE097E00E94DE1A64E0CE0101969D
:100180000E94612080E98D831E8262E0CE01059687
:100190000E9461208CE097E00E94761B26960FB6A5
:1001A000F894DEBF0FBECDBFDF91CF910895CF93FE
:1001B000DF9300D000D000D0CDB7DEB7809105012D
:1001C00090910601A0910701B091080189839A835B
:1001D000AB83BC8340E050E0BA018CE097E00E9422
:1001E000DE1A64E0CE0101960E94612088E88D83CA
:1001F00081E08E831092EA051092E90562E0CE015B
:1002000005960E9461208CE097E00E94761B26965E
:100210000FB6F894DEBF0FBECDBFDF91CF9108952A
:10022000CF93DF9300D0CDB7DEB788E8898381E034
:100230008A8340E050E0BA018CE097E00E94DE1A29
:1002400062E0CE0101960E9461208CE097E00E945E
:10025000761B0F900F90DF91CF9108951F93CF934E
:10026000DF9300D000D000D0CDB7DEB70E941001E0
:1002700019E81C831D821E8240E050E0BA018CE028
:1002800097E00E94DE1A63E0CE0104960E9461208E
:1002900019831A821B8263E0CE0101960E948E2090
:1002A0008CE097E00E94761B8A8190E0982F882747
:1002B0002B81820F911D26960FB6F894DEBF0FBEDC
:1002C000CDBFDF91CF911F910895CF93DF9300D0E1
:1002D000CDB7DEB788E8898382E08A8340E050E0CA
:1002E000BA018CE097E00E94DE1A62E0CE0101962E
:1002F0000E9461208CE097E00E94761B0F900F9087
:10030000DF91CF9108951F93CF93DF9300D000D05A
:1003100000D0CDB7DEB70E94650119E81C831D82AD
:100320001E8240E050E0BA018CE097E00E94DE1AA5
:1003300063E0CE0104960E94612019831A821B8219
:1003400063E0CE0101960E948E208CE097E00E942F
:10035000761B8A8190E0982F88272B81820F911D30
:1003600026960FB6F894DEBF0FBECDBFDF91CF91BA
:100370001F9108951F93CF93DF9300D000D000D03A
:10038000CDB7DEB711E91C831D821E8240E050E02C
:10039000BA018CE097E00E94DE1A63E0CE01049679
:1003A0000E94612019831A821B8263E0CE010196AC
:1003B0000E948E208CE097E00E94761B8A8190E05C
:1003C000982F88272B81820F911D26960FB6F894BF
:1003D000DEBF0FBECDBFDF91CF911F910895CF93A8
:1003E000DF9300D0CDB7DEB780E789838BEF8A83B8
:1003F00040E050E0BA018CE097E00E94DE1A62E033
:10040000CE0101960E9461208CE097E00E94761B4D
:100410000F900F90DF91CF910895CF93DF9300D08D
:10042000CDB7DEB780E789838FEF8A8340E050E065
:10043000BA018CE097E00E94DE1A62E0CE010196DC
:100440000E9461208CE097E00E94761B0F900F9035
:10045000DF91CF910895FF920F931F93CF93DF9376
:1004600000D000D01F92CDB7DEB7F82E162F042F84
:1004700040E050E0BA018CE097E00E94DE1A80E490
:100480008983612F6C60402F50E0440F551F8F2DE2
:10049000807F842B862B8A8328E02B8330E1F39E98
:1004A000C0011124642B682B6C832D8365E0CE0181
:1004B00001960E9461208CE097E00E94761B0F90CD
:1004C0000F900F900F900F90DF91CF911F910F9190
:1004D000FF90089540E060E088E20E942B0240E037
:1004E00060E08EE00E942B0240E060E086E00C9429
:1004F0002B020F931F93CF93DF9300D000D0CDB783
:10050000DEB700E40B8318E01C8340E050E0BA0142
:100510008CE097E00E94DE1A62E0CE0103960E9412
:10052000612068E270E080E090E00E94921C098304
:100530008CE28A8362E0CE0101960E9461201A83D8
:1005400062E0CE0101960E9461208CE097E00E945B
:10055000761B0E946A020F900F900F900F90DF9110
:10056000CF911F910F9108950F931F93CF93DF9316
:10057000EC018C01060F111DC017D10729F4DF9182
:10058000CF911F910F91089540E061E089910E9401
:100590002B02F2CFCF93DF9300D0CDB7DEB7880F19
:1005A00089831A8240E050E0BA018CE097E00E9413
:1005B000DE1A62E0CE0101960E9461208CE097E095
:1005C0000E94761B0F900F90DF91CF910895CF93EB
:1005D000DF9300D0CDB7DEB7880F898381E08A83AF
:1005E00040E050E0BA018CE097E00E94DE1A62E041
:1005F000CE0101960E9461208CE097E00E94761B5C
:100600000F900F90DF91CF910895CF93DF93CDB7E7
:10061000DEB728970FB6F894DEBF0FBECDBF982F78
:10062000990F9E8390E39F831886880F816089834A
:100630001A821B821C821D8240E050E0BA018CE0CD
:1006400097E00E94DE1A63E0CE0106960E946120C8
:1006500065E0CE0101960E94612065E0CE01019621
:100660000E948E208C8190E0982F88272D81820F08
:10067000911D90939605809395058A8190E0982F1F
:1006800088272B81820F911D9093D7058093D605E3
:100690008CE097E00E94761B6091D6057091D7059B
:1006A000809195059091960528960FB6F894DEBF37
:1006B0000FBECDBFDF91CF9108950F931F93CF93BE
:1006C000DF9300D000D000D0CDB7DEB7982F990FC0
:1006D0009C8390E39D8393E09E83880F8160898350
:1006E0001A821B8240E050E0BA018CE097E00E9441
:1006F000DE1A63E0CE0104960E94612063E0CE0121
:1007000001960E94612063E0CE0101960E948E2036
:100710000A811B818CE097E00E94761BC801269617
:100720000FB6F894DEBF0FBECDBFDF91CF911F9102
:100730000F910895CF931092BB0640E050E0BA01AC
:100740008CE097E00E94DE1AC1E080E98C0F8230D5
:10075000A8F08C2F0E945D03853A954A79F4809128
:10076000BB06803158F4E091BB06F0E0E752FA4F47
:10077000C0838091BB068F5F8093BB06CF5FC0387C
:1007800021F78CE097E0CF910C94761BEF92FF92CB
:100790000F931F93CF93DF93CDB7DEB728970FB694
:1007A000F894DEBF0FBECDBF982F990F9E8390E3C4
:1007B0009F8392E09887880F816089831A821B82C9
:1007C0001C821D8240E050E0BA018CE097E00E945C
:1007D000DE1A63E0CE0106960E94612065E0CE013C
:1007E00001960E94612065E0CE0101960E948E2054
:1007F0000C811D81102701271027EA80FB80FE2431
:10080000EF24FE248CE097E00E94761BB701C8011C
:1008100028960FB6F894DEBF0FBECDBFDF91CF9103
:100820001F910F91FF90EF900895EF92FF920F9319
:100830001F93CF93DF93CDB7DEB728970FB6F89409
:10084000DEBF0FBECDBF982F990F9E8390E39F838D
:1008500091E09887880F816089831A821B821C82AD
:100860001D8240E050E0BA018CE097E00E94DE1A61
:1008700063E0CE0106960E94612065E0CE010196FC
:100880000E94612065E0CE0101960E948E201D81AC
:100890000C81FB80EA808CE097E00E94761BB70118
:1008A000C80128960FB6F894DEBF0FBECDBFDF910A
:1008B000CF911F910F91FF90EF9008951F93CF93C9
:1008C000DF9310E0C12F012E000CDD0B8091BB06E1
:1008D00090E0C817D90724F0DF91CF911F910895B8
:1008E000FE01E752FA4F80810E941504FE01EE0FCF
:1008F000FF1FEE0FFF1FE15BF94F6083718382835F
:10090000938361E070E080E090E00E94921C1F5FA2
:10091000D9CF8CE097E00E948C1A0E944C2040E0D6
:1009200050E0BA018CE097E00E94DE1A0E949A0320
:100930000E940D0264E670E080E090E00E94921C4C
:100940000E945E048CE097E00C94761B40E060E02F
:1009500080E80E942B020E946A0264E186E196E030
:100960000E94B40264E18FE896E00E94B40264E160
:100970008FE995E00E94B40264E182EF96E00C9466
:10098000B4022F923F924F925F926F927F928F921A
:100990009F92AF92BF92CF92DF92EF92FF920F930E
:1009A0001F93CF93DF93CDB7DEB7C456D1090FB6EF
:1009B000F894DEBF0FBECDBF84E1E9E0F1E0DE01D7
:1009C000DD9601900D928A95E1F784E1EDE1F1E089
:1009D000DE01999601900D928A95E1F784E1E1E3B9
:1009E000F1E0DE01559601900D928A95E1F784E1E0
:1009F000E5E4F1E0DE01119601900D928A95E1F7B0
:100A000080910606909107068230910509F432C262
:100A100040F4009709F43DC2019771F068E572E077
:100A20000DC08430910509F42BC208F426C2069744
:100A3000A9F765E772E002C06DE572E0FB01019085
:100A40000020E9F73197AF01461B570BCE018D5BB4
:100A50009F4F0E94F52980919E0524E6622F0E94F7
:100A60001127805D2E968FAF2E9780919E050E9454
:100A70001127892F2AE0622F0E941127805D2F966F
:100A80008FAF2F9780919E050E941127905D6096F1
:100A90009FAF60978091AE069091AF0664E670E0DC
:100AA0000E943F27605D6D966FAF6D978091AE0697
:100AB0009091AF062AE030E0B9010E943F27CB01B8
:100AC000B9010E943F27805D6E968FAF6E9780912F
:100AD000AE069091AF06B9010E943F27805D6F96E8
:100AE0008FAF6F97C090EB05D090EC05E090ED05CF
:100AF000F090EE056091EB057091EC058091ED05AD
:100B00009091EE050E94D32820E030E0A9010E94D8
:100B1000242887FFC1C1C701B6010E94D32890587D
:100B20000E949B286B017C011DE2C701B60120EAEF
:100B300036E841E050E00E9475276AE0862E912C4D
:100B4000A12CB12CCA01B901A50194010E947527FD
:100B5000605DA0966FAFA097C701B60120E137E2B4
:100B600040E050E00E947527CA01B901A501940137
:100B70000E947527605DA1966FAFA197C701B6016E
:100B800028EE33E040E050E00E947527CA01B90129
:100B9000A50194010E947527605DA2966FAFA29790
:100BA000C701B60124E630E040E050E00E9475271E
:100BB000CA01B901A50194010E947527605DA39641
:100BC0006FAFA397C701B601A50194010E947527D5
:100BD000062FCA01B901A50194010E947527605D25
:100BE000A4966FAFA497005DA5960FAFA5978091CF
:100BF000F105811153C180E26C968FAF6C9790E242
:100C00006B969FAF6B978EE46A968FAF6A9745E4B9
:100C1000242E50E5352E0FE40E942C1C6B017C0124
:100C200024E630E040E050E00E94532765962CAF68
:100C30003DAF4EAF5FAF6597C701B60120E737E123
:100C400040E050E00E94532729013A01C701B60154
:100C500020E43EE745E050E00E94532769962CAF20
:100C60003DAF4EAF5FAF69978CE3882E912CA12CDE
:100C7000B12C65966CAD7DAD8EAD9FAD6597A50130
:100C800094010E94532765966CAF7DAF8EAF9FAFE6
:100C90006597C301B201A50194010E9453272B015E
:100CA0003C0169966CAD7DAD8EAD9FAD699728E135
:100CB00030E040E050E00E94532769966CAF7DAF72
:100CC0008EAF9FAF699784E1FE01FD96A6E1B6E085
:100CD00001900D928A95E1F76D968FAD6D978BA778
:100CE0006E969FAD6E979CA78EE28DA76F969FAD77
:100CF0006F979EA71AABA0969FADA0979BABA196AE
:100D00009FADA1979CABA2969FADA2979DAB8EABDA
:100D1000A3969FADA3979FABA4969FADA49798AFC2
:100D2000A5969FADA59799AF94E1FE01B996AFE85E
:100D3000B6E001900D929A95E1F70AA33BA22CA28E
:100D40006A969FAD6A979DA36B969FAD6B979EA386
:100D50006C969FAD6C979FA394E1FE017596AFE9E9
:100D6000B5E001900D929A95E1F796E79B8390E3A9
:100D70009C838D8381E38E8385E38F83C701B601D6
:100D800020E038E94FE753E30E945327205D29878D
:100D9000C701B60120E03CE546E255E00E9453273A
:100DA0009AE0892E912CA12CB12CCA01B901A50180
:100DB00094010E945327605D6A87C701B60120E055
:100DC00036ED43E850E00E945327CA01B901A5015E
:100DD00094010E945327605D6B871AE31C87699614
:100DE0006CAD7DAD8EAD9FAD6997A50194010E945C
:100DF0005327205D2D87605D6E871F87C301B20179
:100E0000A50194010E945327205D288B605D698BAA
:100E10001A8B65966CAD7DAD8EAD9FAD6597A501C6
:100E200094010E945327205D2B8B605D6C8B84E1C5
:100E3000FE013196A2EFB6E001900D928A95E1F79E
:100E4000CC59DF4F0FB6F894DEBF0FBECDBFDF9198
:100E5000CF911F910F91FF90EF90DF90CF90BF90B7
:100E6000AF909F908F907F906F905F904F903F904A
:100E70002F90089562E672E0E1CD68E672E0DECD83
:100E800080914B06805D28968FAF28976CE672E0C4
:100E9000D5CD60E772E0D2CD10E247CE94E46C96F7
:100EA0009FAF6C9785E46B968FAF6B9793E56A96CF
:100EB0009FAF6A972FE4222E3CE4332E03E4ACCE9E
:100EC000CF93DF93CDB7DEB7C055D1090FB6F894F5
:100ED000DEBF0FBECDBF84E1E9E5F1E0DE01DD96C6
:100EE00001900D928A95E1F784E1EDE6F1E0DE01F3
:100EF000999601900D928A95E1F784E1E1E8F1E09D
:100F0000DE01559601900D928A95E1F784E1E5E9BD
:100F1000F1E0DE01119601900D928A95E1F78DE2E4
:100F200023968FAF23979FE224969FAF24979EE24C
:100F300025969FAF259726968FAF269784E1FE01D1
:100F4000FD96A6E1B6E001900D928A95E1F784E165
:100F5000FE01B996AFE8B6E001900D928A95E1F7EF
:100F600084E1FE017596AFE9B5E001900D928A9596
:100F7000E1F784E1FE013196A2EFB6E001900D9217
:100F80008A95E1F7C05BDF4F0FB6F894DEBF0FBE66
:100F9000CDBFDF91CF9108952F923F924F925F92F4
:100FA0006F927F928F929F92AF92BF92CF92DF9279
:100FB000EF92FF920F931F93CF93DF93CDB7DEB7DE
:100FC00064970FB6F894DEBF0FBECDBF94E1E9EA97
:100FD000F1E0DE01119601900D929A95E1F790E310
:100FE000392E380EE82FF0E0EE0FFF1FDF01AF5370
:100FF000B94F8D919C911197AD90BC901197CD9068
:10100000DC901197ED90FC90EC50FA4F008111812B
:1010100020813181608071804080518044E1FE01F7
:101020003196A6E1B6E001900D924A95E1F7EFE81E
:10103000F6E043E4408331825FE5252E228256E5C7
:1010400053835AE3548368EE862E63E0962EB401F0
:101050000E942B27605D65838EE28683C501B40103
:101060000E942B2774E6A72EB12CB5010E942B27D6
:10107000605D6783C601B4010E942B27B5010E9401
:101080002B27AAE0CA2ED12CB6010E942B27605D27
:101090006087C701B6010E942B27805D8187B0E27F
:1010A000FB2EF286F386F486F586F686F786F08ABE
:1010B000F18AF28AF38AEFE9F5E0408331822282F5
:1010C00084E583835AE35483C801B4010E942B272B
:1010D000605D6583C901B4010E942B27B5010E94A0
:1010E0002B27605D6683C301B4010E942B27B501E5
:1010F0000E942B27B6010E942B27605D67838EE23A
:101100008087C201B6010E942B27805D8187F2860D
:10111000F386F486F586F686F786F08AF18AF28AF7
:10112000F38AE2EFF6E080E580838FE281834283F9
:1011300033828EE38483F582F682F782F086F1862D
:10114000F286F386F486F586F686F786F08AF18ACB
:10115000F28AF38A64960FB6F894DEBF0FBECDBF55
:10116000DF91CF911F910F91FF90EF90DF90CF9083
:10117000BF90AF909F908F907F906F905F904F90B7
:101180003F902F9008952F923F924F925F926F92CF
:101190007F928F929F92AF92BF92CF92DF92EF9207
:1011A000FF920F931F93CF93DF93CDB7DEB7C35456
:1011B000D1090FB6F894DEBF0FBECDBF94E1EDEBC1
:1011C000F1E0DE01999601900D929A95E1F794E194
:1011D000E1EDF1E0DE01559601900D929A95E1F76F
:1011E00094E1E5EEF1E0DE01119601900D929A9501
:1011F000E1F720E3280F2DAF76EBE72E76E0F72E10
:10120000E2E3AE2EE6E0BE2EF501670190E2D601E4
:101210009D936D019193BBEBCB16B6E0DB06B9F75E
:10122000082F10E04801880C991CF401EC51F94F8B
:10123000808191814AE066EB76E00E94FE29F4010C
:10124000E85FF94F808191814AE062E376E00E9495
:10125000FE2980E2F7019081911101C08083D501C0
:101260009C91911101C08C93BFEFEB1AFB0AEFEF39
:10127000AE1ABE0ACE14DF0469F77090B6068090ED
:10128000B7069090B806F091B906FEAFC090BA06C6
:101290002090320630903306409034065090350648
:1012A00060903606F801EE0FFF1FED52F94F808176
:1012B000918164E670E00E942B272AE030E0B901BA
:1012C0000E942B27605D6FAF80819181B9010E94E0
:1012D0002B27805D21968FAF21975801AA0CBB1C4C
:1012E000AA0CBB1CC5018D549A4F7C01DC016D9189
:1012F0007D918D919C910E949B28605D22966FAF9D
:101300002297F701608171818281938120E030E032
:1013100040E251E40E9488290E949B28862F5AE0CF
:10132000D52E6D2D0E941D27905D23969FAF23978C
:10133000D7016D917D918D919C9120E030E048EC3A
:1013400052E40E9488290E949B28862F6D2D0E94BE
:101350001D27905D24969FAF2497F70160817181CE
:101360008281938120E030E04AE754E40E9488299A
:101370000E949B28862F6D2D0E941D2797FDCBC0B4
:10138000F70180819181A281B38160817181828125
:10139000938120E030E04AE754E40E9488290E94CB
:1013A0009B28862F6D2D0E941D2720E3F22EF90E1B
:1013B000F801E752FA4F80811F928F9389E792E0FC
:1013C0009F938F938FEC95E09F938F930E94232A96
:1013D0005091CF054091D0053091D105F501E15BE9
:1013E000F94F20819181828163812EA63FA648AA70
:1013F00059AA6AAAFFADF8AF21967FAD219779AFC0
:1014000074E1FE01B996A6E1B6E001900D927A95DD
:10141000E1F77A8E8B8E9C8EAEADAD8FCE8E2296FE
:10142000BFAD2297BCA37EE27DA32396EFAD2397A9
:10143000EEA32496FFAD2497FFA3F8A674E1FE0166
:101440007596AFE8B6E001900D927A95E1F7205DD0
:101450002E83905D9F83805D8887605D69875A8B4E
:101460004B8B3C8B84E1FE013196AFE9B5E00190F6
:101470000D928A95E1F780E58093F2069FE29093C2
:10148000F30683E48093F4062DAD2093F506909344
:10149000F6068093F70681E48093F8068CE4809347
:1014A000F9068EE38093FA0680E28093FB06809330
:1014B000FC068093FD068093FE068093FF068093D2
:1014C00000078093010780930207809303078093AE
:1014D0000407809305070F900F900F900F900F90C7
:1014E0000F90CD5BDF4F0FB6F894DEBF0FBECDBFC0
:1014F000DF91CF911F910F91FF90EF90DF90CF90F0
:10150000BF90AF909F908F907F906F905F904F9023
:101510003F902F90089580E2F82E4ACF2F923F926D
:101520004F925F926F927F928F929F92AF92BF92F3
:10153000CF92DF92EF92FF920F931F93CF93DF939F
:10154000CDB7DEB7EC970FB6F894DEBF0FBECDBFB8
:1015500084E1E9EFF1E0DE01999601900D928A9520
:10156000E1F784E1EDE0F2E0DE01559601900D92A5
:101570008A95E1F784E1E1E2F2E0DE011196019063
:101580000D928A95E1F783E58093160685E48093B2
:10159000170684E58093180680E28093190690E58B
:1015A00090931A0691E490931B0693E490931C0683
:1015B0009BE490931D0680931E0699E490931F066A
:1015C00094E49093200680932106809322068093D2
:1015D0002306809324068093250680932606809315
:1015E0002706809328068093290694E1FE01B99688
:1015F000AFE8B6E001900D929A95E1F794E1FE0113
:101600007596AFE9B5E001900D929A95E1F788875C
:10161000898B84E1FE013196A2EFB6E001900D9234
:101620008A95E1F764E670E080E090E00E94921C09
:101630008091D805809349068091D8051F928F9399
:101640000EE712E01F930F938AE296E09F938F9329
:101650000E94232A809149061F928F931F930F9314
:1016600086E097E09F938F930E94232A62E370E0C5
:1016700080E090E00E94921C81E08093A4060FB667
:10168000F894DEBF0FBECDBF780196E0C92E97E07B
:10169000D92E2FE0422E3324339433E5A32E45E494
:1016A000B42E04E510E250E5552E61E4662E73E495
:1016B000772EEBE48E2EF9E49F2E8091E3068823AB
:1016C00009F4E2C08091A4068F5F8093A406809104
:1016D000A4068093490680914906803131F4309206
:1016E000A4068091A40680934906809149061F9222
:1016F0008F93FF92EF92DF92CF920E94232A109253
:10170000E3060F900F900F900F900F900F90209185
:101710002A0690910607A0921606B092170600932B
:1017200018061093190650921A0660921B067092C2
:101730001C0680921D0610931E0690921F0684E4DC
:10174000282E209220061093210610932206109333
:101750002306109324061093250610932606109353
:101760002706109328061093290684E1FE01B996F6
:10177000AFE8B6E001900D928A95E1F784E1FE01B1
:101780007596AFE9B5E001900D928A95E1F728874B
:10179000998B84E1FE013196A2EFB6E001900D92A3
:1017A0008A95E1F7189989CF6091490688E090E021
:1017B0000E942A2D88E090E00E941C2D8093D8057D
:1017C00050921606609217067092180680921906BB
:1017D00010931A0690921B0620921C0610931D0669
:1017E000A0921E06B0921F060093200681E280930D
:1017F00021061093220610932306109324061093BB
:10180000250610932606109327061093280610939A
:10181000290684E1FE01B996AFE8B6E001900D9289
:101820008A95E1F784E1FE017596AFE9B5E0019094
:101830000D928A95E1F784E1FE013196A2EFB6E0C0
:1018400001900D928A95E1F764E670E080E090E007
:101850000E94921C80E0EC960FB6F894DEBF0FBE9B
:10186000CDBFDF91CF911F910F91FF90EF90DF904F
:10187000CF90BF90AF909F908F907F906F905F9030
:101880004F903F902F9008958091B406882309F4DB
:101890003ECF8091A40681508093A4068091A40637
:1018A000811102C04092A4068091A406809349064B
:1018B000809149061F928F93FF92EF92DF92CF9211
:1018C0000E94232A1092B4061CCF3F924F925F923F
:1018D0006F927F928F929F92AF92BF92CF92DF9240
:1018E000EF92FF920F931F93CF93DF93CDB7DEB7A5
:1018F000EC970FB6F894DEBF0FBECDBF84E1E9EFE1
:10190000F1E0DE01999601900D928A95E1F784E16C
:10191000EDE0F2E0DE01559601900D928A95E1F737
:1019200084E1E5E3F2E0DE01119601900D928A95E3
:10193000E1F78091D4059091D5059093D0068093DE
:10194000CF068091D4059091D5059F938F9303E89E
:1019500012E01F930F9384E496E09F938F930E946D
:10196000232A8091CF069091D0069F938F931F9347
:101970000F9387E097E09F938F930E94232A62E35F
:1019800070E080E090E00E94921C1092A4060FB6D6
:10199000F894DEBF0FBECDBF680187E0A82E87E0B8
:1019A000B82E812C95E0992E03E525E4F22E34E53E
:1019B000632E10E243E4342E51E4752E6EE4462E7D
:1019C00074E4E72EE2E55E2E8091E306882309F4B5
:1019D00020C18091A4068F5F8093A4068091A40605
:1019E00090E09B5F9093D0068093CF068091CF06C6
:1019F0009091D0069F938F93DF92CF92BF92AF9238
:101A00000E94232A8091CF069091D0060F900F90CC
:101A10000F900F900F900F908115964031F4109217
:101A2000A4069092D0068092CF061092E3066091B1
:101A3000450650914606409147063091080720918F
:101A4000090790910A0700931606F0921706609214
:101A500018061093190630921A0670921B064092CF
:101A60001C0610931D0670921E06E0921F06E0925F
:101A7000200650922106F09222060093230600933E
:101A8000240610932506109326061093270610931C
:101A900028061093290684E1FE01B996AFE8B6E066
:101AA00001900D928A95E1F784E1FE017596AFE908
:101AB000B5E001900D928A95E1F7688759874A87CA
:101AC000398B2A8B9B8B84E1FE013196A2EFB6E025
:101AD00001900D928A95E1F7189976CF8091D405FF
:101AE0009091D50501969093D2068093D10680916E
:101AF000D4059091D50502969093F3058093F20555
:101B00006091CF067091D00682E090E00E94372D60
:101B10006091D1067091D20684E090E00E94372D4A
:101B20006091F2057091F30586E090E00E94372DF8
:101B300082E090E00E94242D9093D5058093D405F7
:101B400030921606709217064092180610931906E6
:101B500070921A06E0921B06E0921C0650921D0637
:101B6000F0921E0600931F06009320061093210694
:101B700000932206F09223066092240681E280936D
:101B80002506109326061093270610932806109317
:101B9000290684E1FE01B996AFE8B6E001900D9206
:101BA0008A95E1F784E1FE017596AFE9B5E0019011
:101BB0000D928A95E1F784E1FE013196A2EFB6E03D
:101BC00001900D928A95E1F764E670E080E090E084
:101BD0000E94921C64E670E080E090E00E94921CFB
:101BE00080E0EC960FB6F894DEBF0FBECDBFDF915C
:101BF000CF911F910F91FF90EF90DF90CF90BF900A
:101C0000AF909F908F907F906F905F904F903F909C
:101C100008958091B406882309F409CF8091A40621
:101C20008823F9F08091A40681508093A4068091C6
:101C3000A40690E09B5F9093D0068093CF0680919E
:101C4000CF069091D0069F938F93DF92CF92BF9251
:101C5000AF920E94232A0F900F900F900F900F9039
:101C60000F901092B406E3CE84B1887F84B985B119
:101C7000876085B908950E94340E62E370E080E0C9
:101C800090E00E94921CC1E01A9909C0C093E3063B
:101C90006EE170E080E090E00E94921CF5CF19990F
:101CA00003C0C093B406F4CF1899EECFC093860555
:101CB000EFCFEF92FF920F931F93CF93DF93CDB7A8
:101CC000DEB74DB75EB78091BB062DB73EB7281B78
:101CD00031090FB6F8943EBF0FBE2DBF2F5F3F4FA7
:101CE0008091060690910706019709F092C08091B5
:101CF0002C06882309F48DC010922C0680E0909168
:101D0000BB06891760F0A0E08091BB066A2F70E0E7
:101D100090E0019768177907BCF5B0E029C0F90198
:101D2000E80FF11D80838F5FEACFB901680F791F3B
:101D3000FB01E080EE2DF0E0EE0FFF1FEF53F94FB7
:101D4000008111810196820F931FFC01F080EF2D1D
:101D5000F0E0EE0FFF1FEF53F94F0190F081E02DFF
:101D6000E017F10720F4FC01E082FB01F082BF5F85
:101D70008B2F90E06091BB0670E06150710986176F
:101D800097079CF2AF5FC0CF8091BB06815097E070
:101D9000811111C0A1E06091BB06861748F10FB612
:101DA000F8945EBF0FBE4DBFDF91CF911F910F9191
:101DB000FF90EF900895D901A80FB11DEC91F0E0CC
:101DC000EE0FFF1FEF53F94F608171811197EC9176
:101DD000F0E0EE0FFF1FEF53F94F0190F081E02D7F
:101DE0006E1B7F0B6931710508F0982F8150D0CFA1
:101DF000682F70E0620F731FFB016081E62FF0E037
:101E0000E956FA4F891718F0A0838F5FC4CF10826C
:101E1000FCCF8091060690910706019709F4BFCF89
:101E200080E09091BB06891708F0B9CFE82FF0E069
:101E3000E956FA4F10828F5FF4CFCF93DF9300D033
:101E400000D000D0CDB7DEB70E9489040E94A30065
:101E50000E94D7000E94790281E08093D3051092FE
:101E60002C0634E6432E512C612C712C2224239411
:101E70000E942C1CA30192010E9453276333710519
:101E80008105910508F4EDC08091D305882331F0D8
:101E90001092D30520922C060E94A60465E070E003
:101EA00080E090E00E94921C312C8091BB06381695
:101EB00008F4DAC00E948301BC01990F880B990BCA
:101EC0000E94D3282AE037ED43EA5AE30E9488298A
:101ED00021EC3AEC41E85FE30E9488292AE939E9DC
:101EE00049E95EE30E94B72720E030E040E251E498
:101EF0000E9488290E94A2287093AF066093AE06C4
:101F00000E946B000E942E01092E000CAA0BBB0B35
:101F1000B095A095909581959F4FAF4FBF4F8093FF
:101F2000020690930306A0930406B09305068091E1
:101F3000020690910306A0910406B0910506803E2A
:101F40009E42A105B105CCF4809102069091030652
:101F5000A0910406B09105068132914DAF4FBF4F5D
:101F600064F08091020690910306A0910406B0915E
:101F700005069093E2068093E10680910606909113
:101F80000706069709F0FAC08091F105882309F445
:101F9000F5C00E94EF010E94BA01092E000CAA0BA5
:101FA000BB0B8093020690930306A0930406B093A4
:101FB000050640E050E0BA018DE296E00E94DE1A8C
:101FC0008091020690910306A0910406B091050647
:101FD0009C01AD0166277727CB01621B730B840B35
:101FE000950B0E94D3282FE632E143E059E30E948B
:101FF000882923ED3EEF46ED52E40E94882924EA29
:1020000030E74DE25FE30E94B82720E030E04AE786
:1020100054E40E9488290E949B286093EB057093EA
:10202000EC058093ED059093EE058DE296E00E941D
:10203000761B0E94590E10E08091BB06181708F01D
:1020400017CFE12FF0E0DF01A956BA4F8C91E7528C
:10205000FA4F813009F0E8C080810E94E7021F5FDB
:10206000EBCF2092D3051ACF032D10E0F801E752F1
:10207000FA4F80810E9405036B017C019801220FB9
:10208000331F3E832D83F901EC51F94F408151817B
:102090005A834983F901E85FF94F808191819C83DC
:1020A0008B8396E09E9DB0019F9D700D112480E072
:1020B00090E00E94D1284B015C01A981BA81BD0149
:1020C00080E090E00E94D12820E030E040E85AE330
:1020D0000E9488299B01AC01C501B4010E94882996
:1020E0004B015C01EB81FC81BF0180E090E00E942C
:1020F000D1289B01AC01C501B4010E94B8270E9400
:10210000A228ED81FE81EF53F94F71836083000FA8
:10211000111F000F111FF801ED54FA4F80809180BC
:10212000A280B380ED81FE81ED52F94F00811181D3
:10213000FAEFCF1AF0E8DF0ACC0CDD1CB60180E024
:1021400090E00E94D128A50194010E9488296B018A
:102150007C01B80180E090E00E94D1289B01AC0195
:10216000C701B6010E94B8270E94A228ED81FE8116
:10217000EC50FA4F71836083339497CE0E940D0226
:102180000E94BA01092E000CAA0BBB0B8093020619
:1021900090930306A0930406B0930506809102066F
:1021A00090910306A0910406B09105068C3B9240E5
:1021B000A105B1050CF03DCF809102069091030678
:1021C000A0910406B091050685349D4FAF4FBF4FD7
:1021D0000CF42FCF40E050E0BA018DE296E00E946F
:1021E000DE1A6091E1067091E206072E000C880B62
:1021F000990B0E94D3282CEA35EC47E256E30E9463
:1022000088292FE632E143E85AE30E9429282DE786
:102210003EEA46E75FE30E94882929E839E241E186
:102220005CE30E94B727F1CE80810E94CA0217CFDB
:1022300010921207109211078091110790911207C6
:10224000079708F494C087E080933E0685EA96E0FD
:102250009093400680933F0681E090E0909339068A
:10226000809338061092430682E090E00E94242D6D
:102270009093D5058093D4058091D4059091D50590
:10228000892B31F08091D4059091D505019671F498
:1022900060E075E082E090E00E94372D82E090E0FF
:1022A0000E94242D9093D5058093D40584E090E07E
:1022B0000E94242D9093D2068093D1068091D1065E
:1022C0009091D206892B31F08091D1069091D2065F
:1022D000019671F461E075E084E090E00E94372D92
:1022E00084E090E00E94242D9093D2068093D10642
:1022F00086E090E00E94242D9093F3058093F205F0
:102300008091F2059091F305892B31F08091F205CF
:102310009091F305019671F462E075E086E090E03B
:102320000E94372D86E090E00E94242D9093F305C3
:102330008093F20588E090E00E941C2D8093D805E0
:102340008091D805882321F08091D8058F3F59F4DA
:1023500061E088E090E00E942A2D88E090E00E94F1
:102360001C2D8093D80587E0809313070895E09192
:102370001107F0911207EB55F94F10828091110768
:10238000909112070196909312078093110754CFF2
:102390000E94181180E00E94182118E08091D80551
:1023A00090E0982F8827977090933B0680933A0689
:1023B00010933E0680910606909107068093A5062D
:1023C0008091AE069091AF069093A6068091AE06DE
:1023D0009091AF068093A7068091EB059091EC0554
:1023E000A091ED05B091EE058B2FBB2787FDB09531
:1023F0009B2FAB2F8093A8068091EB059091EC0565
:10240000A091ED05B091EE05CD01BB2797FDB095EC
:10241000AB2F8093A9068091EB059091EC05A091DC
:10242000ED05B091EE05892F9A2FAB2FBB27A7FDA5
:10243000BA958093AA068091EB059091EC05A09146
:10244000ED05B091EE058093AB0680919E058093DB
:10245000AC0687E396E00E9425218111FACF87E33D
:1024600096E00E9400268130D1F38091B0069091D1
:10247000B106A091B206B091B3068B2FBB2787FDA2
:10248000B0959B2FAB2F8093A5068091B0069091BD
:10249000B106A091B206B091B306CD01BB2797FD5E
:1024A000B095AB2F8093A6068091B0069091B106AF
:1024B000A091B206B091B306892F9A2FAB2FBB27FC
:1024C000A7FDBA958093A7068091B0069091B106BA
:1024D000A091B206B091B3068093A80684E001E013
:1024E000C4E0D1E0909113079017B8F401E0909107
:1024F00013079017B8F12C2F280F2AC0EC2FF0E00B
:10250000A02FB0E0A956BA4F9C91EB55F94F90839C
:10251000CF5F0F5F815009F454C09091130790175B
:1025200068F7E0CF4C2F50E0E02FF0E0EE0FFF1FF8
:10253000EF53F94F60817181DA01AB55B94F7C934C
:1025400060817181FA01EA55F94F60830F5F825013
:10255000C22FC81B823008F450C090911307901707
:1025600008F7C5CF01E090911307901718F14C2F91
:10257000480F16C02C2F30E0E02FF0E0EE0FFF1FC9
:10258000EC50FA4F60817181D901AB55B94F7C9302
:1025900060817181F901EA55F94F60830F5F8250C4
:1025A000C42FC81B823008F444C0909113079017C1
:1025B00008F7D9CF64E670E080E090E00E94921CBA
:1025C000EDCE2091D8058D2F90E0922B97709093AF
:1025D0003B0680933A06C0933E0687E396E00E944E
:1025E0002521C82F8111F9CF87E396E00E940026AC
:1025F0008130D1F3DF5F88E075CF2091D8058D2F32
:1026000090E0922B977090933B0680933A06C0938C
:102610003E0687E396E00E942521C82F8111F9CF5D
:1026200087E396E00E9400268130D1F3DF5F88E0E7
:102630005ECF2091D8058D2F90E0922B97709093CC
:102640003B0680933A06C0933E0687E396E00E94DD
:102650002521C82F8111F9CF87E396E00E9400263B
:102660008130D1F3DF5F88E07ECF0C94C1040E94FB
:10267000C10464E670E080E090E00E94921CC0E03B
:102680008C2F0C2E000C990BC8303CF4C1307CF41C
:102690000E94C10416C0CFE0F3CFCF30FCF0CF30A2
:1026A000B9F70E948E0A81110CC0C0E00AC02091C7
:1026B000BB0630E02817390724F08FEF8C0F0E94FB
:1026C000CC07189BE8CF8091B406882399F0CF5FA0
:1026D000CF3009F4CEE01092B406D2CF2091BB06E1
:1026E000079730E02817390764F388EF8C0F0E94B2
:1026F000C308E7CF8091E306882311F2C15008F4A4
:10270000C0E01092E306BCCF089A109863E070E036
:1027100080E090E00E94921C109A63E070E080E0FC
:1027200090E00E94921CF1CF1092C0061092AD066C
:1027300080E09091BB06891720F08DE296E00C9422
:102740008C1AE82FF0E0E956FA4F10828F5FF1CF34
:1027500081E090E00E941C2D80939E0580919E0553
:10276000882321F080919E058F3F59F462E381E038
:1027700090E00E942A2D81E090E00E941C2D809321
:102780009E0580919E0508959091AD0680919E05CD
:10279000981751F080919E058093AD0660919E053B
:1027A00081E090E00C942A2D0895CF93DF9300D020
:1027B00000D0CDB7DEB70E949413412C512C3201CA
:1027C00014E63CE9832E99249A94A92CB92C809183
:1027D000060690910706892BD1F380910606909109
:1027E0000706019721F482B1806382B908C0809105
:1027F000060690910706039709F0B7C0149A80E087
:102800009091BB06891708F4B3C080E09091BB0695
:10281000891708F4C8C00E942C1C6B017C01DC01E4
:10282000CB0184199509A609B7092C013D0140E0A7
:1028300050E0BA018DE296E00E94DE1A6091EB054D
:102840007091EC058091ED059091EE052091B00618
:102850003091B1064091B2065091B30629833A8374
:102860004B835C83A30192010E940127A50194017F
:102870000E94752789819A81AB81BC81280F391FFD
:102880004A1F5B1F57FD2CC06091EB057091EC0552
:102890008091ED059091EE052091B0063091B10642
:1028A0004091B2065091B30629833A834B835C83EF
:1028B000A30192010E940127A50194010E9475279E
:1028C00089819A81AB81BC81280F391F4A1F5B1F08
:1028D0002093B0063093B1064093B2065093B306EE
:1028E0008DE296E00E94761B6091B0067091B10671
:1028F0008091B2069091B3060E94D32820E036ED75
:1029000043E05AE40E948329181664F56091B006EA
:102910007091B1068091B2069091B3060E94D328BF
:1029200028E03FEE4BE45DE40E94242887FF1AC0B4
:102930006091B0067091B1068091B2069091B30695
:102940000E94D32820E63EEF4DE45DE40E94292852
:1029500020E030E048EC52E40E9488290E94A2283E
:1029600060939E052601370132CF82B18F7C3DCF27
:10297000E82FF0E0EE0FFF1FEF53F94F2081318178
:1029800025373E4070F020E036EE4FED5CE02093BE
:10299000B0063093B1064093B2065093B30610933D
:1029A0009E058F5F2DCFE82FF0E0EE0FFF1FEF5356
:1029B000F94F208131812C383A4050F41092B00602
:1029C0001092B1061092B2061092B30610929E05B4
:1029D0008F5F1CCF139A81B1896381B91092F10581
:1029E00008950E94EA1491E080B182FB882780F963
:1029F00089278093F105209106063091070626303D
:102A0000310521F413988091F105EECF139AECCFA4
:102A10008EE390E09093D4068093D30686E490E012
:102A20009093D6068093D5068BE290E09093D806DB
:102A30008093D70689E390E09093DA068093D906D5
:102A400080E290E09093DC068093DB0681E390E0E7
:102A50009093DE068093DD068EE190E09093E00691
:102A60008093DF0687E79EEBAFE3BFE38093B30578
:102A70009093B405A093B505B093B6058AEA91EF9B
:102A8000A2E3BFE38093B7059093B805A093B9057F
:102A9000B093BA058FE892ECA5E5BFE38093BB0540
:102AA0009093BC05A093BD05B093BE0584E69BE35F
:102AB000AFE3BFE38093BF059093C005A093C1052A
:102AC000B093C2058FE395E3AEE5BFE38093C30502
:102AD0009093C405A093C505B093C6058CE497E315
:102AE000A9E4BFE38093C7059093C805A093C905E7
:102AF000B093CA058FE29DEDA4E6BFE38093CB05BA
:102B00009093CC05A093CD05B093CE0510924A06C4
:102B100010924B0610924E0610924D0610924C06E3
:102B2000C0E0D0E08091BB0690E0C817D9070CF454
:102B30007AC010920706109206060E94A81380938E
:102B40009E0560919E0570E080E090E00E94D12893
:102B500020E030E048EC52E40E94292820E63EEFD5
:102B60004DE45DE40E9488290E94A2286093B0068B
:102B70007093B1068093B2069093B3060E94C4137B
:102B8000C4E0D0E07724739462E0662E06E010E0A3
:102B9000EE24E394F12CE3E08E2E912CF5E0CF2E81
:102BA000D12CA2E0AA2EB12C0E94C41340E0809147
:102BB000BB06481708F44CC08091AE069091AF0652
:102BC00081349145A4F0D0930706C0930606609225
:102BD0002B0670924A0660924B068091AE06909149
:102BE000AF0690934E0680934D0610924C0680914E
:102BF000060690910706049709F4B6C08091060670
:102C0000909107068230910509F4A9C008F05AC0D6
:102C1000009709F469C0019709F493C0D09307069F
:102C2000C0930606C1CFFE01E752FA4F80810E9491
:102C3000C6039E01220F331FF901EC51F94F718336
:102C40006083F901E85FF94F9183808321966ACF11
:102C5000842F90E0880F991FFC01EC50FA4F2081DF
:102C600031812935324090F0D0930706C093060693
:102C700010922B0670924A0610924B0620813181E9
:102C800030934E0620934D0640934C06FC01EF53C3
:102C9000F94F80819181813A9F4090F0D09307064F
:102CA000C093060670922B0670924A0670924B06ED
:102CB0008081918190934E0680934D0640934C06FF
:102CC0004F5F75CF85309105B1F186309105B9F030
:102CD000039709F0A3CF8091A306882359F0809130
:102CE0009E05811161CF0FC068EC70E080E090E03C
:102CF0000E94921C109307060093060655CF809100
:102D00009E05811105C0D0920706C09206064CCFE1
:102D10008091C006882329F0F0920706E09206060B
:102D200043CF8091A306882309F43ECF90920706F3
:102D30008092060639CF8091C006882309F434CFEB
:102D4000EBCF8091C0068823A9F280919E0584363E
:102D500008F42ACFB0920706A092060625CF8091EC
:102D6000C006811121CFC6CF10924A0626E030E07E
:102D700060E08091BB06681790F08091AE0690915C
:102D8000AF068134914534F060922B0670924A066A
:102D900024E030E0309307062093060605CF862F07
:102DA00090E0880F991FFC01EC50FA4F408151814F
:102DB0004935524030F010922B0670924A0624E0BA
:102DC00030E08F53994FFC0180819181813A9F407F
:102DD00030F070922B0670924A0624E030E06F5F6C
:102DE000C8CF80E881B98EE087B912B818B880E4FE
:102DF00084B990E595B98DB98EB908950E94F11600
:102E00001C99429A1D9B02C0179A439A0895AF924B
:102E1000BF92CF92DF92EF92FF920F931F9388ECB5
:102E2000A82EB12CC12CD12C9FE4E92E95E0F92ECF
:102E300000E010E098014EEF56E160E180E595E09A
:102E40000E949C181F910F91FF90EF90DF90CF9000
:102E5000BF90AF9008952F923F924F925F926F92E2
:102E60007F928F929F92AF92BF92CF92DF92EF921A
:102E7000FF920F931F93CF93DF930DB71EB7C82F09
:102E8000D92F08831983C62FD72F088119810DBF29
:102E90001EBFDF91CF911F910F91FF90EF90DF90B8
:102EA000CF90BF90AF909F908F907F906F905F90EA
:102EB0004F903F902F900895C82FD92F08811981E6
:102EC0000DBF1EBFDF91CF911F910F91FF90EF902B
:102ED000DF90CF90BF90AF909F908F907F906F903A
:102EE0005F904F903F902F901895FFCF8091640591
:102EF000909165050196909365058093640508950A
:102F00008091640590916505892B29F4809177055E
:102F100090917805089580E090E00895CF93DF9335
:102F2000FB01009759F1309749F1DC01CD91DC911B
:102F3000DE019E01109731F112965C911297428149
:102F40004517B0F4CA17DB0739F5DC01ED93FC93A4
:102F500012861186D487C387FA87E98780E00FC07D
:102F60003287218714861386E901FC87EB87F6CF29
:102F70009D011B960D90BC91A02DDCCF89ECDF91BB
:102F8000CF910895CD2B61F7DC01ED93FC93128670
:102F9000118614861386E2CF32872187B487A387F0
:102FA000E901FC87EB871A96FC93EE931997D6CF2D
:102FB000CF93DF930097C1F0DC01ED91FC91309746
:102FC00079F0A385B485EC01B983A883109721F02B
:102FD0001A961C921E9219971286118614861386D1
:102FE000CF01DF91CF910895E0E0F0E0F9CFCF93EA
:102FF000DF93AC01FB010097A9F1DC012D913C911D
:103000002115310579F1D901E901EA17FB0709F525
:10301000A385B4852E173F0789F4EA01B983A883F5
:10302000109721F01A961C921E92199714861386F7
:1030300012861186CF01DF91CF910895BC87AB87AF
:10304000A385B485109791F31A96DC93CE931997C4
:10305000EDCF1B968D919C911C97ED01009759F334
:10306000DC01D3CF80E090E0E6CFCF93DF930097F1
:10307000C9F0DC01ED91FC91309781F0228162175B
:1030800088F0A385B485EC01B983A883109731F04B
:103090001A961C921E92199714861386CF01DF91FF
:1030A000CF910895E0E0F0E0F9CFFF920F931F93E6
:1030B000CF93DF93909161059923D1F0FFB6F894F7
:1030C000C0917705D09178059D859130B9F482E65D
:1030D00095E00E94D817C817D90741F0909378055A
:1030E00080937705BC01CE010E942B171D86FFBE81
:1030F000DF91CF911F910F91FF9008956A818130E8
:10310000A9F482E695E00E9435188C01892B79F3A9
:10311000BE0182E695E00E948E17C017D10731F3F9
:103120001093780500937705B801DDCF6623F9F297
:1031300070E061507109E5CFAF92BF92CF92DF92FC
:10314000EF92FF920F931F93CF93DF93EC010097C1
:1031500009F43FC041155105E1F1E114F104C9F151
:10316000AB28AC28AD28A9F11D866A831A8619867A
:103170001C861B86188A1F865C834B830D831E83E7
:103180002F833887B7010E94D81F1FB7F894BE015C
:1031900082E695E00E948E17C82F1FBF882369F032
:1031A000CCEC8C2FDF91CF911F910F91FF90EF907E
:1031B000DF90CF90BF90AF900895809161058130EE
:1031C00081F70E948017892B61F380E00E945518D7
:1031D000E8CFC9ECE6CFAF92BF92CF92DF92EF92E9
:1031E000FF920F931F93109278051092770510921B
:1031F000630510926205109261055A016B017C0112
:1032000000E010E0980145E757E16FEF86E695E0B2
:103210000E949C181F910F91FF90EF90DF90CF902C
:10322000BF90AF90089520916405309165052150BD
:10323000310930936505209364050C94551881E09D
:10324000809361056FEF82E695E00E943518009744
:1032500031F090937805809377050C945C1708956E
:103260001F93CF93DF93EC01892BA1F01FB7F89444
:103270006881798182E0FB018687108A17868A81BE
:103280009B810E94F7176881798182E695E00E9410
:103290008E171FBFDF91CF911F910895009731F0D6
:1032A000FC0162831182108280E0089589EC089508
:1032B000DF92EF92FF920F931F93CF93DF937C01E6
:1032C000892BD1F100E08AECD82E1FB7F894C70102
:1032D0000E94D817EC01009761F1DE86BC0182E6FE
:1032E00095E00E948E178823A1F01FBFCCEC01301F
:1032F00039F40E948017892B19F080E00E9455183C
:103300008C2FDF91CF911F910F91FF90EF90DF9065
:1033100008958F859889009749F00E94021C8823A0
:1033200019F01FBFCDECE3CF188A1F861FBF01E045
:10333000CCCF1FBFC0E0DBCFC9ECE2CF8F929F9212
:10334000AF92BF92DF92EF92FF920F931F93CF93B2
:10335000DF93CDB7DEB72E970FB6F894DEBF0FBE62
:10336000CDBF7C014A015B01009709F468C0DFB65C
:10337000F894FC01828181115CC077FD57C00E94E6
:1033800080178C01009709F44EC0BC01C7010E9450
:103390008E178823A1F0DFBE8CEC2E960FB6F89422
:1033A000DEBF0FBECDBFDF91CF911F910F91FF9078
:1033B000EF90DF90BF90AF909F908F90089591E035
:1033C000F801958781149104A104B10441F11C878F
:1033D0000B87FE86ED8680E399E19A838983CE018F
:1033E0000B969C838B838D829E82AF82B8860A97D0
:1033F000908B87870E94DD1B882349F0B801C701A5
:103400000E94F717F8011586108A17868DECDFBE2B
:103410008111C3CF0E945518F8018685BECFF801EF
:10342000108A1786F4CFDFBE88ECB7CFDFBE83E00B
:10343000B4CF8150F7018283DFBE80E0AECF89EC4C
:10344000ACCF0F931F93CF93DF930097E9F1DFB7D2
:10345000F894FC0120813181232B59F10E94D81767
:103460008C01BC0182E695E00E948E17C82F88234C
:1034700041F0DFBFCCEC8C2FDF91CF911F910F91EA
:103480000895F801168687859089009761F4F80100
:10349000108A1786DFBF0E948017892B61F380E0B6
:1034A0000E945518E8CF0E94021C882381F3CDECBE
:1034B000F1CFFC0122812F3F29F02F5F2283C0E052
:1034C000DFBFD9CFCBECFCCFC9ECD5CF009721F033
:1034D000FC01628380E0089589EC08951F93CF93E7
:1034E000DF93EC01892BA1F01FB7F89468817981F3
:1034F00082E0FB018687108A17868A819B810E9461
:10350000F7176881798182E695E00E948E171FBFC8
:10351000DF91CF911F910895FC01892B39F013821F
:10352000128214821182108280E0089589EC08953D
:10353000DF92EF92FF920F931F93CF93DF937C0163
:10354000892BD1F100E08AECD82E1FB7F894C7017F
:103550000E94D817EC01009761F1DE86BC0182E67B
:1035600095E00E948E178823A1F01FBFCCEC01309C
:1035700039F40E948017892B19F080E00E945518B9
:103580008C2FDF91CF911F910F91FF90EF90DF90E3
:1035900008958F859889009749F00E94021C88231E
:1035A00019F01FBFCDECE3CF188A1F861FBF01E0C3
:1035B000CCCF1FBFC0E0DBCFC9ECE2CF8F929F9290
:1035C000AF92BF92DF92EF92FF920F931F93CF9330
:1035D000DF93CDB7DEB72E970FB6F894DEBF0FBEE0
:1035E000CDBF7C014A015B01892B09F47DC00E949B
:1035F00080178C01DFB6F8940097A1F4DFBE88EC49
:103600002E960FB6F894DEBF0FBECDBFDF91CF91DF
:103610001F910F91FF90EF90DF90BF90AF909F9020
:103620008F900895F701228133812115310509F426
:103630004CC08217930709F448C0B7FC43C0BC01D3
:10364000C7010E948E17882319F0DFBE8CECD8CFFB
:1036500091E0F801958781149104A104B10471F1FE
:103660001C870B87FE86ED868EE69AE19A83898316
:10367000CE010B969C838B838D829E82AF82B8860F
:103680000A97908B87870E94DD1B882349F0B80139
:10369000C7010E94F717F8011586108A17868DEC6E
:1036A000DFBE8111ADCF0E945518F80186858111CA
:1036B000A7CFF70194819F5F9483A2CFF801108A6E
:1036C0001786EECFDFBE83E09BCFF70184818F3F6B
:1036D00041F08F5F8483232B11F41383028380E0F6
:1036E00001C08BECDFBE8CCF89EC8ACFEF92FF92CA
:1036F0000F931F93CF93DF938C01892B09F44CC058
:103700000E948017DFB7F894F80122813381821775
:10371000930751F0DFBFCFEC8C2FDF91CF911F913A
:103720000F91FF90EF900895F801C481C150C483B8
:10373000C1112FC01382128280819181892B39F1AE
:10374000C8010E94D8177C01BC0182E695E00E9466
:103750008E17C82F882319F0DFBFCCECDDCFF7011F
:103760001686F801F382E282F70187859089009737
:1037700041F4F701108A1786DFBF80E00E945518D8
:10378000CBCF0E94021C8823A1F3CDECF5CFDFBF85
:10379000C3CFDFBFC0E0C0CFC9ECBECFCF9300978F
:1037A00051F0CFB7F894FC016081718182E695E019
:1037B0000E948E17CFBFCF910895FC01892B01F194
:1037C00080819181892BE1F084819581A681B781E7
:1037D000892B8A2B8B2BA1F02FB7F89480917D0534
:1037E00090917E05009749F411861086F0937E052E
:1037F000E0937D052FBF80E0089591878087F6CF05
:1038000089EC0895BC01892B29F15FB7F8942091C8
:103810007D0530917E05F901D901309711F48EECC8
:103820000DC040859185E617F70781F4E217F3078D
:1038300039F440937D0590937E0580E05FBF089545
:1038400018964C93189719969C93F7CFDF01E42FA5
:10385000F92FE3CF89EC08956091790570917A058D
:1038600080917B0590917C05089560937905709314
:103870007A0580937B0590937C0508950F931F93A1
:10388000CF93DF93809161058823D1F080917905F2
:1038900090917A05A0917B05B0917C050196A11DC0
:1038A000B11D8093790590937A05A0937B05B09321
:1038B0007C0500917D0510917E05E801209729F493
:1038C000DF91CF911F910F9108958C819D81AE81E1
:1038D000BF810197A109B1098C839D83AE83BF830A
:1038E000892B8A2B8B2BE1F420917D0530917E056D
:1038F00088859985C217D30779F490937E058093C4
:103900007D05E881F981309719F08A819B810995BD
:103910000884D985C02DD2CFF80191878087F1CF57
:103920008E01F6CFCF92DF92EF92FF920F931F930B
:10393000CF93DF93CDB7DEB72C970FB6F894DEBFE9
:103940000FBECDBF6B017C010E948017FC01C1142A
:10395000D104E104F10491F1892B91F10FB7F894AE
:1039600081E08587FC87EB878EEC9BE19A838983D6
:10397000CE010B969C838B83CD82DE82EF82F8860C
:103980000A97908B87870E94DD1B182F0FBF882313
:1039900089F01DEC812F2C960FB6F894DEBF0FBE78
:1039A000CDBFDF91CF911F910F91FF90EF90DF90EE
:1039B000CF90089580E00E945518ECCF19ECEACF23
:1039C00018ECE8CF1F93CF93DF93EC01892BA1F084
:1039D0001FB7F8946881798182E0FB018687108A9D
:1039E00017868C819D810E94F7176881798182E614
:1039F00095E00E948E171FBFDF91CF911F91089510
:103A0000CF92DF92EF92FF920F931F93CF93DF93AA
:103A1000EC01CB016C817D812A893B89620F731F88
:103A20004E815F810E94F5292E813F81488559850D
:103A3000CA88DB88EC88FD88C20ED31EE41EF51E02
:103A4000CA8ADB8AEC8AFD8A8E899F89A88DB98D06
:103A50000197A109B1098E8B9F8BA88FB98F6A85B9
:103A60007B858C859D850E940127C616D706E806B2
:103A7000F90620F01A8A1B8A1C8A1D8ACE010E9430
:103A8000D8178C01009709F1BC0182E695E00E94ED
:103A90008E17C82F81111BC0F80116868785908963
:103AA000009769F4F801108A17868C2FDF91CF9167
:103AB0001F910F91FF90EF90DF90CF9008950E949B
:103AC000021C882379F3CDECF0CFC0E0EECFCCEC34
:103AD000ECCFCF92DF92EF92FF920F931F93CF9391
:103AE000DF93EC012C813D818E859F854E815F8126
:103AF000820F931F0E94F5292E813F8148855985A9
:103B0000CE84DF84E888F988C20ED31EE41EF51E39
:103B1000CE86DF86E88AF98A8E899F89A88DB98D3D
:103B20000196A11DB11D8E8B9F8BA88FB98F6A85C1
:103B30007B858C859D850E940127C616D706E806E1
:103B4000F90620F01E861F86188A198ACE01029671
:103B50000E94D8178C01009709F1BC0182E695E01C
:103B60000E948E17C82F81111BC0F8011686878509
:103B70009089009769F4F801108A17868C2FDF91DD
:103B8000CF911F910F91FF90EF90DF90CF9008950C
:103B90000E94021C882379F3CDECF0CFC0E0EECF79
:103BA000CCECECCFEF92FF920F931F93FC01892B8B
:103BB00069F16115710551F1211531054105510575
:103BC00029F1E114F1040105110501F17583648304
:103BD0002683378340875187E286F38604871587DB
:103BE000118210821382128216861786108A118A19
:103BF000128A138A148A158A168A178A108E118ED1
:103C000080E01F910F91FF90EF90089589ECF9CF1C
:103C1000BF92CF92DF92EF92FF920F931F93CF93B9
:103C2000DF937C01009709F446C000E06C0182E05C
:103C3000C80ED11C8AECB82E1FB7F894C6010E949A
:103C4000D817EC01892B31F4C7010E94D817EC0179
:103C5000892B71F1BE86BE0182E695E00E948E1727
:103C60008823B1F01FBFCCEC013039F40E948017DB
:103C7000892B19F080E00E9455188C2FDF91CF918D
:103C80001F910F91FF90EF90DF90CF90BF9008951C
:103C90008F859889009749F00E94021C882319F0AB
:103CA0001FBFCDECE1CF188A1F861FBF01E0C4CF34
:103CB0001FBFC0E0D9CFC9ECE0CF4F925F926F92A7
:103CC0007F928F929F92AF92BF92CF92DF92EF92AC
:103CD000FF920F931F93CF93DF93CDB7DEB760971B
:103CE0000FB6F894DEBF0FBECDBF6C012A013B01B9
:103CF0005901009709F494C02115310509F490C0C9
:103D00000FB7F894FC0186899789A08DB18D892B16
:103D10008A2B8B2B09F076C077FD71C00E9480172B
:103D20007C01009709F468C04601F2E08F0E911CF7
:103D3000BC01C4010E948E17182F81115AC081E066
:103D4000F7018587411451046104710409F44DC0E1
:103D5000FC86EB86DE86CD86988A8F8682EE9CE195
:103D60009A838983CE010B969C838B834D825E82DE
:103D70006F8278860A97908B87870E94DD1B182FA9
:103D8000882349F0B701C4010E94F717F70115868F
:103D9000108A17861DEC0FBF11110FC080E00E9422
:103DA0005518F7011685111108C00FB7F894B50121
:103DB000C6010E94001D182F0FBF812F60960FB6FD
:103DC000F894DEBF0FBECDBFDF91CF911F910F9151
:103DD000FF90EF90DF90CF90BF90AF909F908F902B
:103DE0007F906F905F904F900895F701108A17862B
:103DF000D2CF0FBF1CECE1CF0FBF18ECDECF0FBF4F
:103E000013E0DBCFB901C6010E94001D182F0FBFC0
:103E10000E948017892B89F280E00E945518CDCF2F
:103E200019ECCBCF4F925F926F927F92AF92BF927D
:103E3000CF92DF92EF92FF920F931F93CF93DF9376
:103E4000CDB7DEB760970FB6F894DEBF0FBECDBF1B
:103E50006C012A013B015901009709F493C0211517
:103E6000310509F48FC00FB7F894FC0146895789D2
:103E7000608D718D82859385A485B5854817590716
:103E80006A077B0709F070C077FC6BC00E9480173F
:103E90007C01009709F462C0BC01C6010E948E1724
:103EA000182F811158C081E0F70185874114510412
:103EB0006104710409F44BC0FC86EB86DE86CD8676
:103EC000D88ACF8682EE9CE19A838983CE010B96B5
:103ED0009C838B834D825E826F8278860A97908B5B
:103EE00087870E94DD1B182F882349F0B701C60180
:103EF0000E94F717F7011586108A17861DEC0FBF71
:103F000011110FC080E00E945518F701168511119C
:103F100008C00FB7F894B501C6010E94691D182F9B
:103F20000FBF812F60960FB6F894DEBF0FBECDBFD6
:103F3000DF91CF911F910F91FF90EF90DF90CF9085
:103F4000BF90AF907F906F905F904F900895F70172
:103F5000108A1786D4CF0FBF1CECE3CF0FBF18EC2D
:103F6000E0CF0FBF13E0DDCFB901C6010E94691D8C
:103F7000182F0FBF0E948017892B99F280E00E94B2
:103F80005518CFCF19ECCDCF0E94801778940097A9
:103F900071F0DC011396ED91FC911497309739F094
:103FA00015966D917D918D919C9118970994089526
:103FB00024EC3FE1FB01208331973083319710825D
:103FC0003197108231971082319710823197108289
:103FD0003197108231971082319710823197108279
:103FE0003197108231971082319710823197108269
:103FF0003197108231971082319710823197108259
:104000003197108264517109FC01718360830895B6
:1040100086E891E0909389008093880082E0809305
:104020006F008CE08093810008951F920F920FB66D
:104030000F9211240BB60F922F933F934F935F93E0
:104040006F937F938F939F93AF93BF93EF93FF9360
:104050000E9476170E943E1C81E00E941319FF9176
:10406000EF91BF91AF919F918F917F916F915F91F0
:104070004F913F912F910F900BBE0F900FBE0F905D
:104080001F9018951F920F920FB60F9211240F9048
:104090000FBE0F901F9018958AE28093B8008FEFA3
:1040A0008093BB0084E08093BC0008958091BC00A5
:1040B000817008958091BC0080FDFCCF809100014B
:1040C00008952091BC0020FDFCCF60938105FC0188
:1040D00020812093820520FF09C010927F0588EF80
:1040E0008093000185EA8093BC000895FC0131961D
:1040F000A3E8B5E081E0861780F791919D938F5FEB
:10410000FACF8091BC0080FDFCCF10927F0588EF34
:104110008093000185EA8093BC0008952091BC0043
:1041200020FDFCCF20917F0520FD04C080917F05FC
:1041300081700895A2E8B5E0282FFC018E2F821B24
:104140008617A0F78D918193F9CF1F920F920FB62A
:104150000F9211240BB60F922F933F938F939F933F
:10416000EF93FF938091B900883249F0D0F4803109
:1041700021F0883121F08830D1F410928005E0914F
:10418000800580918105E81720F581E08E0F8093EE
:104190008005F0E0EE57FA4F80818093BB0085E800
:1041A00036C0803449F148F4883309F43FC0809127
:1041B000B9008093000184E02AC0803589F08835F9
:1041C000B1F78091BB00E0918005F0E0EE57FA4F27
:1041D000808380917F05816080937F0584E917C08B
:1041E000E091800581E08E0F809380058091BB0077
:1041F000F0E0EE57FA4F80832091800530E0809107
:10420000810590E00197281739074CF685EC8093DB
:10421000BC00FF91EF919F918F913F912F910F9053
:104220000BBE0F900FBE0F901F90189585EAEFCF31
:104230000E94D026882341F00E9487268091D800D2
:1042400082608093D80081E008950F931F93CF93ED
:10425000DF9300D000D0CDB7DEB78C01DC01119622
:104260008D919C9112970C97F1F41A968C911A9754
:10427000803669F48C918295807F8093ED008091E7
:10428000EF008F738093EF001092EE001C92F80104
:10429000128680E00F900F900F900F90DF91CF91DA
:1042A0001F910F9108950E9494268F3F09F4A4C492
:1042B00090E6D8011A969C931A978C938295807FEA
:1042C0008093ED00EEEEF0E01192E83FF105E1F7AA
:1042D000D8011196ED91FC9112973197EB30F105D1
:1042E00008F086C4EA58FE4D0C949427BF2128227A
:1042F0009622F9222B2363239E233424B224812186
:10430000552580E0F8019781891708F4C2C3198206
:104310001A821B821C821092F7008B81880F880FF3
:10432000880F9A81929596959770890F8093F600E1
:104330008A81880F880F880F99819295969597703A
:10434000890F8093F5008981880F880F880F8093EB
:10435000F4008091EF009781892B8093EF0081E03A
:1043600083878091F40084608093F4008091F00052
:1043700084608093F0008091EF008062DCC1F801DE
:104380008485882309F43FC08681880F880F880FB1
:104390009581929596959770890F8093F30085810A
:1043A000880F880F880F9481929596959770890F42
:1043B0008093F2008481880F880F880F93819295F3
:1043C00096959770890F8093F1008381880F880FED
:1043D000880F8093F0008091EF0080618093EF0060
:1043E00080E0F8019781891718F18385882361F1AE
:1043F0008091F00084608093F0008091EF00D801FC
:1044000017969C9164C084818295880F807E9381E9
:10441000969596959695890F8093F3008381829562
:10442000880F807E8093F2008091EF008F7ED6CF40
:10443000D8011896ED91FC911997E80FF11D908124
:104440009093FA008F5FCDCF8091F0008B7FD3CF18
:10445000F8018485882309F448C08681880F880F75
:10446000880F9581929596959770890F8093F300A8
:104470008581880F880F880F948192959695977003
:10448000890F8093F2008481880F880F880F9381B1
:10449000929596959770890F8093F1008381880F8C
:1044A000880F880F8093F0008091EF0080618093E7
:1044B000EF0080E0F8019781891760F11386809101
:1044C000F0008B7F8093F0008091EF009781892B23
:1044D0008093EF008091EF008F738093EF008091C5
:1044E000EF0080648093EF00D4CE84818295880FA2
:1044F000807E9381969596959695890F8093F3008B
:1045000083818295880F807E8093F2008091EF00F6
:104510008F7ECDCFD8011896ED91FC911997E80FB9
:10452000F11D90819093FA008F5FC4CFD8011C9643
:104530008C911C97882309F446C016968C91169787
:10454000880F880F880F15969C91159792959695D0
:104550009770890F8093F30015968C911597880FAB
:10456000880F880F14969C91149792959695977042
:10457000890F8093F20014968C911497880F880FFE
:10458000880F13969C911397929596959770890F23
:104590008093F10013968C91880F880F880F809379
:1045A000F0008091EF0080618093EF0081E0D801FE
:1045B0001B968C931B978091F00084608093F00091
:1045C0008091EF001DCFF80184818295880F807E55
:1045D0009381969596959695890F8093F3008381A4
:1045E0008295880F807E8093F2008091EF008F7E0D
:1045F000DBCF19821A821B821C821092F7008B81FA
:10460000880F880F880F9A81929596959770890FD9
:104610008093F6008A81880F880F880F9981929580
:1046200096959770890F8093F5008981880F880F80
:10463000880F8093F4008091EF00F8019781892B17
:104640008093EF008091F4008B7F8093F400809141
:10465000F4008E7FE8C019821A821B821C8210929D
:10466000F7008B81880F880F880F9A819295969515
:104670009770890F8093F6008A81880F880F880FC2
:104680009981929596959770890F8093F50089810D
:10469000880F880F880F8093F4008091EF00D80175
:1046A00017969C911797892B8093EF001B961C926D
:1046B0008091F40084608093F4008091F0008B7FFF
:1046C0008093F000C4CF19821A821B821C82109240
:1046D000F7008B81880F880F880F9A8192959695A5
:1046E0009770890F8093F6008A81880F880F880F52
:1046F0009981929596959770890F8093F50089819D
:10470000880F880F880F8093F4008091EF00F801E4
:104710009781892B8093EF0081E083878091F4005B
:1047200084608093F4008091F00084608093F000B6
:104730008091EF008F7D8093EF0089CFD8011C9688
:104740008C911C97882309F479C016968C91169742
:10475000880F880F880F15969C91159792959695BE
:104760009770890F8093F30015968C911597880F99
:10477000880F880F14969C91149792959695977030
:10478000890F8093F20014968C911497880F880FEC
:10479000880F13969C911397929596959770890F11
:1047A0008093F10013968C91880F880F880F809367
:1047B000F0008091EF0080618093EF008FEF9FEF1A
:1047C000DC0189839A83AB83BC838093F7008B8160
:1047D000880F880F880F9A81929596959770890F08
:1047E0008093F6008A81880F880F880F99819295AF
:1047F00096959770890F8093F5008981880F880FAF
:10480000880F8093F4008091EF00D80117969C9157
:10481000892B8093EF008091F4008B7F8093F400CC
:104820008091F40081608093F4008091EF008F7399
:104830008093EF008091EF00806854CEF80184816E
:104840008295880F807E9381969596959695890F8F
:104850008093F30083818295880F807E8093F2009D
:104860008091EF008F7EA8CFF8018485882309F41A
:1048700064C08681880F880F880F958192959695E0
:104880009770890F8093F3008581880F880F880FB8
:104890009481929596959770890F8093F200848108
:1048A000880F880F880F9381929596959770890F3E
:1048B0008093F1008381880F880F880F8093F00028
:1048C0008091EF0080618093EF008FEF9FEFDC011C
:1048D00089839A83AB83BC838093F7008B81880F95
:1048E000880F880F9A81929596959770890F80937B
:1048F000F6008A81880F880F880F99819295969586
:104900009770890F8093F5008981880F880F880F31
:104910008093F4008091EF00F8019781892B8093B8
:10492000EF0013868091F40084608093F4008091FE
:10493000F0008B7F8093F00073CF84818295880F85
:10494000807E9381969596959695890F8093F30036
:1049500083818295880F807E8093F2008091EF00A2
:104960008F7EB1CFD8011C968C911C97882309F4B7
:104970007AC016968C911697880F880F880F159617
:104980009C911597929596959770890F8093F30057
:1049900015968C911597880F880F880F14969C9107
:1049A0001497929596959770890F8093F2001496BC
:1049B0008C911497880F880F880F13969C911397EA
:1049C000929596959770890F8093F10013968C912C
:1049D000880F880F880F8093F0008091EF0080612E
:1049E0008093EF008FEF9FEFDC0189839A83AB8385
:1049F000BC838093F7008B81880F880F880F9A8182
:104A0000929596959770890F8093F6008A81880F0A
:104A1000880F880F9981929596959770890F80934A
:104A2000F5008981880F880F880F8093F4008091AA
:104A3000EF00D80117969C911797892B8093EF0070
:104A400081E01B968C938091F40084608093F40045
:104A50008091F00084608093F0008091EF008F7D62
:104A60008093EF00DDCEF80184818295880F807EEF
:104A70009381969596959695890F8093F3008381FF
:104A80008295880F807E8093F2008091EF008F7E68
:104A9000A7CFD8011896ED91FC911997E80FF11D59
:104AA00090819093FA008F5F2DCCD8011C968C9149
:104AB0001C97882309F47AC016968C911697880F54
:104AC000880F880F15969C911597929596959770DB
:104AD000890F8093F30015968C911597880F880F96
:104AE000880F14969C911497929596959770890FBC
:104AF0008093F20014968C911497880F880F880F7A
:104B000013969C911397929596959770890F809321
:104B1000F10013968C91880F880F880F8093F00016
:104B20008091EF0080618093EF0080E0F801978131
:104B3000891708F451C08FEF9FEFDC0189839A83B6
:104B4000AB83BC838093F7008B81880F880F880F1D
:104B50009A81929596959770890F8093F6008A8135
:104B6000880F880F880F9981929596959770890F75
:104B70008093F5008981880F880F880F8093F40057
:104B80008091EF009781892B8093EF0081E08387EC
:104B90008091F40084608093F4008091F000846040
:104BA0008093F0008091EF0080625ACFF8018481F9
:104BB0008295880F807E9381969596959695890F1C
:104BC0008093F30083818295880F807E8093F2002A
:104BD0008091EF008F7EA7CFD8011896ED91FC91C0
:104BE0001997E80FF11D90819093FA008F5F9ECF87
:104BF000D8011A961C924DCB9FE1F80192874ACBBF
:104C00001F93CF93DF93EC018A858823D1F08F31F6
:104C1000C1F08F3FB1F088818295807F8093ED0055
:104C20000E94A926182F803299F068F4882309F48D
:104C30006CC01A878091EF008F738093EF00109201
:104C4000EE0082E04CC0803409F440C0803A89F71D
:104C50008091EF008F708F83888599850E94BC2694
:104C60008091F00082FB882780F98B878091EF008C
:104C700084FF39C081E08C878091F300869586950A
:104C800086958E838091F2009091F30086958695AB
:104C900086959295990F907E890F8D838091F10072
:104CA0009091F2008695869586959295990F907EC3
:104CB000890F8C838091F0009091F1008695869504
:104CC00086959295990F907E890F8B831A87809194
:104CD000EF008F738093EF001092EE0080E0DF9181
:104CE000CF911F9108951C868091F300829586953F
:104CF00087708C838091F2009091F3008295869565
:104D00008770990F990F990FDFCF81E0E8CF80E08E
:104D10008093ED00EEEEF0E01192E83FF105E1F74F
:104D2000805F8036A9F708953091ED0090E080E033
:104D30009093ED002091EF00207C19F43093ED006A
:104D400008958F5F905F863099F73093ED008FEF75
:104D500008958091EF00807C69F09091EE00892F9A
:104D6000807E803241F0803431F0803A21F0892F0A
:104D70008F7108958FEF0895BC0190E02091EF00AE
:104D8000492F50E02F7030E0421753070CF0089580
:104D90008091FA00460F571FFA0180839F5FEECF84
:104DA00081E08093D80088E08093E2008CE08093DB
:104DB000E30087E38093E40081E00895681708F436
:104DC000682F862F089587E893E09EBF8DBF40E04F
:104DD00051E060E070E087E894E00E94EB188111F8
:104DE00008C00E9408200E940717811102C00E947B
:104DF0001F198FEF81B992B181E0911180E082B9E2
:104E0000FACFDB018F939F930E949D27BF91AF91B3
:104E1000A29F800D911DA39F900DB29F900D112414
:104E20000895991B79E004C0991F961708F0961B06
:104E3000881F7A95C9F78095089587FB082E062666
:104E400087FD819567FD61950E9411270EF491956C
:104E500007FC81950895AA1BBB1B51E107C0AA1F3F
:104E6000BB1FA617B70710F0A61BB70B881F991F0B
:104E70005A95A9F780959095BC01CD01089597FBAF
:104E8000072E16F4009407D077FD09D00E942B2737
:104E900007FC05D03EF4909581959F4F089570953D
:104EA00061957F4F0895A1E21A2EAA1BBB1BFD013D
:104EB0000DC0AA1FBB1FEE1FFF1FA217B307E407F9
:104EC000F50720F0A21BB30BE40BF50B661F771F51
:104ED000881F991F1A9469F7609570958095909531
:104EE0009B01AC01BD01CF010895052E97FB1EF477
:104EF00000940E948C2757FD07D00E94532707FC7F
:104F000003D04EF40C948C27509540953095219504
:104F10003F4F4F4F5F4F08959095809570956195E5
:104F20007F4F8F4F9F4F0895EE0FFF1F0024001CEF
:104F30000BBE0790F691E02D09940E94A827A59F2B
:104F4000900DB49F900DA49F800D911D1124089584
:104F5000A29FB001B39FC001A39F700D811D1124BA
:104F6000911DB29F700D811D1124911D08955058FF
:104F7000BB27AA270E94CF270C9449290E943B29CE
:104F800038F00E94422920F039F49F3F19F426F4AA
:104F90000C9438290EF4E095E7FB0C943229E92FA4
:104FA0000E945A2958F3BA176207730784079507B6
:104FB00020F079F4A6F50C947C290EF4E0950B2EE4
:104FC000BA2FA02D0B01B90190010C01CA01A0015B
:104FD0001124FF27591B99F0593F50F4503E68F1B6
:104FE0001A16F040A22F232F342F4427585FF3CFF7
:104FF000469537952795A795F0405395C9F77EF4C8
:105000001F16BA0B620B730B840BBAF09150A1F010
:10501000FF0FBB1F661F771F881FC2F70EC0BA0F96
:10502000621F731F841F48F4879577956795B7951E
:10503000F7959E3F08F0B0CF9395880F08F0992719
:10504000EE0F9795879508950E940E2908F481E048
:1050500008950E943D280C9449290E94422958F045
:105060000E943B2940F029F45F3F29F00C9432293B
:1050700051110C947D290C9438290E945A2968F307
:105080009923B1F3552391F3951B550BBB27AA2701
:1050900062177307840738F09F5F5F4F220F331F3B
:1050A000441FAA1FA9F335D00E2E3AF0E0E832D003
:1050B00091505040E695001CCAF72BD0FE2F29D006
:1050C000660F771F881FBB1F261737074807AB07D8
:1050D000B0E809F0BB0B802DBF01FF2793585F4F4D
:1050E0003AF09E3F510578F00C9432290C947D29BA
:1050F0005F3FE4F3983ED4F3869577956795B7952F
:10510000F7959F5FC9F7880F911D9695879597F939
:105110000895E1E0660F771F881FBB1F62177307B2
:105120008407BA0720F0621B730B840BBA0BEE1FC7
:1051300088F7E09508950E94A2286894B1110C9414
:105140007D2908950E94622988F09F5798F0B92F11
:105150009927B751B0F0E1F0660F771F881F991FAC
:105160001AF0BA95C9F714C0B13091F00E947C29A9
:10517000B1E008950C947C29672F782F8827B85FB9
:1051800039F0B93FCCF3869577956795B395D9F704
:105190003EF490958095709561957F4F8F4F9F4F0E
:1051A0000895E89409C097FB3EF49095809570951A
:1051B00061957F4F8F4F9F4F9923A9F0F92F96E963
:1051C000BB279395F695879577956795B795F111D8
:1051D000F8CFFAF4BB0F11F460FF1BC06F5F7F4F75
:1051E0008F4F9F4F16C0882311F096E911C0772387
:1051F00021F09EE8872F762F05C0662371F096E890
:10520000862F70E060E02AF09A95660F771F881F5E
:10521000DAF7880F9695879597F90895990F000802
:10522000550FAA0BE0E8FEEF16161706E807F90778
:10523000C0F012161306E407F50798F0621B730B13
:10524000840B950B39F40A2661F0232B242B252B94
:1052500021F408950A2609F4A140A6958FEF811D37
:10526000811D089597F99F6780E870E060E00895D8
:105270009FEF80EC089500240A941616170618066E
:105280000906089500240A9412161306140605064A
:105290000895092E0394000C11F4882352F0BB0FDB
:1052A00040F4BF2B11F460FF04C06F5F7F4F8F4F3E
:1052B0009F4F089557FD9058440F551F59F05F3F79
:1052C00071F04795880F97FB991F61F09F3F79F028
:1052D00087950895121613061406551FF2CF4695AA
:1052E000F1DF08C0161617061806991FF1CF86952C
:1052F0007105610508940895E894BB276627772710
:10530000CB0197F908950E940E2908F48FEF0895B4
:105310000E949B290C9449290E943B2938F00E9445
:10532000422920F0952311F00C9432290C9438294D
:1053300011240C947D290E945A2970F3959FC1F382
:10534000950F50E0551F629FF001729FBB27F00D33
:10535000B11D639FAA27F00DB11DAA1F649F662788
:10536000B00DA11D661F829F2227B00DA11D621FD7
:10537000739FB00DA11D621F839FA00D611D221F91
:10538000749F3327A00D611D231F849F600D211D75
:10539000822F762F6A2F11249F5750409AF0F1F0F8
:1053A00088234AF0EE0FFF1FBB1F661F771F881F61
:1053B00091505040A9F79E3F510580F00C9432293E
:1053C0000C947D295F3FE4F3983ED4F3869577955E
:1053D0006795B795F795E7959F5FC1F7FE2B880F07
:1053E000911D9695879597F90895FB01DC0102C000
:1053F00001900D9241505040D8F70895BB274A3094
:1054000031F4992322F4BDE2909581959F4F0C943D
:105410000A2ABB27FB015527AA27880F991FAA1F15
:10542000A41710F0A41B83955051B9F7A05DAA33BF
:1054300008F0A95DA193009779F7B111B19311928A
:10544000CB010C947E2C0F931F93CF93DF93CDB79A
:10545000DEB72E970FB6F894DEBF0FBECDBF0D8915
:105460001E8986E08C831A8309838FEF9FE79E83D2
:105470008D83AE01475E5F4F6F89788DCE010196B7
:105480000E94532A2F813885020F131FF8011082C2
:105490002E960FB6F894DEBF0FBECDBFDF91CF9131
:1054A0001F910F9108952F923F924F925F926F92AA
:1054B0007F928F929F92AF92BF92CF92DF92EF92A4
:1054C000FF920F931F93CF93DF93CDB7DEB72B9748
:1054D0000FB6F894DEBF0FBECDBF7C013B018A0141
:1054E000FC0117821682838181FFEFC1CE010196F4
:1054F0005C01F7019381F30193FD859193FF819105
:105500003F01882309F42FC1853239F493FD859139
:1055100093FF81913F01853229F4B70190E00E9409
:105520008E2CE7CF912C212C312CFFE1F31538F094
:105530008B32D9F090F48032D9F0833249F137FCC4
:1055400041C020ED280F2A3070F536FE24C08AE0D5
:10555000989E200D1124922E0EC08D32A9F080331A
:1055600071F7232D2160322E06C0832D8260382EE4
:10557000E32DE4603E2EF30193FD859193FF81912D
:105580003F018111D2CF1EC0F32DF8603F2EF3CF23
:10559000232D2061E8CFEAE02E9E200D1124222E3B
:1055A000F32DF062F3CF8E3229F436FCDCC0232DCC
:1055B0002064D9CF8C3621F4832D8068382EDBCF40
:1055C0008836C9F2982F9F7D95549330D8F0833652
:1055D000C9F18337E9F1833509F068C0280122E079
:1055E000420E511CF801C080D18036FE45C0692DA5
:1055F00070E0C6010E94682C4C01F32DF0683F2E2C
:1056000082010BC00C5F1F4F9FE399838824839412
:10561000912C6501F32DFF773F2E33FC05C0822DC1
:1056200090E08816990658F1522C8114910471F576
:10563000552009F45ECFB70180E290E00E948E2CE5
:105640005A94F6CFF801808189830E5F1F4FDECF19
:105650002801F2E04F0E511CF801C080D18036FEC7
:1056600008C0692D70E0C6010E94732C4C018201B4
:10567000D1CF6FEF7FEFF7CF6FEF7FEFBACFB701EB
:1056800080E290E00E948E2C2A94C9CFF60137FC6C
:10569000859137FE81916F01B70190E00E948E2CB9
:1056A00051105A9421E0821A9108BFCF843611F02C
:1056B0008936C1F5F80137FE2CC060817181828185
:1056C00093810C5F1F4FF32DFF763F2E97FF09C08C
:1056D00090958095709561957F4F8F4F9F4FF068A3
:1056E0003F2E2AE030E0A5010E94BE2CC82ECA1829
:1056F00036FE77C0232D2E7F422EC91408F0B0C08D
:1057000034FE05C032FC03C0832D8E7E482E892CCA
:105710006AC060817181072E000C880B990B0E5FA7
:105720001F4FD1CF8537B9F4232D2F7ED22E2AE0FB
:1057300030E0F801D7FE4EC0608171818281938193
:105740000C5F1F4FA5010E94BE2CC82ECA18FD2D4C
:10575000FF773F2ECDCF932D997FD92E8F36B9F17C
:10576000F0F4883561F1F701868197812B960FB6A9
:10577000F894DEBF0FBECDBFDF91CF911F910F9187
:10578000FF90EF90DF90CF90BF90AF909F908F9061
:105790007F906F905F904F903F902F90089580374B
:1057A00051F0883701F7D4FE03C0FD2DF460DF2EE1
:1057B00020E130E0BECFE92FE061DE2EF4CF34FEF1
:1057C00003C0292F2660D22E20E132E0B2CF28E09C
:1057D00030E0AFCF6081718180E090E00E5F1F4FBD
:1057E000B1CF8C2C432C44FE44C0FE01EC0DF11DC6
:1057F00080818033B9F5942D997E492EE42DE8708F
:105800005E2E43FC44C040FE3EC0821408F044C0FB
:105810002C0C922C981844FE44C0B70180E390E011
:105820000E948E2C42FE07C041FC38C088E790E001
:10583000B7010E948E2CC91408F440C0CA94D12C20
:10584000FFEFCF1ADF0ACA0CDB1CF60182916F0151
:10585000B70190E00E948E2CAC14BD04B1F7E8CEE5
:105860008C2CC1CF42FC02C08394C8CF8394839414
:10587000C5CF842D867811F2F7CFB70180E290E092
:105880000E948E2C83948214C0F3512CC4CF8214B6
:10589000E0F7522C5818BFCF9C2CBDCF88E590E084
:1058A000C7CF842D867839F241FE06C08BE247FCD3
:1058B0008DE2B70190E0BDCF80E2F9CFB70180E380
:1058C00090E00E948E2C9A94B6CF8FEF9FEF4ECF30
:1058D000FC010590615070400110D8F780959095BB
:1058E0008E0F9F1F0895FC016150704001900110C0
:1058F000D8F7809590958E0F9F1F0895DC01FC01CD
:10590000672F71917723E1F7329704C07C916D93F3
:1059100070836291AE17BF07C8F308950F931F936A
:10592000CF93DF93182F092FEB018B8181FD09C0E5
:105930001FEF0FEF812F902FDF91CF911F910F91CC
:10594000089582FF14C02E813F818C819D8128178C
:1059500039073CF4E881F981CF0101969983888366
:1059600010838E819F8101969F838E83E3CFE8858C
:10597000F985812F0995892BA1F3DACFFA01AA279E
:10598000283051F1203181F1E8946F936E7F6E5F82
:105990007F4F8F4F9F4FAF4FB1E03ED0B4E03CD030
:1059A000670F781F891F9A1FA11D680F791F8A1F13
:1059B000911DA11D6A0F711D811D911DA11D20D07A
:1059C00009F468943F912AE0269F11243019305D34
:1059D0003193DEF6CF010895462F4770405D419325
:1059E000B3E00FD0C9F7F6CF462F4F70405D4A3372
:1059F00018F0495D31FD4052419302D0A9F7EACF3A
:105A0000B4E0A6959795879577956795BA95C9F768
:105A100000976105710508959B01AC010A2E06945B
:105A20005795479537952795BA95C9F7620F731F14
:105A3000841F951FA01D0895F999FECF92BD81BDC9
:105A4000F89A992780B50895A8E1B0E042E050E0C7
:105A50000C943E2D262FF999FECF92BD81BD20BD1D
:105A60000FB6F894FA9AF99A0FBE019608950E941B
:105A70002A2D272F0C942B2DDC01CB01FC01F99949
:105A8000FECF06C0F2BDE1BDF89A319600B40D928A
:0C5A900041505040B8F70895F894FFCF43
:105A9C00F8900182838800452753544154453A209D
:105AAC002020202020534F433A20202025563A20F6
:105ABC0020202020413A202020202020202020209F
:105ACC0020534146455459204C4F4F503A202020EA
