:100000000C944A000C9469000C9469000C946900EB
:100010000C9469000C9469000C9469000C946900BC
:100020000C9469000C9469000C9469000C946900AC
:100030000C944C200C9469000C9469000C94690099
:100040000C9469000C9469000C9469000C9469008C
:100050000C9469000C9469000C9469000C9469007C
:100060000C9469000C9469000C9469000C9469006C
:100070000C9469000C9469000C9469000C9469005C
:100080000C9469000C9469000C9469000C94DC20B9
:100090000C94690011241FBECFEFD0E1DEBFCDBFAD
:1000A00012E0A0E0B1E0EEE6FCE500E00BBF02C02C
:1000B00007900D92A23AB107D9F728E0A2EAB2E080
:1000C00001C01D92A63EB207E1F70E94CC270C9416
:1000D000352E0C947920CF93DF9300D000D0CDB78C
:1000E000DEB71B821C8281E789831A8240E050E0E0
:1000F000BA018EED98E00E94151B62E0CE010196D8
:100100000E94982062E0CE0103960E94C5208EEDE9
:1001100098E00E94AD1B8C8180FF0DC01092920868
:1001200083FF0DC0109275080F900F900F900F90E5
:10013000DF91CF91089591E090939208F1CF81E003
:1001400080937508F1CFCF93DF9300D000D000D01B
:10015000CDB7DEB78091010190910201A09103011A
:10016000B091040189839A83AB83BC8340E050E063
:10017000BA018EED98E00E94151B64E0CE01019655
:100180000E94982088E88D8381E08E831092B807C2
:100190001092B70762E0CE0105960E9498208EED7E
:1001A00098E00E94AD1B26960FB6F894DEBF0FBEF6
:1001B000CDBFDF91CF910895CF93DF9300D0CDB71E
:1001C000DEB788E8898381E08A8340E050E0BA01A5
:1001D0008EED98E00E94151B62E0CE0101960E9410
:1001E00098208EED98E00E94AD1B0F900F90DF914C
:1001F000CF9108951F93CF93DF9300D000D000D00C
:10020000CDB7DEB70E94DC0019E81C831D821E8278
:1002100040E050E0BA018EED98E00E94151B63E0CB
:10022000CE0104960E94982019831A821B8263E0F3
:10023000CE0101960E94C5208EED98E00E94AD1B74
:100240008A8190E0982F88272B81820F911D269616
:100250000FB6F894DEBF0FBECDBFDF91CF911F91D7
:100260000895CF93DF9300D0CDB7DEB788E88983B8
:1002700082E08A8340E050E0BA018EED98E00E946F
:10028000151B62E0CE0101960E9498208EED98E049
:100290000E94AD1B0F900F90DF91CF9108951F9397
:1002A000CF93DF9300D000D000D0CDB7DEB70E944F
:1002B000310119E81C831D821E8240E050E0BA0122
:1002C0008EED98E00E94151B63E0CE0104960E941B
:1002D000982019831A821B8263E0CE0101960E9446
:1002E000C5208EED98E00E94AD1B8A8190E0982F8A
:1002F00088272B81820F911D26960FB6F894DEBFBA
:100300000FBECDBFDF91CF911F9108951F93CF9363
:10031000DF9300D000D000D0CDB7DEB711E91C8349
:100320001D821E8240E050E0BA018EED98E00E94EE
:10033000151B63E0CE0104960E94982019831A824F
:100340001B8263E0CE0101960E94C5208EED98E0ED
:100350000E94AD1B8A8190E0982F88272B81820F05
:10036000911D26960FB6F894DEBF0FBECDBFDF916C
:10037000CF911F910895CF93DF9300D0CDB7DEB713
:1003800080E789838BEF8A8340E050E0BA018EEDED
:1003900098E00E94151B62E0CE0101960E94982011
:1003A0008EED98E00E94AD1B0F900F90DF91CF91E2
:1003B0000895CF93DF9300D0CDB7DEB780E7898370
:1003C0008FEF8A8340E050E0BA018EED98E00E9402
:1003D000151B62E0CE0101960E9498208EED98E0F8
:1003E0000E94AD1B0F900F90DF91CF910895FF9267
:1003F0000F931F93CF93DF9300D000D01F92CDB700
:10040000DEB7F82E162F042F40E050E0BA018EED33
:1004100098E00E94151B80E48983612F6C60402F57
:1004200050E0440F551F8F2D807F842B862B8A83AD
:1004300028E02B8330E1F39EC0011124642B682B4C
:100440006C832D8365E0CE0101960E9498208EED8D
:1004500098E00E94AD1B0F900F900F900F900F909F
:10046000DF91CF911F910F91FF90089540E060E0E0
:1004700088E20E94F70140E060E08EE00E94F70110
:1004800040E060E086E00C94F7010F931F93CF9358
:10049000DF9300D000D0CDB7DEB700E40B8318E0C7
:1004A0001C8340E050E0BA018EED98E00E94151BDD
:1004B00062E0CE0103960E94982068E270E080E03E
:1004C00090E00E94C91C09838CE28A8362E0CE011D
:1004D00001960E9498201A8362E0CE0101960E9444
:1004E00098208EED98E00E94AD1B0E9436020F907E
:1004F0000F900F900F90DF91CF911F910F91089562
:100500000F931F93CF93DF93EC018C01060F111D06
:10051000C017D10729F4DF91CF911F910F91089552
:1005200040E061E089910E94F701F2CFCF93DF9321
:1005300000D0CDB7DEB7880F89831A8240E050E043
:10054000BA018EED98E00E94151B62E0CE01019683
:100550000E9498208EED98E00E94AD1B0F900F90A6
:10056000DF91CF910895CF93DF9300D0CDB7DEB761
:10057000880F898381E08A8340E050E0BA018EEDE4
:1005800098E00E94151B62E0CE0101960E9498201F
:100590008EED98E00E94AD1B0F900F90DF91CF91F0
:1005A0000895CF93DF93CDB7DEB728970FB6F894B1
:1005B000DEBF0FBECDBF982F990F9E8390E39F8320
:1005C0001886880F816089831A821B821C821D8293
:1005D00040E050E0BA018EED98E00E94151B63E008
:1005E000CE0106960E94982065E0CE0101960E94F9
:1005F000982065E0CE0101960E94C5208C8190E094
:10060000982F88272D81820F911D909362078093E8
:1006100061078A8190E0982F88272B81820F911D96
:100620009093A5078093A4078EED98E00E94AD1BE0
:100630006091A4077091A50780916107909162076E
:1006400028960FB6F894DEBF0FBECDBFDF91CF91D5
:1006500008950F931F93CF93DF9300D000D000D065
:10066000CDB7DEB7982F990F9C8390E39D8393E0DD
:100670009E83880F816089831A821B8240E050E04C
:10068000BA018EED98E00E94151B63E0CE0104963E
:100690000E94982063E0CE0101960E94982063E0BA
:1006A000CE0101960E94C5200A811B818EED98E043
:1006B0000E94AD1BC80126960FB6F894DEBF0FBE90
:1006C000CDBFDF91CF911F910F910895CF931092DD
:1006D0008D0840E050E0BA018EED98E00E94151BB5
:1006E000C1E080E98C0F8230A8F08C2F0E94290392
:1006F000853A954A79F480918D08803158F4E091DB
:100700008D08F0E0E955F84FC08380918D088F5F28
:1007100080938D08CF5FC03821F78EED98E0CF91A0
:100720000C94AD1BEF92FF920F931F93CF93DF9327
:10073000CDB7DEB728970FB6F894DEBF0FBECDBF9A
:10074000982F990F9E8390E39F8392E09887880F5C
:10075000816089831A821B821C821D8240E050E0E6
:10076000BA018EED98E00E94151B63E0CE0106965B
:100770000E94982065E0CE0101960E94982065E0D5
:10078000CE0101960E94C5200C811D8110270127F2
:100790001027EA80FB80FE24EF24FE248EED98E0F3
:1007A0000E94AD1BB701C80128960FB6F894DEBFB2
:1007B0000FBECDBFDF91CF911F910F91FF90EF90B2
:1007C0000895EF92FF920F931F93CF93DF93CDB7CE
:1007D000DEB728970FB6F894DEBF0FBECDBF982FB7
:1007E000990F9E8390E39F8391E09887880F8160A3
:1007F00089831A821B821C821D8240E050E0BA016C
:100800008EED98E00E94151B63E0CE0106960E94D3
:10081000982065E0CE0101960E94982065E0CE0107
:1008200001960E94C5201D810C81FB80EA808EED1F
:1008300098E00E94AD1BB701C80128960FB6F89446
:10084000DEBF0FBECDBFDF91CF911F910F91FF9003
:10085000EF9008951F93CF93DF9310E0C12F012EE7
:10086000000CDD0B80918D0890E0C817D90724F0AB
:10087000DF91CF911F910895FE01E955F84F8081D6
:100880000E94E103FE01EE0FFF1FEE0FFF1FEF5D61
:10089000F74F608371838283938361E070E080E02F
:1008A00090E00E94C91C1F5FD9CF8EED98E00E9496
:1008B000C31A0E94832040E050E0BA018EED98E018
:1008C0000E94151B0E9466030E94D90164E670E035
:1008D00080E090E00E94C91C0E942A048EED98E0FE
:1008E0000C94AD1B40E060E080E80E94F7010E949C
:1008F000360264E188EE97E00E94800264E181E6BE
:1009000098E00E94800264E18BE697E00E948002FA
:1009100064E184EC98E00C9480022F923F924F9215
:100920005F926F927F928F929F92AF92BF92CF927F
:10093000DF92EF92FF920F931F93CF93DF93CDB788
:10094000DEB7C456D1090FB6F894DEBF0FBECDBFD7
:1009500084E1E5E0F1E0DE01DD9601900D928A95FB
:10096000E1F784E1E9E1F1E0DE01999601900D9271
:100970008A95E1F784E1EDE2F1E0DE015596019020
:100980000D928A95E1F784E1E1E4F1E0DE01119650
:1009900001900D928A95E1F78091D6079091D70743
:1009A0008230910509F432C240F4009709F43DC247
:1009B000019771F062E772E00DC08430910509F48F
:1009C0002BC208F426C20697A9F76FE872E002C0AE
:1009D00067E772E0FB0101900020E9F73197AF0172
:1009E000461B570BCE018D5B9F4F0E94DE2A8091E4
:1009F0006A0724E6622F0E94FA27805D2E968FAF49
:100A00002E9780916A070E94FA27892F2AE0622F89
:100A10000E94FA27805D2F968FAF2F9780916A07EB
:100A20000E94FA27905D60969FAF60978091800842
:100A30009091810864E670E00E942828605D6D96C0
:100A40006FAF6D9780918008909181082AE030E027
:100A5000B9010E942828CB01B9010E942828805D95
:100A60006E968FAF6E978091800890918108B90142
:100A70000E942828805D6F968FAF6F97C090B9074E
:100A8000D090BA07E090BB07F090BC076091B9071F
:100A90007091BA078091BB079091BC070E94BC2956
:100AA00020E030E0A9010E940D2987FFC1C1C701E4
:100AB000B6010E94BC2990580E9484296B017C01D8
:100AC0001DE2C701B60120EA36E841E050E00E948D
:100AD0005E286AE0862E912CA12CB12CCA01B901A6
:100AE000A50194010E945E28605DA0966FAFA0975B
:100AF000C701B60120E137E240E050E00E945E28E5
:100B0000CA01B901A50194010E945E28605DA19609
:100B10006FAFA197C701B60128EE33E040E050E087
:100B20000E945E28CA01B901A50194010E945E28B5
:100B3000605DA2966FAFA297C701B60124E630E0D0
:100B400040E050E00E945E28CA01B901A50194016D
:100B50000E945E28605DA3966FAFA397C701B601A0
:100B6000A50194010E945E28062FCA01B901A501C2
:100B700094010E945E28605DA4966FAFA497005D0B
:100B8000A5960FAFA5978091BF07811153C180E251
:100B90006C968FAF6C9790E26B969FAF6B978EE4DD
:100BA0006A968FAF6A9745E4242E50E5352E0FE400
:100BB0000E94631C6B017C0124E630E040E050E0C1
:100BC0000E943C2865962CAF3DAF4EAF5FAF659756
:100BD000C701B60120E737E140E050E00E943C2821
:100BE00029013A01C701B60120E43EE745E050E0A3
:100BF0000E943C2869962CAF3DAF4EAF5FAF69971E
:100C00008CE3882E912CA12CB12C65966CAD7DAD1A
:100C10008EAD9FAD6597A50194010E943C28659615
:100C20006CAF7DAF8EAF9FAF6597C301B201A501D9
:100C300094010E943C282B013C0169966CAD7DAD6E
:100C40008EAD9FAD699728E130E040E050E00E9412
:100C50003C2869966CAF7DAF8EAF9FAF699784E1FA
:100C6000FE01FD96A8EEB7E001900D928A95E1F79E
:100C70006D968FAD6D978BA76E969FAD6E979CA767
:100C80008EE28DA76F969FAD6F979EA71AABA09629
:100C90009FADA0979BABA1969FADA1979CABA29651
:100CA0009FADA2979DAB8EABA3969FADA3979FAB35
:100CB000A4969FADA49798AFA5969FADA59799AF21
:100CC00094E1FE01B996A1E6B8E001900D929A95E3
:100CD000E1F70AA33BA22CA26A969FAD6A979DA357
:100CE0006B969FAD6B979EA36C969FAD6C979FA3E1
:100CF00094E1FE017596ABE6B7E001900D929A95EE
:100D0000E1F796E79B8390E39C838D8381E38E8359
:100D100085E38F83C701B60120E038E94FE753E34D
:100D20000E943C28205D2987C701B60120E03CE5F0
:100D300046E255E00E943C289AE0892E912CA12C95
:100D4000B12CCA01B901A50194010E943C28605D43
:100D50006A87C701B60120E036ED43E850E00E9403
:100D60003C28CA01B901A50194010E943C28605D9C
:100D70006B871AE31C8769966CAD7DAD8EAD9FAD18
:100D80006997A50194010E943C28205D2D87605D34
:100D90006E871F87C301B201A50194010E943C2800
:100DA000205D288B605D698B1A8B65966CAD7DAD7F
:100DB0008EAD9FAD6597A50194010E943C28205DF2
:100DC0002B8B605D6C8B84E1FE013196A4ECB8E066
:100DD00001900D928A95E1F7CC59DF4F0FB6F89448
:100DE000DEBF0FBECDBFDF91CF911F910F91FF905E
:100DF000EF90DF90CF90BF90AF909F908F907F90BB
:100E00006F905F904F903F902F9008956CE772E045
:100E1000E1CD62E872E0DECD80911D08805D28960C
:100E20008FAF289766E872E0D5CD6AE872E0D2CD40
:100E300010E247CE94E46C969FAF6C9785E46B9676
:100E40008FAF6B9793E56A969FAF6A972FE4222E38
:100E50003CE4332E03E4ACCECF93DF93CDB7DEB7C3
:100E6000C055D1090FB6F894DEBF0FBECDBF84E1E7
:100E7000E5E5F1E0DE01DD9601900D928A95E1F75E
:100E800084E1E9E6F1E0DE01999601900D928A9500
:100E9000E1F784E1EDE7F1E0DE01559601900D9276
:100EA0008A95E1F784E1E1E9F1E0DE011196019034
:100EB0000D928A95E1F78DE223968FAF23979FE2FB
:100EC00024969FAF24979EE225969FAF259726965E
:100ED0008FAF269784E1FE01FD96A8EEB7E0019062
:100EE0000D928A95E1F784E1FE01B996A1E6B8E09A
:100EF00001900D928A95E1F784E1FE017596ABE6CB
:100F0000B7E001900D928A95E1F784E1FE013196F8
:100F1000A4ECB8E001900D928A95E1F7C05BDF4F39
:100F20000FB6F894DEBF0FBECDBFDF91CF9108950D
:100F30002F923F924F925F926F927F928F929F92E9
:100F4000AF92BF92CF92DF92EF92FF920F931F93D7
:100F5000CF93DF93CDB7DEB764970FB6F894DEBFBB
:100F60000FBECDBF94E1E5EAF1E0DE0111960190FC
:100F70000D929A95E1F790E3392E380EE82FF0E0C4
:100F8000EE0FFF1FDF01AD56B74F8D919C9111976A
:100F9000AD90BC901197CD90DC901197ED90FC90A6
:100FA000EE53F84F00811181208131816080718082
:100FB0004080518044E1FE013196A8EEB7E00190F7
:100FC0000D924A95E1F7E1E6F8E043E4408331828F
:100FD0005FE5252E228256E553835AE3548368EE5B
:100FE000862E63E0962EB4010E941428605D65830E
:100FF0008EE28683C501B4010E94142874E6A72EF0
:10100000B12CB5010E941428605D6783C601B4014C
:101010000E941428B5010E941428AAE0CA2ED12CDF
:10102000B6010E941428605D6087C701B6010E9466
:101030001428805D8187B0E2FB2EF286F386F48669
:10104000F586F686F786F08AF18AF28AF38AEBE66D
:10105000F7E040833182228284E583835AE354831C
:10106000C801B4010E941428605D6583C901B40100
:101070000E941428B5010E941428605D6683C30194
:10108000B4010E941428B5010E941428B6010E94E0
:101090001428605D67838EE28087C201B6010E94DA
:1010A0001428805D8187F286F386F486F586F686BD
:1010B000F786F08AF18AF28AF38AE4ECF8E080E5B8
:1010C00080838FE28183428333828EE38483F5823F
:1010D000F682F782F086F186F286F386F486F5864C
:1010E000F686F786F08AF18AF28AF38A64960FB65A
:1010F000F894DEBF0FBECDBFDF91CF911F910F914E
:10110000FF90EF90DF90CF90BF90AF909F908F9027
:101110007F906F905F904F903F902F9008952F9207
:101120003F924F925F926F927F928F929F92AF9277
:10113000BF92CF92DF92EF92FF920F931F93CF93C4
:10114000DF93CDB7DEB7C354D1090FB6F894DEBF35
:101150000FBECDBF94E1E9EBF1E0DE01999601907D
:101160000D929A95E1F794E1EDECF1E0DE015596F0
:1011700001900D929A95E1F794E1E1EEF1E0DE0144
:10118000119601900D929A95E1F720E3280F2DAF6B
:1011900078E8E72E78E0F72EE4E0AE2EE8E0BE2E09
:1011A000F501670190E2D6019D936D019193BDE831
:1011B000CB16B8E0DB06B9F7082F10E04801880C21
:1011C000991CF401EA54F74F808191814AE068E864
:1011D00078E00E94E72AF401E652F84F808191817D
:1011E0004AE064E078E00E94E72A80E2F70190811B
:1011F000911101C08083D5019C91911101C08C9304
:10120000BFEFEB1AFB0AEFEFAE1ABE0ACE14DF04F3
:1012100069F7709088088090890890908A08F0910A
:101220008B08FEAFC0908C08209004083090050811
:10123000409006085090070860900808F801EE0FEB
:10124000FF1FEB55F74F8081918164E670E00E94AB
:1012500014282AE030E0B9010E941428605D6FAFC5
:1012600080819181B9010E941428805D21968FAF01
:1012700021975801AA0CBB1CAA0CBB1CC5018158A4
:10128000984F7C01DC016D917D918D919C910E9424
:101290008429605D22966FAF2297F701608171818A
:1012A0008281938120E030E040E251E40E94712A83
:1012B0000E948429862F5AE0D52E6D2D0E94062883
:1012C000905D23969FAF2397D7016D917D918D916E
:1012D0009C9120E030E048EC52E40E94712A0E9488
:1012E0008429862F6D2D0E940628905D24969FAF3D
:1012F0002497F701608171818281938120E030E041
:101300004AE754E40E94712A0E948429862F6D2D99
:101310000E94062897FDCBC0F70180819181A281B0
:10132000B381608171818281938120E030E04AE75E
:1013300054E40E94712A0E948429862F6D2D0E94F8
:10134000062820E3F22EF90EF801E955F84F8081C6
:101350001F928F9383E992E09F938F938BE997E09D
:101360009F938F930E940C2B50919B0740919C0759
:1013700030919D07F501EF5DF74F208191818281CA
:1013800063812EA63FA648AA59AA6AAAFFADF8AF64
:1013900021967FAD219779AF74E1FE01B996A8EE51
:1013A000B7E001900D927A95E1F77A8E8B8E9C8E44
:1013B000AEADAD8FCE8E2296BFAD2297BCA37EE29E
:1013C0007DA32396EFAD2397EEA32496FFAD24973C
:1013D000FFA3F8A674E1FE017596A1E6B8E00190BE
:1013E0000D927A95E1F7205D2E83905D9F83805D5D
:1013F0008887605D69875A8B4B8B3C8B84E1FE014B
:101400003196ABE6B7E001900D928A95E1F780E561
:101410008093C4089FE29093C50883E48093C60834
:101420002DAD2093C7089093C8088093C90881E424
:101430008093CA088CE48093CB088EE38093CC0819
:1014400080E28093CD088093CE088093CF0880936C
:10145000D0088093D1088093D2088093D3088093DA
:10146000D4088093D5088093D6088093D7080F902E
:101470000F900F900F900F900F90CD5BDF4F0FB636
:10148000F894DEBF0FBECDBFDF91CF911F910F91BA
:10149000FF90EF90DF90CF90BF90AF909F908F9094
:1014A0007F906F905F904F903F902F90089580E2D3
:1014B000F82E4ACF2F923F924F925F926F927F9277
:1014C0008F929F92AF92BF92CF92DF92EF92FF9254
:1014D0000F931F93CF93DF93CDB7DEB7EC970FB683
:1014E000F894DEBF0FBECDBF84E1E5EFF1E0DE0191
:1014F000999601900D928A95E1F784E1E9E0F2E096
:10150000DE01559601900D928A95E1F784E1EDE1B7
:10151000F2E0DE01119601900D928A95E1F783E5E4
:101520008093E80785E48093E90784E58093EA07E0
:1015300080E28093EB0790E59093EC0791E4909321
:10154000ED0793E49093EE079BE49093EF0780936D
:10155000F00799E49093F10794E49093F207809355
:10156000F3078093F4078093F5078093F607809341
:10157000F7078093F8078093F9078093FA07809321
:10158000FB0794E1FE01B996A1E6B8E001900D9247
:101590009A95E1F794E1FE017596ABE6B7E001900C
:1015A0000D929A95E1F78887898B84E1FE01319647
:1015B000A4ECB8E001900D928A95E1F764E670E042
:1015C00080E090E00E94C91C8091A60780931B08D0
:1015D0008091A6071F928F9308E912E01F930F9343
:1015E0008CEF97E09F938F930E940C2B80911B08A8
:1015F0001F928F931F930F9388ED98E09F938F9383
:101600000E940C2B62E370E080E090E00E94C91C15
:1016100081E0809376080FB6F894DEBF0FBECDBF91
:10162000780198EDC92E98E0D92E2FE0422E332470
:10163000339433E5A32E45E4B42E04E510E250E5DF
:10164000552E61E4662E73E4772EEBE48E2EF9E4DA
:101650009F2E8091B508882309F4E2C08091760816
:101660008F5F809376088091760880931B08809125
:101670001B08803131F4309276088091760880938F
:101680001B0880911B081F928F93FF92EF92DF92AD
:10169000CF920E940C2B1092B5080F900F900F90D4
:1016A0000F900F900F902091FC079091D808A09276
:1016B000E807B092E9070093EA071093EB0750920E
:1016C000EC076092ED077092EE078092EF0710939F
:1016D000F0079092F10784E4282E2092F2071093ED
:1016E000F3071093F4071093F5071093F607109380
:1016F000F7071093F8071093F9071093FA07109360
:10170000FB0784E1FE01B996A1E6B8E001900D92D5
:101710008A95E1F784E1FE017596ABE6B7E00190AA
:101720000D928A95E1F72887998B84E1FE01319625
:10173000A4ECB8E001900D928A95E1F7189989CF51
:1017400060911B0888E090E00E94132E88E090E0F2
:101750000E94052E8093A6075092E8076092E90741
:101760007092EA078092EB071093EC079092ED07D6
:101770002092EE071093EF07A092F007B092F107C6
:101780000093F20781E28093F3071093F40710931C
:10179000F5071093F6071093F7071093F8071093C7
:1017A000F9071093FA071093FB0784E1FE01B9963D
:1017B000A1E6B8E001900D928A95E1F784E1FE017F
:1017C0007596ABE6B7E001900D928A95E1F784E15A
:1017D000FE013196A4ECB8E001900D928A95E1F7F4
:1017E00064E670E080E090E00E94C91C80E0EC9626
:1017F0000FB6F894DEBF0FBECDBFDF91CF911F9122
:101800000F91FF90EF90DF90CF90BF90AF909F909F
:101810008F907F906F905F904F903F902F900895A2
:1018200080918608882309F43ECF80917608815004
:101830008093760880917608811102C040927608E4
:101840008091760880931B0880911B081F928F93CC
:10185000FF92EF92DF92CF920E940C2B109286089B
:101860001CCF3F924F925F926F927F928F929F9286
:10187000AF92BF92CF92DF92EF92FF920F931F939E
:10188000CF93DF93CDB7DEB7EC970FB6F894DEBFFA
:101890000FBECDBF84E1E5EFF1E0DE019996019046
:1018A0000D928A95E1F784E1E9E0F2E0DE015596D8
:1018B00001900D928A95E1F784E1E1E3F2E0DE0127
:1018C000119601900D928A95E1F78091A20790916F
:1018D000A3079093A2088093A1088091A2079091FA
:1018E000A3079F938F930DE912E01F930F9386E157
:1018F00098E09F938F930E940C2B8091A108909168
:10190000A2089F938F931F930F9389ED98E09F9365
:101910008F930E940C2B62E370E080E090E00E94C5
:10192000C91C109276080FB6F894DEBF0FBECDBF6B
:10193000680189EDA82E88E0B82E812C95E0992EBB
:1019400003E525E4F22E34E5632E10E243E4342E61
:1019500051E4752E6EE4462E74E4E72EE2E55E2E29
:101960008091B508882309F420C1809176088F5FA3
:10197000809376088091760890E09B5F9093A20810
:101980008093A1088091A1089091A2089F938F93C2
:10199000DF92CF92BF92AF920E940C2B8091A10850
:1019A0009091A2080F900F900F900F900F900F90B2
:1019B0008115964031F4109276089092A208809298
:1019C000A1081092B508609117085091180840912D
:1019D00019083091DA082091DB089091DC08009317
:1019E000E807F092E9076092EA071093EB0730925C
:1019F000EC077092ED074092EE071093EF0770929C
:101A0000F007E092F107E092F2075092F307F092AC
:101A1000F4070093F5070093F6071093F707109368
:101A2000F8071093F9071093FA071093FB0784E166
:101A3000FE01B996A1E6B8E001900D928A95E1F712
:101A400084E1FE017596ABE6B7E001900D928A95B0
:101A5000E1F7688759874A87398B2A8B9B8B84E10A
:101A6000FE013196A4ECB8E001900D928A95E1F761
:101A7000189976CF8091A2079091A3070196909331
:101A8000A4088093A3088091A2079091A3070296CF
:101A90009093C1078093C0076091A1087091A2083C
:101AA00082E090E00E94202E6091A3087091A4082B
:101AB00084E090E00E94202E6091C0077091C107E1
:101AC00086E090E00E94202E82E090E00E940D2EA1
:101AD0009093A3078093A2073092E8077092E907DA
:101AE0004092EA071093EB077092EC07E092ED0743
:101AF000E092EE075092EF07F092F0070093F107A3
:101B00000093F2071093F3070093F407F092F507A0
:101B10006092F60781E28093F7071093F80710931D
:101B2000F9071093FA071093FB0784E1FE01B996B9
:101B3000A1E6B8E001900D928A95E1F784E1FE01FB
:101B40007596ABE6B7E001900D928A95E1F784E1D6
:101B5000FE013196A4ECB8E001900D928A95E1F770
:101B600064E670E080E090E00E94C91C64E670E0EA
:101B700080E090E00E94C91C80E0EC960FB6F894DB
:101B8000DEBF0FBECDBFDF91CF911F910F91FF90B0
:101B9000EF90DF90CF90BF90AF909F908F907F900D
:101BA0006F905F904F903F900895809186088823B2
:101BB00009F409CF809176088823F9F0809176089E
:101BC0008150809376088091760890E09B5F909397
:101BD000A2088093A1088091A1089091A2089F93E8
:101BE0008F93DF92CF92BF92AF920E940C2B0F90F7
:101BF0000F900F900F900F900F9010928608E3CEE9
:101C0000159A1092D9071092D8071092A107109236
:101C1000A00708950E94000E62E370E080E090E06B
:101C20000E94C91C43E050E022E030E061E070E037
:101C30008091D8079091D90781309105B9F04CF483
:101C40000097D1F7059BF4CF7093D9076093D8071D
:101C5000EFCF82309105D9F08330910569F705996E
:101C600011C01092D9071092D807E2CF059BF9CF87
:101C70008091A0079091A107809590959093A107DE
:101C80008093A0073093D9072093D807D1CF059927
:101C9000CFCF5093D9074093D807CACFEF92FF9286
:101CA0000F931F93CF93DF93CDB7DEB74DB75EB7DA
:101CB00080918D082DB73EB7281B31090FB6F894D7
:101CC0003EBF0FBE2DBF2F5F3F4F8091D607909133
:101CD000D707019709F092C08091FE07882309F485
:101CE0008DC01092FE0780E090918D08891760F0FA
:101CF000A0E080918D086A2F70E090E0019768174E
:101D00007907BCF5B0E029C0F901E80FF11D808327
:101D10008F5FEACFB901680F791FFB01E080EE2DDC
:101D2000F0E0EE0FFF1FED56F74F00811181019695
:101D3000820F931FFC01F080EF2DF0E0EE0FFF1FEC
:101D4000ED56F74F0190F081E02DE017F10720F4F8
:101D5000FC01E082FB01F082BF5F8B2F90E060917D
:101D60008D0870E061507109861797079CF2AF5F8C
:101D7000C0CF80918D08815097E0811111C0A1E002
:101D800060918D08861748F10FB6F8945EBF0FBEBC
:101D90004DBFDF91CF911F910F91FF90EF9008956C
:101DA000D901A80FB11DEC91F0E0EE0FFF1FED5629
:101DB000F74F608171811197EC91F0E0EE0FFF1FFA
:101DC000ED56F74F0190F081E02D6E1B7F0B6931CE
:101DD000710508F0982F8150D0CF682F70E0620F06
:101DE000731FFB016081E62FF0E0ED59F84F891772
:101DF00018F0A0838F5FC4CF1082FCCF8091D607EC
:101E00009091D707019709F4BFCF80E090918D089A
:101E1000891708F0B9CFE82FF0E0ED59F84F10829C
:101E20008F5FF4CFCF93DF9300D000D000D0CDB739
:101E3000DEB70E9455040E94A3000E94450281E083
:101E400080939F071092FE0734E6432E512C612C9D
:101E5000712C222423940E94631CA30192010E94EE
:101E60003C28633371058105910508F4EDC080912C
:101E70009F07882331F010929F072092FE070E944F
:101E8000720465E070E080E090E00E94C91C312C93
:101E900080918D08381608F4DAC00E944F01BC0109
:101EA000990F880B990B0E94BC292AE037ED43EA71
:101EB0005AE30E94712A21EC3AEC41E85FE30E9468
:101EC000712A2AE939E949E95EE30E94A02820E065
:101ED00030E040E251E40E94712A0E948B29709305
:101EE0008108609380080E946B000E94FA00092E0E
:101EF000000CAA0BBB0BB095A095909581959F4FB8
:101F0000AF4FBF4F8093D2079093D307A093D407CE
:101F1000B093D5078091D2079091D307A091D407B1
:101F2000B091D507803E9E42A105B105CCF48091C9
:101F3000D2079091D307A091D407B091D5078132F1
:101F4000914DAF4FBF4F64F08091D2079091D3076E
:101F5000A091D407B091D5079093B4088093B308AB
:101F60008091D6079091D707069709F0FAC0809123
:101F7000BF07882309F4F5C00E94BB010E948601B7
:101F8000092E000CAA0BBB0B8093D2079093D307AA
:101F9000A093D407B093D50740E050E0BA018FEF8B
:101FA00097E00E94151B8091D2079091D307A091D2
:101FB000D407B091D5079C01AD0166277727CB01E7
:101FC000621B730B840B950B0E94BC292FE632E138
:101FD00043E059E30E94712A23ED3EEF46ED52E4BF
:101FE0000E94712A24EA30E74DE25FE30E94A128B3
:101FF00020E030E04AE754E40E94712A0E948429DC
:102000006093B9077093BA078093BB079093BC079E
:102010008FEF97E00E94AD1B0E944E0E10E0809162
:102020008D08181708F017CFE12FF0E0DF01AD5948
:10203000B84F8C91E955F84F813009F0E8C08081A4
:102040000E94B3021F5FEBCF20929F071ACF032D90
:1020500010E0F801E955F84F80810E94D1026B0130
:102060007C019801220F331F3E832D83F901EA542E
:10207000F74F408151815A834983F901E652F84F65
:10208000808191819C838B8396E09E9DB0019F9D72
:10209000700D112480E090E00E94BA294B015C0190
:1020A000A981BA81BD0180E090E00E94BA2920E0B8
:1020B00030E040E85AE30E94712A9B01AC01C5015F
:1020C000B4010E94712A4B015C01EB81FC81BF01CC
:1020D00080E090E00E94BA299B01AC01C501B401E7
:1020E0000E94A1280E948B29ED81FE81ED56F74FB9
:1020F00071836083000F111F000F111FF801E15859
:10210000F84F80809180A280B380ED81FE81EB55F5
:10211000F74F00811181FAEFCF1AF0E8DF0ACC0CFB
:10212000DD1CB60180E090E00E94BA29A50194016F
:102130000E94712A6B017C01B80180E090E00E944E
:10214000BA299B01AC01C701B6010E94A1280E94D7
:102150008B29ED81FE81EE53F84F718360833394B8
:1021600097CE0E94D9010E948601092E000CAA0B6D
:10217000BB0B8093D2079093D307A093D407B0935F
:10218000D5078091D2079091D307A091D407B09141
:10219000D5078C3B9240A105B1050CF03DCF809155
:1021A000D2079091D307A091D407B091D507853479
:1021B0009D4FAF4FBF4F0CF42FCF40E050E0BA011E
:1021C0008FEF97E00E94151B6091B3087091B408DF
:1021D000072E000C880B990B0E94BC292CEA35ECC9
:1021E00047E256E30E94712A2FE632E143E85AE3C0
:1021F0000E9412292DE73EEA46E75FE30E94712A1A
:1022000029E839E241E15CE30E94A028F1CE808117
:102210000E94960217CF1092E4081092E308809172
:10222000E3089091E408079708F494C087E080934E
:10223000100887E798E0909312088093110881E0D6
:1022400090E090930B0880930A081092150882E0A2
:1022500090E00E940D2E9093A3078093A207809197
:10226000A2079091A307892B31F08091A20790914A
:10227000A307019671F460E075E082E090E00E94AF
:10228000202E82E090E00E940D2E9093A307809371
:10229000A20784E090E00E940D2E9093A408809302
:1022A000A3088091A3089091A408892B31F0809114
:1022B000A3089091A408019671F461E075E084E0B0
:1022C00090E00E94202E84E090E00E940D2E9093DA
:1022D000A4088093A30886E090E00E940D2E9093BE
:1022E000C1078093C0078091C0079091C107892BD7
:1022F00031F08091C0079091C107019671F462E0BE
:1023000075E086E090E00E94202E86E090E00E943A
:102310000D2E9093C1078093C00788E090E00E9443
:10232000052E8093A6078091A607882321F080912F
:10233000A6078F3F59F461E088E090E00E94132ED9
:1023400088E090E00E94052E8093A60787E08093A6
:10235000E5080895E091E308F091E408E958F74FA3
:1023600010828091E3089091E40801969093E4082C
:102370008093E30854CF0E940B1180E00E944F210C
:1023800018E08091A60790E0982F88279770909387
:102390000D0880930C08109310088091D607909137
:1023A000D707809377088091800890918108909357
:1023B00078088091800890918108809379088091B5
:1023C000B9079091BA07A091BB07B091BC078B2FBA
:1023D000BB2787FDB0959B2FAB2F80937A08809108
:1023E000B9079091BA07A091BB07B091BC07CD0186
:1023F000BB2797FDB095AB2F80937B088091B907E1
:102400009091BA07A091BB07B091BC07892F9A2F72
:10241000AB2FBB27A7FDBA9580937C088091B907A5
:102420009091BA07A091BB07B091BC0780937D083B
:1024300080916A0780937E0889E098E00E945C2181
:102440008111FACF89E098E00E9437268130D1F3DC
:102450008091820890918308A0918408B0918508AA
:102460008B2FBB2787FDB0959B2FAB2F80937708D1
:102470008091820890918308A0918408B09185088A
:10248000CD01BB2797FDB095AB2F80937808809145
:10249000820890918308A0918408B0918508892FC3
:1024A0009A2FAB2FBB27A7FDBA958093790880910F
:1024B000820890918308A0918408B0918508809348
:1024C0007A0884E001E0C4E0D1E09091E50890173B
:1024D000B8F401E09091E5089017B8F12C2F280F7F
:1024E0002AC0EC2FF0E0A02FB0E0AD59B84F9C917E
:1024F000E958F74F9083CF5F0F5F815009F454C0C4
:102500009091E508901768F7E0CF4C2F50E0E02F4E
:10251000F0E0EE0FFF1FED56F74F60817181DA0199
:10252000A958B74F7C9360817181FA01E858F74F41
:1025300060830F5F8250C22FC81B823008F450C0E6
:102540009091E508901708F7C5CF01E09091E50854
:10255000901718F14C2F480F16C02C2F30E0E02FA9
:10256000F0E0EE0FFF1FEE53F84F60817181D9014B
:10257000A958B74F7C9360817181F901E858F74FF2
:1025800060830F5F8250C42FC81B823008F444C0A0
:102590009091E508901708F7D9CF64E670E080E0E5
:1025A00090E00E94C91CEDCE2091A6078D2F90E0EF
:1025B000922B977090930D0880930C08C09310088D
:1025C00089E098E00E945C21C82F8111F9CF89E051
:1025D00098E00E9437268130D1F3DF5F88E075CF25
:1025E0002091A6078D2F90E0922B977090930D0865
:1025F00080930C08C093100889E098E00E945C2149
:10260000C82F8111F9CF89E098E00E9437268130E8
:10261000D1F3DF5F88E05ECF2091A6078D2F90E099
:10262000922B977090930D0880930C08C09310081C
:1026300089E098E00E945C21C82F8111F9CF89E0E0
:1026400098E00E9437268130D1F3DF5F88E07ECFAB
:102650000C948D040E948D0464E670E080E090E0AC
:102660000E94C91CC0E08C2F0C2E000C990BC830A6
:102670003CF4C1307CF40E948D0416C0CFE0F3CF4F
:10268000CF30FCF0CF30B9F70E945A0A81110CC04C
:10269000C0E00AC020918D0830E02817390724F0E7
:1026A0008FEF8C0F0E949807189BE8CF80918608C7
:1026B000882399F0CF5FCF3009F4CEE010928608DE
:1026C000D2CF20918D08079730E02817390764F39F
:1026D00088EF8C0F0E948F08E7CF8091B508882380
:1026E00011F2C15008F4C0E01092B508BCCF089AAE
:1026F000109863E070E080E090E00E94C91C109A9E
:1027000063E070E080E090E00E94C91CF1CF10927D
:10271000920810927F0880E090918D08891720F030
:102720008FEF97E00C94C31AE82FF0E0ED59F84FC3
:1027300010828F5FF1CF81E090E00E94052E8093A0
:102740006A0780916A07882321F080916A078F3F8A
:1027500059F462E381E090E00E94132E81E090E062
:102760000E94052E80936A0780916A0708959091D0
:102770007F0880916A07981751F080916A078093CB
:102780007F0860916A0781E090E00C94132E089511
:10279000CF93DF9300D000D0CDB7DEB70E94871370
:1027A000412C512C320114E63CE9832E99249A9451
:1027B000A92CB92C8091D6079091D707892BD1F3FA
:1027C0008091D6079091D707019721F482B1806359
:1027D00082B908C08091D6079091D707039709F076
:1027E000B7C0149A80E090918D08891708F4B3C09F
:1027F00080E090918D08891708F4C8C00E94631C7E
:102800006B017C01DC01CB0184199509A609B7098C
:102810002C013D0140E050E0BA018FEF97E00E94AB
:10282000151B6091B9077091BA078091BB07909111
:10283000BC07209182083091830840918408509110
:10284000850829833A834B835C83A30192010E940C
:10285000EA27A50194010E945E2889819A81AB81B3
:10286000BC81280F391F4A1F5B1F57FD2CC0609188
:10287000B9077091BA078091BB079091BC0720916E
:1028800082083091830840918408509185082983FB
:102890003A834B835C83A30192010E94EA27A5013E
:1028A00094010E945E2889819A81AB81BC81280FA6
:1028B000391F4A1F5B1F209382083093830840937F
:1028C0008408509385088FEF97E00E94AD1B6091BC
:1028D00082087091830880918408909185080E94F5
:1028E000BC2920E036ED43E05AE40E946C2A181619
:1028F00064F56091820870918308809184089091BA
:1029000085080E94BC2928E03FEE4BE45DE40E946C
:102910000D2987FF1AC06091820870918308809109
:102920008408909185080E94BC2920E63EEF4DE482
:102930005DE40E94122920E030E048EC52E40E945D
:10294000712A0E948B2960936A072601370132CFD2
:1029500082B18F7C3DCFE82FF0E0EE0FFF1FED56E8
:10296000F74F2081318125373E4070F020E036EE70
:102970004FED5CE0209382083093830840938408F5
:102980005093850810936A078F5F2DCFE82FF0E0F2
:10299000EE0FFF1FED56F74F208131812C383A4062
:1029A00050F41092820810928308109284081092BA
:1029B000850810926A078F5F1CCF81B18C6081B946
:1029C000269A2C9A87B18C6087B9759A1092D10794
:1029D0001092D00708950E94DD1422E030E043E019
:1029E00050E061E070E01D9B1DC0129A439A8091F7
:1029F000D0079091D1078130910521F1B4F4892B52
:102A000091F78091A0079091A107892B61F31C9900
:102A100004C07093D1076093D0071092A107109261
:102A2000A007E1CF12984398E2CF8230910591F050
:102A30000397C9F613982E9842981092D1071092D6
:102A4000D007D1CF139A2E9A429A3093D107209370
:102A5000D007C9CF659906C08091A0079091A107C2
:102A6000892B09F25093D1074093D007D6CF8EE33C
:102A700090E09093A6088093A50886E490E0909358
:102A8000A8088093A7088BE290E09093AA0880930F
:102A9000A90889E390E09093AC088093AB0880E2AA
:102AA00090E09093AE088093AD0881E390E090931E
:102AB000B0088093AF088EE190E09093B2088093C5
:102AC000B10887E79EEBAFE3BFE380937F07909366
:102AD0008007A0938107B09382078AEA91EFA2E36F
:102AE000BFE38093830790938407A0938507B093F7
:102AF00086078FE892ECA5E5BFE380938707909364
:102B00008807A0938907B0938A0784E69BE3AFE325
:102B1000BFE380938B0790938C07A0938D07B093AE
:102B20008E078FE395E3AEE5BFE380938F07909325
:102B30009007A0939107B09392078CE497E3A9E4E0
:102B4000BFE38093930790939407A0939507B09366
:102B500096078FE29DEDA4E6BFE3809397079093DD
:102B60009807A0939907B0939A0710921C081092A7
:102B70001D081092200810921F0810921E08C0E035
:102B8000D0E080918D0890E0C817D9070CF47AC086
:102B90001092D7071092D6070E949B1380936A0762
:102BA00060916A0770E080E090E00E94BA2920E01E
:102BB00030E048EC52E40E94122920E63EEF4DE45A
:102BC0005DE40E94712A0E948B29609382087093B1
:102BD000830880938408909385080E94B713C4E00B
:102BE000D0E07724739462E0662E06E010E0EE24D5
:102BF000E394F12CE3E08E2E912CF5E0CF2ED12C36
:102C0000A2E0AA2EB12C0E94B71340E080918D085B
:102C1000481708F44CC08091800890918108813455
:102C20009145A4F0D093D707C093D6076092FD07D3
:102C300070921C0860921D08809180089091810814
:102C40009093200880931F0810921E088091D60749
:102C50009091D707049709F4B6C08091D607909158
:102C6000D7078230910509F4A9C008F05AC000972F
:102C700009F469C0019709F493C0D093D707C093B2
:102C8000D607C1CFFE01E955F84F80810E9492031B
:102C90009E01220F331FF901EA54F74F71836083BD
:102CA000F901E652F84F9183808321966ACF842FF1
:102CB00090E0880F991FFC01EE53F84F208131817D
:102CC0002935324090F0D093D707C093D6071092A1
:102CD000FD0770921C0810921D08208131813093ED
:102CE000200820931F0840931E08FC01ED56F74F63
:102CF00080819181813A9F4090F0D093D707C09313
:102D0000D6077092FD0770921C0870921D08808192
:102D100091819093200880931F0840931E084F5F75
:102D200075CF85309105B1F186309105B9F00397E3
:102D300009F0A3CF80917508882359F080916A0724
:102D4000811161CF0FC068EC70E080E090E00E94DC
:102D5000C91C1093D7070093D60755CF80916A07F7
:102D6000811105C0D092D707C092D6074CCF809171
:102D70009208882329F0F092D707E092D60743CF34
:102D800080917508882309F43ECF9092D7078092EE
:102D9000D60739CF80919208882309F434CFEBCF3E
:102DA000809192088823A9F280916A07843608F4FA
:102DB0002ACFB092D707A092D60725CF809192084C
:102DC000811121CFC6CF10921C0826E030E060E0D0
:102DD00080918D08681790F080918008909181080B
:102DE0008134914534F06092FD0770921C0824E014
:102DF00030E03093D7072093D60705CF862F90E099
:102E0000880F991FFC01EE53F84F408151814935DD
:102E1000524030F01092FD0770921C0824E030E020
:102E20008D56974FFC0180819181813A9F4030F00F
:102E30007092FD0770921C0824E030E06F5FC8CFED
:102E4000399A08950E942017419A69E170E080E064
:102E500090E00E94C91C419869E170E080E090E038
:102E60000E94C91CF1CFAF92BF92CF92DF92EF9236
:102E7000FF920F931F93CF93DF93C5E4D2E0AB840F
:102E8000BC84CD84DE84E984FA840D811E812F8187
:102E900038854B815C816A81888199810E94D31831
:102EA000811105C02F9692E0C237D90741F7DF9113
:102EB000CF911F910F91FF90EF90DF90CF90BF9037
:102EC000AF9008952F923F924F925F926F927F92B0
:102ED0008F929F92AF92BF92CF92DF92EF92FF922A
:102EE0000F931F93CF93DF930DB71EB7C82FD92F22
:102EF00008831983C62FD72F088119810DBF1EBFE4
:102F0000DF91CF911F910F91FF90EF90DF90CF90C5
:102F1000BF90AF909F908F907F906F905F904F90F9
:102F20003F902F900895C82FD92F088119810DBF88
:102F30001EBFDF91CF911F910F91FF90EF90DF9017
:102F4000CF90BF90AF909F908F907F906F905F9049
:102F50004F903F902F901895FFCF80913007909120
:102F6000310701969093310780933007089580913F
:102F7000300790913107892B29F480914307909174
:102F80004407089580E090E00895CF93DF93FB011C
:102F9000009759F1309749F1DC01CD91DC91DE01C8
:102FA0009E01109731F112965C911297428145175C
:102FB000B0F4CA17DB0739F5DC01ED93FC931286F8
:102FC0001186D487C387FA87E98780E00FC03287EC
:102FD000218714861386E901FC87EB87F6CF9D01D4
:102FE0001B960D90BC91A02DDCCF89ECDF91CF9189
:102FF0000895CD2B61F7DC01ED93FC9312861186C9
:1030000014861386E2CF32872187B487A387E9012C
:10301000FC87EB871A96FC93EE931997D6CFCF9344
:10302000DF930097C1F0DC01ED91FC91309779F0CE
:10303000A385B485EC01B983A883109721F01A9673
:103040001C921E9219971286118614861386CF0140
:10305000DF91CF910895E0E0F0E0F9CFCF93DF93D7
:10306000AC01FB010097A9F1DC012D913C912115E8
:10307000310579F1D901E901EA17FB0709F5A385C3
:10308000B4852E173F0789F4EA01B983A883109706
:1030900021F01A961C921E92199714861386128696
:1030A0001186CF01DF91CF910895BC87AB87A385AF
:1030B000B485109791F31A96DC93CE931997EDCFC0
:1030C0001B968D919C911C97ED01009759F3DC01A3
:1030D000D3CF80E090E0E6CFCF93DF930097C9F0A5
:1030E000DC01ED91FC91309781F02281621788F02C
:1030F000A385B485EC01B983A883109731F01A96A3
:103100001C921E92199714861386CF01DF91CF91DE
:103110000895E0E0F0E0F9CFFF920F931F93CF9373
:10312000DF9390912D079923D1F0FFB6F894C091C9
:103130004307D09144079D859130B9F48EE297E022
:103140000E940F18C817D90741F090934407809345
:103150004307BC01CE010E9462171D86FFBEDF91AE
:10316000CF911F910F91FF9008956A818130A9F44A
:103170008EE297E00E946C188C01892B79F3BE01D6
:103180008EE297E00E94C517C017D10731F3109364
:10319000440700934307B801DDCF6623F9F270E0DE
:1031A00061507109E5CFAF92BF92CF92DF92EF925B
:1031B000FF920F931F93CF93DF93EC01009709F4D5
:1031C0003FC041155105E1F1E114F104C9F1AB280B
:1031D000AC28AD28A9F11D866A831A8619861C863B
:1031E0001B86188A1F865C834B830D831E832F8367
:1031F0003887B7010E940F201FB7F894BE018EE2F6
:1032000097E00E94C517C82F1FBF882369F0CCEC38
:103210008C2FDF91CF911F910F91FF90EF90DF9056
:10322000CF90BF90AF90089580912D07813081F7A6
:103230000E94B717892B61F380E00E948C18E8CFB9
:10324000C9ECE6CFAF92BF92CF92DF92EF92FF929E
:103250000F931F93109244071092430710922F0769
:1032600010922E0710922D075A016B017C0100E08D
:1032700010E098014CEA57E16FEF82E397E00E947B
:10328000D3181F910F91FF90EF90DF90CF90BF90D8
:10329000AF900895209130073091310721503109C6
:1032A00030933107209330070C948C1881E0809381
:1032B0002D076FEF8EE297E00E946C18009731F0B7
:1032C00090934407809343070C94931708951F939A
:1032D000CF93DF93EC01892BA1F01FB7F89468819D
:1032E000798182E0FB018687108A17868A819B811B
:1032F0000E942E18688179818EE297E00E94C5179E
:103300001FBFDF91CF911F910895009731F0FC010D
:1033100062831182108280E0089589EC0895DF9223
:10332000EF92FF920F931F93CF93DF937C01892B32
:10333000D1F100E08AECD82E1FB7F894C7010E94A3
:103340000F18EC01009761F1DE86BC018EE297E078
:103350000E94C5178823A1F01FBFCCEC013039F4BF
:103360000E94B717892B19F080E00E948C188C2FCF
:10337000DF91CF911F910F91FF90EF90DF90089513
:103380008F859889009749F00E94391C882319F08D
:103390001FBFCDECE3CF188A1F861FBF01E0CCCF43
:1033A0001FBFC0E0DBCFC9ECE2CF8F929F92AF92FC
:1033B000BF92DF92EF92FF920F931F93CF93DF9311
:1033C000CDB7DEB72E970FB6F894DEBF0FBECDBFD8
:1033D0007C014A015B01009709F468C0DFB6F894EC
:1033E000FC01828181115CC077FD57C00E94B71734
:1033F0008C01009709F44EC0BC01C7010E94C5179B
:103400008823A1F0DFBE8CEC2E960FB6F894DEBFB9
:103410000FBECDBFDF91CF911F910F91FF90EF9025
:10342000DF90BF90AF909F908F90089591E0F8014A
:10343000958781149104A104B10441F11C870B8785
:10344000FE86ED8687E699E19A838983CE010B9605
:103450009C838B838D829E82AF82B8860A97908BE5
:1034600087870E94141C882349F0B801C7010E9475
:103470002E18F8011586108A17868DECDFBE811193
:10348000C3CF0E948C18F8018685BECFF801108A40
:103490001786F4CFDFBE88ECB7CFDFBE83E0B4CFB2
:1034A0008150F7018283DFBE80E0AECF89ECACCFE4
:1034B0000F931F93CF93DF930097E9F1DFB7F89451
:1034C000FC0120813181232B59F10E940F188C01BE
:1034D000BC018EE297E00E94C517C82F882341F0F7
:1034E000DFBFCCEC8C2FDF91CF911F910F9108950E
:1034F000F801168687859089009761F4F801108A93
:103500001786DFBF0E94B717892B61F380E00E9406
:103510008C18E8CF0E94391C882381F3CDECF1CFC1
:10352000FC0122812F3F29F02F5F2283C0E0DFBF03
:10353000D9CFCBECFCCFC9ECD5CF009721F0FC0163
:10354000628380E0089589EC08951F93CF93DF9301
:10355000EC01892BA1F01FB7F8946881798182E092
:10356000FB018687108A17868A819B810E942E180C
:10357000688179818EE297E00E94C5171FBFDF91B5
:10358000CF911F910895FC01892B39F0138212828B
:1035900014821182108280E0089589EC0895DF92F0
:1035A000EF92FF920F931F93CF93DF937C01892BB0
:1035B000D1F100E08AECD82E1FB7F894C7010E9421
:1035C0000F18EC01009761F1DE86BC018EE297E0F6
:1035D0000E94C5178823A1F01FBFCCEC013039F43D
:1035E0000E94B717892B19F080E00E948C188C2F4D
:1035F000DF91CF911F910F91FF90EF90DF90089591
:103600008F859889009749F00E94391C882319F00A
:103610001FBFCDECE3CF188A1F861FBF01E0CCCFC0
:103620001FBFC0E0DBCFC9ECE2CF8F929F92AF9279
:10363000BF92DF92EF92FF920F931F93CF93DF938E
:10364000CDB7DEB72E970FB6F894DEBF0FBECDBF55
:103650007C014A015B01892B09F47DC00E94B717E8
:103660008C01DFB6F8940097A1F4DFBE88EC2E96AB
:103670000FB6F894DEBF0FBECDBFDF91CF911F9183
:103680000F91FF90EF90DF90BF90AF909F908F9041
:103690000895F701228133812115310509F44CC0C9
:1036A0008217930709F448C0B7FC43C0BC01C701A7
:1036B0000E94C517882319F0DFBE8CECD8CF91E0AB
:1036C000F801958781149104A104B10471F11C875C
:1036D0000B87FE86ED8685EA9AE19A838983CE017F
:1036E0000B969C838B838D829E82AF82B8860A97CD
:1036F000908B87870E94141C882349F0B801C7016A
:103700000E942E18F8011586108A17868DECDFBEF0
:103710008111ADCF0E948C18F80186858111A7CF49
:10372000F70194819F5F9483A2CFF801108A1786D6
:10373000EECFDFBE83E09BCFF70184818F3F41F066
:103740008F5F8483232B11F41383028380E001C0F5
:103750008BECDFBE8CCF89EC8ACFEF92FF920F9378
:103760001F93CF93DF938C01892B09F44CC00E94E7
:10377000B717DFB7F894F8012281338182179307D6
:1037800051F0DFBFCFEC8C2FDF91CF911F910F91C4
:10379000FF90EF900895F801C481C150C483C11116
:1037A0002FC01382128280819181892B39F1C80147
:1037B0000E940F187C01BC018EE297E00E94C517A1
:1037C000C82F882319F0DFBFCCECDDCFF7011686B8
:1037D000F801F382E282F70187859089009741F42E
:1037E000F701108A1786DFBF80E00E948C18CBCFCC
:1037F0000E94391C8823A1F3CDECF5CFDFBFC3CFE6
:10380000DFBFC0E0C0CFC9ECBECFCF93009751F06F
:10381000CFB7F894FC01608171818EE297E00E943D
:10382000C517CFBFCF910895FC01892B01F180818D
:103830009181892BE1F084819581A681B781892BC3
:103840008A2B8B2BA1F02FB7F89480914907909188
:103850004A07009749F411861086F0934A07E093CF
:1038600049072FBF80E0089591878087F6CF89ECC4
:103870000895BC01892B29F15FB7F894209149077D
:1038800030914A07F901D901309711F48EEC0DC03F
:1038900040859185E617F70781F4E217F30739F4BD
:1038A0004093490790934A0780E05FBF08951896B8
:1038B0004C93189719969C93F7CFDF01E42FF92FBB
:1038C000E3CF89EC08956091450770914607809198
:1038D00047079091480708956093450770934607FE
:1038E000809347079093480708950F931F93CF93B2
:1038F000DF9380912D078823D1F080914507909127
:103900004607A0914707B09148070196A11DB11D38
:103910008093450790934607A0934707B0934807C5
:103920000091490710914A07E801209729F4DF9197
:10393000CF911F910F9108958C819D81AE81BF81A0
:103940000197A109B1098C839D83AE83BF83892B25
:103950008A2B8B2BE1F42091490730914A07888507
:103960009985C217D30779F490934A078093490742
:10397000E881F981309719F08A819B810995088443
:10398000D985C02DD2CFF80191878087F1CF8E01E4
:10399000F6CFCF92DF92EF92FF920F931F93CF93C8
:1039A000DF93CDB7DEB72C970FB6F894DEBF0FBE0E
:1039B000CDBF6B017C010E94B717FC01C114D1047B
:1039C000E104F10491F1892B91F10FB7F89481E0B2
:1039D0008587FC87EB8785E09CE19A838983CE010C
:1039E0000B969C838B83CD82DE82EF82F8860A97CA
:1039F000908B87870E94141C182F0FBF882389F093
:103A00001DEC812F2C960FB6F894DEBF0FBECDBFF4
:103A1000DF91CF911F910F91FF90EF90DF90CF90AA
:103A2000089580E00E948C18ECCF19ECEACF18ECD6
:103A3000E8CF1F93CF93DF93EC01892BA1F01FB741
:103A4000F8946881798182E0FB018687108A178665
:103A50008C819D810E942E18688179818EE297E089
:103A60000E94C5171FBFDF91CF911F910895CF927C
:103A7000DF92EF92FF920F931F93CF93DF93EC01AE
:103A8000CB016C817D812A893B89620F731F4E8136
:103A90005F810E94DE2A2E813F8148855985CA8830
:103AA000DB88EC88FD88C20ED31EE41EF51ECA8A90
:103AB000DB8AEC8AFD8A8E899F89A88DB98D019752
:103AC000A109B1098E8B9F8BA88FB98F6A857B85E1
:103AD0008C859D850E94EA27C616D706E806F9065A
:103AE00020F01A8A1B8A1C8A1D8ACE010E940F1898
:103AF0008C01009709F1BC018EE297E00E94C51786
:103B0000C82F81111BC0F801168687859089009700
:103B100069F4F801108A17868C2FDF91CF911F91DD
:103B20000F91FF90EF90DF90CF9008950E94391C85
:103B3000882379F3CDECF0CFC0E0EECFCCECECCF26
:103B4000CF92DF92EF92FF920F931F93CF93DF9369
:103B5000EC012C813D818E859F854E815F81820F96
:103B6000931F0E94DE2A2E813F8148855985CE848D
:103B7000DF84E888F988C20ED31EE41EF51ECE86C7
:103B8000DF86E88AF98A8E899F89A88DB98D01968A
:103B9000A11DB11D8E8B9F8BA88FB98F6A857B85E8
:103BA0008C859D850E94EA27C616D706E806F90689
:103BB00020F01E861F86188A198ACE0102960E945E
:103BC0000F188C01009709F1BC018EE297E00E946A
:103BD000C517C82F81111BC0F801168687859089EB
:103BE000009769F4F801108A17868C2FDF91CF9126
:103BF0001F910F91FF90EF90DF90CF9008950E945A
:103C0000391C882379F3CDECF0CFC0E0EECFCCECBB
:103C1000ECCFEF92FF920F931F93FC01892B69F178
:103C20006115710551F1211531054105510529F144
:103C3000E114F1040105110501F175836483268304
:103C4000378340875187E286F38604871587118280
:103C500010821382128216861786108A118A128A9F
:103C6000138A148A158A168A178A108E118E80E09C
:103C70001F910F91FF90EF90089589ECF9CFBF92BB
:103C8000CF92DF92EF92FF920F931F93CF93DF9328
:103C90007C01009709F446C000E06C0182E0C80E88
:103CA000D11C8AECB82E1FB7F894C6010E940F18D9
:103CB000EC01892B31F4C7010E940F18EC01892B0C
:103CC00071F1BE86BE018EE297E00E94C51788237F
:103CD000B1F01FBFCCEC013039F40E94B717892B2B
:103CE00019F080E00E948C188C2FDF91CF911F91EA
:103CF0000F91FF90EF90DF90CF90BF9008958F8548
:103D00009889009749F00E94391C882319F01FBF39
:103D1000CDECE1CF188A1F861FBF01E0C4CF1FBFC3
:103D2000C0E0D9CFC9ECE0CF4F925F926F927F9203
:103D30008F929F92AF92BF92CF92DF92EF92FF92BB
:103D40000F931F93CF93DF93CDB7DEB760970FB676
:103D5000F894DEBF0FBECDBF6C012A013B015901B3
:103D6000009709F494C02115310509F490C00FB7EC
:103D7000F894FC0186899789A08DB18D892B8A2BB7
:103D80008B2B09F076C077FD71C00E94B7177C01BC
:103D9000009709F468C04601F2E08F0E911CBC0147
:103DA000C4010E94C517182F81115AC081E0F70184
:103DB0008587411451046104710409F44DC0FC86E7
:103DC000EB86DE86CD86988A8F8689E19DE19A838F
:103DD0008983CE010B969C838B834D825E826F829A
:103DE00078860A97908B87870E94141C182F882347
:103DF00049F0B701C4010E942E18F7011586108AF8
:103E000017861DEC0FBF11110FC080E00E948C18A7
:103E1000F7011685111108C00FB7F894B501C60156
:103E20000E94371D182F0FBF812F60960FB6F89490
:103E3000DEBF0FBECDBFDF91CF911F910F91FF90DD
:103E4000EF90DF90CF90BF90AF909F908F907F903A
:103E50006F905F904F900895F701108A1786D2CF28
:103E60000FBF1CECE1CF0FBF18ECDECF0FBF13E08C
:103E7000DBCFB901C6010E94371D182F0FBF0E946A
:103E8000B717892B89F280E00E948C18CDCF19ECEE
:103E9000CBCF4F925F926F927F92AF92BF92CF92B1
:103EA000DF92EF92FF920F931F93CF93DF93CDB7E3
:103EB000DEB760970FB6F894DEBF0FBECDBF6C01C2
:103EC0002A013B015901009709F493C021153105DE
:103ED00009F48FC00FB7F894FC0146895789608DAB
:103EE000718D82859385A485B585481759076A0722
:103EF0007B0709F070C077FC6BC00E94B7177C018C
:103F0000009709F462C0BC01C6010E94C517182FB2
:103F1000811158C081E0F701858741145104610483
:103F2000710409F44BC0FC86EB86DE86CD86D88A08
:103F3000CF8689E19DE19A838983CE010B969C838C
:103F40008B834D825E826F8278860A97908B8787FB
:103F50000E94141C182F882349F0B701C6010E9443
:103F60002E18F7011586108A17861DEC0FBF111148
:103F70000FC080E00E948C18F7011685111108C04F
:103F80000FB7F894B501C6010E94A01D182F0FBFEE
:103F9000812F60960FB6F894DEBF0FBECDBFDF91C4
:103FA000CF911F910F91FF90EF90DF90CF90BF9036
:103FB000AF907F906F905F904F900895F701108AB7
:103FC0001786D4CF0FBF1CECE3CF0FBF18ECE0CFA8
:103FD0000FBF13E0DDCFB901C6010E94A01D182F4D
:103FE0000FBF0E94B717892B99F280E00E948C18AE
:103FF000CFCF19ECCDCF0E94B7177894009771F00E
:10400000DC011396ED91FC911497309739F01596D9
:104010006D917D918D919C911897099408952BEF46
:104020003FE1FB0120833197308331971082319734
:104030001082319710823197108231971082319718
:104040001082319710823197108231971082319708
:1040500010823197108231971082319710823197F8
:1040600010823197108231971082319710823197E8
:10407000108264517109FC0171836083089586E8A0
:1040800091E0909389008093880082E080936F0094
:104090008CE08093810008951F920F920FB60F92CB
:1040A00011240BB60F922F933F934F935F936F930F
:1040B0007F938F939F93AF93BF93EF93FF930E9450
:1040C000AD170E94751C81E00E944A19FF91EF9183
:1040D000BF91AF919F918F917F916F915F914F9120
:1040E0003F912F910F900BBE0F900FBE0F901F901E
:1040F00018951F920F920FB60F9211240F900FBEBA
:104100000F901F9018958AE28093B8008FEF8093EC
:10411000BB0084E08093BC0008958091BC00817056
:1041200008958091BC0080FDFCCF8091000108952E
:104130002091BC0020FDFCCF60934D07FC01208145
:1041400020934E0720FF09C010924B0788EF809301
:10415000000185EA8093BC000895FC013196AFE42C
:10416000B7E081E0861780F791919D938F5FFACF3A
:104170008091BC0080FDFCCF10924B0788EF8093AC
:10418000000185EA8093BC0008952091BC0020FDC9
:10419000FCCF20914B0720FD04C080914B0781701C
:1041A0000895AEE4B7E0282FFC018E2F821B8617FE
:1041B000A0F78D918193F9CF1F920F920FB60F92B6
:1041C00011240BB60F922F933F938F939F93EF93EE
:1041D000FF938091B900883249F0D0F4803121F00A
:1041E000883121F08830D1F410924C07E0914C07CF
:1041F00080914D07E81720F581E08E0F80934C07E2
:10420000F0E0E25BF84F80818093BB0085E836C028
:10421000803449F148F4883309F43FC08091B900F3
:104220008093000184E02AC0803589F08835B1F799
:104230008091BB00E0914C07F0E0E25BF84F808397
:1042400080914B07816080934B0784E917C0E09110
:104250004C0781E08E0F80934C078091BB00F0E00B
:10426000E25BF84F808320914C0730E080914D074E
:1042700090E00197281739074CF685EC8093BC0035
:10428000FF91EF919F918F913F912F910F900BBED6
:104290000F900FBE0F901F90189585EAEFCF0E94E8
:1042A0000727882341F00E94BE268091D8008260B3
:1042B0008093D80081E008950F931F93CF93DF93ED
:1042C00000D000D0CDB7DEB78C01DC0111968D9106
:1042D0009C9112970C97F1F41A968C911A9780364C
:1042E00069F48C918295807F8093ED008091EF003E
:1042F0008F738093EF001092EE001C92F8011286EB
:1043000080E00F900F900F900F90DF91CF911F9151
:104310000F9108950E94CB268F3F09F4A4C490E624
:10432000D8011A969C931A978C938295807F8093DC
:10433000ED00EEEEF0E01192E83FF105E1F7D80173
:104340001196ED91FC9112973197EB30F10508F041
:1043500086C4E355FE4D0C947D28F6215F22CD22C4
:10436000302362239A23D5236B24E924B8218C259A
:1043700080E0F8019781891708F4C2C319821A8274
:104380001B821C821092F7008B81880F880F880F88
:104390009A81929596959770890F8093F6008A81FD
:1043A000880F880F880F9981929596959770890F3D
:1043B0008093F5008981880F880F880F8093F4001F
:1043C0008091EF009781892B8093EF0081E08387B4
:1043D0008091F40084608093F4008091F000846008
:1043E0008093F0008091EF008062DCC1F801848549
:1043F000882309F43FC08681880F880F880F958134
:10440000929596959770890F8093F3008581880F18
:10441000880F880F9481929596959770890F809355
:10442000F2008481880F880F880F9381929596956A
:104430009770890F8093F1008381880F880F880F10
:104440008093F0008091EF0080618093EF0080E026
:10445000F8019781891718F18385882361F180918C
:10446000F00084608093F0008091EF00D8011796EF
:104470009C9164C084818295880F807E93819695FB
:1044800096959695890F8093F30083818295880F86
:10449000807E8093F2008091EF008F7ED6CFD8018E
:1044A0001896ED91FC911997E80FF11D908190936A
:1044B000FA008F5FCDCF8091F0008B7FD3CFF801D2
:1044C0008485882309F448C08681880F880F880F67
:1044D0009581929596959770890F8093F3008581C9
:1044E000880F880F880F9481929596959770890F01
:1044F0008093F2008481880F880F880F93819295B2
:1045000096959770890F8093F1008381880F880FAB
:10451000880F8093F0008091EF0080618093EF001E
:1045200080E0F8019781891760F113868091F0008F
:104530008B7F8093F0008091EF009781892B80938F
:10454000EF008091EF008F738093EF008091EF0078
:1045500080648093EF00D4CE84818295880F807E22
:104560009381969596959695890F8093F300838114
:104570008295880F807E8093F2008091EF008F7E7D
:10458000CDCFD8011896ED91FC911997E80FF11D48
:1045900090819093FA008F5FC4CFD8011C968C91C4
:1045A0001C97882309F446C016968C911697880F9D
:1045B000880F880F15969C911597929596959770F0
:1045C000890F8093F30015968C911597880F880FAB
:1045D000880F14969C911497929596959770890FD1
:1045E0008093F20014968C911497880F880F880F8F
:1045F00013969C911397929596959770890F809337
:10460000F10013968C91880F880F880F8093F0002B
:104610008091EF0080618093EF0081E0D8011B96CC
:104620008C931B978091F00084608093F0008091C0
:10463000EF001DCFF80184818295880F807E9381E1
:10464000969596959695890F8093F3008381829530
:10465000880F807E8093F2008091EF008F7EDBCF09
:1046600019821A821B821C821092F7008B81880F9C
:10467000880F880F9A81929596959770890F8093ED
:10468000F6008A81880F880F880F998192959695F8
:104690009770890F8093F5008981880F880F880FA4
:1046A0008093F4008091EF00F8019781892B80932B
:1046B000EF008091F4008B7F8093F4008091F400F0
:1046C0008E7FE8C019821A821B821C821092F7002A
:1046D0008B81880F880F880F9A8192959695977095
:1046E000890F8093F6008A81880F880F880F99813F
:1046F000929596959770890F8093F5008981880F20
:10470000880F880F8093F4008091EF00D8011796EE
:104710009C911797892B8093EF001B961C92809198
:10472000F40084608093F4008091F0008B7F80938C
:10473000F000C4CF19821A821B821C821092F700EB
:104740008B81880F880F880F9A8192959695977024
:10475000890F8093F6008A81880F880F880F9981CE
:10476000929596959770890F8093F5008981880FAF
:10477000880F880F8093F4008091EF00F8019781F3
:10478000892B8093EF0081E083878091F40084601F
:104790008093F4008091F00084608093F000809119
:1047A000EF008F7D8093EF0089CFD8011C968C910C
:1047B0001C97882309F479C016968C911697880F58
:1047C000880F880F15969C911597929596959770DE
:1047D000890F8093F30015968C911597880F880F99
:1047E000880F14969C911497929596959770890FBF
:1047F0008093F20014968C911497880F880F880F7D
:1048000013969C911397929596959770890F809324
:10481000F10013968C91880F880F880F8093F00019
:104820008091EF0080618093EF008FEF9FEFDC01BC
:1048300089839A83AB83BC838093F7008B81880F35
:10484000880F880F9A81929596959770890F80931B
:10485000F6008A81880F880F880F99819295969526
:104860009770890F8093F5008981880F880F880FD2
:104870008093F4008091EF00D80117969C91892BCA
:104880008093EF008091F4008B7F8093F4008091FF
:10489000F40081608093F4008091EF008F73809327
:1048A000EF008091EF00806854CEF80184818295FA
:1048B000880F807E9381969596959695890F809323
:1048C000F30083818295880F807E8093F20080912F
:1048D000EF008F7EA8CFF8018485882309F464C097
:1048E0008681880F880F880F95819295969597708D
:1048F000890F8093F3008581880F880F880F94813A
:10490000929596959770890F8093F2008481880F15
:10491000880F880F9381929596959770890F809351
:10492000F1008381880F880F880F8093F0008091B9
:10493000EF0080618093EF008FEF9FEFDC018983B0
:104940009A83AB83BC838093F7008B81880F880F99
:10495000880F9A81929596959770890F8093F600AB
:104960008A81880F880F880F998192959695977004
:10497000890F8093F5008981880F880F880F8093B5
:10498000F4008091EF00F8019781892B8093EF006C
:1049900013868091F40084608093F4008091F0008D
:1049A0008B7F8093F00073CF84818295880F807E07
:1049B0009381969596959695890F8093F3008381C0
:1049C0008295880F807E8093F2008091EF008F7E29
:1049D000B1CFD8011C968C911C97882309F47AC01A
:1049E00016968C911697880F880F880F15969C91B4
:1049F0001597929596959770890F8093F300159669
:104A00008C911597880F880F880F14969C91149796
:104A1000929596959770890F8093F20014968C91D9
:104A20001497880F880F880F13969C91139792956F
:104A300096959770890F8093F10013968C91880F4B
:104A4000880F880F8093F0008091EF008061809341
:104A5000EF008FEF9FEFDC0189839A83AB83BC83E8
:104A60008093F7008B81880F880F880F9A81929529
:104A700096959770890F8093F6008A81880F880F2A
:104A8000880F9981929596959770890F8093F5007C
:104A90008981880F880F880F8093F4008091EF0040
:104AA000D80117969C911797892B8093EF0081E08E
:104AB0001B968C938091F40084608093F400809125
:104AC000F00084608093F0008091EF008F7D8093F0
:104AD000EF00DDCEF80184818295880F807E93817E
:104AE000969596959695890F8093F300838182958C
:104AF000880F807E8093F2008091EF008F7EA7CF99
:104B0000D8011896ED91FC911997E80FF11D90814D
:104B10009093FA008F5F2DCCD8011C968C911C9736
:104B2000882309F47AC016968C911697880F880FFF
:104B3000880F15969C911597929596959770890F69
:104B40008093F30015968C911597880F880F880F26
:104B500014969C911497929596959770890F8093CF
:104B6000F20014968C911497880F880F880F139673
:104B70009C911397929596959770890F8093F10069
:104B800013968C91880F880F880F8093F000809186
:104B9000EF0080618093EF0080E0F8019781891732
:104BA00008F451C08FEF9FEFDC0189839A83AB83B8
:104BB000BC838093F7008B81880F880F880F9A81C0
:104BC000929596959770890F8093F6008A81880F49
:104BD000880F880F9981929596959770890F809389
:104BE000F5008981880F880F880F8093F4008091E9
:104BF000EF009781892B8093EF0081E0838780917C
:104C0000F40084608093F4008091F00084608093CD
:104C1000F0008091EF0080625ACFF8018481829584
:104C2000880F807E9381969596959695890F8093AF
:104C3000F30083818295880F807E8093F2008091BB
:104C4000EF008F7EA7CFD8011896ED91FC911997B0
:104C5000E80FF11D90819093FA008F5F9ECFD801ED
:104C60001A961C924DCB9FE1F80192874ACB1F9375
:104C7000CF93DF93EC018A858823D1F08F31C1F087
:104C80008F3FB1F088818295807F8093ED000E94F4
:104C9000E026182F803299F068F4882309F46CC05C
:104CA0001A878091EF008F738093EF001092EE00CF
:104CB00082E04CC0803409F440C0803A89F780918A
:104CC000EF008F708F83888599850E94F3268091ED
:104CD000F00082FB882780F98B878091EF0084FFAA
:104CE00039C081E08C878091F30086958695869502
:104CF0008E838091F2009091F3008695869586953B
:104D00009295990F907E890F8D838091F1009091FB
:104D1000F2008695869586959295990F907E890FDB
:104D20008C838091F0009091F10086958695869510
:104D30009295990F907E890F8B831A878091EF004F
:104D40008F738093EF001092EE0080E0DF91CF919F
:104D50001F9108951C868091F30082958695877037
:104D60008C838091F2009091F300829586958770F4
:104D7000990F990F990FDFCF81E0E8CF80E0809302
:104D8000ED00EEEEF0E01192E83FF105E1F7805F13
:104D90008036A9F708953091ED0090E080E090937F
:104DA000ED002091EF00207C19F43093ED00089580
:104DB0008F5F905F863099F73093ED008FEF089505
:104DC0008091EF00807C69F09091EE00892F807EC9
:104DD000803241F0803431F0803A21F0892F8F7198
:104DE00008958FEF0895BC0190E02091EF00492FC6
:104DF00050E02F7030E0421753070CF00895809177
:104E0000FA00460F571FFA0180839F5FEECF81E0C3
:104E10008093D80088E08093E2008CE08093E300E8
:104E200087E38093E40081E00895681708F4682F11
:104E3000862F089590917A009F7790937A009091B1
:104E40007A00977F90937A0090917A009061909386
:104E50007A00813061F020F0833091F180E011C060
:104E600080917C008F7380937C0081E00AC09091D8
:104E70007C009F7790937C0090917C00906490934D
:104E80007C00662309F1613031F590917C009062DD
:104E900090937C0090917C00907E90937C00909108
:104EA0007C00492B40937C0090917A00987F9093EE
:104EB0007A0090917A00966090937A00862B0895FC
:104EC00080917C00806CCFCF90917C009F7D9093EF
:104ED0007C0061E0DFCF60E0DDCF20917C00982F87
:104EE000906E922390937C0090917E0021E030E0C0
:104EF00001C0220F8A95EAF7892F822B80937E00CA
:104F000080917A00806880937A0080917C00807C18
:104F1000803C31F480EE9FE7000000000197E1F74C
:104F200080917A008F7D80937A0080917A008064EE
:104F300080937A0080917A0084FFFCCF80917A0080
:104F4000806180937A0020E180E090E030917A00E7
:104F50003F7D30937A0030917A00306430937A004C
:104F600030917A0034FFFCCF409178005091790065
:104F7000840F951F30917A00306130937A00215070
:104F800029F720917A002F7720937A0024E09695D4
:104F900087952A95E1F7089581EA93E09EBF8DBF3A
:104FA00040E051E060E070E081EA94E00E94221964
:104FB000811108C00E943F200E943317811102C056
:104FC0000E9456198FEF81B992B181E0911180E072
:104FD00082B9FACFDB018F939F930E948628BF91FD
:104FE000AF91A29F800D911DA39F900DB29F900D38
:104FF00011240895991B79E004C0991F961708F0B1
:10500000961B881F7A95C9F78095089587FB082E0F
:10501000062687FD819567FD61950E94FA270EF4AB
:10502000919507FC81950895AA1BBB1B51E107C010
:10503000AA1FBB1FA617B70710F0A61BB70B881F28
:10504000991F5A95A9F780959095BC01CD010895B7
:1050500097FB072E16F4009407D077FD09D00E9425
:10506000142807FC05D03EF4909581959F4F089534
:10507000709561957F4F0895A1E21A2EAA1BBB1B64
:10508000FD010DC0AA1FBB1FEE1FFF1FA217B30714
:10509000E407F50720F0A21BB30BE40BF50B661F2A
:1050A000771F881F991F1A9469F7609570958095EE
:1050B00090959B01AC01BD01CF010895052E97FB92
:1050C0001EF400940E94752857FD07D00E943C28CA
:1050D00007FC03D04EF40C947528509540953095FC
:1050E00021953F4F4F4F5F4F089590958095709554
:1050F00061957F4F8F4F9F4F0895EE0FFF1F002444
:10510000001C0BBE0790F691E02D09940E94912897
:10511000A59F900DB49F900DA49F800D911D11240B
:105120000895A29FB001B39FC001A39F700D811D80
:105130001124911DB29F700D811D1124911D0895A0
:105140005058BB27AA270E94B8280C94322A0E94E4
:10515000242A38F00E942B2A20F039F49F3F19F4BA
:1051600026F40C94212A0EF4E095E7FB0C941B2AFC
:10517000E92F0E94432A58F3BA176207730784077E
:10518000950720F079F4A6F50C94652A0EF4E095C5
:105190000B2EBA2FA02D0B01B90190010C01CA01F1
:1051A000A0011124FF27591B99F0593F50F4503E9C
:1051B00068F11A16F040A22F232F342F4427585F8E
:1051C000F3CF469537952795A795F0405395C9F7A6
:1051D0007EF41F16BA0B620B730B840BBAF091505E
:1051E000A1F0FF0FBB1F661F771F881FC2F70EC0FD
:1051F000BA0F621F731F841F48F4879577956795D0
:10520000B795F7959E3F08F0B0CF9395880F08F0BB
:105210009927EE0F9795879508950E94F72908F42E
:1052200081E008950E9426290C94322A0E942B2A9C
:1052300058F00E94242A40F029F45F3F29F00C9492
:105240001B2A51110C94662A0C94212A0E94432A8D
:1052500068F39923B1F3552391F3951B550BBB27A5
:10526000AA2762177307840738F09F5F5F4F220FEA
:10527000331F441FAA1FA9F335D00E2E3AF0E0E8E1
:1052800032D091505040E695001CCAF72BD0FE2F2B
:1052900029D0660F771F881FBB1F261737074807BF
:1052A000AB07B0E809F0BB0B802DBF01FF27935877
:1052B0005F4F3AF09E3F510578F00C941B2A0C94F6
:1052C000662A5F3FE4F3983ED4F386957795679519
:1052D000B795F7959F5FC9F7880F911D96958795AC
:1052E00097F90895E1E0660F771F881FBB1F6217CB
:1052F00073078407BA0720F0621B730B840BBA0B89
:10530000EE1F88F7E09508950E948B296894B111EB
:105310000C94662A08950E944B2A88F09F5798F0B3
:10532000B92F9927B751B0F0E1F0660F771F881FAA
:10533000991F1AF0BA95C9F714C0B13091F00E94C4
:10534000652AB1E008950C94652A672F782F882785
:10535000B85F39F0B93FCCF3869577956795B395EB
:10536000D9F73EF490958095709561957F4F8F4F5A
:105370009F4F0895E89409C097FB3EF4909580955F
:10538000709561957F4F8F4F9F4F9923A9F0F92F0B
:1053900096E9BB279395F695879577956795B79589
:1053A000F111F8CFFAF4BB0F11F460FF1BC06F5F6F
:1053B0007F4F8F4F9F4F16C0882311F096E911C081
:1053C000772321F09EE8872F762F05C0662371F0A2
:1053D00096E8862F70E060E02AF09A95660F771FB6
:1053E000881FDAF7880F9695879597F90895990F92
:1053F0000008550FAA0BE0E8FEEF16161706E8079F
:10540000F907C0F012161306E407F50798F0621BBF
:10541000730B840B950B39F40A2661F0232B242B94
:10542000252B21F408950A2609F4A140A6958FEFB3
:10543000811D811D089597F99F6780E870E060E005
:1054400008959FEF80EC089500240A94161617061D
:1054500018060906089500240A9412161306140665
:1054600005060895092E0394000C11F4882352F0C8
:10547000BB0F40F4BF2B11F460FF04C06F5F7F4F80
:105480008F4F9F4F089557FD9058440F551F59F067
:105490005F3F71F04795880F97FB991F61F09F3F21
:1054A00079F087950895121613061406551FF2CF4A
:1054B0004695F1DF08C0161617061806991FF1CF9A
:1054C00086957105610508940895E894BB276627C1
:1054D0007727CB0197F908950E94F72908F48FEFF9
:1054E00008950E94842A0C94322A0E94242A38F0BB
:1054F0000E942B2A20F0952311F00C941B2A0C9467
:10550000212A11240C94662A0E94432A70F3959F45
:10551000C1F3950F50E0551F629FF001729FBB27AA
:10552000F00DB11D639FAA27F00DB11DAA1F649F46
:105530006627B00DA11D661F829F2227B00DA11DF9
:10554000621F739FB00DA11D621F839FA00D611D7F
:10555000221F749F3327A00D611D231F849F600DA0
:10556000211D822F762F6A2F11249F5750409AF0C9
:10557000F1F088234AF0EE0FFF1FBB1F661F771F55
:10558000881F91505040A9F79E3F510580F00C9420
:105590001B2A0C94662A5F3FE4F3983ED4F3869569
:1055A00077956795B795F795E7959F5FC1F7FE2BC0
:1055B000880F911D9695879597F90895FB01DC0159
:1055C00002C001900D9241505040D8F70895BB277A
:1055D0004A3031F4992322F4BDE2909581959F4F92
:1055E0000C94F32ABB27FB015527AA27880F991F84
:1055F000AA1FA41710F0A41B83955051B9F7A05D02
:10560000AA3308F0A95DA193009779F7B111B1937E
:105610001192CB010C94672D0F931F93CF93DF93BF
:10562000CDB7DEB72E970FB6F894DEBF0FBECDBF55
:105630000D891E8986E08C831A8309838FEF9FE78B
:105640009E838D83AE01475E5F4F6F89788DCE015B
:1056500001960E943C2B2F813885020F131FF80101
:1056600010822E960FB6F894DEBF0FBECDBFDF912D
:10567000CF911F910F9108952F923F924F925F9279
:105680006F927F928F929F92AF92BF92CF92DF9252
:10569000EF92FF920F931F93CF93DF93CDB7DEB7B7
:1056A0002B970FB6F894DEBF0FBECDBF7C013B0138
:1056B0008A01FC0117821682838181FFEFC1CE012E
:1056C00001965C01F7019381F30193FD859193FFAE
:1056D00081913F01882309F42FC1853239F493FD6C
:1056E000859193FF81913F01853229F4B70190E0C4
:1056F0000E94772DE7CF912C212C312CFFE1F3155F
:1057000038F08B32D9F090F48032D9F0833249F1FD
:1057100037FC41C020ED280F2A3070F536FE24C03A
:105720008AE0989E200D1124922E0EC08D32A9F091
:10573000803371F7232D2160322E06C0832D8260C5
:10574000382EE32DE4603E2EF30193FD859193FF07
:1057500081913F018111D2CF1EC0F32DF8603F2E01
:10576000F3CF232D2061E8CFEAE02E9E200D1124F7
:10577000222EF32DF062F3CF8E3229F436FCDCC0FA
:10578000232D2064D9CF8C3621F4832D8068382EC8
:10579000DBCF8836C9F2982F9F7D95549330D8F08F
:1057A0008336C9F18337E9F1833509F068C02801F0
:1057B00022E0420E511CF801C080D18036FE45C067
:1057C000692D70E0C6010E94512D4C01F32DF06847
:1057D0003F2E82010BC00C5F1F4F9FE399838824EB
:1057E0008394912C6501F32DFF773F2E33FC05C088
:1057F000822D90E08816990658F1522C811491045C
:1058000071F5552009F45ECFB70180E290E00E9467
:10581000772D5A94F6CFF801808189830E5F1F4F50
:10582000DECF2801F2E04F0E511CF801C080D1807C
:1058300036FE08C0692D70E0C6010E945C2D4C0147
:105840008201D1CF6FEF7FEFF7CF6FEF7FEFBACF4E
:10585000B70180E290E00E94772D2A94C9CFF6012B
:1058600037FC859137FE81916F01B70190E00E946E
:10587000772D51105A9421E0821A9108BFCF8436B7
:1058800011F08936C1F5F80137FE2CC060817181B5
:10589000828193810C5F1F4FF32DFF763F2E97FF80
:1058A00009C090958095709561957F4F8F4F9F4F60
:1058B000F0683F2E2AE030E0A5010E94A72DC82EF7
:1058C000CA1836FE77C0232D2E7F422EC91408F049
:1058D000B0C034FE05C032FC03C0832D8E7E482E3E
:1058E000892C6AC060817181072E000C880B990B8E
:1058F0000E5F1F4FD1CF8537B9F4232D2F7ED22EC7
:105900002AE030E0F801D7FE4EC0608171818281CB
:1059100093810C5F1F4FA5010E94A72DC82ECA18A6
:10592000FD2DFF773F2ECDCF932D997FD92E8F362A
:10593000B9F1F0F4883561F1F701868197812B96F2
:105940000FB6F894DEBF0FBECDBFDF91CF911F9190
:105950000F91FF90EF90DF90CF90BF90AF909F900E
:105960008F907F906F905F904F903F902F90089511
:10597000803751F0883701F7D4FE03C0FD2DF46065
:10598000DF2E20E130E0BECFE92FE061DE2EF4CF44
:1059900034FE03C0292F2660D22E20E132E0B2CFA0
:1059A00028E030E0AFCF6081718180E090E00E5F51
:1059B0001F4FB1CF8C2C432C44FE44C0FE01EC0D94
:1059C000F11D80818033B9F5942D997E492EE42D07
:1059D000E8705E2E43FC44C040FE3EC0821408F0D6
:1059E00044C02C0C922C981844FE44C0B70180E3AC
:1059F00090E00E94772D42FE07C041FC38C088E746
:105A000090E0B7010E94772DC91408F440C0CA94F1
:105A1000D12CFFEFCF1ADF0ACA0CDB1CF6018291F2
:105A20006F01B70190E00E94772DAC14BD04B1F76F
:105A3000E8CE8C2CC1CF42FC02C08394C8CF8394A3
:105A40008394C5CF842D867811F2F7CFB70180E219
:105A500090E00E94772D83948214C0F3512CC4CF20
:105A60008214E0F7522C5818BFCF9C2CBDCF88E58C
:105A700090E0C7CF842D867839F241FE06C08BE2D4
:105A800047FC8DE2B70190E0BDCF80E2F9CFB701CE
:105A900080E390E00E94772D9A94B6CF8FEF9FEF2E
:105AA0004ECFFC010590615070400110D8F78095F1
:105AB00090958E0F9F1F0895FC01615070400190DA
:105AC0000110D8F7809590958E0F9F1F0895DC01E7
:105AD000FC01672F71917723E1F7329704C07C9125
