:100000000C9455000C9474000C9474000C947400BF
:100010000C9474000C9474000C9474000C94740090
:100020000C9474000C9474000C9474000C94740080
:100030000C9467240C9474000C9474000C94740059
:100040000C9474000C9474000C9474000C94740060
:100050000C9474000C9474000C9474000C94740050
:100060000C9474000C9474000C9474000C94740040
:100070000C9474000C9474000C9474000C94740030
:100080000C9474000C9474000C9474000C94F92477
:100090000C947400C0253226AA260C273C2774270E
:1000A000B0273228BC284A299C2911241FBECFEF33
:1000B000D0E1DEBFCDBF13E0A0E0B1E0E6ECF4E6B6
:1000C00000E00BBF02C007900D92A631B107D9F72F
:1000D00020E1A6E1B3E001C01D92A537B207E1F728
:1000E0000E94F82B0C9461320C949424CF93DF93EC
:1000F00000D000D0CDB7DEB71B821C8281E7898398
:100100001A8240E050E0BA018CE690E10E94471F5D
:1001100062E0CE0101960E94B32462E0CE01039614
:100120000E94E2248CE690E10E94E31F8C8180FF14
:1001300003C01092041003C091E09093041083FF59
:1001400003C01092E00F03C081E08093E00F0F9096
:100150000F900F900F90DF91CF9108951F93CF9341
:10016000DF9300D000D000D0CDB7DEB718E81983F8
:100170001A8285E48B8387E28C8340E050E0BA01E9
:100180008CE690E10E94471F64E0CE0101960E9438
:10019000B3241D8381E08E831092040F1092030F0D
:1001A00062E0CE0105960E94B3248CE690E10E94A5
:1001B000E31F26960FB6F894DEBF0FBECDBFDF91CA
:1001C000CF911F910895CF93DF9300D0CDB7DEB7C5
:1001D00088E8898381E08A8340E050E0BA018CE6B8
:1001E00090E10E94471F62E0CE0101960E94B32475
:1001F0008CE690E10E94E31F0F900F90DF91CF916A
:1002000008951F93CF93DF9300D000D000D0CDB7D7
:10021000DEB70E94E30019E81C831D821E8240E0C5
:1002200050E0BA018CE690E10E94471F63E0CE01E6
:1002300004960E94B32419831A821B8263E0CE01C4
:1002400001960E94E2248CE690E10E94E31F8A81DD
:1002500090E0982F88272B81820F911D26960FB64C
:10026000F894DEBF0FBECDBFDF91CF911F910895EF
:10027000CF93DF9300D0CDB7DEB788E8898382E0E3
:100280008A8340E050E0BA018CE690E10E94471F6B
:1002900062E0CE0101960E94B3248CE690E10E94B8
:1002A000E31F0F900F90DF91CF9108951F93CF938D
:1002B000DF9300D000D000D0CDB7DEB70E94380168
:1002C00019E81C831D821E8240E050E0BA018CE6D2
:1002D00090E10E94471F63E0CE0104960E94B32480
:1002E00019831A821B8263E0CE0101960E94E224E8
:1002F0008CE690E10E94E31F8A8190E0982F882786
:100300002B81820F911D26960FB6F894DEBF0FBE8B
:10031000CDBFDF91CF911F9108951F93CF93DF93AE
:1003200000D000D000D0CDB7DEB711E91C831D820C
:100330001E8240E050E0BA018CE690E10E94471F27
:1003400063E0CE0104960E94B32419831A821B82B3
:1003500063E0CE0101960E94E2248CE690E10E94C7
:10036000E31F8A8190E0982F88272B81820F911DAF
:1003700026960FB6F894DEBF0FBECDBFDF91CF91AA
:100380001F910895CF93DF9300D0CDB7DEB780E7FC
:1003900089838BEF8A8340E050E0BA018CE690E1DC
:1003A0000E94471F62E0CE0101960E94B3248CE6B2
:1003B00090E10E94E31F0F900F90DF91CF9108957D
:1003C000CF93DF9300D0CDB7DEB780E789838FEF7F
:1003D0008A8340E050E0BA018CE690E10E94471F1A
:1003E00062E0CE0101960E94B3248CE690E10E9467
:1003F000E31F0F900F90DF91CF910895FF920F931D
:100400001F93CF93DF9300D000D01F92CDB7DEB7FC
:10041000082FF62E142F40E050E0BA018CE690E150
:100420000E94471F80E489836F2D6C60412F50E04C
:10043000440F551F802F807F842B862B8A8328E0D2
:100440002B83462B30E1039FC0011124482B4C83A2
:100450002D8365E0CE0101960E94B3248CE690E1E5
:100460000E94E31F0F900F900F900F900F90DF915D
:10047000CF911F910F91FF90089540E060E088E2D6
:100480000E94FE0140E060E08EE00E94FE0140E03C
:1004900060E086E00C94FE010F931F93CF93DF93EF
:1004A00000D000D0CDB7DEB700E40B8318E01C838A
:1004B00040E050E0BA018CE690E10E94471F62E004
:1004C000CE0103960E94B32468E270E080E090E0E1
:1004D0000E94F72009838CE28A8362E0CE010196B4
:1004E0000E94B3241A8362E0CE0101960E94B324D5
:1004F0008CE690E10E94E31F0E943D020F900F9056
:100500000F900F90DF91CF911F910F9108950F934E
:100510001F93CF93DF93162F082FEC018C2F801B96
:10052000811730F440E061E089910E94FE01F6CF2E
:10053000DF91CF911F910F910895CF93DF9300D05A
:10054000CDB7DEB7880F89831A8240E050E0BA0148
:100550008CE690E10E94471F62E0CE0101960E9466
:10056000B3248CE690E10E94E31F0F900F90DF917F
:10057000CF910895CF93DF9300D0CDB7DEB7880F2A
:10058000898381E08A8340E050E0BA018CE690E103
:100590000E94471F62E0CE0101960E94B3248CE6C0
:1005A00090E10E94E31F0F900F90DF91CF9108958B
:1005B000CF93DF93CDB7DEB728970FB6F894DEBFA1
:1005C0000FBECDBF982F990F9E8390E39F8318860F
:1005D000880F816089831A821B821C821D8240E001
:1005E00050E0BA018CE690E10E94471F63E0CE0123
:1005F00006960E94B32465E0CE0101960E94B324C2
:1006000065E0CE0101960E94E2248C8190E0982F53
:1006100088272D81820F911D9093A00E80939F0EAD
:100620008A8190E0982F88272B81820F911D9093CB
:10063000F10E8093F00E8CE690E10E94E31F609132
:10064000F00E7091F10E80919F0E9091A00E289661
:100650000FB6F894DEBF0FBECDBFDF91CF910895E6
:100660000F931F93CF93DF9300D000D000D0CDB76E
:10067000DEB7982F990F9C8390E39D8393E09E8330
:10068000880F816089831A821B8240E050E0BA01A2
:100690008CE690E10E94471F63E0CE0104960E9421
:1006A000B32463E0CE0101960E94B32463E0CE013F
:1006B00001960E94E2241A810B818CE690E10E944F
:1006C000E31F812F90E0902B26960FB6F894DEBFA3
:1006D0000FBECDBFDF91CF911F910F910895CF93A2
:1006E0001092FE0F40E050E0BA018CE690E10E94CB
:1006F000471FC1E080E98C0F8230A8F08C2F0E9448
:100700003003853A954A79F48091FE0F803158F490
:10071000E091FE0FF0E0ED50F14FC0838091FE0FAD
:100720008F5F8093FE0FCF5FC03821F78CE690E19A
:10073000CF910C94E31FEF92FF920F931F93CF93EF
:10074000DF93CDB7DEB728970FB6F894DEBF0FBEA4
:10075000CDBF982F990F9E8390E39F8392E0988757
:10076000880F816089831A821B821C821D8240E06F
:1007700050E0BA018CE690E10E94471F63E0CE0191
:1007800006960E94B32465E0CE0101960E94B32430
:1007900065E0CE0101960E94E2240C8110E0102F4A
:1007A00000278D81082BEA80F12CFE2CEE248B8112
:1007B000E82A8CE690E10E94E31FB701C801289661
:1007C0000FB6F894DEBF0FBECDBFDF91CF911F9162
:1007D0000F91FF90EF9008950F931F93CF93DF93A6
:1007E000CDB7DEB72A970FB6F894DEBF0FBECDBFE8
:1007F000982F990F9E8390E39F8391E09887880FAD
:10080000816089831A821B821C821D8240E050E035
:10081000BA018CE690E10E94471F63E0CE01069684
:100820000E94B32465E0CE0101960E94B32465E0E6
:10083000CE0101960E94E2241D810C817B816A8198
:100840008CE690E16A8779870E94E31F6A85798543
:10085000C8012A960FB6F894DEBF0FBECDBFDF9158
:10086000CF911F910F9108951F93CF93DF9310E0C5
:10087000C12F012E000CDD0B8091FE0F90E0C817F8
:10088000D907CCF4FE01ED50F14F80810E94EC03BA
:10089000FE01EE0FFF1FEE0FFF1FE657F04F6083C4
:1008A00071838283938361E070E080E090E00E9436
:1008B000F7201F5FDDCFDF91CF911F9108958CE668
:1008C00090E10E94F51E0E949E2440E050E0BA0193
:1008D0008CE690E10E94471F0E946F030E94E00196
:1008E00064E670E080E090E00E94F7200E9434040B
:1008F0008CE690E10C94E31F40E060E080E80E9409
:10090000FE010E943D0264E18FE39FE00E948702A6
:1009100064E18AEC9FE00E94870264E18AEA9EE03B
:100920000E94870264E18AE490E10C9487022F928E
:100930003F924F925F926F927F928F929F92AF926F
:10094000BF92CF92DF92EF92FF920F931F93CF93BC
:10095000DF93CDB7DEB7C456D1090FB6F894DEBF2A
:100960000FBECDBF84E1E1E0F1E0DE01DD96019054
:100970000D928A95E1F784E1E5E1F1E0DE019996D7
:1009800001900D928A95E1F784E1E9E2F1E0DE0160
:10099000559601900D928A95E1F784E1EDE3F1E03F
:1009A000DE01119601900D928A95E1F780912D0F4D
:1009B00090912E0F8230910589F038F40097E9F07C
:1009C0000197F1F46BEE72E01DC08430910561F087
:1009D00040F00697A9F463E073E014C060EF72E0A2
:1009E00011C066EF72E00EC08091860F805D289680
:1009F0008FAF28976AEF72E005C06EEF72E002C019
:100A000066EE72E0FB0101900020E9F73197AF013B
:100A1000461B570BCE018D5B9F4F0E941C2F809170
:100A2000A90E24E6622F0E94382C805D2E968FAF8F
:100A30002E978091A90E0E94382C892F2AE0622FD0
:100A40000E94382C805D2F968FAF2F978091A90E32
:100A50000E94382C905D60969FAF60978091EE0F5A
:100A60009091EF0F64E670E00E94662C605D6596E1
:100A70006FAF65978091EE0F9091EF0F2AE030E015
:100A8000B9010E94662CCB01B9010E94662C805DE1
:100A900066968FAF66978091EE0F9091EF0FB90138
:100AA0000E94662C805D67968FAF6797C090050F98
:100AB000D090060FE090070FF090080F6091050F9F
:100AC0007091060F8091070F9091080F0E94FA2DE8
:100AD00020E030E0A9010E944B2D87FF0BC0C70129
:100AE000B6010E94FA2D90580E94C22D6B017C0124
:100AF0001DE201C010E2C701B60120EA36E841E07C
:100B000050E00E949C2C0AE0802E912CA12CB12C4C
:100B1000CA01B901A50194010E949C2C605D6896F0
:100B20006FAF6897C701B60120E137E240E050E0BF
:100B30000E949C2CCA01B901A50194010E949C2C21
:100B4000605D69966FAF6997C701B60128EE33E023
:100B500040E050E00E949C2CCA01B901A50194011B
:100B60000E949C2C605D6A966FAF6A97C701B601C0
:100B700024E630E040E050E00E949C2CCA01B9011C
:100B8000A50194010E949C2C605D6B966FAF6B97E2
:100B9000C701B601A50194010E949C2C062FCA0131
:100BA000B901A50194010E949C2C605D6C966FAF09
:100BB0006C97005D6D960FAF6D9780910D0F811151
:100BC00012C000E280E262968FAF62979EE4639665
:100BD0009FAF639785E464968FAF6497A0E52A2E54
:100BE000BFE43B2E11C004E495E462969FAF629788
:100BF00083E563968FAF63979FE464969FAF649796
:100C0000ECE42E2EF3E43F2E0E94902024E6C22E28
:100C1000D12CE12CF12CA70196010E947A2C6CE3D7
:100C2000862E912CA12CB12CCA01B901A5019401E9
:100C30000E947A2CA1966CAF7DAF8EAF9FAFA1972B
:100C4000CA01B901A50194010E947A2CA5966CAF46
:100C50007DAF8EAF9FAFA597CA01B90128E130E003
:100C600040E050E00E947A2C49015A012B013C01DE
:100C700084E1FE01FD96AFE3BFE001900D928A95FD
:100C8000E1F765968FAD65978BA766969FAD6697E2
:100C90009CA78EE28DA767969FAD67979EA71AAB1C
:100CA00068969FAD68979BAB69969FAD69979CAB23
:100CB0006A969FAD6A979DAB8EAB6B969FAD6B9717
:100CC0009FAB6C969FAD6C9798AF6D969FAD6D97EF
:100CD00099AF94E1FE01B996AAECBFE001900D92A4
:100CE0009A95E1F73AA22BA264969FAD64979CA3D4
:100CF00063969FAD63979DA362969FAD62979EA3F7
:100D00000FA394E1FE017596AAEABEE001900D9250
:100D10009A95E1F796E79B8390E39C838D8381E32B
:100D20008E8385E38F83CA01B901A70196010E94D2
:100D30007A2C7AE0C72ED12CE12CF12CCA01B90112
:100D4000A70196010E947A2C605D6987C501B401F4
:100D5000A70196010E947A2C162FCA01B901A7019A
:100D600096010E947A2C605D6A87105D1B871AE3EA
:100D70001C87C301B201A70196010E947A2C062F9D
:100D8000CA01B901A70196010E947A2C605D6D87A6
:100D9000005D0E871F87A5966CAD7DAD8EAD9FADB6
:100DA000A597A70196010E947A2C062FCA01B901C6
:100DB000A70196010E947A2C605D688B005D098B0B
:100DC0001A8BA1966CAD7DAD8EAD9FADA197A7019D
:100DD00096010E947A2C162FCA01B901A70196012B
:100DE0000E947A2C605D6B8B105D1C8B84E1FE0190
:100DF0003196AAE4B0E101900D928A95E1F7CC59C1
:100E0000DF4F0FB6F894DEBF0FBECDBFDF91CF919D
:100E10001F910F91FF90EF90DF90CF90BF90AF9018
:100E20009F908F907F906F905F904F903F902F900A
:100E30000895CF93DF93CDB7DEB7C055D1090FB674
:100E4000F894DEBF0FBECDBF84E1E1E5F1E0DE0145
:100E5000DD9601900D928A95E1F784E1E5E6F1E0F7
:100E6000DE01999601900D928A95E1F784E1E9E718
:100E7000F1E0DE01559601900D928A95E1F784E14B
:100E8000EDE8F1E0DE01119601900D928A95E1F70F
:100E90008DE223968FAF23979FE224969FAF2497EE
:100EA0009EE225969FAF259726968FAF269784E1E1
:100EB000FE01FD96AFE3BFE001900D928A95E1F748
:100EC00084E1FE01B996AAECBFE001900D928A95EB
:100ED000E1F784E1FE017596AAEABEE001900D9269
:100EE0008A95E1F784E1FE013196AAE4B0E1019030
:100EF0000D928A95E1F7C05BDF4F0FB6F894DEBF25
:100F00000FBECDBFDF91CF9108952F923F924F92A8
:100F10005F926F927F928F929F92AF92BF92CF9289
:100F2000DF92EF92FF920F931F93CF93DF93CDB792
:100F3000DEB764970FB6F894DEBF0FBECDBF94E165
:100F4000E1EAF1E0DE01119601900D929A95E1F748
:100F500090E3392E380EE82FF0E0EE0FFF1FDF018F
:100F6000AB5FBF4E8D919C911197AD90BC90119746
:100F7000CD90DC901197ED90FC90EC5EF04F0081ED
:100F8000118120813181608071804080518044E1F5
:100F9000FE013196AFE3BFE001900D924A95E1F773
:100FA000EAECFFE043E4408331825FE5252E2282B4
:100FB00056E553835AE3548368EE862E63E0962EFB
:100FC000B4010E94522C605D65838EE28683C50168
:100FD000B4010E94522C74E6A72EB12CB5010E94D8
:100FE000522C605D6783C601B4010E94522CB5018A
:100FF0000E94522CAAE0CA2ED12CB6010E94522C7B
:10100000605D6087C701B6010E94522C805D8187B8
:10101000B0E2FB2EF286F386F486F586F686F78636
:10102000F08AF18AF28AF38AEAEAFEE040833182AA
:10103000228284E583835AE35483C801B4010E9469
:10104000522C605D6583C901B4010E94522CB50128
:101050000E94522C605D6683C301B4010E94522C31
:10106000B5010E94522CB6010E94522C605D67832C
:101070008EE28087C201B6010E94522C805D81877A
:10108000F286F386F486F586F686F786F08AF18A8C
:10109000F28AF38AEAE4F0E180E580838FE28183DB
:1010A000428333828EE38483F582F682F782F08670
:1010B000F186F286F386F486F586F686F786F08A60
:1010C000F18AF28AF38A64960FB6F894DEBF0FBEF7
:1010D000CDBFDF91CF911F910F91FF90EF90DF90E7
:1010E000CF90BF90AF909F908F907F906F905F90C8
:1010F0004F903F902F9008952F923F924F925F9282
:101100006F927F928F929F92AF92BF92CF92DF9217
:10111000EF92FF920F931F93CF93DF93CDB7DEB77C
:10112000C454D1090FB6F894DEBF0FBECDBF94E111
:10113000E5EBF1E0DE01999601900D929A95E1F7C9
:1011400094E1E9ECF1E0DE01559601900D929A955B
:10115000E1F794E1EDEDF1E0DE01119601900D92E1
:101160009A95E1F720E3280F2DAF49EFE42E4FE0E9
:10117000F42E57E6C52E5FE0D52ED601F70190E29A
:1011800065E0962E9E0C91939D939E12FCCF082FA6
:1011900010E05801AA0CBB1CF501E65CFF4E8081F3
:1011A00091814AE069EF7FE00E94252FF501EF5C15
:1011B000F04F808191814AE067E67FE00E94252F11
:1011C00080E2F7019081911101C08083F601908146
:1011D000911101C08083FFEFEF1AFF0A2FEFC21AAF
:1011E000D20A9E10EECF7090F90F8090FA0F909077
:1011F000FB0F8091FC0F8EAFC090FD0F2090670F0A
:101200003090680F4090690F50906A0F60906B0F9C
:10121000F801EE0FFF1FE45EFF4E8081918164E6CE
:1012200070E00E94522C2AE030E0B9010E94522C5A
:10123000605D6FAF80819181B9010E94522C805D09
:1012400021968FAF21975801AA0CBB1CAA0CBB1C7E
:10125000F501EA53F14F7F016081718182819381B1
:101260000E94C22D605D22966FAF2297F7016081C8
:1012700071818281938120E030E040E251E40E945C
:10128000AF2E0E94C22D862F2AE0D22E6D2D0E94F5
:10129000442C905D23969FAF2397F7016081718165
:1012A0008281938120E030E048EC52E40E94AF2E2E
:1012B0000E94C22D862F6D2D0E94442C905D249695
:1012C0009FAF2497F701608171818281938120E033
:1012D00030E04AE754E40E94AF2E0E94C22D862FD0
:1012E0006D2D0E94442C97FD18C0F70180819181DB
:1012F000A281B381608171818281938120E030E09D
:101300004AE754E40E94AF2E0E94C22D862F6D2D15
:101310000E94442C20E3290F01C020E2F801ED5087
:10132000F14F80811F928F9387E093E09F938F937B
:1013300086EE9EE09F938F9325962FAF25970E9470
:101340004A2F6091E60E5091E70E4091E80EF501AC
:10135000E657F04F30819181828173812EA63FA69E
:1013600048AA59AA6AAAFFADF8AF2196EFAD219716
:10137000E9AF14E1FE01B996AFE3BFE001900D9231
:101380001A95E1F77A8E8B8E9C8EFEADFD8FCE8EF8
:101390002296EFAD2297ECA3EEE2EDA32396FFADEC
:1013A0002397FEA32496EFAD2497EFA325962FADA8
:1013B000259728A724E1FE017596AAECBFE00190CD
:1013C0000D922A95E1F7305D3E83905D9F83805DAD
:1013D0008887705D79876A8B5B8B4C8B84E1FE011B
:1013E0003196AAEABEE001900D928A95E1F780E578
:1013F00080934A109FE290934B1083E480934C10AB
:10140000FDADF0934D1090934E1080934F1081E4FA
:10141000809350108CE4809351108EE3809352108F
:1014200080E28093531080935410809355108093E2
:1014300056108093571080935810809359108093C2
:101440005A1080935B1080935C1080935D100F9016
:101450000F900F900F900F900F90CC5BDF4F0FB657
:10146000F894DEBF0FBECDBFDF91CF911F910F91DA
:10147000FF90EF90DF90CF90BF90AF909F908F90B4
:101480007F906F905F904F903F902F9008952F9294
:101490003F924F925F926F927F928F929F92AF9204
:1014A000BF92CF92DF92EF92FF920F931F93CF9351
:1014B000DF93CDB7DEB7ED970FB6F894DEBF0FBE62
:1014C000CDBF84E1E1EFF1E0DE01999601900D924C
:1014D0008A95E1F784E1E5E0F2E0DE0155960190BE
:1014E0000D928A95E1F784E1E9E1F2E0DE011196DF
:1014F00001900D928A95E1F783E580933F0F85E493
:101500008093400F84E58093410F80E28093420FE7
:1015100090E59093430F91E49093440F93E490935C
:10152000450F9BE49093460F8093470F99E4909367
:10153000480F94E49093490F80934A0F80934B0F88
:1015400080934C0F80934D0F80934E0F80934F0FDD
:101550008093500F8093510F8093520F94E1FE01BE
:10156000B996AAECBFE001900D929A95E1F794E14B
:10157000FE017596AAEABEE001900D929A95E1F7F8
:101580008887898B84E1FE013196AAE4B0E101905D
:101590000D928A95E1F764E670E080E090E00E94A9
:1015A000F7208091F20E8093810F8091F20E1F92AE
:1015B0008F930CE013E01F930F9384E59FE09F93BC
:1015C0008F930E944A2F8091810F1F928F931F93B8
:1015D0000F938EE590E19F938F930E944A2F62E3D1
:1015E00070E080E090E00E94F72081E08093E10FBE
:1015F0000FB6F894DEBF0FBECDBF78018EE5C82EC2
:1016000080E1D82E9FE0392E2224239423E5422E18
:1016100035E4532E44E5642E10E250E5752E61E466
:10162000862E73E4972EEBE4AE2EF9E4BF2E809164
:101630003910882301F18091E10F8F5F8093E10FD2
:101640008091E10F8093810F8091810F803131F47F
:101650002092E10F8091E10F8093810F8091810FA3
:101660001F928F93FF92EF92DF92CF920E944A2FA8
:10167000109239101FC08091F60F882309F18091D4
:10168000E10F81508093E10F8091E10F811102C041
:101690003092E10F8091E10F8093810F8091810F53
:1016A0001F928F93FF92EF92DF92CF920E944A2F68
:1016B0001092F60F0F900F900F900F900F900F90C9
:1016C0003091540F90915E1040923F0F5092400F16
:1016D0006092410F00E21093420F7092430F80928C
:1016E000440F9092450FA092460F1093470FB0926F
:1016F000480F24E42093490F10934A0F10934B0F87
:1017000010934C0F10934D0F10934E0F10934F0FDB
:101710001093500F1093510F1093520F84E1FE015C
:10172000B996AAECBFE001900D928A95E1F784E1A9
:10173000FE017596AAEABEE001900D928A95E1F746
:101740003887998B84E1FE013196AAE4B0E10190DB
:101750000D928A95E1F718996ACF6091810F88E020
:1017600090E02DAF0E943F3288E090E00E9431323D
:101770008093F20E80E580933F0F81E48093400FC9
:1017800083E48093410F8BE48093420F0093430FD7
:1017900089E48093440F2DAD2093450F0093460FAD
:1017A00083E58093470F85E48093480F84E5809319
:1017B000490F81E280934A0F00934B0F00934C0F27
:1017C00000934D0F00934E0F00934F0F0093500F57
:1017D0000093510F0093520F84E1FE01B996AAECD9
:1017E000BFE001900D928A95E1F784E1FE017596C4
:1017F000AAEABEE001900D928A95E1F784E1FE012C
:101800003196AAE4B0E101900D928A95E1F764E681
:1018100070E080E090E00E94F72080E0ED960FB647
:10182000F894DEBF0FBECDBFDF91CF911F910F9116
:10183000FF90EF90DF90CF90BF90AF909F908F90F0
:101840007F906F905F904F903F902F9008952F92D0
:101850003F924F925F926F927F928F929F92AF9240
:10186000BF92CF92DF92EF92FF920F931F93CF938D
:10187000DF93CDB7DEB7ED970FB6F894DEBF0FBE9E
:10188000CDBF84E1E1EFF1E0DE01999601900D9288
:101890008A95E1F784E1E5E0F2E0DE0155960190FA
:1018A0000D928A95E1F784E1EDE2F2E0DE01119616
:1018B00001900D928A95E1F78091ED0E9091EE0ED8
:1018C00090931410809313108091ED0E9091EE0E72
:1018D0009F938F9301E113E01F930F938AE79FE09B
:1018E0009F938F930E944A2F809113109091141010
:1018F0009F938F931F930F9384E690E19F938F9311
:101900000E944A2F62E370E080E090E00E94F7209E
:101910001092E10F0FB6F894DEBF0FBECDBF2801C5
:10192000F4E6EF2EF0E1FF2E212CA5E03A2EB3E5F0
:10193000BB2E15E4812E10E201E4602E84E4782EA3
:1019400094E1C92E80913910882379F18091E10FBB
:101950008F5F8093E10F8091E10F90E09B5F909308
:1019600014108093131080911310909114109F9372
:101970008F935F924F92FF92EF920E944A2F809135
:101980001310909114100F900F900F900F900F90D4
:101990000F908115964031F41092E10F309214109F
:1019A000209213101092391029C08091F60F8823CD
:1019B00029F18091E10F8823F9F08091E10F8150A6
:1019C0008093E10F8091E10F90E09B5F9093141062
:1019D0008093131080911310909114109F938F9304
:1019E0005F924F92FF92EF920E944A2F0F900F90BA
:1019F0000F900F900F900F901092F60F60917B0F49
:101A000050917C0F40917D0F309165109091661040
:101A10008091671023E5D22EB0923F0F75E4A72E78
:101A20008092400F74E57093410F00E21093420FD3
:101A300023E42093430F21E46092440F7EE47093EB
:101A4000450F1093460F6092470FE4E49E2E70926C
:101A5000480F7092490F72E570934A0F80924B0FB6
:101A6000B0924C0FB0924D0F10934E0F10934F0F3A
:101A70001093500F1093510F1093520FFE01B9960F
:101A8000AAECBFE07C2D01900D927A95E1F7FE0162
:101A90007596AAEABEE07C2D01900D927A95E1F749
:101AA000688759874A87398B9A8B8B8BFE013196D1
:101AB000AAE4B0E18C2D01900D928A95E1F7189976
:101AC00041CF8091ED0E9091EE0E019690931610FD
:101AD000809315108091ED0E9091EE0E02969093EA
:101AE000110F8093100F609113107091141082E009
:101AF00090E02DAF0E944C3260911510709116103D
:101B000084E090E00E944C326091100F7091110FB0
:101B100086E090E00E944C3282E090E00E943932F0
:101B20009093EE0E8093ED0E83E480933F0F2DADE6
:101B30002093400F8EE48093410F0093420F209337
:101B4000430F9092440F9092450F82E58093460F89
:101B5000A092470FD092480FD092490F00934A0F9E
:101B6000D0924B0FA0924C0F84E580934D0F81E2F1
:101B700080934E0F00934F0F0093500F0093510F1F
:101B80000093520F84E1FE01B996AAECBFE00190E8
:101B90000D928A95E1F784E1FE017596AAEABEE00E
:101BA00001900D928A95E1F784E1FE013196AAE455
:101BB000B0E101900D928A95E1F764E670E080E073
:101BC00090E00E94F72064E670E080E090E00E94E0
:101BD000F72080E0ED960FB6F894DEBF0FBECDBFC4
:101BE000DF91CF911F910F91FF90EF90DF90CF90F9
:101BF000BF90AF909F908F907F906F905F904F902D
:101C00003F902F900895159A1092300F10922F0F39
:101C10001092EC0E1092031008950E94030E62E3DE
:101C200070E080E090E00E94F72043E050E021E087
:101C300061E070E0E2E0F0E080912F0F9091300FD2
:101C40008130910591F01CF4009741F0F9CF82307A
:101C50009105C9F08330910579F0F2CF0599ECCF69
:101C60007093300F60932F0FE7CF059907C0F09363
:101C7000300FE0932F0FE0CF059BF9CF1092300F7C
:101C800010922F0FD9CF059909C0209303102093EC
:101C9000EC0E9093300F80932F0FCECF1092031045
:101CA0005093300F40932F0FC7CFEF92FF920F93B7
:101CB0001F93CF93DF93CDB7DEB74DB75EB780915B
:101CC000FE0F2DB73EB7281B31090FB6F8943EBF63
:101CD0000FBE2DBF2F5F3F4F80912D0F90912E0F84
:101CE000019709F086C080915D0F882309F481C0B7
:101CF00010925D0F80E09091FE0F891730F4F9018A
:101D0000E80FF11D80838F5FF6CFA0E08091FE0F7A
:101D10006A2F70E090E00197681779078CF5B0E0C2
:101D20008B2F90E06091FE0F70E061507109861773
:101D3000970724F5B901680F791FFB01E080EE2DAC
:101D4000F0E0EE0FFF1FEB5FFF4E00811181019667
:101D5000820F931FFC01F080EF2DF0E0EE0FFF1FCC
:101D6000EB5FFF4E0190F081E02DE017F10720F4CA
:101D7000FC01E082FB01F082BF5FD2CFAF5FC6CF34
:101D80008091FE0F815077E08823E9F0D901A80FF8
:101D9000B11DEC91F0E0EE0FFF1FEB5FFF4E0081F5
:101DA00011811197EC91F0E0EE0FFF1FEB5FFF4EFA
:101DB0000190F081E02D0E1B1F0B0931110508F079
:101DC000782F8150E1CF60E0A1E08091FE0F68178D
:101DD00010F5862F90E0F901E80FF91FE081F0E09F
:101DE000EE55F14F671710F0A08301C010826F5FAE
:101DF000ECCF80912D0F90912E0F019761F080E034
:101E00009091FE0F891738F4E82FF0E0EE55F14F6E
:101E100010828F5FF5CF0FB6F8945EBF0FBE4DBF37
:101E2000DF91CF911F910F91FF90EF900895CF9385
:101E3000DF93CDB7DEB728970FB6F894DEBF0FBE9D
:101E4000CDBF0E945F040E94AE000E944C0281E060
:101E50008093EB0E10925D0FF4E64F2E512C612C07
:101E6000712C222423940E949020A30192010E94AD
:101E70007A2C633371058105910558F08091EB0E42
:101E8000882349F01092EB0E20925D0F0E947C0493
:101E900002C02092EB0E65E070E080E090E00E94CE
:101EA000F720312C8091FE0F381608F08FC0032DDB
:101EB00010E0F801ED50F14F80810E94D8026B01D3
:101EC0007C019801220F331F38872F83F901E65CCC
:101ED000FF4E20813181EF81F885EF5CF04F40812A
:101EE00051815A83498356E05E9DB0015F9D700D1C
:101EF000112480E090E02D833E830E94F82D4B0159
:101F00005C012D813E81B90180E090E00E94F82DB6
:101F100020E030E040E85AE30E94AF2E9B01AC0184
:101F2000C501B4010E94AF2E4B015C0129813A81A9
:101F3000B90180E090E00E94F82D9B01AC01C50141
:101F4000B4010E94DF2C0E94C92DEF81F885EB5F60
:101F5000FF4E71836083000F111F000F111FF801E6
:101F6000EA53F14F2081318142815381EF81F8851D
:101F7000E45EFF4E00811181B6016A5F7048660F12
:101F8000771F80E090E02D833E834B835C830E942B
:101F9000F82D2D813E814B815C810E94AF2E6B011B
:101FA0007C01B80180E090E00E94F82D9B01AC011B
:101FB000C701B6010E94DF2C0E94C92DEF81F88570
:101FC000EC5EF04F7183608333946CCF0E945601B6
:101FD000BC01990F880B990B0E94FA2D2AE037ED6E
:101FE00043EA5AE30E94AF2E21EC3AEC41E85FE36A
:101FF0000E94AF2E2AE939E949E95EE30E94DE2C0E
:1020000020E030E040E251E40E94AF2E0E94C92D52
:102010007093EF0F6093EE0F0E9476000E94010113
:10202000092E000CAA0BBB0BB095A095909581953D
:102030009F4FAF4FBF4F8093290F90932A0FA093CC
:102040002B0FB0932C0F8091290F90912A0FA09104
:102050002B0FB0912C0F803E9E42A105B105CCF410
:102060008091290F90912A0FA0912B0FB0912C0FE6
:102070008132914DAF4FBF4F64F08091290F909105
:102080002A0FA0912B0FB0912C0F909338108093B2
:10209000371080912D0F90912E0F069709F041C0B7
:1020A00080910D0F8823E9F10E94C2010E948D01E9
:1020B000092E000CAA0BBB0B8093290F90932A0FBB
:1020C000A0932B0FB0932C0F40E050E0BA0181E6B3
:1020D0009FE00E94471F8091290F90912A0FA091A5
:1020E0002B0FB0912C0F9C01AD0166277727CB01F8
:1020F000621B730B840B950B0E94FA2D2FE632E1C5
:1021000043E059E30E94AF2E23ED3EEF46ED52E44B
:102110000E94AF2E24EA30E74DE25FE30E94DF2CFD
:1021200054C00E94E0010E948D01092E000CAA0BF0
:10213000BB0B8093290F90932A0FA0932B0FB09382
:102140002C0F8091290F90912A0FA0912B0FB09105
:102150002C0F8C3B9240A105B1050CF04AC0809138
:10216000290F90912A0FA0912B0FB0912C0F85343D
:102170009D4FAF4FBF4FECF140E050E0BA0181E618
:102180009FE00E94471F6091371070913810072E12
:10219000000C880B990B0E94FA2D2CEA35EC47E2D3
:1021A00056E30E94AF2E2FE632E143E85AE30E9445
:1021B000502D2DE73EEA46E75FE30E94AF2E29E867
:1021C00039E241E15CE30E94DE2C20E030E04AE7A6
:1021D00054E40E94AF2E0E94C22D6093050F7093AD
:1021E000060F8093070F9093080F81E69FE00E94EF
:1021F000E31F0E94550E10E08091FE0F181708F0A3
:1022000032CEE12FF0E0DF01AE55B14F8C91ED50B1
:10221000F14F813021F480810E94BA0203C0808195
:102220000E949D021F5FE8CF1092721010927110F1
:102230008091711090917210079788F4E09171105D
:10224000F0917210EE51F04F1082809171109091C8
:10225000721001969093721080937110E9CF87E00D
:102260008093740F82EE9FE09093760F8093750FAA
:1022700081E090E090936F0F80936E0F1092790F32
:1022800008950E94141180E00E94702502EF10E072
:10229000C7E083EFE82EF12C94EFC92ED12C25EF67
:1022A000A22EB12CD5E01093710F0093700FC09344
:1022B000740F8091660F8093E20F8091830F90914D
:1022C000840F9093E30F8091830F9091840F8093FC
:1022D000E40F8091F40F9091F50F9093E50F8091AA
:1022E000F40F9091F50F8093E60F80911B1080936F
:1022F000E70F8091820F8093E80F8DE69FE00E94A8
:102300007D258111FACF8DE69FE00E945B2A813006
:10231000D1F3F092710FE092700FC093740F80911F
:10232000E20E9091E30E9093E20F8091E20E909175
:10233000E30E8093E30F80918F0E9091900E909317
:10234000E40F80918F0E9091900E8093E50F809115
:102350000E0F90910F0F9093E60F80910E0F9091BA
:102360000F0F8093E70F8091550F8093E80F8DE654
:102370009FE00E947D258111FACF8DE69FE00E94AB
:102380005B2A8130D1F3D092710FC092700FC0934D
:10239000740F809103108093E20F80911B10809343
:1023A000E30F8091820F8093E40F8091550F80930B
:1023B000E50F8091F40F9091F50F9093E60F8091C7
:1023C000F40F9091F50F8093E70F8091F80F8093B1
:1023D000E80F8DE69FE00E947D258111FACF8DE602
:1023E0009FE00E945B2A8130D1F3B092710FA092DE
:1023F000700FD093740F809103108093E20F80913F
:10240000F80F8093E30F8091550F8093E40F809134
:10241000530F8093E50F80916B108093E60F8DE64C
:102420009FE00E947D258111FACF8DE69FE00E94FA
:102430005B2A8130D1F31092031064E670E080E0F3
:1024400090E00E94F7202FCF0C9497040E949704ED
:1024500064E670E080E090E00E94F720C0E0C830C1
:102460001CF4C13034F105C0CF3094F0CF3031F1DD
:1024700020C08091FE0F90E02C2F0C2E000C330B0F
:1024800082179307C4F08FEF8C0F0E94850713C04B
:102490008091FE0F2C2F0C2E000C330B275031098E
:1024A00090E0821793073CF088EF8C0F0E947C0825
:1024B00002C00E949704189907C0CFE00E94470A03
:1024C0008111F9CFC0E0F7CF8091F60F882339F062
:1024D000CF5FCF3009F4CEE01092F60FC0CF8091DD
:1024E0003910882309F4BBCFC15008F4C0E0109222
:1024F0003910B5CF089A109863E070E080E090E062
:102500000E94F720109A63E070E080E090E00E9463
:10251000F720F1CF109204101092EB0F80E0909111
:10252000FE0F891738F4E82FF0E0EE55F14F1082D6
:102530008F5FF5CF81E69FE00C94F51E81E090E07F
:102540000E9431328093A90E8091A90E882321F038
:102550008091A90E8F3F59F462E381E090E00E94E0
:102560003F3281E090E00E9431328093A90E809149
:10257000A90E08959091EB0F8091A90E981751F034
:102580008091A90E8093EB0F6091A90E81E090E0FD
:102590000C943F320895CF93DF9300D000D0CDB795
:1025A000DEB70E948A12412C512C320114E63CE91C
:1025B000832E99249A94A92CB92C80912D0F909157
:1025C0002E0F892BD1F380912D0F90912E0F019713
:1025D00029F482B1806382B980E025C080912D0FFB
:1025E00090912E0F039711F4149AF6CF82B18F7C3D
:1025F000F2CFE82FF0E0EE0FFF1FEB5FFF4E2081E0
:10260000318125373E4070F020E036EE4FED5CE042
:102610002093F00F3093F10F4093F20F5093F30F8C
:102620001093A90E8F5F9091FE0F891710F380E031
:102630009091FE0F8917B8F4E82FF0E0EE0FFF1F1E
:10264000EB5FFF4E208131812C383A4050F41092DC
:10265000F00F1092F10F1092F20F1092F30F1092F0
:10266000A90E8F5FE5CF0E9490206B017C01DC01F9
:10267000CB0184199509A609B7092C013D0140E059
:1026800050E0BA0181E69FE00E94471F2091F00FC1
:102690003091F10F4091F20F5091F30F29833A835B
:1026A0004B835C832091050F3091060F4091070FFB
:1026B0005091080FC301B2010E94282CA50194017A
:1026C0000E949C2C89819A81AB81BC81820F931FCF
:1026D000A41FB51FB7FD2CC08091F00F9091F10F92
:1026E000A091F20FB091F30F89839A83AB83BC83DF
:1026F0002091050F3091060F4091070F5091080F60
:10270000C301B2010E94282CA50194010E949C2CB7
:1027100089819A81AB81BC81820F931FA41FB51F51
:102720008093F00F9093F10FA093F20FB093F30FFB
:1027300081E69FE00E94E31F6091F00F7091F10F1E
:102740008091F20F9091F30F0E94FA2D20E036ED68
:1027500043E05AE40E94AA2E18161CF02601370105
:102760002CCF6091F00F7091F10F8091F20F90914A
:10277000F30F0E94FA2D28E03FEE4BE45DE40E9447
:102780004B2D87FFEBCF6091F00F7091F10F80918F
:10279000F20F9091F30F0E94FA2D20E63EEF4DE4E8
:1027A0005DE40E94502D20E030E048EC52E40E94AD
:1027B000AF2E0E94C92D6093A90ED0CF81B18C613C
:1027C00081B9269A2C9A159A87B18C6087B9759A27
:1027D0001092270F1092260F1092660F10921B1066
:1027E00081E08093550F1092F80F1092EC0E08952F
:1027F0000E94DE13C1E0D2E084E0C82ED12C03E0B9
:1028000010E093E0992E24E0822E32E0E32EF12CAA
:10281000AA24A394B12C1D9B02C0129A01C0129845
:10282000659903C0C093820F02C01092820F8091FD
:10283000260F9091270F8230910509F452C02CF495
:10284000009759F00197B1F1E6CF8330910509F473
:10285000B9C0049709F46BC0DECF1092660F1D9BC0
:1028600003C01092550F02C0C093550F1C9903C0AE
:10287000C0931B1002C010921B10809117109091F2
:102880001810893B910510F0439A01C0439880913C
:10289000EC0E8111C0CF1C990AC0659908C08091C7
:1028A000F80F811104C0B092270FA092260FC09399
:1028B000EC0EB1CFC093660F1D9B03C01092550F55
:1028C00002C0C093550F2E9A149A66E970E080E01A
:1028D00090E00E94F7201498F092270FE092260FC4
:1028E0009ACFD093660F139A1D9B07C01093270FA2
:1028F0000093260F1092550F02C0C093550F809180
:10290000F80F813011F0659B08C01093270F0093DA
:10291000260F1092F80FC093EC0E8091EA0E8130D2
:1029200009F079CFD092270FC092260F74CF8092F2
:10293000660FC093550F429A2E9813986BE470E07F
:1029400080E090E00E94F720139A6BE470E080E052
:1029500090E00E94F7201C9903C0C0931B1002C096
:1029600010921B108091EA0E81110EC08091F40F1D
:102970009091F50FCC9740F41092EC0E139A2E9A8A
:10298000F092270FE092260F8091EC0E811106C085
:102990008091F80F813011F0659B08C01093270FCC
:1029A0000093260F1092F80F1092EC0E1D9B07C09B
:1029B0001093270F0093260F1092550F2CCFC09322
:1029C000550F29CF9092660F1D9B07C09093270F3C
:1029D0008093260F1092550F02C0C093550F139885
:1029E0002E98429843981092270F1092260F13CFDB
:1029F0008EE390E090931D1080931C1086E490E08D
:102A000090931F1080931E108BE290E09093211002
:102A10008093201089E390E09093231080932210FC
:102A200080E290E0909325108093241081E390E061
:102A300090932710809326108EE190E090932910B8
:102A40008093281087E79EEBAFE3BFE38093C60E29
:102A50009093C70EA093C80EB093C90E8AEA91EF67
:102A6000A2E3BFE38093CA0E9093CB0EA093CC0E4B
:102A7000B093CD0E8FE892ECA5E5BFE38093CE0E28
:102A80009093CF0EA093D00EB093D10E84E69BE32B
:102A9000AFE3BFE38093D20E9093D30EA093D40EF6
:102AA000B093D50E8FE395E3AEE5BFE38093D60EEA
:102AB0009093D70EA093D80EB093D90E8CE497E3E1
:102AC000A9E4BFE38093DA0E9093DB0EA093DC0EB3
:102AD000B093DD0E8FE29DEDA4E6BFE38093DE0EA2
:102AE0009093DF0EA093E00EB093E10E1092850F4D
:102AF0001092860F1092890F1092880F1092870FF4
:102B0000C0E0D0E08091FE0F90E0C817D907ACF488
:102B1000FE01ED50F14F80810E949B039E01220F28
:102B2000331FF901E65CFF4E71836083F901EF5CAE
:102B3000F04F918380832196E5CF10922E0F109253
:102B40002D0F0E949E128093A90E6091A90E70E035
:102B500080E090E00E94F82D20E030E048EC52E464
:102B60000E94502D20E63EEF4DE45DE40E94AF2E22
:102B70000E94C92D6093F00F7093F10F8093F20FB4
:102B80009093F30F0E94BA1204E010E0C1E0D2E08B
:102B900066E0662E712CEE24E394F12CE3E0AE2E79
:102BA000B12CF5E0CF2ED12CA2E08A2E912C0E94E0
:102BB000BA1240E08091FE0F4817D0F5842F90E0C4
:102BC000880F991FFC01EC5EF04F2081318129357F
:102BD000324090F010932E0F00932D0F1092580F4B
:102BE000C093850F1092860F208131813093890F19
:102BF0002093880F4093870FFC01EB5FFF4E80818D
:102C00009181813A9F4090F010932E0F00932D0FE9
:102C1000C093580FC093850FC093860F8081918118
:102C20009093890F8093880F4093870F4F5FC2CF97
:102C30008091EE0F9091EF0F81349145A4F01093A5
:102C40002E0F00932D0FD093580FC093850FD09364
:102C5000860F8091EE0F9091EF0F9093890F8093E4
:102C6000880F1092870F80912D0F90912E0F04974F
:102C700009F465C080912D0F90912E0F823091053F
:102C800009F441C028F4009769F0019771F152C02E
:102C90008530910501F18630910559F0039709F0CF
:102CA00049C036C068EC70E080E090E00E94F720F8
:102CB00033C08091A90E8823C1F180910410811145
:102CC0000FC08091E00F882309F471CFB0922E0FCE
:102CD000A0922D0F6CCF80910410882309F467CF48
:102CE000F0922E0FE0922D0F62CF80910410882376
:102CF00099F08091A90E843608F459CF90922E0F46
:102D000080922D0F54CF80910410811150CF04C0B8
:102D10008091E00F811105C070922E0F60922D0FEF
:102D200046CF8091A90E811142CFD0922E0FC09232
:102D30002D0F3DCF10932E0F00932D0F38CF1092F3
:102D4000850F26E030E060E08091FE0F681710F5F7
:102D5000862F90E0880F991FFC01EC5EF04F4081B8
:102D600051814935524030F01092580FC093850F71
:102D700024E030E0FC01EB5FFF4E80819181813ADD
:102D80009F4030F0C093580FC093850F24E030E08F
:102D90006F5FDACF8091EE0F9091EF0F8134914504
:102DA00034F0D093580FC093850F24E030E0309377
:102DB0002E0F20932D0FFBCE399A08950E94DC161A
:102DC000419A69E170E080E090E00E94F72041982C
:102DD00069E170E080E090E00E94F720F1CFAF92CF
:102DE000BF92CF92DF92EF92FF920F931F93CF93F8
:102DF000DF93C1E4D2E0AB84BC84CD84DE84E9847B
:102E0000FA840D811E812F8138854B815C816A8116
:102E1000888199810E94061D811105C02F9692E03C
:102E2000C63ED90741F7DF91CF911F910F91FF90D7
:102E3000EF90DF90CF90BF90AF90089580E48093A3
:102E40007C0087E080937A000F9A659902C0179AF8
:102E50000895179808958431910528F41092ED0F84
:102E60001092EC0F87C0AC019C012551310925302F
:102E7000310550F4BC0180E090E00E94F82D2DEC6B
:102E80003CEC4CEC5EE36EC09C012A5131092431CC
:102E9000310550F4BC0180E090E00E94F82D23E35E
:102EA00033E343E35FE35EC09C012E5231092431DA
:102EB000310550F4BC0180E090E00E94F82D2AE931
:102EC00039E949E55FE34EC09C01225431092931BB
:102ED000310550F4BC0180E090E00E94F82D23E31E
:102EE00033E343E75FE33EC09C012B5531092530B6
:102EF000310550F4BC0180E090E00E94F82D28E4F8
:102F000031EE4AE75FE32EC09C01205631092A309A
:102F1000310528F49093ED0F8093EC0F2BC0BC018A
:102F200080E090E09A012A5631092E31310538F4BB
:102F30000E94F82D2AE037ED43E85FE313C09A01C1
:102F4000285831092A30310538F40E94F82D24E13F
:102F50003EEA47E85FE306C00E94F82D23EC35EF18
:102F600048E85FE30E94AF2E0E94C92D7093ED0FD9
:102F70006093EC0F8091EC0F9091ED0F089510E8A5
:102F800003E082E3F82EC1E0D0E08091240F90911D
:102F9000250F019709F059C00E941E1710937A005F
:102FA0000093DE0F80917C002091DE0F90917C00D9
:102FB0008F70822B892B80937C0080917A008064B3
:102FC00080937A0080917A0086FDFCCF8091780012
:102FD000909179009093900E80938F0E80917A005B
:102FE000806480937A0080917A0086FDFCCF809186
:102FF000780090917900F89EB001F99E700D11242F
:1030000080E090E00E94F82D2AE939E94CEC52E486
:103010000E94502D0E94C92D7093900E60938F0EC8
:1030200080917A008F7780937A0010921A10109214
:10303000191010920A0F1092090F1092250F10927A
:10304000240FD0936A10C093691062E370E080E0AF
:1030500090E00E94F72099CF80E480937C0087E085
:1030600080937A00089500E811E085E0F82EC1E031
:10307000D0E08091090F90910A0F019709F065C087
:103080000E942C1800937A001093DE0F80917C0030
:103090002091DE0F90917C008F70822B892B809382
:1030A0007C0080917A00806480937A0080917A001D
:1030B00086FDFCCF80917800909179009093840FE9
:1030C0008093830F80917A00806480937A0080914E
:1030D0007A0086FDFCCF8091780090917900F89E6F
:1030E000B001F99E700D112480E090E00E94F82D4F
:1030F0002AE939E94CEC52E40E94502D0E94C92D76
:103100007093840F6093830F80917A008F77809300
:103110007A0080915F0F9091600F8939934018F089
:1031200010936C0F02C010926C0F10921A10109234
:10313000191010920A0F1092090FD093250FC09307
:10314000240F10926A101092691062E370E080E020
:1031500090E00E94F7208DCF80E480937C0087E090
:1031600080937A000895BC018A589240C29748F42F
:1031700080E090E00E94F82D28EB3EE145E85FE317
:103180000EC0CB018C5B92408639910568F480E0DB
:1031900090E00E94F82D26E636E646E85FE30E94BE
:1031A000AF2E0E94C92D15C0623583E0780748F024
:1031B00080E090E00E94F82D20EB32E748E85FE3E2
:1031C000EECF6233710528F410925A0F1092590F06
:1031D00004C070935A0F6093590F8091590F9091CA
:1031E0005A0F089510E802E08CE0F82EC1E0D0E01C
:1031F0008091191090911A10019709F059C00E94FE
:10320000AC1810937A000093DE0F80917C0020911F
:10321000DE0F90917C008F70822B892B80937C0035
:1032200080917A00806480937A0080917A0086FD94
:10323000FCCF80917800909179009093E30E809379
:10324000E20E80917A00806480937A0080917A0007
:1032500086FDFCCF8091780090917900F89EB001B6
:10326000F99E700D112480E090E00E94F82D24E179
:103270003EEA43E251E40E94502D0E94C92D709312
:10328000E30E6093E20E80917A008F7780937A004C
:1032900010921A1010921910D0930A0FC093090FB0
:1032A0001092250F1092240F10926A10109269103C
:1032B00062E370E080E090E00E94F72099CF87E021
:1032C00084B982E58CBD08950E945F1929982898D9
:1032D0001EBC0DB407FEFDCF8EB590E0982F882759
:1032E00090930F0F80930E0F1EBC0DB407FEFDCF01
:1032F00080910E0F90910F0F2EB5822B90930F0F90
:1033000080930E0F289A60910E0F70910F0F6350EB
:10331000710980E090E00E94F82D20E030E048E460
:1033200055E40E94502D20E030E048EC51E40E942A
:10333000AF2E0E94C92D70930F0F60930E0F62E3A2
:1033400070E080E090E00E94F720C0CF80E090E045
:10335000FC01E254F14F1082019687309105C1F7CC
:103360008EEB9EE0909333108093321010923410C5
:1033700080E00E947025C0E1D0E011E084E0E82EFA
:10338000F12C9CE0C92ED12C80E090E0FC01E254AD
:10339000F14F1082019687309105C1F7D0932E101E
:1033A000C0932D10109236101092351010933110DA
:1033B000F0922C10E0922B108AE290E10E947D2581
:1033C0008111FACF64EF71E080E090E00E94F72075
:1033D0008AE290E10E945B2A811107C08091BE0EB3
:1033E000813069F48093F80F0AC0D0922C10C092FB
:1033F0002B108AE290E10E947D258111FACF809105
:10340000F80F882311F0429A01C0429862E370E0FD
:1034100080E090E00E94F720B7CF80E480937C00AA
:1034200087E080937A0008958530910528F4109202
:10343000130F1092120FF3C0BC010597039748F4C5
:1034400080E090E00E94F82D2DEC3CEC4CEB50E439
:1034500025C0CB010897029748F480E090E00E94D5
:10346000F82D26E636E646EB50E418C06A307105C2
:1034700019F485E090E0B5C06B30710519F487E070
:1034800090E0AFC0CB010C97029758F480E090E039
:103490000E94F82D2DEC3CEC4CE650E40E94DE2C12
:1034A000B5C0CB010E97029748F480E090E00E94EF
:1034B000F82D2AE939E949E350E4F0CF603171058C
:1034C00019F48DE090E08DC06131710519F48EE042
:1034D00090E087C09B01225131092330310548F427
:1034E00080E090E00E94F82D2DEC3CEC4CE85FE38E
:1034F000D5CF9B01255131092230310548F480E0B8
:1035000090E00E94F82D26E636E646E65FE3C6CF59
:103510009B01275131092230310548F480E090E0C9
:103520000E94F82D2DEC3CEC4CEC5DE36DC0693154
:10353000710509F470C09B012A513109223031050F
:1035400048F480E090E00E94F82D2DEC3CEC4CE833
:103550005FE35AC09B012C5131092230310548F4F8
:1035600080E090E00E94F82D23E333E343EF5FE334
:103570004BC09B012E5131092230310548F480E0C7
:1035800090E00E94F82D26E636E646E250E43CC084
:103590009B01205231092430310548F480E090E04D
:1035A0000E94F82D20E030E040E650E42DC0643267
:1035B000710519F487E290E014C09B01255231098E
:1035C0002230310548F480E090E00E94F82D2AE98D
:1035D00039E949EA50E418C06732710539F48DE2DF
:1035E00090E09093130F8093120F19C09B01285203
:1035F00031092230310568F480E090E00E94F82D16
:1036000020E030E040EF50E40E94DF2C0E94C92D02
:1036100002C0685F7F4F7093130F6093120F809109
:10362000120F9091130F089510E805E0C1E0D0E06B
:103630008091691090916A10019709F059C00E9419
:103640000D1A10937A001092DE0F80917C00209169
:10365000DE0F90917C008F70822B892B80937C00F1
:1036600080917A00806480937A0080917A0086FD50
:10367000FCCF8091780090917900909318108093FE
:10368000171080917A00806480937A0080917A008C
:1036900086FDFCCF8091780090917900089FB00161
:1036A000099F700D112480E090E00E94F82D24E124
:1036B0003EEA43E251E40E94502D0E94C92D7093CE
:1036C000F50F6093F40F80917A008F7780937A00E2
:1036D000D0931A10C093191010920A0F1092090F6C
:1036E0001092250F1092240F10926A1010926910F8
:1036F00062E370E080E090E00E94F72099CF269A84
:103700001092EA0E08950E947F1BC1E080918F0EF7
:103710009091900E8831914018F0C093EA0E09C044
:1037200080918F0E9091900E8931914010F41092FB
:10373000EA0E62E370E080E090E00E94F720E6CFBE
:103740002F923F924F925F926F927F928F929F92B1
:10375000AF92BF92CF92DF92EF92FF920F931F939F
:10376000CF93DF930DB71EB7C82FD92F08831983C6
:10377000C62FD72F088119810DBF1EBFDF91CF91B2
:103780001F910F91FF90EF90DF90CF90BF90AF907F
:103790009F908F907F906F905F904F903F902F9071
:1037A0000895C82FD92F088119810DBF1EBFDF9141
:1037B000CF911F910F91FF90EF90DF90CF90BF902E
:1037C000AF909F908F907F906F905F904F903F90C1
:1037D0002F901895FFCF80916C0E90916D0E0196F1
:1037E00090936D0E80936C0E089580916C0E909165
:1037F0006D0E892B29F480917F0E9091800E089593
:1038000080E090E00895CF93DF93EC01FB01892BDA
:10381000A1F0309791F088819981DC019C0110978B
:1038200071F012965C91129742814517D8F09D0174
:103830001B960D90BC91A02DF2CF89EC21C0892B55
:1038400051F032872187B487A387E901FC87EB8792
:10385000109789F414C0F983E883128611861486C0
:1038600013860DC0A817B90761F7F983E88312869C
:103870001186B487A3871A96FC93EE93199780E07C
:10388000DF91CF910895CF93DF930097A9F0DC01EA
:10389000ED91FC91309791F0A385B485EC01B9834B
:1038A000A883109721F01A961C921E9219971286DF
:1038B00011861486138602C0E0E0F0E0CF01DF91AC
:1038C000CF910895CF93DF93FB01009799F1DC012D
:1038D0002D913C912115310569F1D901E901AE170E
:1038E000BF07F1F4A385B485E217F30751F4EC01A7
:1038F000B983A883109779F01A961C921E92199793
:103900000AC0BC87AB87A385B485109721F01A96AF
:10391000DC93CE93199714861386128611860CC0F9
:103920001B964D915C911C97ED014115510511F0CD
:10393000DA01D5CFE0E0F0E0CF01DF91CF9108953B
:10394000CF93DF930097B1F0DC01ED91FC913097BC
:1039500099F02281621770F0A385B485EC01B983D8
:10396000A883109749F01A961C921E9219971486F4
:10397000138602C0E0E0F0E0CF01DF91CF9108951F
:10398000FF920F931F93CF93DF939091690E99232A
:10399000B9F1FFB6F894C0917F0ED091800E9D854D
:1039A000913069F48AE69EE00E94431CC817D9074B
:1039B00029F19093800E80937F0EBC011CC06A8118
:1039C000813029F06623D9F070E0615071098AE6F0
:1039D0009EE00E94A01C8C01892B89F0BE018AE622
:1039E0009EE00E94031CC017D10741F01093800E87
:1039F00000937F0EB801CE010E94A01B1D86FFBE62
:103A0000DF91CF911F910F91FF900895AF92BF92D8
:103A1000CF92DF92EF92FF920F931F93CF93DF939A
:103A20000097A1F14115510589F1E114F10471F1FB
:103A3000AB28AC28AD2851F1EC011D866A831A86AB
:103A400019861C861B86188A1F865C834B830D8310
:103A50001E832F833887B7010E942A241FB7F8944A
:103A6000BE018AE69EE00E94031C1FBF882311F05E
:103A70008CEC0FC08091690E813051F40E94F51BCF
:103A8000892B31F080E00E94C01C02C089EC01C08B
:103A900080E0DF91CF911F910F91FF90EF90DF9029
:103AA000CF90BF90AF900895AF92BF92CF92DF9228
:103AB000EF92FF920F931F931092800E10927F0E41
:103AC00010926B0E10926A0E1092690E5A016B01E1
:103AD0007C0100E010E098014AEE5BE16FEF8EE6BA
:103AE0009EE00E94061D1F910F91FF90EF90DF90C6
:103AF000CF90BF90AF90089520916C0E30916D0ED5
:103B00002150310930936D0E20936C0E0C94C01C23
:103B100081E08093690E6FEF8AE69EE00E94A01C10
:103B2000009731F09093800E80937F0E0C94D11B00
:103B300008951F93CF93DF930097B9F0EC011FB75F
:103B4000F894E881F98182E0868768817981FB01B8
:103B5000108A17868A819B810E94621C6881798104
:103B60008AE69EE00E94031C1FBFDF91CF911F9148
:103B70000895009731F0FC0162831182108280E089
:103B8000089589EC0895DF92EF92FF920F931F93AF
:103B9000CF93DF93009799F17C0100E08AECD82E57
:103BA0001FB7F894C7010E94431CEC010097D9F09D
:103BB000DE86BC018AE69EE00E94031C882319F081
:103BC0001FBFCCEC12C08F859889009749F00E94E6
:103BD0006720882319F01FBFCDEC07C0188A1F8605
:103BE0001FBF01E0DDCF1FBFC0E0013049F40E94DC
:103BF000F51B892B29F080E00E94C01C01C0C9EC94
:103C00008C2FDF91CF911F910F91FF90EF90DF905C
:103C100008958F929F92AF92BF92DF92EF92FF92A0
:103C20000F931F93CF93DF93CDB7DEB72E970FB6C9
:103C3000F894DEBF0FBECDBF009709F45AC0DFB6BF
:103C4000F894FC01228121114EC077FD49C04A0140
:103C50005B017C010E94F51B8C010097F1F1BC0116
:103C6000C7010E94031C882319F0DFBE8CEC42C000
:103C700081E0F801858781149104A104B10409F160
:103C80001C870B87FE86ED8689E99DE19A838983EF
:103C9000CE010B969C838B838D829E82AF82B886E9
:103CA0000A97908B87870E944220882369F0B80189
:103CB000C7010E94621CF8011586108A17868DECD8
:103CC00004C0F801108A178680E0DFBE811112C09F
:103CD0000E94C01CF80186850DC0DFBE88EC0AC0BA
:103CE000DFBE83E007C02150FC012283DFBE80E0FD
:103CF00001C089EC2E960FB6F894DEBF0FBECDBF83
:103D0000DF91CF911F910F91FF90EF90DF90BF90C7
:103D1000AF909F908F9008951F93CF93DF93FC01F6
:103D2000892BA9F11FB7F89480819181892B29F102
:103D3000CF010E94431CEC01BC018AE69EE00E9478
:103D4000031C882319F01FBFCCEC22C01E868F8570
:103D50009889009721F4188A1F86C0E005C00E9448
:103D600067208823C1F3CDEC1FBF0E94F51B892B70
:103D700079F080E00E94C01C0BC082818F3F21F04F
:103D80008F5F8283C0E001C0CBEC1FBF01C0C9ECD4
:103D90008C2FDF91CF911F910895009721F0FC01A6
:103DA000628380E0089589EC08951F93CF93DF9399
:103DB0000097B9F0EC011FB7F894E881F98182E02F
:103DC000868768817981FB01108A17868A819B81A9
:103DD0000E94621C688179818AE69EE00E94031C31
:103DE0001FBFDF91CF911F910895FC01892B39F0FE
:103DF0001382128214821182108280E0089589EC6D
:103E00000895DF92EF92FF920F931F93CF93DF936A
:103E1000009799F17C0100E08AECD82E1FB7F89446
:103E2000C7010E94431CEC010097D9F0DE86BC015B
:103E30008AE69EE00E94031C882319F01FBFCCEC89
:103E400012C08F859889009749F00E9467208823C7
:103E500019F01FBFCDEC07C0188A1F861FBF01E0F5
:103E6000DDCF1FBFC0E0013049F40E94F51B892B54
:103E700029F080E00E94C01C01C0C9EC8C2FDF91AA
:103E8000CF911F910F91FF90EF90DF9008958F9247
:103E90009F92AF92BF92DF92EF92FF920F931F9388
:103EA000CF93DF93CDB7DEB72E970FB6F894DEBF72
:103EB0000FBECDBF009709F472C04A015B018C01AF
:103EC0000E94F51B7C01DFB6F894009719F4DFBE61
:103ED00098EC66C0F801228133812115310509F47F
:103EE0004EC02817390709F44AC0B7FC45C0BC01C9
:103EF000C8010E94031C882319F0DFBE9CEC50C04F
:103F000081E0F701858781149104A104B10409F1CE
:103F1000FC86EB861E870D8785ED9EE19A8389835B
:103F2000CE010B969C838B838D829E82AF82B88656
:103F30000A97908B87870E944220882369F0B701F7
:103F4000C8010E94621CF7011586108A17869DEC35
:103F500004C0F701108A178690E0DFBE911120C0DF
:103F600080E00E94C01CF7019685911119C0F801EC
:103F700084818F5F848314C0DFBE93E011C0F80199
:103F800084818F3F39F08F5F8483232B29F4F38260
:103F9000E28202C09BEC01C090E0DFBE01C099EC60
:103FA000892F2E960FB6F894DEBF0FBECDBFDF91DE
:103FB000CF911F910F91FF90EF90DF90BF90AF9046
:103FC0009F908F900895EF92FF921F93CF93DF936E
:103FD000009709F440C0EC010E94F51B1FB7F8944C
:103FE0002A813B812817390719F01FBFCFEC34C055
:103FF0008C8181508C8381112BC01B821A82888115
:104000009981892B29F1CE010E94431C7C01BC01BE
:104010008AE69EE00E94031C882319F01FBFCCECA7
:104020001BC0F7011686FB82EA828785908900977C
:1040300029F4F701108A1786C0E005C00E946720A6
:104040008823B9F3CDEC1FBF80E00E94C01C04C0E0
:104050001FBFC0E001C0C9EC8C2FDF91CF911F9131
:10406000FF90EF900895CF93009751F0FC01CFB7E8
:10407000F894608171818AE69EE00E94031CCFBFA4
:10408000CF910895FC01892B01F180819181892BC9
:10409000E1F084819581A681B781892B8A2B8B2BB6
:1040A000A1F02FB7F8948091850E9091860E00971D
:1040B00019F41186108602C091878087F093860ECE
:1040C000E093850E2FBF80E0089589EC0895009756
:1040D00029F14FB7F8942091850E3091860EF901A1
:1040E000D9013097C1F0E817F90781F480859185EF
:1040F000E217F30729F49093860E8093850E04C08F
:1041000019969C938E93189780E006C0DF01008477
:10411000F185E02DE6CF8EEC4FBF089589EC089530
:104120006091810E7091820E8091830E9091840E29
:1041300008956093810E7093820E8093830E909306
:10414000840E08950F931F93CF93DF938091690E90
:10415000882309F447C08091810E9091820EA0912E
:10416000830EB091840E0196A11DB11D8093810E26
:104170009093820EA093830EB093840EC091850E0F
:10418000D091860E8E01209769F18C819D81AE8140
:10419000BF810197A109B1098C839D83AE83BF8341
:1041A000892B8A2B8B2BC9F42091850E3091860E9A
:1041B00088859985C217D30729F49093860E80933A
:1041C000850E03C0F80191878087E881F9813097D7
:1041D00029F08A819B81099501C08E010884D985C7
:1041E000C02DD1CFDF91CF911F910F910895CF9224
:1041F000DF92EF92FF921F93CF93DF93CDB7DEB79D
:104200002C970FB6F894DEBF0FBECDBF6B017C01BB
:104210000E94F51BFC01C114D104E104F10419F161
:10422000892B19F11FB7F89481E08587FC87EB870C
:1042300083E390E29A838983CE010B969C838B83E0
:10424000CD82DE82EF82F8860A97908B87870E9464
:1042500042201FBF882311F08DEC08C080E00E942F
:10426000C01C80E003C089EC01C088EC2C960FB61E
:10427000F894DEBF0FBECDBFDF91CF911F91FF90AD
:10428000EF90DF90CF9008951F93CF93DF93009727
:10429000B9F0EC011FB7F894E881F98182E08687D4
:1042A00068817981FB01108A17868C819D810E942B
:1042B000621C688179818AE69EE00E94031C1FBF10
:1042C000DF91CF911F910895CF92DF92EF92FF92ED
:1042D000CF93DF93EC01CB016C817D812A893B89EF
:1042E000620F731F4E815F810E941C2F2E813F81C0
:1042F00048855985CA88DB88EC88FD88C20ED31EA4
:10430000E41EF51ECA8ADB8AEC8AFD8A8E899F89A3
:10431000A88DB98D0197A109B1098E8B9F8BA88FAC
:10432000B98F6A857B858C859D850E94282CC61651
:10433000D706E806F90620F01A8A1B8A1C8A1D8A0D
:10434000CE010E94431CEC010097A9F0BC018AE653
:104350009EE00E94031C811110C01E868F859889E3
:10436000009719F4188A1F8606C00E9467208823C8
:10437000C9F38DEC03C080E001C08CECDF91CF91DC
:10438000FF90EF90DF90CF900895CF92DF92EF9261
:10439000FF92CF93DF93EC012C813D818E859F8529
:1043A0004E815F81820F931F0E941C2F2E813F81BF
:1043B00048855985CE84DF84E888F988C20ED31EEB
:1043C000E41EF51ECE86DF86E88AF98A8E899F89EB
:1043D000A88DB98D0196A11DB11D8E8B9F8BA88FC5
:1043E000B98F6A857B858C859D850E94282CC61691
:1043F000D706E806F90620F01E861F86188A198A55
:10440000CE0102960E94431CEC010097A9F0BC016A
:104410008AE69EE00E94031C811110C01E868F85D3
:104420009889009719F4188A1F8606C00E94672091
:104430008823C9F38DEC03C080E001C08CECDF91D0
:10444000CF91FF90EF90DF90CF900895EF92FF9281
:104450000F931F93FC01892B49F16115710531F10F
:10446000211531054105510509F1E114F10401055A
:104470001105E1F075836483268337834087518774
:10448000E286F386048715871182108213821282D6
:1044900016861786108A118A128A138A148A158A38
:1044A000168A178A108E118E80E001C089EC1F9148
:1044B0000F91FF90EF900895BF92CF92DF92EF920D
:1044C000FF920F931F93CF93DF93009709F43FC0A0
:1044D0008C01E12C6C0182E0C80ED11C8AECB82E54
:1044E000FFB6F894C6010E94431CEC01892B31F4FD
:1044F000C8010E94431CEC01892BE1F0BE86BE017D
:104500008AE69EE00E94031C882319F0FFBECCECD3
:1045100013C08F859889009749F00E9467208823EF
:1045200019F0FFBECDEC08C0188A1F86FFBEEE242E
:10453000E394D6CFFFBEC0E081E0E81209C00E943C
:10454000F51B892B29F080E00E94C01C01C0C9EC3A
:104550008C2FDF91CF911F910F91FF90EF90DF9003
:10456000CF90BF9008954F925F926F927F928F92FB
:104570009F92AF92BF92CF92DF92EF92FF920F93F2
:104580001F93CF93DF93CDB7DEB760970FB6F89444
:10459000DEBF0FBECDBF009709F47FC021153105E6
:1045A00009F47BC059012A013B016C010FB7F89453
:1045B000FC0186899789A08DB18D892B8A2B8B2B45
:1045C00009F05DC077FD58C00E94F51B7C01009783
:1045D00009F44FC04601F2E08F0E911CBC01C401EA
:1045E0000E94031C811142C081E0F70185874114BC
:1045F00051046104710419F1FC86EB86DE86CD86D8
:10460000988A8F8684E491E29A838983CE010B96FF
:104610009C838B834D825E826F8278860A97908B13
:1046200087870E944220882369F0B701C4010E9455
:10463000621CF7011586108A17861DEC04C0F7016D
:10464000108A178610E00FBF111128C080E00E9469
:10465000C01CF7011685111121C00FB7F894B501E0
:10466000C6010E946421182F0FBF18C00FBF1CEC99
:1046700015C00FBF18EC12C00FBF13E00FC0B90177
:10468000C6010E946421182F0FBF0E94F51B892BC1
:1046900029F080E00E94C01C01C019EC812F6096B7
:1046A0000FB6F894DEBF0FBECDBFDF91CF911F9143
:1046B0000F91FF90EF90DF90CF90BF90AF909F90C1
:1046C0008F907F906F905F904F9008954F925F9280
:1046D0006F927F92AF92BF92CF92DF92EF92FF9252
:1046E0000F931F93CF93DF93CDB7DEB760970FB6CD
:1046F000F894DEBF0FBECDBF009709F480C021152E
:10470000310509F47CC059012A013B017C010FB736
:10471000F894FC0146895789608D718D8285938557
:10472000A485B585481759076A077B0709F059C062
:1047300077FC54C00E94F51B6C01009709F44BC034
:10474000BC01C7010E94031C811142C081E0F60137
:104750008587411451046104710419F1DC86CB860C
:10476000FE86ED86F88AEF8684E491E29A83898357
:10477000CE010B969C838B834D825E826F827886FE
:104780000A97908B87870E944220882369F0B601A0
:10479000C7010E94621CF6011586108A17861DEC5F
:1047A00004C0F601108A178610E00FBF111128C04F
:1047B00080E00E94C01CF6011685111121C00FB7C0
:1047C000F894B501C7010E94C521182F0FBF18C06A
:1047D0000FBF1CEC15C00FBF18EC12C00FBF13E0C9
:1047E0000FC0B901C7010E94C521182F0FBF0E9439
:1047F000F51B892B29F080E00E94C01C01C019EC38
:10480000812F60960FB6F894DEBF0FBECDBFDF914B
:10481000CF911F910F91FF90EF90DF90CF90BF90BD
:10482000AF907F906F905F904F9008950E94F51B1E
:104830007894009771F0DC011396ED91FC91149738
:10484000309739F015966D917D918D919C911897C7
:104850000994089526E134E2FB01208331973083E7
:1048600031971082319710823197108231971082E0
:1048700031971082319710823197108231971082D0
:1048800031971082319710823197108231971082C0
:1048900031971082319710823197108231971082B0
:1048A000319710823197108264517109FC01718334
:1048B0006083089586E891E0909389008093880052
:1048C00082E080936F008CE08093810008951F92B6
:1048D0000F920FB60F9211240BB60F922F933F93A6
:1048E0004F935F936F937F938F939F93AF93BF93F8
:1048F000EF93FF930E94EB1B0E94A22081E00E9495
:104900007C1DFF91EF91BF91AF919F918F917F910E
:104910006F915F914F913F912F910F900BBE0F9030
:104920000FBE0F901F9018951F920F920FB60F9207
:1049300011240F900FBE0F901F9018958AE280935C
:10494000B8008FEF8093BB0084E08093BC00089593
:104950008091BC00817008958091BC0080FDFCCFE7
:104960008091000108952091BC0020FDFCCF609350
:10497000890EFC01208120938A0E20FF09C010922D
:10498000870E88EF8093000185EA8093BC0008952C
:10499000FC0131962AE83EE0D90111968A2F821B4C
:1049A000861768F781918C93F8CF8091BC0080FDC9
:1049B000FCCF1092870E88EF8093000185EA8093E8
:1049C000BC0008952091BC0020FDFCCF2091870EF3
:1049D00020FD04C08091870E817008952AE83EE092
:1049E000FC01D9018A2F821B8617A0F78D91819334
:1049F000F9CF1F920F920FB60F9211240BB60F92A0
:104A00002F933F938F939F93EF93FF938091B900E0
:104A1000883201F140F48031D9F08831D9F0883002
:104A200009F04AC015C0803491F128F4883309F0A8
:104A300043C085EA46C08035F1F08835E9F58091BC
:104A4000BB00E091880EF0E0E657F14F80832DC067
:104A50001092880EE091880E8091890EE81728F553
:104A600081E08E0F8093880EF0E0E657F14F808151
:104A70008093BB0018C0E091880E81E08E0F809378
:104A8000880E8091BB00F0E0E657F14F80832091C3
:104A9000880E30E08091890E90E001972817390741
:104AA00014F485EC0EC085E80CC08091870E8160FF
:104AB0008093870E84E905C08091B900809300013E
:104AC00084E08093BC00FF91EF919F918F913F9183
:104AD0002F910F900BBE0F900FBE0F901F90189547
:104AE0000E94372B882341F00E94E52A8091D8004C
:104AF00082608093D80081E008950F931F93CF9335
:104B0000DF9300D000D0CDB7DEB7FC018181928168
:104B10000C9791F48285803609F0BDC4808182951E
:104B2000807F8093ED008091EF008F738093EF0082
:104B30001092EE001082AFC48F010E94F52A8F3FC1
:104B400009F4ABC490E6D8011A969C931A978C93FB
:104B50008295807F8093ED00EEEEF0E01192E83FC9
:104B6000F105E1F7D8011196ED91FC91129731977B
:104B7000EB30F10508F08EC4E65BFF4F0C94BB2CC4
:104B8000F8018485882391F18581829586958770C7
:104B90009681F8E09F9F800D11248093F300D80147
:104BA00014968C91149782958695877015969C9192
:104BB000B8E09B9F800D11248093F200F80183815F
:104BC0008295869587709481F8E09F9F800D1124CF
:104BD0008093F100D80113968C91880F880F880F6D
:104BE0008093F0008091EF00806117C0F80183810D
:104BF0008695869586959481F0E29F9F800D11247D
:104C00008093F300D80113968C918295880F807E53
:104C10008093F2008091EF008F7E8093EF0080E020
:104C2000F8019781891760F4D8011896ED91FC91ED
:104C30001997E80FF11D90819093FA008F5FF0CFE4
:104C40008385882321F08091F000846003C08091E7
:104C5000F0008B7F8093F0009091EF00D8011796C1
:104C60008C9169C0F8018485882391F185818295B2
:104C7000869587709681F8E09F9F800D1124809320
:104C8000F300D80114968C911497829586958770BD
:104C900015969C91B8E09B9F800D11248093F200A3
:104CA000F80183818295869587709481F8E09F9FB3
:104CB000800D11248093F100D80113968C91880FF8
:104CC000880F880F8093F0008091EF00806117C0FB
:104CD000F80183818695869586959481F0E29F9F61
:104CE000800D11248093F300D80113968C91829546
:104CF000880F807E8093F2008091EF008F7E8093FA
:104D0000EF0080E0F8019781891760F4D8011896C8
:104D1000ED91FC911997E80FF11D90819093FA00A5
:104D20008F5FF0CF13868091F0008B7F8093F0002F
:104D30009091EF008781892B8093EF008091EF00A5
:104D40008F738093EF008091EF0080648093EF0079
:104D500080E0A8C3D8011C968C911C978823A1F1F0
:104D600015968C91159782958695877016969C91CD
:104D7000B8E09B9F800D11248093F300F80184819B
:104D80008295869587709581F8E09F9F800D11240C
:104D90008093F200D80113968C9113978295869593
:104DA000877014969C91B8E09B9F800D112480938E
:104DB000F100F8018381880F880F880F8093F0003D
:104DC0008091EF00806119C0D80113968C911397E0
:104DD00086958695869514969C91B0E29B9F800D52
:104DE00011248093F300F80183818295880F807EDF
:104DF0008093F2008091EF008F7E8093EF0081E03E
:104E0000D8011B968C931B978091F000846080934F
:104E1000F0009091EF0023CF19821A821B821C822E
:104E20001092F7008A818295869587709B81B8E001
:104E30009B9F800D11248093F60089818295869531
:104E400087709A81E8E09E9F800D11248093F50081
:104E50008981880F880F880F8093F4009091EF006C
:104E6000D80117968C91892B8093EF008091F400E4
:104E70008B7F8093F4005CC219821A821B821C8291
:104E80001092F7008A818295869587709B81B8E0A1
:104E90009B9F800D11248093F600898182958695D1
:104EA00087709A81E8E09E9F800D11248093F50021
:104EB0008981880F880F880F8093F4009091EF000C
:104EC000D80117968C911797892B8093EF001B962A
:104ED0001C928091F40084608093F4008091F00033
:104EE0008B7F8093F00024C219821A821B821C825D
:104EF0001092F7008A818295869587709B81B8E031
:104F00009B9F800D11248093F60089818295869560
:104F100087709A81E8E09E9F800D11248093F500B0
:104F20008981880F880F880F8093F4009091EF009B
:104F3000D80117968C911797892B8093EF0081E009
:104F40001B968C938091F40084608093F400809190
:104F5000F00084608093F0008091EF008F7DE6C1C7
:104F6000F8018485882391F18581829586958770E3
:104F70009681F8E09F9F800D11248093F300D80163
:104F800014968C91149782958695877015969C91AE
:104F9000B8E09B9F800D11248093F200F80183817B
:104FA0008295869587709481F8E09F9F800D1124EB
:104FB0008093F100D80113968C91880F880F880F89
:104FC0008093F0008091EF00806117C0F801838129
:104FD0008695869586959481F0E29F9F800D112499
:104FE0008093F300D80113968C918295880F807E70
:104FF0008093F2008091EF008F7E8093EF008FEF1F
:105000009FEFDC0189839A83AB83BC838093F70095
:105010008A818295869587709B81B8E09B9F800DE1
:1050200011248093F60089818295869587709A81F4
:10503000E8E09E9F800D11248093F5008981880F00
:10504000880F880F8093F4009091EF00D801179695
:105050008C91892B8093EF008091F4008B7F80935B
:10506000F4000AC2F8018485882391F18581829534
:10507000869587709681F8E09F9F800D112480931C
:10508000F300D80114968C911497829586958770B9
:1050900015969C91B8E09B9F800D11248093F2009F
:1050A000F80183818295869587709481F8E09F9FAF
:1050B000800D11248093F100D80113968C91880FF4
:1050C000880F880F8093F0008091EF00806117C0F7
:1050D000F80183818695869586959481F0E29F9F5D
:1050E000800D11248093F300D80113968C91829542
:1050F000880F807E8093F2008091EF008F7E8093F6
:10510000EF008FEF9FEFDC0189839A83AB83BC8331
:105110008093F7008A818295869587709B81B8E09D
:105120009B9F800D11248093F6008981829586953E
:1051300087709A81E8E09E9F800D11248093F5008E
:105140008981880F880F880F8093F4009091EF0079
:10515000D80117968C911797892B8093EF001B9697
:105160001C928091F40084608093F4008091F000A0
:105170008B7F8093F00080C1F8018485882391F1B2
:1051800085818295869587709681F8E09F9F800D36
:1051900011248093F300D80114968C911497829572
:1051A0008695877015969C91B8E09B9F800D112481
:1051B0008093F200F80183818295869587709481AF
:1051C000F8E09F9F800D11248093F100D801139681
:1051D0008C91880F880F880F8093F0008091EF00EA
:1051E000806117C0F80183818695869586959481A4
:1051F000F0E29F9F800D11248093F300D801139655
:105200008C918295880F807E8093F2008091EF00D0
:105210008F7E8093EF008FEF9FEFDC0189839A836D
:10522000AB83BC838093F7008A81829586958770D3
:105230009B81B8E09B9F800D11248093F6008981AB
:105240008295869587709A81E8E09E9F800D112453
:105250008093F5008981880F880F880F8093F40070
:105260009091EF00D80117968C911797892B809316
:10527000EF0081E01B968C938091F4008460809312
:10528000F4008091F00084608093F0008091EF0042
:105290008F7DF0C080E0F8019781891760F4D80114
:1052A0001896ED91FC911997E80FF11D908190935C
:1052B000FA008F5FF0CF19821A821B821C82109233
:1052C000F7008A818295869587709B81F8E09F9F81
:1052D000800D11248093F6008981829586958770D0
:1052E0009A8128E0929F800D11248093F500898196
:1052F000880F880F880F8093F4009091EF00D801F9
:1053000017968C911797892B8093EF0081E01B965D
:105310008C938091F40084608093F4008091F0007D
:1053200084608093F0008091EF0080628093EF00B2
:105330008091F4008E7FA3C0F8018485882391F1C9
:1053400085818295869587709681F8E09F9F800D74
:1053500011248093F300D80114968C9114978295B0
:105360008695877015969C91B8E09B9F800D1124BF
:105370008093F200F80183818295869587709481ED
:10538000F8E09F9F800D11248093F100D8011396BF
:105390008C91880F880F880F8093F0008091EF0028
:1053A000806117C0F80183818695869586959481E2
:1053B000F0E29F9F800D11248093F300D801139693
:1053C0008C918295880F807E8093F2008091EF000F
:1053D0008F7E8093EF0080E0F8019781891760F459
:1053E000D8011896ED91FC911997E80FF11D908165
:1053F0009093FA008F5FF0CF8FEF9FEFDC018983EE
:105400009A83AB83BC838093F7008A8182958695CB
:1054100087709B81F8E09F9F800D11248093F60098
:1054200089818295869587709A8128E0929F800D68
:1054300011248093F5008981880F880F880F80934D
:10544000F4009091EF00D80117968C911797892B53
:105450008093EF0081E01B968C938091F400846030
:105460008093F4008091F00084608093F00080913C
:10547000EF0080628093EF008091F4008160809360
:10548000F4008091EF008F738093EF008091EF0024
:1054900080685CCCF80112865BCC8FE1D8011A964B
:1054A0008C938FEF0F900F900F900F90DF91CF9113
:1054B0001F910F9108951F93CF93DF93EC019A856D
:1054C000992309F47BC09F3109F478C09F3F09F408
:1054D00075C088818295807F8093ED000E940B2BA0
:1054E000182F803259F020F4882309F469C05EC077
:1054F000803409F451C0803A09F058C08091EF001F
:105500008F708F83888599850E94232B8091F0006E
:1055100082FB882780F98B878091EF0084FF29C068
:1055200081E08C878091F3008695869586958E83A1
:105530008091F2009091F30086958695869520E201
:10554000929F800D11248D838091F1009091F20043
:1055500086958695869520E2929F800D11248C83F6
:105560008091F0009091F10086958695869520E2D5
:105570000FC01C868091F3008295869587708C837E
:105580008091F2009091F30082958695877028E0D3
:10559000929F800D11248B831A878091EF008F7367
:1055A0008093EF001092EE0080E00BC01A8780918C
:1055B000EF008F738093EF001092EE0082E001C045
:1055C00081E0DF91CF911F91089580E0982F92950F
:1055D000907F9093ED00EEEEF0E01192E83FF10540
:1055E000E1F78F5F863091F708952091ED0080E01C
:1055F000982F9295907F9093ED009091EF00907C82
:1056000019F42093ED0008958F5F863089F7209379
:10561000ED008FEF08958091EF00807C61F0809124
:10562000EE00982F907E903241F0903441F0903A05
:1056300041F08F7108958FEF089580E2089580E41E
:10564000089580EA0895BC0190E02091EF00492F71
:1056500050E02F7030E04217530744F48091FA0075
:10566000FB01E40FF51F80839F5FEFCF089581E07A
:105670008093D80088E08093E2008CE08093E30080
:1056800087E38093E40081E00895681708F4682FA9
:10569000862F089590917A009F7790937A00909149
:1056A0007A00977F90937A0090917A00906190931E
:1056B0007A00813059F030F08330A1F480917C0081
:1056C000806C0CC080917C008F7308C080917C003E
:1056D0008F7780937C0080917C00806480937C0035
:1056E00081E001C080E0662331F0613059F490918F
:1056F0007C00906203C090917C009F7D90937C0021
:1057000091E001C090E020917C00207E20937C00FD
:1057100020917C00422B40937C0020917A00287FCE
:1057200020937A0020917A00266020937A00892BBA
:105730000895482F90917C00806E982390937C0070
:1057400050917E0021E030E0C90101C0880F4A95E8
:10575000EAF7852B80937E0080917A0080688093A1
:105760007A0080917C00807C803C31F480EE9FE761
:10577000000000000197E1F780917A008F7D80930F
:105780007A0080917A00806480937A0080917A0018
:1057900084FFFCCF80917A00806180937A0020E1C1
:1057A00080E090E030917A003F7D30937A00309134
:1057B0007A00306430937A0030917A0034FFFCCF65
:1057C0004091780050917900840F951F30917A00B4
:1057D000306130937A00215029F720917A002F7799
:1057E00020937A0024E0969587952A95E1F708950D
:1057F00081E090E090931A108093191010920A0F94
:105800001092090F1092250F1092240F10926A1017
:105810001092691085E194E09EBF8DBF40E051E099
:1058200060E070E085E195E00E94541D811108C0A0
:105830000E945A240E94EF16811102C00E94881D06
:105840008FEF81B992B181E0911180E082B9FACFF6
:10585000DB018F939F930E94C42CBF91AF91A29FB5
:10586000800D911DA39F900DB29F900D112408955E
:10587000991B79E004C0991F961708F0961B881FA2
:105880007A95C9F78095089587FB082E062687FD2F
:10589000819567FD61950E94382C0EF4919507FC67
:1058A00081950895AA1BBB1B51E107C0AA1FBB1F0E
:1058B000A617B70710F0A61BB70B881F991F5A959C
:1058C000A9F780959095BC01CD01089597FB072E0F
:1058D00016F4009407D077FD09D00E94522C07FCE3
:1058E00005D03EF4909581959F4F089570956195F0
:1058F0007F4F0895A1E21A2EAA1BBB1BFD010DC00C
:10590000AA1FBB1FEE1FFF1FA217B307E407F5076F
:1059100020F0A21BB30BE40BF50B661F771F881F4B
:10592000991F1A9469F760957095809590959B01E1
:10593000AC01BD01CF010895052E97FB1EF4009424
:105940000E94B32C57FD07D00E947A2C07FC03D08D
:105950004EF40C94B32C50954095309521953F4FC3
:105960004F4F5F4F089590958095709561957F4F4B
:105970008F4F9F4F0895EE0FFF1F0024001C0BBE9A
:105980000790F691E02D09940E94CF2CA59F900DD1
:10599000B49F900DA49F800D911D11240895A29F86
:1059A000B001B39FC001A39F700D811D1124911DF3
:1059B000B29F700D811D1124911D08955058BB2771
:1059C000AA270E94F62C0C94702E0E94622E38F0AA
:1059D0000E94692E20F039F49F3F19F426F40C94AC
:1059E0005F2E0EF4E095E7FB0C94592EE92F0E94F0
:1059F000812E58F3BA17620773078407950720F0C2
:105A000079F4A6F50C94A32E0EF4E0950B2EBA2F84
:105A1000A02D0B01B90190010C01CA01A0011124B4
:105A2000FF27591B99F0593F50F4503E68F11A1660
:105A3000F040A22F232F342F4427585FF3CF4695F1
:105A400037952795A795F0405395C9F77EF41F1613
:105A5000BA0B620B730B840BBAF09150A1F0FF0FDD
:105A6000BB1F661F771F881FC2F70EC0BA0F621FC9
:105A7000731F841F48F4879577956795B795F795B9
:105A80009E3F08F0B0CF9395880F08F09927EE0F4E
:105A90009795879508950E94352E08F481E0089522
:105AA0000E94642D0C94702E0E94692E58F00E9462
:105AB000622E40F029F45F3F29F00C94592E5111C9
:105AC0000C94A42E0C945F2E0E94812E68F39923CF
:105AD000B1F3552391F3951B550BBB27AA276217EA
