:100000000C944A000C9469000C9469000C946900EB
:100010000C9469000C9469000C9469000C946900BC
:100020000C9469000C9469000C9469000C946900AC
:100030000C9444200C9469000C9469000C946900A1
:100040000C9469000C9469000C9469000C9469008C
:100050000C9469000C9469000C9469000C9469007C
:100060000C9469000C9469000C9469000C9469006C
:100070000C9469000C9469000C9469000C9469005C
:100080000C9469000C9469000C9469000C94D420C1
:100090000C94690011241FBECFEFD0E1DEBFCDBFAD
:1000A00012E0A0E0B1E0EAEFFAE500E00BBF02C029
:1000B00007900D92A63AB107D9F728E0A6EAB2E078
:1000C00001C01D92A83EB207E1F70E9412270C94CE
:1000D0007B2D0C947120CF93DF9300D000D0CDB74F
:1000E000DEB71B821C8281E789831A8240E050E0E0
:1000F000BA0180EE98E00E940D1B62E0CE010196ED
:100100000E94902062E0CE0103960E94BD2080EE06
:1001100098E00E94A51B8C8180FF0DC0109294086E
:1001200083FF0DC0109277080F900F900F900F90E3
:10013000DF91CF91089591E090939408F1CF81E001
:1001400080937708F1CFCF93DF9300D000D000D019
:10015000CDB7DEB78091010190910201A09103011A
:10016000B091040189839A83AB83BC8340E050E063
:10017000BA0180EE98E00E940D1B64E0CE0101966A
:100180000E94902080E98D831E8262E0CE01059658
:100190000E94902080EE98E00E94A51B26960FB644
:1001A000F894DEBF0FBECDBFDF91CF910895CF93FE
:1001B000DF9300D000D000D0CDB7DEB7809105012D
:1001C00090910601A0910701B091080189839A835B
:1001D000AB83BC8340E050E0BA0180EE98E00E941F
:1001E0000D1B64E0CE0101960E94902088E88D836B
:1001F00081E08E831092BC071092BB0762E0CE01B3
:1002000005960E94902080EE98E00E94A51B2696FD
:100210000FB6F894DEBF0FBECDBFDF91CF9108952A
:10022000CF93DF9300D0CDB7DEB788E8898381E034
:100230008A8340E050E0BA0180EE98E00E940D1BF6
:1002400062E0CE0101960E94902080EE98E00E942C
:10025000A51B0F900F90DF91CF9108951F93CF931F
:10026000DF9300D000D000D0CDB7DEB70E941001E0
:1002700019E81C831D821E8240E050E0BA0180EE26
:1002800098E00E940D1B63E0CE0104960E9490202E
:1002900019831A821B8263E0CE0101960E94BD2061
:1002A00080EE98E00E94A51B8A8190E0982F882715
:1002B0002B81820F911D26960FB6F894DEBF0FBEDC
:1002C000CDBFDF91CF911F910895CF93DF9300D0E1
:1002D000CDB7DEB788E8898382E08A8340E050E0CA
:1002E000BA0180EE98E00E940D1B62E0CE010196FB
:1002F0000E94902080EE98E00E94A51B0F900F9026
:10030000DF91CF9108951F93CF93DF9300D000D05A
:1003100000D0CDB7DEB70E94650119E81C831D82AD
:100320001E8240E050E0BA0180EE98E00E940D1B72
:1003300063E0CE0104960E94902019831A821B82EA
:1003400063E0CE0101960E94BD2080EE98E00E94FD
:10035000A51B8A8190E0982F88272B81820F911D01
:1003600026960FB6F894DEBF0FBECDBFDF91CF91BA
:100370001F9108951F93CF93DF9300D000D000D03A
:10038000CDB7DEB711E91C831D821E8240E050E02C
:10039000BA0180EE98E00E940D1B63E0CE01049646
:1003A0000E94902019831A821B8263E0CE0101967D
:1003B0000E94BD2080EE98E00E94A51B8A8190E0FB
:1003C000982F88272B81820F911D26960FB6F894BF
:1003D000DEBF0FBECDBFDF91CF911F910895CF93A8
:1003E000DF9300D0CDB7DEB780E789838BEF8A83B8
:1003F00040E050E0BA0180EE98E00E940D1B62E000
:10040000CE0101960E94902080EE98E00E94A51BEC
:100410000F900F90DF91CF910895CF93DF9300D08D
:10042000CDB7DEB780E789838FEF8A8340E050E065
:10043000BA0180EE98E00E940D1B62E0CE010196A9
:100440000E94902080EE98E00E94A51B0F900F90D4
:10045000DF91CF910895FF920F931F93CF93DF9376
:1004600000D000D01F92CDB7DEB7F82E162F042F84
:1004700040E050E0BA0180EE98E00E940D1B80E45D
:100480008983612F6C60402F50E0440F551F8F2DE2
:10049000807F842B862B8A8328E02B8330E1F39E98
:1004A000C0011124642B682B6C832D8365E0CE0181
:1004B00001960E94902080EE98E00E94A51B0F906C
:1004C0000F900F900F900F90DF91CF911F910F9190
:1004D000FF90089540E060E088E20E942B0240E037
:1004E00060E08EE00E942B0240E060E086E00C9429
:1004F0002B020F931F93CF93DF9300D000D0CDB783
:10050000DEB700E40B8318E01C8340E050E0BA0142
:1005100080EE98E00E940D1B62E0CE0103960E94DF
:10052000902068E270E080E090E00E94C11C0983A6
:100530008CE28A8362E0CE0101960E9490201A83A9
:1005400062E0CE0101960E94902080EE98E00E9429
:10055000A51B0E946A020F900F900F900F90DF91E1
:10056000CF911F910F9108950F931F93CF93DF9316
:10057000EC018C01060F111DC017D10729F4DF9182
:10058000CF911F910F91089540E061E089910E9401
:100590002B02F2CFCF93DF9300D0CDB7DEB7880F19
:1005A00089831A8240E050E0BA0180EE98E00E9410
:1005B0000D1B62E0CE0101960E94902080EE98E033
:1005C0000E94A51B0F900F90DF91CF910895CF93BC
:1005D000DF9300D0CDB7DEB7880F898381E08A83AF
:1005E00040E050E0BA0180EE98E00E940D1B62E00E
:1005F000CE0101960E94902080EE98E00E94A51BFB
:100600000F900F90DF91CF910895CF93DF93CDB7E7
:10061000DEB728970FB6F894DEBF0FBECDBF982F78
:10062000990F9E8390E39F831886880F816089834A
:100630001A821B821C821D8240E050E0BA0180EECB
:1006400098E00E940D1B63E0CE0106960E94902068
:1006500065E0CE0101960E94902065E0CE010196F2
:100660000E94BD208C8190E0982F88272D81820FD9
:10067000911D90936607809365078A8190E0982F7B
:1006800088272B81820F911D9093A9078093A8073B
:1006900080EE98E00E94A51B6091A8077091A907C1
:1006A000809165079091660728960FB6F894DEBF93
:1006B0000FBECDBFDF91CF9108950F931F93CF93BE
:1006C000DF9300D000D000D0CDB7DEB7982F990FC0
:1006D0009C8390E39D8393E09E83880F8160898350
:1006E0001A821B8240E050E0BA0180EE98E00E943E
:1006F0000D1B63E0CE0104960E94902063E0CE01C2
:1007000001960E94902063E0CE0101960E94BD20D8
:100710000A811B8180EE98E00E94A51BC8012696E5
:100720000FB6F894DEBF0FBECDBFDF91CF911F9102
:100730000F910895CF9310928F0840E050E0BA01D6
:1007400080EE98E00E940D1BC1E080E98C0F8230A2
:10075000A8F08C2F0E945D03853A954A79F4809128
:100760008F08803158F4E0918F08F0E0E555F84F9C
:10077000C08380918F088F5F80938F08CF5FC038D0
:1007800021F780EE98E0CF910C94A51BEF92FF9299
:100790000F931F93CF93DF93CDB7DEB728970FB694
:1007A000F894DEBF0FBECDBF982F990F9E8390E3C4
:1007B0009F8392E09887880F816089831A821B82C9
:1007C0001C821D8240E050E0BA0180EE98E00E9459
:1007D0000D1B63E0CE0106960E94902065E0CE01DD
:1007E00001960E94902065E0CE0101960E94BD20F6
:1007F0000C811D81102701271027EA80FB80FE2431
:10080000EF24FE2480EE98E00E94A51BB701C801EA
:1008100028960FB6F894DEBF0FBECDBFDF91CF9103
:100820001F910F91FF90EF900895EF92FF920F9319
:100830001F93CF93DF93CDB7DEB728970FB6F89409
:10084000DEBF0FBECDBF982F990F9E8390E39F838D
:1008500091E09887880F816089831A821B821C82AD
:100860001D8240E050E0BA0180EE98E00E940D1B2E
:1008700063E0CE0106960E94902065E0CE010196CD
:100880000E94902065E0CE0101960E94BD201D814E
:100890000C81FB80EA8080EE98E00E94A51BB701E6
:1008A000C80128960FB6F894DEBF0FBECDBFDF910A
:1008B000CF911F910F91FF90EF9008951F93CF93C9
:1008C000DF9310E0C12F012E000CDD0B80918F080B
:1008D00090E0C817D90724F0DF91CF911F910895B8
:1008E000FE01E555F84F80810E941504FE01EE0FD0
:1008F000FF1FEE0FFF1FED5DF74F60837183828353
:10090000938361E070E080E090E00E94C11C1F5F73
:10091000D9CF80EE98E00E94BB1A0E947B2040E075
:1009200050E0BA0180EE98E00E940D1B0E949A03ED
:100930000E940D0264E670E080E090E00E94C11C1D
:100940000E945E0480EE98E00C94A51B40E060E0FD
:1009500080E80E942B020E946A0264E18AEE97E01E
:100960000E94B40264E183E698E00E94B40264E16C
:100970008FE697E00E94B40264E186EC98E00C9464
:10098000B4022F923F924F925F926F927F928F921A
:100990009F92AF92BF92CF92DF92EF92FF920F930E
:1009A0001F93CF93DF93CDB7DEB7C456D1090FB6EF
:1009B000F894DEBF0FBECDBF84E1E9E0F1E0DE01D7
:1009C000DD9601900D928A95E1F784E1EDE1F1E089
:1009D000DE01999601900D928A95E1F784E1E1E3B9
:1009E000F1E0DE01559601900D928A95E1F784E1E0
:1009F000E5E4F1E0DE01119601900D928A95E1F7B0
:100A00008091D8079091D9078230910509F432C2BC
:100A100040F4009709F43DC2019771F066E772E077
:100A20000DC08430910509F42BC208F426C2069744
:100A3000A9F763E972E002C06BE772E0FB01019085
:100A40000020E9F73197AF01461B570BCE018D5BB4
:100A50009F4F0E94242A80916E0724E6622F0E94F5
:100A60004027805D2E968FAF2E9780916E070E9453
:100A70004027892F2AE0622F0E944027805D2F9611
:100A80008FAF2F9780916E070E944027905D6096F0
:100A90009FAF6097809182089091830864E670E030
:100AA0000E946E27605D6D966FAF6D978091820892
:100AB000909183082AE030E0B9010E946E27CB01B3
:100AC000B9010E946E27805D6E968FAF6E97809100
:100AD000820890918308B9010E946E27805D6F960D
:100AE0008FAF6F97C090BD07D090BE07E090BF0753
:100AF000F090C0076091BD077091BE078091BF075D
:100B00009091C0070E94022920E030E0A9010E94D4
:100B1000532887FFC1C1C701B6010E94022990581E
:100B20000E94CA286B017C011DE2C701B60120EAC0
:100B300036E841E050E00E94A4276AE0862E912C1E
:100B4000A12CB12CCA01B901A50194010E94A427CE
:100B5000605DA0966FAFA097C701B60120E137E2B4
:100B600040E050E00E94A427CA01B901A501940108
:100B70000E94A427605DA1966FAFA197C701B6013F
:100B800028EE33E040E050E00E94A427CA01B901FA
:100B9000A50194010E94A427605DA2966FAFA29761
:100BA000C701B60124E630E040E050E00E94A427EF
:100BB000CA01B901A50194010E94A427605DA39612
:100BC0006FAFA397C701B601A50194010E94A427A6
:100BD000062FCA01B901A50194010E94A427605DF6
:100BE000A4966FAFA497005DA5960FAFA5978091CF
:100BF000C307811153C180E26C968FAF6C9790E26E
:100C00006B969FAF6B978EE46A968FAF6A9745E4B9
:100C1000242E50E5352E0FE40E945B1C6B017C01F5
:100C200024E630E040E050E00E94822765962CAF39
:100C30003DAF4EAF5FAF6597C701B60120E737E123
:100C400040E050E00E94822729013A01C701B60125
:100C500020E43EE745E050E00E94822769962CAFF1
:100C60003DAF4EAF5FAF69978CE3882E912CA12CDE
:100C7000B12C65966CAD7DAD8EAD9FAD6597A50130
:100C800094010E94822765966CAF7DAF8EAF9FAFB7
:100C90006597C301B201A50194010E9482272B012F
:100CA0003C0169966CAD7DAD8EAD9FAD699728E135
:100CB00030E040E050E00E94822769966CAF7DAF43
:100CC0008EAF9FAF699784E1FE01FD96AAEEB7E073
:100CD00001900D928A95E1F76D968FAD6D978BA778
:100CE0006E969FAD6E979CA78EE28DA76F969FAD77
:100CF0006F979EA71AABA0969FADA0979BABA196AE
:100D00009FADA1979CABA2969FADA2979DAB8EABDA
:100D1000A3969FADA3979FABA4969FADA49798AFC2
:100D2000A5969FADA59799AF94E1FE01B996A3E66C
:100D3000B8E001900D929A95E1F70AA33BA22CA28C
:100D40006A969FAD6A979DA36B969FAD6B979EA386
:100D50006C969FAD6C979FA394E1FE017596AFE6EC
:100D6000B7E001900D929A95E1F796E79B8390E3A7
:100D70009C838D8381E38E8385E38F83C701B601D6
:100D800020E038E94FE753E30E948227205D29875E
:100D9000C701B60120E03CE546E255E00E9482270B
:100DA0009AE0892E912CA12CB12CCA01B901A50180
:100DB00094010E948227605D6A87C701B60120E026
:100DC00036ED43E850E00E948227CA01B901A5012F
:100DD00094010E948227605D6B871AE31C876996E5
:100DE0006CAD7DAD8EAD9FAD6997A50194010E945C
:100DF0008227205D2D87605D6E871F87C301B2014A
:100E0000A50194010E948227205D288B605D698B7B
:100E10001A8B65966CAD7DAD8EAD9FAD6597A501C6
:100E200094010E948227205D2B8B605D6C8B84E196
:100E3000FE013196A6ECB8E001900D928A95E1F79B
:100E4000CC59DF4F0FB6F894DEBF0FBECDBFDF9198
:100E5000CF911F910F91FF90EF90DF90CF90BF90B7
:100E6000AF909F908F907F906F905F904F903F904A
:100E70002F90089560E872E0E1CD66E872E0DECD83
:100E800080911F08805D28968FAF28976AE872E0EE
:100E9000D5CD6EE872E0D2CD10E247CE94E46C96E8
:100EA0009FAF6C9785E46B968FAF6B9793E56A96CF
:100EB0009FAF6A972FE4222E3CE4332E03E4ACCE9E
:100EC000CF93DF93CDB7DEB7C055D1090FB6F894F5
:100ED000DEBF0FBECDBF84E1E9E5F1E0DE01DD96C6
:100EE00001900D928A95E1F784E1EDE6F1E0DE01F3
:100EF000999601900D928A95E1F784E1E1E8F1E09D
:100F0000DE01559601900D928A95E1F784E1E5E9BD
:100F1000F1E0DE01119601900D928A95E1F78DE2E4
:100F200023968FAF23979FE224969FAF24979EE24C
:100F300025969FAF259726968FAF269784E1FE01D1
:100F4000FD96AAEEB7E001900D928A95E1F784E153
:100F5000FE01B996A3E6B8E001900D928A95E1F7FB
:100F600084E1FE017596AFE6B7E001900D928A9597
:100F7000E1F784E1FE013196A6ECB8E001900D9214
:100F80008A95E1F7C05BDF4F0FB6F894DEBF0FBE66
:100F9000CDBFDF91CF9108952F923F924F925F92F4
:100FA0006F927F928F929F92AF92BF92CF92DF9279
:100FB000EF92FF920F931F93CF93DF93CDB7DEB7DE
:100FC00064970FB6F894DEBF0FBECDBF94E1E9EA97
:100FD000F1E0DE01119601900D929A95E1F790E310
:100FE000392E380EE82FF0E0EE0FFF1FDF01AB5671
:100FF000B74F8D919C911197AD90BC901197CD906A
:10100000DC901197ED90FC90EA53F84F008111812C
:1010100020813181608071804080518044E1FE01F7
:101020003196AAEEB7E001900D924A95E1F7E3E61A
:10103000F8E043E4408331825FE5252E228256E5C5
:1010400053835AE3548368EE862E63E0962EB401F0
:101050000E945A27605D65838EE28683C501B401D4
:101060000E945A2774E6A72EB12CB5010E945A2778
:10107000605D6783C601B4010E945A27B5010E94D2
:101080005A27AAE0CA2ED12CB6010E945A27605DC9
:101090006087C701B6010E945A27805D8187B0E250
:1010A000FB2EF286F386F486F586F686F786F08ABE
:1010B000F18AF28AF38AEFE6F7E0408331822282F6
:1010C00084E583835AE35483C801B4010E945A27FC
:1010D000605D6583C901B4010E945A27B5010E9471
:1010E0005A27605D6683C301B4010E945A27B50187
:1010F0000E945A27B6010E945A27605D67838EE2DC
:101100008087C201B6010E945A27805D8187F286DE
:10111000F386F486F586F686F786F08AF18AF28AF7
:10112000F38AE6ECF8E080E580838FE281834283F6
:1011300033828EE38483F582F682F782F086F1862D
:10114000F286F386F486F586F686F786F08AF18ACB
:10115000F28AF38A64960FB6F894DEBF0FBECDBF55
:10116000DF91CF911F910F91FF90EF90DF90CF9083
:10117000BF90AF909F908F907F906F905F904F90B7
:101180003F902F9008952F923F924F925F926F92CF
:101190007F928F929F92AF92BF92CF92DF92EF9207
:1011A000FF920F931F93CF93DF93CDB7DEB7C35456
:1011B000D1090FB6F894DEBF0FBECDBF94E1EDEBC1
:1011C000F1E0DE01999601900D929A95E1F794E194
:1011D000E1EDF1E0DE01559601900D929A95E1F76F
:1011E00094E1E5EEF1E0DE01119601900D929A9501
:1011F000E1F720E3280F2DAF7AE8E72E78E0F72E0D
:10120000E6E0AE2EE8E0BE2EF501670190E2D601E1
:101210009D936D019193BFE8CB16B8E0DB06B9F75B
:10122000082F10E04801880C991CF401E854F74F8E
:10123000808191814AE06AE878E00E942D2AF401D9
:10124000E452F84F808191814AE066E078E00E94A4
:101250002D2A80E2F7019081911101C08083D50190
:101260009C91911101C08C93BFEFEB1AFB0AEFEF39
:10127000AE1ABE0ACE14DF0469F770908A08809017
:101280008B0890908C08F0918D08FEAFC0908E086E
:1012900020900608309007084090080850900908F0
:1012A00060900A08F801EE0FFF1FE955F74F8081A3
:1012B000918164E670E00E945A272AE030E0B9018B
:1012C0000E945A27605D6FAF80819181B9010E94B1
:1012D0005A27805D21968FAF21975801AA0CBB1C1D
:1012E000AA0CBB1CC5018D57984F7C01DC016D9188
:1012F0007D918D919C910E94CA28605D22966FAF6E
:101300002297F701608171818281938120E030E032
:1013100040E251E40E94B7290E94CA28862F5AE071
:10132000D52E6D2D0E944C27905D23969FAF23975D
:10133000D7016D917D918D919C9120E030E048EC3A
:1013400052E40E94B7290E94CA28862F6D2D0E9460
:101350004C27905D24969FAF2497F701608171819F
:101360008281938120E030E04AE754E40E94B7296B
:101370000E94CA28862F6D2D0E944C2797FDCBC056
:10138000F70180819181A281B38160817181828125
:10139000938120E030E04AE754E40E94B7290E949C
:1013A000CA28862F6D2D0E944C2720E3F22EF90EBD
:1013B000F801E555F84F80811F928F9387E992E0FD
:1013C0009F938F938FE997E09F938F930E94522A68
:1013D00050919F074091A0073091A107F501ED5D65
:1013E000F74F20819181828163812EA63FA648AA72
:1013F00059AA6AAAFFADF8AF21967FAD219779AFC0
:1014000074E1FE01B996AAEEB7E001900D927A95CB
:10141000E1F77A8E8B8E9C8EAEADAD8FCE8E2296FE
:10142000BFAD2297BCA37EE27DA32396EFAD2397A9
:10143000EEA32496FFAD2497FFA3F8A674E1FE0166
:101440007596A3E6B8E001900D927A95E1F7205DDC
:101450002E83905D9F83805D8887605D69875A8B4E
:101460004B8B3C8B84E1FE013196AFE6B7E00190F7
:101470000D928A95E1F780E58093C6089FE29093EC
:10148000C70883E48093C8082DAD2093C9089093C2
:10149000CA088093CB0881E48093CC088CE48093C5
:1014A000CD088EE38093CE0880E28093CF088093AE
:1014B000D0088093D1088093D2088093D30880937A
:1014C000D4088093D5088093D6088093D70880935A
:1014D000D8088093D9080F900F900F900F900F901D
:1014E0000F90CD5BDF4F0FB6F894DEBF0FBECDBFC0
:1014F000DF91CF911F910F91FF90EF90DF90CF90F0
:10150000BF90AF909F908F907F906F905F904F9023
:101510003F902F90089580E2F82E4ACF2F923F926D
:101520004F925F926F927F928F929F92AF92BF92F3
:10153000CF92DF92EF92FF920F931F93CF93DF939F
:10154000CDB7DEB7EC970FB6F894DEBF0FBECDBFB8
:1015500084E1E9EFF1E0DE01999601900D928A9520
:10156000E1F784E1EDE0F2E0DE01559601900D92A5
:101570008A95E1F784E1E1E2F2E0DE011196019063
:101580000D928A95E1F783E58093EA0785E48093DD
:10159000EB0784E58093EC0780E28093ED0790E50C
:1015A0009093EE0791E49093EF0793E49093F00704
:1015B0009BE49093F1078093F20799E49093F307EB
:1015C00094E49093F4078093F5078093F607809353
:1015D000F7078093F8078093F9078093FA078093C1
:1015E000FB078093FC078093FD0794E1FE01B99609
:1015F000A3E6B8E001900D929A95E1F794E1FE011F
:101600007596AFE6B7E001900D929A95E1F788875D
:10161000898B84E1FE013196A6ECB8E001900D9231
:101620008A95E1F764E670E080E090E00E94C11CDA
:101630008091AA0780931D088091AA071F928F931B
:101640000CE912E01F930F938EEF97E09F938F9317
:101650000E94522A80911D081F928F931F930F930F
:101660008AED98E09F938F930E94522A62E370E084
:1016700080E090E00E94C11C81E0809378080FB662
:10168000F894DEBF0FBECDBF78019AEDC92E98E069
:10169000D92E2FE0422E3324339433E5A32E45E494
:1016A000B42E04E510E250E5552E61E4662E73E495
:1016B000772EEBE48E2EF9E49F2E8091B7088823D5
:1016C00009F4E2C0809178088F5F80937808809158
:1016D000780880931D0880911D08803131F4309284
:1016E00078088091780880931D0880911D081F92CA
:1016F0008F93FF92EF92DF92CF920E94522A109224
:10170000B7080F900F900F900F900F900F902091AF
:10171000FE079091DA08A092EA07B092EB070093D7
:10172000EC071093ED075092EE076092EF0770926E
:10173000F0078092F1071093F2079092F30784E488
:10174000282E2092F4071093F5071093F6071093B4
:10175000F7071093F8071093F9071093FA071093FF
:10176000FB071093FC071093FD0784E1FE01B99677
:10177000A3E6B8E001900D928A95E1F784E1FE01BD
:101780007596AFE6B7E001900D928A95E1F728874C
:10179000998B84E1FE013196A6ECB8E001900D92A0
:1017A0008A95E1F7189989CF60911D0888E090E04B
:1017B0000E94592D88E090E00E944B2D8093AA074B
:1017C0005092EA076092EB077092EC078092ED0767
:1017D0001093EE079092EF072092F0071093F10715
:1017E000A092F207B092F3070093F40781E280938E
:1017F000F5071093F6071093F7071093F807109367
:10180000F9071093FA071093FB071093FC07109346
:10181000FD0784E1FE01B996A3E6B8E001900D92C0
:101820008A95E1F784E1FE017596AFE6B7E0019095
:101830000D928A95E1F784E1FE013196A6ECB8E0BD
:1018400001900D928A95E1F764E670E080E090E007
:101850000E94C11C80E0EC960FB6F894DEBF0FBE6C
:10186000CDBFDF91CF911F910F91FF90EF90DF904F
:10187000CF90BF90AF909F908F907F906F905F9030
:101880004F903F902F90089580918808882309F405
:101890003ECF8091780881508093780880917808B5
:1018A000811102C0409278088091780880931D08C9
:1018B00080911D081F928F93FF92EF92DF92CF923B
:1018C0000E94522A109288081CCF3F924F925F923A
:1018D0006F927F928F929F92AF92BF92CF92DF9240
:1018E000EF92FF920F931F93CF93DF93CDB7DEB7A5
:1018F000EC970FB6F894DEBF0FBECDBF84E1E9EFE1
:10190000F1E0DE01999601900D928A95E1F784E16C
:10191000EDE0F2E0DE01559601900D928A95E1F737
:1019200084E1E5E3F2E0DE01119601900D928A95E3
:10193000E1F78091A6079091A7079093A408809360
:10194000A3088091A6079091A7079F938F9301EA20
:1019500012E01F930F9388E198E09F938F930E946A
:10196000522A8091A3089091A4089F938F931F936C
:101970000F938BED98E09F938F930E94522A62E31E
:1019800070E080E090E00E94C11C109278080FB6D1
:10199000F894DEBF0FBECDBF68018BEDA82E88E0A6
:1019A000B82E812C95E0992E03E525E4F22E34E53E
:1019B000632E10E243E4342E51E4752E6EE4462E7D
:1019C00074E4E72EE2E55E2E8091B708882309F4DF
:1019D00020C1809178088F5F809378088091780883
:1019E00090E09B5F9093A4088093A3088091A30844
:1019F0009091A4089F938F93DF92CF92BF92AF9262
:101A00000E94522A8091A3089091A4080F900F90F1
:101A10000F900F900F900F908115964031F4109217
:101A200078089092A4088092A3081092B708609159
:101A3000190850911A0840911B083091DC08209138
:101A4000DD089091DE080093EA07F092EB076092C0
:101A5000EC071093ED073092EE077092EF0740927B
:101A6000F0071093F1077092F207E092F307E0920B
:101A7000F4075092F507F092F6070093F7070093EA
:101A8000F8071093F9071093FA071093FB071093C8
:101A9000FC071093FD0784E1FE01B996A3E6B8E0C8
:101AA00001900D928A95E1F784E1FE017596AFE60B
:101AB000B7E001900D928A95E1F7688759874A87C8
:101AC000398B2A8B9B8B84E1FE013196A6ECB8E022
:101AD00001900D928A95E1F7189976CF8091A6072B
:101AE0009091A70701969093A6088093A5088091EE
:101AF000A6079091A70702969093C5078093C40705
:101B00006091A3087091A40882E090E00E94662D85
:101B10006091A5087091A60884E090E00E94662D6F
:101B20006091C4077091C50786E090E00E94662D21
:101B300082E090E00E94532D9093A7078093A60720
:101B40003092EA077092EB074092EC071093ED0792
:101B50007092EE07E092EF07E092F0075092F107E3
:101B6000F092F2070093F3070093F4071093F50740
:101B70000093F607F092F7076092F80781E28093EE
:101B8000F9071093FA071093FB071093FC071093C3
:101B9000FD0784E1FE01B996A3E6B8E001900D923D
:101BA0008A95E1F784E1FE017596AFE6B7E0019012
:101BB0000D928A95E1F784E1FE013196A6ECB8E03A
:101BC00001900D928A95E1F764E670E080E090E084
:101BD0000E94C11C64E670E080E090E00E94C11C9D
:101BE00080E0EC960FB6F894DEBF0FBECDBFDF915C
:101BF000CF911F910F91FF90EF90DF90CF90BF900A
:101C0000AF909F908F907F906F905F904F903F909C
:101C1000089580918808882309F409CF8091780875
:101C20008823F9F08091780881508093780880911A
:101C3000780890E09B5F9093A4088093A30880911C
:101C4000A3089091A4089F938F93DF92CF92BF92A5
:101C5000AF920E94522A0F900F900F900F900F900A
:101C60000F9010928808E3CE159A1092DB0710921D
:101C7000DA071092A5071092A40708950E94340E67
:101C800062E370E080E090E00E94C11C43E050E01D
:101C900022E030E061E070E08091DA079091DB07AC
:101CA00081309105B9F04CF40097D1F7059BF4CF42
:101CB0007093DB076093DA07EFCF82309105D9F09C
:101CC0008330910569F7059911C01092DB071092D6
:101CD000DA07E2CF059BF9CF8091A4079091A50781
:101CE000809590959093A5078093A4073093DB0788
:101CF0002093DA07D1CF0599CFCF5093DB074093DC
:101D0000DA07CACFEF92FF920F931F93CF93DF931F
:101D1000CDB7DEB74DB75EB780918F082DB73EB710
:101D2000281B31090FB6F8943EBF0FBE2DBF2F5FA1
:101D30003F4F8091D8079091D907019709F092C041
:101D400080910008882309F48DC01092000880E07B
:101D500090918F08891760F0A0E080918F086A2F1A
:101D600070E090E0019768177907BCF5B0E029C0F2
:101D7000F901E80FF11D80838F5FEACFB901680F89
:101D8000791FFB01E080EE2DF0E0EE0FFF1FEB5618
:101D9000F74F008111810196820F931FFC01F080A3
:101DA000EF2DF0E0EE0FFF1FEB56F74F0190F081A3
:101DB000E02DE017F10720F4FC01E082FB01F08246
:101DC000BF5F8B2F90E060918F0870E061507109C8
:101DD000861797079CF2AF5FC0CF80918F08815024
:101DE00097E0811111C0A1E060918F08861748F13A
:101DF0000FB6F8945EBF0FBE4DBFDF91CF911F911C
:101E00000F91FF90EF900895D901A80FB11DEC91AB
:101E1000F0E0EE0FFF1FEB56F74F608171811197D5
:101E2000EC91F0E0EE0FFF1FEB56F74F0190F081C1
:101E3000E02D6E1B7F0B6931710508F0982F8150E2
:101E4000D0CF682F70E0620F731FFB016081E62F17
:101E5000F0E0E959F84F891718F0A0838F5FC4CFDD
:101E60001082FCCF8091D8079091D907019709F48F
:101E7000BFCF80E090918F08891708F0B9CFE82F85
:101E8000F0E0E959F84F10828F5FF4CFCF93DF93E2
:101E900000D000D000D0CDB7DEB70E9489040E94E8
:101EA000A3000E94D7000E94790281E08093A307DB
:101EB0001092000834E6432E512C612C712C222400
:101EC00023940E945B1CA30192010E94822763332A
:101ED00071058105910508F4EDC08091A307882361
:101EE00031F01092A307209200080E94A60465E03A
:101EF00070E080E090E00E94C11C312C80918F083E
:101F0000381608F4DAC00E948301BC01990F880BCF
:101F1000990B0E9402292AE037ED43EA5AE30E9416
:101F2000B72921EC3AEC41E85FE30E94B7292AE99E
:101F300039E949E95EE30E94E62720E030E040E22B
:101F400051E40E94B7290E94D128709383086093BE
:101F500082080E946B000E942E01092E000CAA0B21
:101F6000BB0BB095A095909581959F4FAF4FBF4FFC
:101F70008093D4079093D507A093D607B093D70743
:101F80008091D4079091D507A091D607B091D7073B
:101F9000803E9E42A105B105CCF48091D40790917A
:101FA000D507A091D607B091D7078132914DAF4F99
:101FB000BF4F64F08091D4079091D507A091D607C8
:101FC000B091D7079093B6088093B5088091D80751
:101FD0009091D907069709F0FAC08091C30788232A
:101FE00009F4F5C00E94EF010E94BA01092E000C0D
:101FF000AA0BBB0B8093D4079093D507A093D60769
:10200000B093D70740E050E0BA0181E098E00E9429
:102010000D1B8091D4079091D507A091D607B09160
:10202000D7079C01AD0166277727CB01621B730B95
:10203000840B950B0E9402292FE632E143E059E31D
:102040000E94B72923ED3EEF46ED52E40E94B729E6
:1020500024EA30E74DE25FE30E94E72720E030E02A
:102060004AE754E40E94B7290E94CA286093BD073A
:102070007093BE078093BF079093C00781E098E0FC
:102080000E94A51B0E94820E10E080918F081817F5
:1020900008F017CFE12FF0E0DF01A959B84F8C917C
:1020A000E555F84F813009F0E8C080810E94E702D1
:1020B0001F5FEBCF2092A3071ACF032D10E0F8018A
:1020C000E555F84F80810E9405036B017C01980162
:1020D000220F331F3E832D83F901E854F74F4081CF
:1020E00051815A834983F901E452F84F80819181EB
:1020F0009C838B8396E09E9DB0019F9D700D112463
:1021000080E090E00E9400294B015C01A981BA8126
:10211000BD0180E090E00E94002920E030E040E82E
:102120005AE30E94B7299B01AC01C501B4010E948A
:10213000B7294B015C01EB81FC81BF0180E090E09D
:102140000E9400299B01AC01C501B4010E94E72750
:102150000E94D128ED81FE81EB56F74F7183608399
:10216000000F111F000F111FF801ED57F84F80806D
:102170009180A280B380ED81FE81E955F74F008107
:102180001181FAEFCF1AF0E8DF0ACC0CDD1CB601A2
:1021900080E090E00E940029A50194010E94B729E7
:1021A0006B017C01B80180E090E00E9400299B0156
:1021B000AC01C701B6010E94E7270E94D128ED813A
:1021C000FE81EA53F84F71836083339497CE0E9467
:1021D0000D020E94BA01092E000CAA0BBB0B8093C2
:1021E000D4079093D507A093D607B093D7078091D3
:1021F000D4079091D507A091D607B091D7078C3B13
:102200009240A105B1050CF03DCF8091D40790918B
:10221000D507A091D607B091D70785349D4FAF4F12
:10222000BF4F0CF42FCF40E050E0BA0181E098E0BE
:102230000E940D1B6091B5087091B608072E000C26
:10224000880B990B0E9402292CEA35EC47E256E3F1
:102250000E94B7292FE632E143E85AE30E9458284A
:102260002DE73EEA46E75FE30E94B72929E839E215
:1022700041E15CE30E94E627F1CE80810E94CA0220
:1022800017CF1092E6081092E5088091E50890912A
:10229000E608079708F494C087E08093120889E75E
:1022A00098E0909314088093130881E090E0909355
:1022B0000D0880930C081092170882E090E00E94AD
:1022C000532D9093A7078093A6078091A60790911E
:1022D000A707892B31F08091A6079091A707019657
:1022E00071F460E075E082E090E00E94662D82E08B
:1022F00090E00E94532D9093A7078093A60784E057
:1023000090E00E94532D9093A6088093A508809199
:10231000A5089091A608892B31F08091A50890918D
:10232000A608019671F461E075E084E090E00E94F7
:10233000662D84E090E00E94532D9093A608809330
:10234000A50886E090E00E94532D9093C5078093E6
:10235000C4078091C4079091C507892B31F0809103
:10236000C4079091C507019671F462E075E086E0BC
:1023700090E00E94662D86E090E00E94532D90939D
:10238000C5078093C40788E090E00E944B2D80939E
:10239000AA078091AA07882321F08091AA078F3F7E
:1023A00059F461E088E090E00E94592D88E090E0C7
:1023B0000E944B2D8093AA0787E08093E708089539
:1023C000E091E508F091E608E758F74F1082809118
:1023D000E5089091E60801969093E6088093E50859
:1023E00054CF0E94411180E00E94472118E0809163
:1023F000AA0790E0982F8827977090930F088093F2
:102400000E08109312088091D8079091D9078093F5
:102410007908809182089091830890937A0880913E
:1024200082089091830880937B088091BD079091EA
:10243000BE07A091BF07B091C0078B2FBB2787FDB8
:10244000B0959B2FAB2F80937C088091BD07909116
:10245000BE07A091BF07B091C007CD01BB2797FD74
:10246000B095AB2F80937D088091BD079091BE07FA
:10247000A091BF07B091C007892F9A2FAB2FBB2720
:10248000A7FDBA9580937E088091BD079091BE0705
:10249000A091BF07B091C00780937F0880916E071D
:1024A000809380088BE098E00E9454218111FACF3C
:1024B0008BE098E00E942F268130D1F38091840830
:1024C00090918508A0918608B09187088B2FBB2733
:1024D00087FDB0959B2FAB2F80937908809184085E
:1024E00090918508A0918608B0918708CD01BB27FF
:1024F00097FDB095AB2F80937A08809184089091D6
:102500008508A0918608B0918708892F9A2FAB2F54
:10251000BB27A7FDBA9580937B0880918408909192
:102520008508A0918608B091870880937C0884E094
:1025300001E0C4E0D1E09091E7089017B8F401E021
:102540009091E7089017B8F12C2F280F2AC0EC2F94
:10255000F0E0A02FB0E0A959B84F9C91E758F74F91
:102560009083CF5F0F5F815009F454C09091E708CA
:10257000901768F7E0CF4C2F50E0E02FF0E0EE0F1F
:10258000FF1FEB56F74F60817181DA01A758B74FF3
:102590007C9360817181FA01E658F74F60830F5F89
:1025A0008250C22FC81B823008F450C09091E708B7
:1025B000901708F7C5CF01E09091E708901718F140
:1025C0004C2F480F16C02C2F30E0E02FF0E0EE0F1C
:1025D000FF1FEA53F84F60817181D901A758B74FA7
:1025E0007C9360817181F901E658F74F60830F5F3A
:1025F0008250C42FC81B823008F444C09091E70871
:10260000901708F7D9CF64E670E080E090E00E9470
:10261000C11CEDCE2091AA078D2F90E0922B9770D0
:1026200090930F0880930E08C09312088BE098E0F7
:102630000E945421C82F8111F9CF8BE098E00E94AD
:102640002F268130D1F3DF5F88E075CF2091AA0774
:102650008D2F90E0922B977090930F0880930E0827
:10266000C09312088BE098E00E945421C82F81117A
:10267000F9CF8BE098E00E942F268130D1F3DF5F05
:1026800088E05ECF2091AA078D2F90E0922B977063
:1026900090930F0880930E08C09312088BE098E087
:1026A0000E945421C82F8111F9CF8BE098E00E943D
:1026B0002F268130D1F3DF5F88E07ECF0C94C104F8
:1026C0000E94C10464E670E080E090E00E94C11CBA
:1026D000C0E08C2F0C2E000C990BC8303CF4C1309C
:1026E0007CF40E94C10416C0CFE0F3CFCF30FCF0E1
:1026F000CF30B9F70E948E0A81110CC0C0E00AC029
:1027000020918F0830E02817390724F08FEF8C0FC5
:102710000E94CC07189BE8CF80918808882399F005
:10272000CF5FCF3009F4CEE010928808D2CF20914D
:102730008F08079730E02817390764F388EF8C0F6C
:102740000E94C308E7CF8091B708882311F2C150D7
:1027500008F4C0E01092B708BCCF089A109863E064
:1027600070E080E090E00E94C11C109A63E070E08D
:1027700080E090E00E94C11CF1CF1092940810926A
:10278000810880E090918F08891720F081E098E01F
:102790000C94BB1AE82FF0E0E959F84F10828F5FD4
:1027A000F1CF81E090E00E944B2D80936E078091E5
:1027B0006E07882321F080916E078F3F59F462E302
:1027C00081E090E00E94592D81E090E00E944B2D25
:1027D00080936E0780916E07089590918108809193
:1027E0006E07981751F080916E0780938108609171
:1027F0006E0781E090E00C94592D0895CF93DF93FC
:1028000000D000D0CDB7DEB70E94BD13412C512CB3
:10281000320114E63CE9832E99249A94A92CB92C10
:102820008091D8079091D907892BD1F38091D8074F
:102830009091D907019721F482B1806382B908C0D1
:102840008091D8079091D907039709F0B7C0149ADF
:1028500080E090918F08891708F4B3C080E09091D0
:102860008F08891708F4C8C00E945B1C6B017C01AB
:10287000DC01CB0184199509A609B7092C013D019A
:1028800040E050E0BA0181E098E00E940D1B6091A9
:10289000BD077091BE078091BF079091C00720913E
:1028A00084083091850840918608509187082983D3
:1028B0003A834B835C83A30192010E943027A501D8
:1028C00094010E94A42789819A81AB81BC81280F41
:1028D000391F4A1F5B1F57FD2CC06091BD077091C7
:1028E000BE078091BF079091C00720918408309166
:1028F0008508409186085091870829833A834B8345
:102900005C83A30192010E943027A50194010E94DB
:10291000A42789819A81AB81BC81280F391F4A1F66
:102920005B1F20938408309385084093860850935A
:10293000870881E098E00E94A51B6091840870914F
:10294000850880918608909187080E94022920E0DE
:1029500036ED43E05AE40E94B229181664F56091FE
:1029600084087091850880918608909187080E945C
:10297000022928E03FEE4BE45DE40E94532887FFE4
:102980001AC06091840870918508809186089091A2
:1029900087080E94022920E63EEF4DE45DE40E9494
:1029A000582820E030E048EC52E40E94B7290E9409
:1029B000D12860936E072601370132CF82B18F7C18
:1029C0003DCFE82FF0E0EE0FFF1FEB56F74F2081D1
:1029D000318125373E4070F020E036EE4FED5CE06F
:1029E0002093840830938508409386085093870885
:1029F00010936E078F5F2DCFE82FF0E0EE0FFF1FD3
:102A0000EB56F74F208131812C383A4050F4109228
:102A100084081092850810928608109287081092F8
:102A20006E078F5F1CCF269A2C9A87B18C6087B96E
:102A3000769A08950E9413151D9B0CC0439A8091AD
:102A4000A4079091A507892B39F01C9B05C02E9AED
:102A5000429AF2CF4398F3CF2E984298EDCF8EE36F
:102A600090E09093A8088093A70886E490E0909364
:102A7000AA088093A9088BE290E09093AC08809319
:102A8000AB0889E390E09093AE088093AD0880E2B4
:102A900090E09093B0088093AF0881E390E090932A
:102AA000B2088093B1088EE190E09093B4088093CF
:102AB000B30887E79EEBAFE3BFE380938307909370
:102AC0008407A0938507B09386078AEA91EFA2E373
:102AD000BFE38093870790938807A0938907B093FB
:102AE0008A078FE892ECA5E5BFE380938B0790936C
:102AF0008C07A0938D07B0938E0784E69BE3AFE32A
:102B0000BFE380938F0790939007A0939107B093B2
:102B100092078FE395E3AEE5BFE38093930790932D
:102B20009407A0939507B09396078CE497E3A9E4E4
:102B3000BFE38093970790939807A0939907B0936A
:102B40009A078FE29DEDA4E6BFE380939B079093E5
:102B50009C07A0939D07B0939E0710921E081092A9
:102B60001F08109222081092210810922008C0E03D
:102B7000D0E080918F0890E0C817D9070CF47AC094
:102B80001092D9071092D8070E94D11380936E0734
:102B900060916E0770E080E090E00E94002920E0E4
:102BA00030E048EC52E40E94582820E63EEF4DE425
:102BB0005DE40E94B7290E94D12860938408709335
:102BC000850880938608909387080E94ED13C4E0DF
:102BD000D0E07724739462E0662E06E010E0EE24E5
:102BE000E394F12CE3E08E2E912CF5E0CF2ED12C46
:102BF000A2E0AA2EB12C0E94ED1340E080918F0834
:102C0000481708F44CC08091820890918308813461
:102C10009145A4F0D093D907C093D8076092FF07DD
:102C200070921E0860921F0880918208909183081C
:102C30009093220880932108109220088091D80751
:102C40009091D907049709F4B6C08091D807909164
:102C5000D9078230910509F4A9C008F05AC000973D
:102C600009F469C0019709F493C0D093D907C093C0
:102C7000D807C1CFFE01E555F84F80810E94C603F9
:102C80009E01220F331FF901E854F74F71836083CF
:102C9000F901E452F84F9183808321966ACF842F03
:102CA00090E0880F991FFC01EA53F84F2081318191
:102CB0002935324090F0D093D907C093D8071092AD
:102CC000FF0770921E0810921F08208131813093F7
:102CD00022082093210840932008FC01EB56F74F6F
:102CE00080819181813A9F4090F0D093D907C09321
:102CF000D8077092FF0770921E0870921F0880819B
:102D000091819093220880932108409320084F5F7F
:102D100075CF85309105B1F186309105B9F00397F3
:102D200009F0A3CF80917708882359F080916E072E
:102D3000811161CF0FC068EC70E080E090E00E94EC
:102D4000C11C1093D9070093D80755CF80916E0707
:102D5000811105C0D092D907C092D8074CCF80917D
:102D60009408882329F0F092D907E092D80743CF3E
:102D700080917708882309F43ECF9092D9078092FA
:102D8000D80739CF80919408882309F434CFEBCF4A
:102D9000809194088823A9F280916E07843608F404
:102DA0002ACFB092D907A092D80725CF8091940856
:102DB000811121CFC6CF10921E0826E030E060E0DE
:102DC00080918F08681790F0809182089091830815
:102DD0008134914534F06092FF0770921E0824E020
:102DE00030E03093D9072093D80705CF862F90E0A5
:102DF000880F991FFC01EA53F84F408151814935F2
:102E0000524030F01092FF0770921E0824E030E02C
:102E10008B56974FFC0180819181813A9F4030F021
:102E20007092FF0770921E0824E030E06F5FC8CFF9
:102E3000399A08950E941817419A69E170E080E07C
:102E400090E00E94C11C419869E170E080E090E050
:102E50000E94C11CF1CFAF92BF92CF92DF92EF924E
:102E6000FF920F931F93CF93DF93C9E4D2E0AB841B
:102E7000BC84CD84DE84E984FA840D811E812F8197
:102E800038854B815C816A81888199810E94CB1849
:102E9000811105C02F9692E0C637D90741F7DF911F
:102EA000CF911F910F91FF90EF90DF90CF90BF9047
:102EB000AF9008952F923F924F925F926F927F92C0
:102EC0008F929F92AF92BF92CF92DF92EF92FF923A
:102ED0000F931F93CF93DF930DB71EB7C82FD92F32
:102EE00008831983C62FD72F088119810DBF1EBFF4
:102EF000DF91CF911F910F91FF90EF90DF90CF90D6
:102F0000BF90AF909F908F907F906F905F904F9009
:102F10003F902F900895C82FD92F088119810DBF98
:102F20001EBFDF91CF911F910F91FF90EF90DF9027
:102F3000CF90BF90AF909F908F907F906F905F9059
:102F40004F903F902F901895FFCF8091340790912C
:102F50003507019690933507809334070895809143
:102F6000340790913507892B29F480914707909178
:102F70004807089580E090E00895CF93DF93FB0128
:102F8000009759F1309749F1DC01CD91DC91DE01D8
:102F90009E01109731F112965C911297428145176C
:102FA000B0F4CA17DB0739F5DC01ED93FC93128608
:102FB0001186D487C387FA87E98780E00FC03287FC
:102FC000218714861386E901FC87EB87F6CF9D01E4
:102FD0001B960D90BC91A02DDCCF89ECDF91CF9199
:102FE0000895CD2B61F7DC01ED93FC9312861186D9
:102FF00014861386E2CF32872187B487A387E9013D
:10300000FC87EB871A96FC93EE931997D6CFCF9354
:10301000DF930097C1F0DC01ED91FC91309779F0DE
:10302000A385B485EC01B983A883109721F01A9683
:103030001C921E9219971286118614861386CF0150
:10304000DF91CF910895E0E0F0E0F9CFCF93DF93E7
:10305000AC01FB010097A9F1DC012D913C912115F8
:10306000310579F1D901E901EA17FB0709F5A385D3
:10307000B4852E173F0789F4EA01B983A883109716
:1030800021F01A961C921E921997148613861286A6
:103090001186CF01DF91CF910895BC87AB87A385BF
:1030A000B485109791F31A96DC93CE931997EDCFD0
:1030B0001B968D919C911C97ED01009759F3DC01B3
:1030C000D3CF80E090E0E6CFCF93DF930097C9F0B5
:1030D000DC01ED91FC91309781F02281621788F03C
:1030E000A385B485EC01B983A883109731F01A96B3
:1030F0001C921E92199714861386CF01DF91CF91EF
:103100000895E0E0F0E0F9CFFF920F931F93CF9383
:10311000DF93909131079923D1F0FFB6F894C091D5
:103120004707D09148079D859130B9F482E397E035
:103130000E940718C817D90741F090934807809359
:103140004707BC01CE010E945A171D86FFBEDF91C2
:10315000CF911F910F91FF9008956A818130A9F45A
:1031600082E397E00E9464188C01892B79F3BE01F9
:1031700082E397E00E94BD17C017D10731F3109387
:10318000480700934707B801DDCF6623F9F270E0E6
:1031900061507109E5CFAF92BF92CF92DF92EF926B
:1031A000FF920F931F93CF93DF93EC01009709F4E5
:1031B0003FC041155105E1F1E114F104C9F1AB281B
:1031C000AC28AD28A9F11D866A831A8619861C864B
:1031D0001B86188A1F865C834B830D831E832F8377
:1031E0003887B7010E9407201FB7F894BE0182E319
:1031F00097E00E94BD17C82F1FBF882369F0CCEC51
:103200008C2FDF91CF911F910F91FF90EF90DF9066
:10321000CF90BF90AF90089580913107813081F7B2
:103220000E94AF17892B61F380E00E948418E8CFD9
:10323000C9ECE6CFAF92BF92CF92DF92EF92FF92AE
:103240000F931F931092480710924707109233076D
:1032500010923207109231075A016B017C0100E095
:1032600010E0980144EA57E16FEF86E397E00E948F
:10327000CB181F910F91FF90EF90DF90CF90BF90F0
:10328000AF900895209134073091350721503109CE
:1032900030933507209334070C94841881E0809391
:1032A00031076FEF82E397E00E946418009731F0D6
:1032B00090934807809347070C948B1708951F93AA
:1032C000CF93DF93EC01892BA1F01FB7F8946881AD
:1032D000798182E0FB018687108A17868A819B812B
:1032E0000E9426186881798182E397E00E94BD17C9
:1032F0001FBFDF91CF911F910895009731F0FC011E
:1033000062831182108280E0089589EC0895DF9233
:10331000EF92FF920F931F93CF93DF937C01892B42
:10332000D1F100E08AECD82E1FB7F894C7010E94B3
:103330000718EC01009761F1DE86BC0182E397E09B
:103340000E94BD178823A1F01FBFCCEC013039F4D7
:103350000E94AF17892B19F080E00E9484188C2FEF
:10336000DF91CF911F910F91FF90EF90DF90089523
:103370008F859889009749F00E94311C882319F0A5
:103380001FBFCDECE3CF188A1F861FBF01E0CCCF53
:103390001FBFC0E0DBCFC9ECE2CF8F929F92AF920C
:1033A000BF92DF92EF92FF920F931F93CF93DF9321
:1033B000CDB7DEB72E970FB6F894DEBF0FBECDBFE8
:1033C0007C014A015B01009709F468C0DFB6F894FC
:1033D000FC01828181115CC077FD57C00E94AF174C
:1033E0008C01009709F44EC0BC01C7010E94BD17B3
:1033F0008823A1F0DFBE8CEC2E960FB6F894DEBFCA
:103400000FBECDBFDF91CF911F910F91FF90EF9035
:10341000DF90BF90AF909F908F90089591E0F8015A
:10342000958781149104A104B10441F11C870B8795
:10343000FE86ED868FE599E19A838983CE010B960E
:103440009C838B838D829E82AF82B8860A97908BF5
:1034500087870E940C1C882349F0B801C7010E948D
:103460002618F8011586108A17868DECDFBE8111AB
:10347000C3CF0E948418F8018685BECFF801108A58
:103480001786F4CFDFBE88ECB7CFDFBE83E0B4CFC2
:103490008150F7018283DFBE80E0AECF89ECACCFF4
:1034A0000F931F93CF93DF930097E9F1DFB7F89461
:1034B000FC0120813181232B59F10E9407188C01D6
:1034C000BC0182E397E00E94BD17C82F882341F01A
:1034D000DFBFCCEC8C2FDF91CF911F910F9108951E
:1034E000F801168687859089009761F4F801108AA3
:1034F0001786DFBF0E94AF17892B61F380E00E941F
:103500008418E8CF0E94311C882381F3CDECF1CFE1
:10351000FC0122812F3F29F02F5F2283C0E0DFBF13
:10352000D9CFCBECFCCFC9ECD5CF009721F0FC0173
:10353000628380E0089589EC08951F93CF93DF9311
:10354000EC01892BA1F01FB7F8946881798182E0A2
:10355000FB018687108A17868A819B810E94261824
:103560006881798182E397E00E94BD171FBFDF91D8
:10357000CF911F910895FC01892B39F0138212829B
:1035800014821182108280E0089589EC0895DF9200
:10359000EF92FF920F931F93CF93DF937C01892BC0
:1035A000D1F100E08AECD82E1FB7F894C7010E9431
:1035B0000718EC01009761F1DE86BC0182E397E019
:1035C0000E94BD178823A1F01FBFCCEC013039F455
:1035D0000E94AF17892B19F080E00E9484188C2F6D
:1035E000DF91CF911F910F91FF90EF90DF900895A1
:1035F0008F859889009749F00E94311C882319F023
:103600001FBFCDECE3CF188A1F861FBF01E0CCCFD0
:103610001FBFC0E0DBCFC9ECE2CF8F929F92AF9289
:10362000BF92DF92EF92FF920F931F93CF93DF939E
:10363000CDB7DEB72E970FB6F894DEBF0FBECDBF65
:103640007C014A015B01892B09F47DC00E94AF1700
:103650008C01DFB6F8940097A1F4DFBE88EC2E96BB
:103660000FB6F894DEBF0FBECDBFDF91CF911F9193
:103670000F91FF90EF90DF90BF90AF909F908F9051
:103680000895F701228133812115310509F44CC0D9
:103690008217930709F448C0B7FC43C0BC01C701B7
:1036A0000E94BD17882319F0DFBE8CECD8CF91E0C3
:1036B000F801958781149104A104B10471F11C876C
:1036C0000B87FE86ED868DE99AE19A838983CE0188
:1036D0000B969C838B838D829E82AF82B8860A97DD
:1036E000908B87870E940C1C882349F0B801C70182
:1036F0000E942618F8011586108A17868DECDFBE09
:103700008111ADCF0E948418F80186858111A7CF61
:10371000F70194819F5F9483A2CFF801108A1786E6
:10372000EECFDFBE83E09BCFF70184818F3F41F076
:103730008F5F8483232B11F41383028380E001C005
:103740008BECDFBE8CCF89EC8ACFEF92FF920F9388
:103750001F93CF93DF938C01892B09F44CC00E94F7
:10376000AF17DFB7F894F8012281338182179307EE
:1037700051F0DFBFCFEC8C2FDF91CF911F910F91D4
:10378000FF90EF900895F801C481C150C483C11126
:103790002FC01382128280819181892B39F1C80157
:1037A0000E9407187C01BC0182E397E00E94BD17CC
:1037B000C82F882319F0DFBFCCECDDCFF7011686C8
:1037C000F801F382E282F70187859089009741F43E
:1037D000F701108A1786DFBF80E00E948418CBCFE4
:1037E0000E94311C8823A1F3CDECF5CFDFBFC3CFFE
:1037F000DFBFC0E0C0CFC9ECBECFCF93009751F080
:10380000CFB7F894FC016081718182E397E00E9458
:10381000BD17CFBFCF910895FC01892B01F18081A5
:103820009181892BE1F084819581A681B781892BD3
:103830008A2B8B2BA1F02FB7F89480914D07909194
:103840004E07009749F411861086F0934E07E093D7
:103850004D072FBF80E0089591878087F6CF89ECD0
:103860000895BC01892B29F15FB7F89420914D0789
:1038700030914E07F901D901309711F48EEC0DC04B
:1038800040859185E617F70781F4E217F30739F4CD
:1038900040934D0790934E0780E05FBF08951896C0
:1038A0004C93189719969C93F7CFDF01E42FF92FCB
:1038B000E3CF89EC08956091490770914A078091A0
:1038C0004B0790914C0708956093490770934A07FE
:1038D00080934B0790934C0708950F931F93CF93BA
:1038E000DF93809131078823D1F08091490790912F
:1038F0004A07A0914B07B0914C070196A11DB11D3D
:103900008093490790934A07A0934B07B0934C07C5
:1039100000914D0710914E07E801209729F4DF919F
:10392000CF911F910F9108958C819D81AE81BF81B0
:103930000197A109B1098C839D83AE83BF83892B35
:103940008A2B8B2BE1F420914D0730914E0788850F
:103950009985C217D30779F490934E0780934D074A
:10396000E881F981309719F08A819B810995088453
:10397000D985C02DD2CFF80191878087F1CF8E01F4
:10398000F6CFCF92DF92EF92FF920F931F93CF93D8
:10399000DF93CDB7DEB72C970FB6F894DEBF0FBE1E
:1039A000CDBF6B017C010E94AF17FC01C114D10493
:1039B000E104F10491F1892B91F10FB7F89481E0C2
:1039C0008587FC87EB878DEF9BE19A838983CE0106
:1039D0000B969C838B83CD82DE82EF82F8860A97DA
:1039E000908B87870E940C1C182F0FBF882389F0AB
:1039F0001DEC812F2C960FB6F894DEBF0FBECDBF05
:103A0000DF91CF911F910F91FF90EF90DF90CF90BA
:103A1000089580E00E948418ECCF19ECEACF18ECEE
:103A2000E8CF1F93CF93DF93EC01892BA1F01FB751
:103A3000F8946881798182E0FB018687108A178675
:103A40008C819D810E9426186881798182E397E0AC
:103A50000E94BD171FBFDF91CF911F910895CF9294
:103A6000DF92EF92FF920F931F93CF93DF93EC01BE
:103A7000CB016C817D812A893B89620F731F4E8146
:103A80005F810E94242A2E813F8148855985CA88FA
:103A9000DB88EC88FD88C20ED31EE41EF51ECA8AA0
:103AA000DB8AEC8AFD8A8E899F89A88DB98D019762
:103AB000A109B1098E8B9F8BA88FB98F6A857B85F1
:103AC0008C859D850E943027C616D706E806F90624
:103AD00020F01A8A1B8A1C8A1D8ACE010E940718B0
:103AE0008C01009709F1BC0182E397E00E94BD17A9
:103AF000C82F81111BC0F801168687859089009711
:103B000069F4F801108A17868C2FDF91CF911F91ED
:103B10000F91FF90EF90DF90CF9008950E94311C9D
:103B2000882379F3CDECF0CFC0E0EECFCCECECCF36
:103B3000CF92DF92EF92FF920F931F93CF93DF9379
:103B4000EC012C813D818E859F854E815F81820FA6
:103B5000931F0E94242A2E813F8148855985CE8457
:103B6000DF84E888F988C20ED31EE41EF51ECE86D7
:103B7000DF86E88AF98A8E899F89A88DB98D01969A
:103B8000A11DB11D8E8B9F8BA88FB98F6A857B85F8
:103B90008C859D850E943027C616D706E806F90653
:103BA00020F01E861F86188A198ACE0102960E946E
:103BB00007188C01009709F1BC0182E397E00E948D
:103BC000BD17C82F81111BC0F80116868785908903
:103BD000009769F4F801108A17868C2FDF91CF9136
:103BE0001F910F91FF90EF90DF90CF9008950E946A
:103BF000311C882379F3CDECF0CFC0E0EECFCCECD4
:103C0000ECCFEF92FF920F931F93FC01892B69F188
:103C10006115710551F1211531054105510529F154
:103C2000E114F1040105110501F175836483268314
:103C3000378340875187E286F38604871587118290
:103C400010821382128216861786108A118A128AAF
:103C5000138A148A158A168A178A108E118E80E0AC
:103C60001F910F91FF90EF90089589ECF9CFBF92CB
:103C7000CF92DF92EF92FF920F931F93CF93DF9338
:103C80007C01009709F446C000E06C0182E0C80E98
:103C9000D11C8AECB82E1FB7F894C6010E940718F1
:103CA000EC01892B31F4C7010E940718EC01892B24
:103CB00071F1BE86BE0182E397E00E94BD178823A2
:103CC000B1F01FBFCCEC013039F40E94AF17892B43
:103CD00019F080E00E9484188C2FDF91CF911F9102
:103CE0000F91FF90EF90DF90CF90BF9008958F8558
:103CF0009889009749F00E94311C882319F01FBF52
:103D0000CDECE1CF188A1F861FBF01E0C4CF1FBFD3
:103D1000C0E0D9CFC9ECE0CF4F925F926F927F9213
:103D20008F929F92AF92BF92CF92DF92EF92FF92CB
:103D30000F931F93CF93DF93CDB7DEB760970FB686
:103D4000F894DEBF0FBECDBF6C012A013B015901C3
:103D5000009709F494C02115310509F490C00FB7FC
:103D6000F894FC0186899789A08DB18D892B8A2BC7
:103D70008B2B09F076C077FD71C00E94AF177C01D4
:103D8000009709F468C04601F2E08F0E911CBC0157
:103D9000C4010E94BD17182F81115AC081E0F7019C
:103DA0008587411451046104710409F44DC0FC86F7
:103DB000EB86DE86CD86988A8F8681E19DE19A83A7
:103DC0008983CE010B969C838B834D825E826F82AA
:103DD00078860A97908B87870E940C1C182F88235F
:103DE00049F0B701C4010E942618F7011586108A10
:103DF00017861DEC0FBF11110FC080E00E948418C0
:103E0000F7011685111108C00FB7F894B501C60166
:103E10000E942F1D182F0FBF812F60960FB6F894A8
:103E2000DEBF0FBECDBFDF91CF911F910F91FF90ED
:103E3000EF90DF90CF90BF90AF909F908F907F904A
:103E40006F905F904F900895F701108A1786D2CF38
:103E50000FBF1CECE1CF0FBF18ECDECF0FBF13E09C
:103E6000DBCFB901C6010E942F1D182F0FBF0E9482
:103E7000AF17892B89F280E00E948418CDCF19EC0E
:103E8000CBCF4F925F926F927F92AF92BF92CF92C1
:103E9000DF92EF92FF920F931F93CF93DF93CDB7F3
:103EA000DEB760970FB6F894DEBF0FBECDBF6C01D2
:103EB0002A013B015901009709F493C021153105EE
:103EC00009F48FC00FB7F894FC0146895789608DBB
:103ED000718D82859385A485B585481759076A0732
:103EE0007B0709F070C077FC6BC00E94AF177C01A4
:103EF000009709F462C0BC01C6010E94BD17182FCB
:103F0000811158C081E0F701858741145104610493
:103F1000710409F44BC0FC86EB86DE86CD86D88A18
:103F2000CF8681E19DE19A838983CE010B969C83A4
:103F30008B834D825E826F8278860A97908B87870B
:103F40000E940C1C182F882349F0B701C6010E945B
:103F50002618F7011586108A17861DEC0FBF111160
:103F60000FC080E00E948418F7011685111108C067
:103F70000FB7F894B501C6010E94981D182F0FBF06
:103F8000812F60960FB6F894DEBF0FBECDBFDF91D4
:103F9000CF911F910F91FF90EF90DF90CF90BF9046
:103FA000AF907F906F905F904F900895F701108AC7
:103FB0001786D4CF0FBF1CECE3CF0FBF18ECE0CFB8
:103FC0000FBF13E0DDCFB901C6010E94981D182F65
:103FD0000FBF0E94AF17892B99F280E00E948418CE
:103FE000CFCF19ECCDCF0E94AF177894009771F026
:103FF000DC011396ED91FC911497309739F01596EA
:104000006D917D918D919C9118970994089523EF5E
:104010003FE1FB0120833197308331971082319744
:104020001082319710823197108231971082319728
:104030001082319710823197108231971082319718
:104040001082319710823197108231971082319708
:1040500010823197108231971082319710823197F8
:10406000108264517109FC0171836083089586E8B0
:1040700091E0909389008093880082E080936F00A4
:104080008CE08093810008951F920F920FB60F92DB
:1040900011240BB60F922F933F934F935F936F931F
:1040A0007F938F939F93AF93BF93EF93FF930E9460
:1040B000A5170E946D1C81E00E944219FF91EF91AB
:1040C000BF91AF919F918F917F916F915F914F9130
:1040D0003F912F910F900BBE0F900FBE0F901F902E
:1040E00018951F920F920FB60F9211240F900FBECA
:1040F0000F901F9018958AE28093B8008FEF8093FD
:10410000BB0084E08093BC0008958091BC00817066
:1041100008958091BC0080FDFCCF8091000108953E
:104120002091BC0020FDFCCF60935107FC01208151
:104130002093520720FF09C010924F0788EF809309
:10414000000185EA8093BC000895FC013196A3E547
:10415000B7E081E0861780F791919D938F5FFACF4A
:104160008091BC0080FDFCCF10924F0788EF8093B8
:10417000000185EA8093BC0008952091BC0020FDD9
:10418000FCCF20914F0720FD04C080914F07817024
:104190000895A2E5B7E0282FFC018E2F821B861719
:1041A000A0F78D918193F9CF1F920F920FB60F92C6
:1041B00011240BB60F922F933F938F939F93EF93FE
:1041C000FF938091B900883249F0D0F4803121F01A
:1041D000883121F08830D1F410925007E0915007D7
:1041E00080915107E81720F581E08E0F80935007EA
:1041F000F0E0EE5AF84F80818093BB0085E836C02E
:10420000803449F148F4883309F43FC08091B90003
:104210008093000184E02AC0803589F08835B1F7A9
:104220008091BB00E0915007F0E0EE5AF84F808398
:1042300080914F07816080934F0784E917C0E09118
:10424000500781E08E0F809350078091BB00F0E013
:10425000EE5AF84F80832091500730E0809151074B
:1042600090E00197281739074CF685EC8093BC0045
:10427000FF91EF919F918F913F912F910F900BBEE6
:104280000F900FBE0F901F90189585EAEFCF0E94F8
:10429000FF26882341F00E94B6268091D8008260D4
:1042A0008093D80081E008950F931F93CF93DF93FD
:1042B00000D000D0CDB7DEB78C01DC0111968D9116
:1042C0009C9112970C97F1F41A968C911A9780365C
:1042D00069F48C918295807F8093ED008091EF004E
:1042E0008F738093EF001092EE001C92F8011286FB
:1042F00080E00F900F900F900F90DF91CF911F9162
:104300000F9108950E94C3268F3F09F4A4C490E63C
:10431000D8011A969C931A978C938295807F8093EC
:10432000ED00EEEEF0E01192E83FF105E1F7D80183
:104330001196ED91FC9112973197EB30F10508F051
:1043400086C4EB55FE4D0C94C327EE215722C5229F
:1043500028235A239223CD236324E124B0218425EA
:1043600080E0F8019781891708F4C2C319821A8284
:104370001B821C821092F7008B81880F880F880F98
:104380009A81929596959770890F8093F6008A810D
:10439000880F880F880F9981929596959770890F4D
:1043A0008093F5008981880F880F880F8093F4002F
:1043B0008091EF009781892B8093EF0081E08387C4
:1043C0008091F40084608093F4008091F000846018
:1043D0008093F0008091EF008062DCC1F801848559
:1043E000882309F43FC08681880F880F880F958144
:1043F000929596959770890F8093F3008581880F29
:10440000880F880F9481929596959770890F809365
:10441000F2008481880F880F880F9381929596957A
:104420009770890F8093F1008381880F880F880F20
:104430008093F0008091EF0080618093EF0080E036
:10444000F8019781891718F18385882361F180919C
:10445000F00084608093F0008091EF00D8011796FF
:104460009C9164C084818295880F807E938196950B
:1044700096959695890F8093F30083818295880F96
:10448000807E8093F2008091EF008F7ED6CFD8019E
:104490001896ED91FC911997E80FF11D908190937A
:1044A000FA008F5FCDCF8091F0008B7FD3CFF801E2
:1044B0008485882309F448C08681880F880F880F77
:1044C0009581929596959770890F8093F3008581D9
:1044D000880F880F880F9481929596959770890F11
:1044E0008093F2008481880F880F880F93819295C2
:1044F00096959770890F8093F1008381880F880FBC
:10450000880F8093F0008091EF0080618093EF002E
:1045100080E0F8019781891760F113868091F0009F
:104520008B7F8093F0008091EF009781892B80939F
:10453000EF008091EF008F738093EF008091EF0088
:1045400080648093EF00D4CE84818295880F807E32
:104550009381969596959695890F8093F300838124
:104560008295880F807E8093F2008091EF008F7E8D
:10457000CDCFD8011896ED91FC911997E80FF11D58
:1045800090819093FA008F5FC4CFD8011C968C91D4
:104590001C97882309F446C016968C911697880FAD
:1045A000880F880F15969C91159792959695977000
:1045B000890F8093F30015968C911597880F880FBB
:1045C000880F14969C911497929596959770890FE1
:1045D0008093F20014968C911497880F880F880F9F
:1045E00013969C911397929596959770890F809347
:1045F000F10013968C91880F880F880F8093F0003C
:104600008091EF0080618093EF0081E0D8011B96DC
:104610008C931B978091F00084608093F0008091D0
:10462000EF001DCFF80184818295880F807E9381F1
:10463000969596959695890F8093F3008381829540
:10464000880F807E8093F2008091EF008F7EDBCF19
:1046500019821A821B821C821092F7008B81880FAC
:10466000880F880F9A81929596959770890F8093FD
:10467000F6008A81880F880F880F99819295969508
:104680009770890F8093F5008981880F880F880FB4
:104690008093F4008091EF00F8019781892B80933B
:1046A000EF008091F4008B7F8093F4008091F40000
:1046B0008E7FE8C019821A821B821C821092F7003A
:1046C0008B81880F880F880F9A81929596959770A5
:1046D000890F8093F6008A81880F880F880F99814F
:1046E000929596959770890F8093F5008981880F30
:1046F000880F880F8093F4008091EF00D8011796FF
:104700009C911797892B8093EF001B961C928091A8
:10471000F40084608093F4008091F0008B7F80939C
:10472000F000C4CF19821A821B821C821092F700FB
:104730008B81880F880F880F9A8192959695977034
:10474000890F8093F6008A81880F880F880F9981DE
:10475000929596959770890F8093F5008981880FBF
:10476000880F880F8093F4008091EF00F801978103
:10477000892B8093EF0081E083878091F40084602F
:104780008093F4008091F00084608093F000809129
:10479000EF008F7D8093EF0089CFD8011C968C911C
:1047A0001C97882309F479C016968C911697880F68
:1047B000880F880F15969C911597929596959770EE
:1047C000890F8093F30015968C911597880F880FA9
:1047D000880F14969C911497929596959770890FCF
:1047E0008093F20014968C911497880F880F880F8D
:1047F00013969C911397929596959770890F809335
:10480000F10013968C91880F880F880F8093F00029
:104810008091EF0080618093EF008FEF9FEFDC01CC
:1048200089839A83AB83BC838093F7008B81880F45
:10483000880F880F9A81929596959770890F80932B
:10484000F6008A81880F880F880F99819295969536
:104850009770890F8093F5008981880F880F880FE2
:104860008093F4008091EF00D80117969C91892BDA
:104870008093EF008091F4008B7F8093F40080910F
:10488000F40081608093F4008091EF008F73809337
:10489000EF008091EF00806854CEF801848182950A
:1048A000880F807E9381969596959695890F809333
:1048B000F30083818295880F807E8093F20080913F
:1048C000EF008F7EA8CFF8018485882309F464C0A7
:1048D0008681880F880F880F95819295969597709D
:1048E000890F8093F3008581880F880F880F94814A
:1048F000929596959770890F8093F2008481880F26
:10490000880F880F9381929596959770890F809361
:10491000F1008381880F880F880F8093F0008091C9
:10492000EF0080618093EF008FEF9FEFDC018983C0
:104930009A83AB83BC838093F7008B81880F880FA9
:10494000880F9A81929596959770890F8093F600BB
:104950008A81880F880F880F998192959695977014
:10496000890F8093F5008981880F880F880F8093C5
:10497000F4008091EF00F8019781892B8093EF007C
:1049800013868091F40084608093F4008091F0009D
:104990008B7F8093F00073CF84818295880F807E17
:1049A0009381969596959695890F8093F3008381D0
:1049B0008295880F807E8093F2008091EF008F7E39
:1049C000B1CFD8011C968C911C97882309F47AC02A
:1049D00016968C911697880F880F880F15969C91C4
:1049E0001597929596959770890F8093F300159679
:1049F0008C911597880F880F880F14969C911497A7
:104A0000929596959770890F8093F20014968C91E9
:104A10001497880F880F880F13969C91139792957F
:104A200096959770890F8093F10013968C91880F5B
:104A3000880F880F8093F0008091EF008061809351
:104A4000EF008FEF9FEFDC0189839A83AB83BC83F8
:104A50008093F7008B81880F880F880F9A81929539
:104A600096959770890F8093F6008A81880F880F3A
:104A7000880F9981929596959770890F8093F5008C
:104A80008981880F880F880F8093F4008091EF0050
:104A9000D80117969C911797892B8093EF0081E09E
:104AA0001B968C938091F40084608093F400809135
:104AB000F00084608093F0008091EF008F7D809300
:104AC000EF00DDCEF80184818295880F807E93818E
:104AD000969596959695890F8093F300838182959C
:104AE000880F807E8093F2008091EF008F7EA7CFA9
:104AF000D8011896ED91FC911997E80FF11D90815E
:104B00009093FA008F5F2DCCD8011C968C911C9746
:104B1000882309F47AC016968C911697880F880F0F
:104B2000880F15969C911597929596959770890F79
:104B30008093F30015968C911597880F880F880F36
:104B400014969C911497929596959770890F8093DF
:104B5000F20014968C911497880F880F880F139683
:104B60009C911397929596959770890F8093F10079
:104B700013968C91880F880F880F8093F000809196
:104B8000EF0080618093EF0080E0F8019781891742
:104B900008F451C08FEF9FEFDC0189839A83AB83C8
:104BA000BC838093F7008B81880F880F880F9A81D0
:104BB000929596959770890F8093F6008A81880F59
:104BC000880F880F9981929596959770890F809399
:104BD000F5008981880F880F880F8093F4008091F9
:104BE000EF009781892B8093EF0081E0838780918C
:104BF000F40084608093F4008091F00084608093DE
:104C0000F0008091EF0080625ACFF8018481829594
:104C1000880F807E9381969596959695890F8093BF
:104C2000F30083818295880F807E8093F2008091CB
:104C3000EF008F7EA7CFD8011896ED91FC911997C0
:104C4000E80FF11D90819093FA008F5F9ECFD801FD
:104C50001A961C924DCB9FE1F80192874ACB1F9385
:104C6000CF93DF93EC018A858823D1F08F31C1F097
:104C70008F3FB1F088818295807F8093ED000E9404
:104C8000D826182F803299F068F4882309F46CC074
:104C90001A878091EF008F738093EF001092EE00DF
:104CA00082E04CC0803409F440C0803A89F780919A
:104CB000EF008F708F83888599850E94EB26809105
:104CC000F00082FB882780F98B878091EF0084FFBA
:104CD00039C081E08C878091F30086958695869512
:104CE0008E838091F2009091F3008695869586954B
:104CF0009295990F907E890F8D838091F10090910C
:104D0000F2008695869586959295990F907E890FEB
:104D10008C838091F0009091F10086958695869520
:104D20009295990F907E890F8B831A878091EF005F
:104D30008F738093EF001092EE0080E0DF91CF91AF
:104D40001F9108951C868091F30082958695877047
:104D50008C838091F2009091F30082958695877004
:104D6000990F990F990FDFCF81E0E8CF80E0809312
:104D7000ED00EEEEF0E01192E83FF105E1F7805F23
:104D80008036A9F708953091ED0090E080E090938F
:104D9000ED002091EF00207C19F43093ED00089590
:104DA0008F5F905F863099F73093ED008FEF089515
:104DB0008091EF00807C69F09091EE00892F807ED9
:104DC000803241F0803431F0803A21F0892F8F71A8
:104DD00008958FEF0895BC0190E02091EF00492FD6
:104DE00050E02F7030E0421753070CF00895809187
:104DF000FA00460F571FFA0180839F5FEECF81E0D4
:104E00008093D80088E08093E2008CE08093E300F8
:104E100087E38093E40081E00895681708F4682F21
:104E2000862F089585EA93E09EBF8DBF40E051E054
:104E300060E070E085EA94E00E941A19811108C0D0
:104E40000E9437200E942B17811102C00E944E1928
:104E50008FEF81B992B181E0911180E082B9FACFF0
:104E6000DB018F939F930E94CC27BF91AF91A29FAC
:104E7000800D911DA39F900DB29F900D1124089558
:104E8000991B79E004C0991F961708F0961B881F9C
:104E90007A95C9F78095089587FB082E062687FD29
:104EA000819567FD61950E9440270EF4919507FC5E
:104EB00081950895AA1BBB1B51E107C0AA1FBB1F08
:104EC000A617B70710F0A61BB70B881F991F5A9596
:104ED000A9F780959095BC01CD01089597FB072E09
:104EE00016F4009407D077FD09D00E945A2707FCDA
:104EF00005D03EF4909581959F4F089570956195EA
:104F00007F4F0895A1E21A2EAA1BBB1BFD010DC005
:104F1000AA1FBB1FEE1FFF1FA217B307E407F50769
:104F200020F0A21BB30BE40BF50B661F771F881F45
:104F3000991F1A9469F760957095809590959B01DB
:104F4000AC01BD01CF010895052E97FB1EF400941E
:104F50000E94BB2757FD07D00E94822707FC03D081
:104F60004EF40C94BB2750954095309521953F4FBA
:104F70004F4F5F4F089590958095709561957F4F45
:104F80008F4F9F4F0895EE0FFF1F0024001C0BBE94
:104F90000790F691E02D09940E94D727A59F900DC8
:104FA000B49F900DA49F800D911D11240895A29F80
:104FB000B001B39FC001A39F700D811D1124911DED
:104FC000B29F700D811D1124911D08955058BB276B
:104FD000AA270E94FE270C9478290E946A2938F09B
:104FE0000E94712920F039F49F3F19F426F40C94A3
:104FF00067290EF4E095E7FB0C946129E92F0E94E4
:10500000892958F3BA17620773078407950720F0B8
:1050100079F4A6F50C94AB290EF4E0950B2EBA2F7B
:10502000A02D0B01B90190010C01CA01A0011124AE
:10503000FF27591B99F0593F50F4503E68F11A165A
:10504000F040A22F232F342F4427585FF3CF4695EB
:1050500037952795A795F0405395C9F77EF41F160D
:10506000BA0B620B730B840BBAF09150A1F0FF0FD7
:10507000BB1F661F771F881FC2F70EC0BA0F621FC3
:10508000731F841F48F4879577956795B795F795B3
:105090009E3F08F0B0CF9395880F08F09927EE0F48
:1050A0009795879508950E943D2908F481E0089519
:1050B0000E946C280C9478290E94712958F00E9453
:1050C0006A2940F029F45F3F29F00C9461295111BD
:1050D0000C94AC290C9467290E94892968F39923C0
:1050E000B1F3552391F3951B550BBB27AA276217E4
:1050F0007307840738F09F5F5F4F220F331F441FF1
:10510000AA1FA9F335D00E2E3AF0E0E832D0915024
:105110005040E695001CCAF72BD0FE2F29D0660F11
:10512000771F881FBB1F261737074807AB07B0E854
:1051300009F0BB0B802DBF01FF2793585F4F3AF05A
:105140009E3F510578F00C9461290C94AC295F3F87
:10515000E4F3983ED4F3869577956795B795F795E0
:105160009F5FC9F7880F911D9695879597F90895C8
:10517000E1E0660F771F881FBB1F62177307840764
:10518000BA0720F0621B730B840BBA0BEE1F88F773
:10519000E09508950E94D1286894B1110C94AC292F
:1051A00008950E94912988F09F5798F0B92F992768
:1051B000B751B0F0E1F0660F771F881F991F1AF002
:1051C000BA95C9F714C0B13091F00E94AB29B1E093
:1051D00008950C94AB29672F782F8827B85F39F092
:1051E000B93FCCF3869577956795B395D9F73EF49B
:1051F00090958095709561957F4F8F4F9F4F089543
:10520000E89409C097FB3EF4909580957095619560
:105210007F4F8F4F9F4F9923A9F0F92F96E9BB2716
:105220009395F695879577956795B795F111F8CF92
:10523000FAF4BB0F11F460FF1BC06F5F7F4F8F4FFD
:105240009F4F16C0882311F096E911C0772321F0F3
:105250009EE8872F762F05C0662371F096E8862F8B
:1052600070E060E02AF09A95660F771F881FDAF7E2
:10527000880F9695879597F90895990F0008550F0F
:10528000AA0BE0E8FEEF16161706E807F907C0F0CC
:1052900012161306E407F50798F0621B730B840BD4
:1052A000950B39F40A2661F0232B242B252B21F4AE
:1052B00008950A2609F4A140A6958FEF811D811D4E
:1052C000089597F99F6780E870E060E008959FEF88
:1052D00080EC089500240A9416161706180609068D
:1052E000089500240A94121613061406050608955C
:1052F000092E0394000C11F4882352F0BB0F40F4E4
:10530000BF2B11F460FF04C06F5F7F4F8F4F9F4F23
:10531000089557FD9058440F551F59F05F3F71F0A5
:105320004795880F97FB991F61F09F3F79F087950C
:105330000895121613061406551FF2CF4695F1DF95
:1053400008C0161617061806991FF1CF8695710525
:10535000610508940895E894BB2766277727CB0159
:1053600097F908950E943D2908F48FEF08950E944F
:10537000CA290C9478290E946A2938F00E94712960
:1053800020F0952311F00C9461290C9467291124C5
:105390000C94AC290E94892970F3959FC1F3950F55
:1053A00050E0551F629FF001729FBB27F00DB11DA9
:1053B000639FAA27F00DB11DAA1F649F6627B00D39
:1053C000A11D661F829F2227B00DA11D621F739F22
:1053D000B00DA11D621F839FA00D611D221F749F30
:1053E0003327A00D611D231F849F600D211D822F77
:1053F000762F6A2F11249F5750409AF0F1F088239E
:105400004AF0EE0FFF1FBB1F661F771F881F9150CA
:105410005040A9F79E3F510580F00C9461290C94EF
:10542000AC295F3FE4F3983ED4F386957795679572
:10543000B795F795E7959F5FC1F7FE2B880F911DF4
:105440009695879597F90895FB01DC0102C00190BC
:105450000D9241505040D8F70895BB274A3031F49F
:10546000992322F4BDE2909581959F4F0C94392A9F
:10547000BB27FB015527AA27880F991FAA1FA4172E
:1054800010F0A41B83955051B9F7A05DAA3308F022
:10549000A95DA193009779F7B111B1931192CB0156
:1054A0000C94AD2C0F931F93CF93DF93CDB7DEB742
:1054B0002E970FB6F894DEBF0FBECDBF0D891E89A3
:1054C00086E08C831A8309838FEF9FE79E838D8309
:1054D000AE01475E5F4F6F89788DCE0101960E94C5
:1054E000822A2F813885020F131FF80110822E9611
:1054F0000FB6F894DEBF0FBECDBFDF91CF911F91E5
:105500000F9108952F923F924F925F926F927F92E8
:105510008F929F92AF92BF92CF92DF92EF92FF92C3
:105520000F931F93CF93DF93CDB7DEB72B970FB6B3
:10553000F894DEBF0FBECDBF7C013B018A01FC01A8
:1055400017821682838181FFEFC1CE0101965C0133
:10555000F7019381F30193FD859193FF81913F01C1
:10556000882309F42FC1853239F493FD859193FF87
:1055700081913F01853229F4B70190E00E94BD2C52
:10558000E7CF912C212C312CFFE1F31538F08B3231
:10559000D9F090F48032D9F0833249F137FC41C020
:1055A00020ED280F2A3070F536FE24C08AE0989E40
:1055B000200D1124922E0EC08D32A9F0803371F788
:1055C000232D2160322E06C0832D8260382EE32DDC
:1055D000E4603E2EF30193FD859193FF81913F019D
:1055E0008111D2CF1EC0F32DF8603F2EF3CF232DB3
:1055F0002061E8CFEAE02E9E200D1124222EF32D0B
:10560000F062F3CF8E3229F436FCDCC0232D206407
:10561000D9CF8C3621F4832D8068382EDBCF8836A5
:10562000C9F2982F9F7D95549330D8F08336C9F1F5
:105630008337E9F1833509F068C0280122E0420E82
:10564000511CF801C080D18036FE45C0692D70E044
:10565000C6010E94972C4C01F32DF0683F2E820169
:105660000BC00C5F1F4F9FE3998388248394912C78
:105670006501F32DFF773F2E33FC05C0822D90E0AE
:105680008816990658F1522C8114910471F5552011
:1056900009F45ECFB70180E290E00E94BD2C5A94DD
:1056A000F6CFF801808189830E5F1F4FDECF28017E
:1056B000F2E04F0E511CF801C080D18036FE08C0C8
:1056C000692D70E0C6010E94A22C4C018201D1CF4D
:1056D0006FEF7FEFF7CF6FEF7FEFBACFB70180E2C9
:1056E00090E00E94BD2C2A94C9CFF60137FC859129
:1056F00037FE81916F01B70190E00E94BD2C5110DF
:105700005A9421E0821A9108BFCF843611F089366D
:10571000C1F5F80137FE2CC06081718182819381CF
:105720000C5F1F4FF32DFF763F2E97FF09C090951A
:105730008095709561957F4F8F4F9F4FF0683F2EFA
:105740002AE030E0A5010E94ED2CC82ECA1836FED2
:1057500077C0232D2E7F422EC91408F0B0C034FE2E
:1057600005C032FC03C0832D8E7E482E892C6AC072
:1057700060817181072E000C880B990B0E5F1F4F03
:10578000D1CF8537B9F4232D2F7ED22E2AE030E0F9
:10579000F801D7FE4EC060817181828193810C5FD8
:1057A0001F4FA5010E94ED2CC82ECA18FD2DFF77B2
:1057B0003F2ECDCF932D997FD92E8F36B9F1F0F4AE
:1057C000883561F1F701868197812B960FB6F894A1
:1057D000DEBF0FBECDBFDF91CF911F910F91FF9024
:1057E000EF90DF90CF90BF90AF909F908F907F9081
:1057F0006F905F904F903F902F900895803751F0B9
:10580000883701F7D4FE03C0FD2DF460DF2E20E1C0
:1058100030E0BECFE92FE061DE2EF4CF34FE03C0CE
:10582000292F2660D22E20E132E0B2CF28E030E0EE
:10583000AFCF6081718180E090E00E5F1F4FB1CFEC
:105840008C2C432C44FE44C0FE01EC0DF11D8081E4
:105850008033B9F5942D997E492EE42DE8705E2EA3
:1058600043FC44C040FE3EC0821408F044C02C0CEF
:10587000922C981844FE44C0B70180E390E00E9447
:10588000BD2C42FE07C041FC38C088E790E0B7015C
:105890000E94BD2CC91408F440C0CA94D12CFFEF5B
:1058A000CF1ADF0ACA0CDB1CF60182916F01B70127
:1058B00090E00E94BD2CAC14BD04B1F7E8CE8C2C56
:1058C000C1CF42FC02C08394C8CF83948394C5CFD8
:1058D000842D867811F2F7CFB70180E290E00E9424
:1058E000BD2C83948214C0F3512CC4CF8214E0F7F2
:1058F000522C5818BFCF9C2CBDCF88E590E0C7CF65
:10590000842D867839F241FE06C08BE247FC8DE299
:10591000B70190E0BDCF80E2F9CFB70180E390E01E
:105920000E94BD2C9A94B6CF8FEF9FEF4ECFFC0113
:105930000590615070400110D8F7809590958E0FBA
:105940009F1F0895FC016150704001900110D8F72D
:10595000809590958E0F9F1F0895DC01FC01672FA5
:1059600071917723E1F7329704C07C916D93708336
:105970006291AE17BF07C8F308950F931F93CF939B
:10598000DF93182F092FEB018B8181FD09C01FEFD9
:105990000FEF812F902FDF91CF911F910F910895DD
:1059A00082FF14C02E813F818C819D812817390789
:1059B0003CF4E881F981CF010196998388831083B3
:1059C0008E819F8101969F838E83E3CFE885F98541
:1059D000812F0995892BA1F3DACFFA01AA27283064
:1059E00051F1203181F1E8946F936E7F6E5F7F4FAC
:1059F0008F4F9F4FAF4FB1E03ED0B4E03CD0670F28
:105A0000781F891F9A1FA11D680F791F8A1F911D7A
:105A1000A11D6A0F711D811D911DA11D20D009F4CA
:105A200068943F912AE0269F11243019305D31930C
:105A3000DEF6CF010895462F4770405D4193B3E0F5
:105A40000FD0C9F7F6CF462F4F70405D4A3318F09C
:105A5000495D31FD4052419302D0A9F7EACFB4E04D
:105A6000A6959795879577956795BA95C9F7009705
:105A70006105710508959B01AC010A2E06945795A6
:105A8000479537952795BA95C9F7620F731F841FFD
:105A9000951FA01D0895F999FECF92BD81BDF89A7A
:105AA000992780B50895A8E1B0E042E050E00C9459
:105AB0006D2D262FF999FECF92BD81BD20BD0FB669
:105AC000F894FA9AF99A0FBE019608950E94592DFA
:105AD000272F0C945A2DDC01CB01FC01F999FECF44
