:100000000C944A000C9469000C9469000C946900EB
:100010000C9469000C9469000C9469000C946900BC
:100020000C9469000C9469000C9469000C946900AC
:100030000C9453200C9469000C9469000C94690092
:100040000C9469000C9469000C9469000C9469008C
:100050000C9469000C9469000C9469000C9469007C
:100060000C9469000C9469000C9469000C9469006C
:100070000C9469000C9469000C9469000C9469005C
:100080000C9469000C9469000C9469000C94E320B2
:100090000C94690011241FBECFEFD0E1DEBFCDBFAD
:1000A00012E0A0E0B1E0E8E1FBE500E00BBF02C038
:1000B00007900D92A839B107D9F728E0A8E9B2E076
:1000C00001C01D92A130B207E1F70E9421270C94D4
:1000D0008A2D0C948020CF93DF9300D000D0CDB731
:1000E000DEB71B821C8281E789831A8240E050E0E0
:1000F000BA0189EF97E00E941C1B62E0CE010196D5
:100100000E949F2062E0CE0103960E94CC2089EFDE
:1001100097E00E94B41B8C8180FF0DC01092AD0748
:1001200083FF0DC0109290070F900F900F900F90CB
:10013000DF91CF91089591E09093AD07F1CF81E0E9
:1001400080939007F1CFCF93DF9300D000D000D001
:10015000CDB7DEB78091010190910201A09103011A
:10016000B091040189839A83AB83BC8340E050E063
:10017000BA0189EF97E00E941C1B64E0CE01019652
:100180000E949F2080E98D831E8262E0CE01059649
:100190000E949F2089EF97E00E94B41B26960FB61D
:1001A000F894DEBF0FBECDBFDF91CF910895CF93FE
:1001B000DF9300D000D000D0CDB7DEB7809105012D
:1001C00090910601A0910701B091080189839A835B
:1001D000AB83BC8340E050E0BA0189EF97E00E9416
:1001E0001C1B64E0CE0101960E949F2088E88D834D
:1001F00081E08E831092D5061092D40662E0CE0183
:1002000005960E949F2089EF97E00E94B41B2696D6
:100210000FB6F894DEBF0FBECDBFDF91CF9108952A
:10022000CF93DF9300D0CDB7DEB788E8898381E034
:100230008A8340E050E0BA0189EF97E00E941C1BDE
:1002400062E0CE0101960E949F2089EF97E00E9414
:10025000B41B0F900F90DF91CF9108951F93CF9310
:10026000DF9300D000D000D0CDB7DEB70E941001E0
:1002700019E81C831D821E8240E050E0BA0189EF1C
:1002800097E00E941C1B63E0CE0104960E949F2011
:1002900019831A821B8263E0CE0101960E94CC2052
:1002A00089EF97E00E94B41B8A8190E0982F8827FD
:1002B0002B81820F911D26960FB6F894DEBF0FBEDC
:1002C000CDBFDF91CF911F910895CF93DF9300D0E1
:1002D000CDB7DEB788E8898382E08A8340E050E0CA
:1002E000BA0189EF97E00E941C1B62E0CE010196E3
:1002F0000E949F2089EF97E00E94B41B0F900F90FF
:10030000DF91CF9108951F93CF93DF9300D000D05A
:1003100000D0CDB7DEB70E94650119E81C831D82AD
:100320001E8240E050E0BA0189EF97E00E941C1B5A
:1003300063E0CE0104960E949F2019831A821B82DB
:1003400063E0CE0101960E94CC2089EF97E00E94E5
:10035000B41B8A8190E0982F88272B81820F911DF2
:1003600026960FB6F894DEBF0FBECDBFDF91CF91BA
:100370001F9108951F93CF93DF9300D000D000D03A
:10038000CDB7DEB711E91C831D821E8240E050E02C
:10039000BA0189EF97E00E941C1B63E0CE0104962E
:1003A0000E949F2019831A821B8263E0CE0101966E
:1003B0000E94CC2089EF97E00E94B41B8A8190E0D4
:1003C000982F88272B81820F911D26960FB6F894BF
:1003D000DEBF0FBECDBFDF91CF911F910895CF93A8
:1003E000DF9300D0CDB7DEB780E789838BEF8A83B8
:1003F00040E050E0BA0189EF97E00E941C1B62E0E8
:10040000CE0101960E949F2089EF97E00E94B41BC5
:100410000F900F90DF91CF910895CF93DF9300D08D
:10042000CDB7DEB780E789838FEF8A8340E050E065
:10043000BA0189EF97E00E941C1B62E0CE01019691
:100440000E949F2089EF97E00E94B41B0F900F90AD
:10045000DF91CF910895FF920F931F93CF93DF9376
:1004600000D000D01F92CDB7DEB7F82E162F042F84
:1004700040E050E0BA0189EF97E00E941C1B80E445
:100480008983612F6C60402F50E0440F551F8F2DE2
:10049000807F842B862B8A8328E02B8330E1F39E98
:1004A000C0011124642B682B6C832D8365E0CE0181
:1004B00001960E949F2089EF97E00E94B41B0F9045
:1004C0000F900F900F900F90DF91CF911F910F9190
:1004D000FF90089540E060E088E20E942B0240E037
:1004E00060E08EE00E942B0240E060E086E00C9429
:1004F0002B020F931F93CF93DF9300D000D0CDB783
:10050000DEB700E40B8318E01C8340E050E0BA0142
:1005100089EF97E00E941C1B62E0CE0103960E94C7
:100520009F2068E270E080E090E00E94D01C098388
:100530008CE28A8362E0CE0101960E949F201A839A
:1005400062E0CE0101960E949F2089EF97E00E9411
:10055000B41B0E946A020F900F900F900F90DF91D2
:10056000CF911F910F9108950F931F93CF93DF9316
:10057000EC018C01060F111DC017D10729F4DF9182
:10058000CF911F910F91089540E061E089910E9401
:100590002B02F2CFCF93DF9300D0CDB7DEB7880F19
:1005A00089831A8240E050E0BA0189EF97E00E9407
:1005B0001C1B62E0CE0101960E949F2089EF97E00C
:1005C0000E94B41B0F900F90DF91CF910895CF93AD
:1005D000DF9300D0CDB7DEB7880F898381E08A83AF
:1005E00040E050E0BA0189EF97E00E941C1B62E0F6
:1005F000CE0101960E949F2089EF97E00E94B41BD4
:100600000F900F90DF91CF910895CF93DF93CDB7E7
:10061000DEB728970FB6F894DEBF0FBECDBF982F78
:10062000990F9E8390E39F831886880F816089834A
:100630001A821B821C821D8240E050E0BA0189EFC1
:1006400097E00E941C1B63E0CE0106960E949F204B
:1006500065E0CE0101960E949F2065E0CE010196E3
:100660000E94CC208C8190E0982F88272D81820FCA
:10067000911D90937F0680937E068A8190E0982F4B
:1006800088272B81820F911D9093C2068093C1060B
:1006900089EF97E00E94B41B6091C1067091C20679
:1006A00080917E0690917F0628960FB6F894DEBF63
:1006B0000FBECDBFDF91CF9108950F931F93CF93BE
:1006C000DF9300D000D000D0CDB7DEB7982F990FC0
:1006D0009C8390E39D8393E09E83880F8160898350
:1006E0001A821B8240E050E0BA0189EF97E00E9435
:1006F0001C1B63E0CE0104960E949F2063E0CE01A4
:1007000001960E949F2063E0CE0101960E94CC20BA
:100710000A811B8189EF97E00E94B41BC8012696CD
:100720000FB6F894DEBF0FBECDBFDF91CF911F9102
:100730000F910895CF931092A80740E050E0BA01BE
:1007400089EF97E00E941C1BC1E080E98C0F82308A
:10075000A8F08C2F0E945D03853A954A79F4809128
:10076000A807803158F4E091A807F0E0EC53F94F66
:10077000C0838091A8078F5F8093A807CF5FC038A0
:1007800021F789EF97E0CF910C94B41BEF92FF9281
:100790000F931F93CF93DF93CDB7DEB728970FB694
:1007A000F894DEBF0FBECDBF982F990F9E8390E3C4
:1007B0009F8392E09887880F816089831A821B82C9
:1007C0001C821D8240E050E0BA0189EF97E00E9450
:1007D0001C1B63E0CE0106960E949F2065E0CE01BF
:1007E00001960E949F2065E0CE0101960E94CC20D8
:1007F0000C811D81102701271027EA80FB80FE2431
:10080000EF24FE2489EF97E00E94B41BB701C801D2
:1008100028960FB6F894DEBF0FBECDBFDF91CF9103
:100820001F910F91FF90EF900895EF92FF920F9319
:100830001F93CF93DF93CDB7DEB728970FB6F89409
:10084000DEBF0FBECDBF982F990F9E8390E39F838D
:1008500091E09887880F816089831A821B821C82AD
:100860001D8240E050E0BA0189EF97E00E941C1B16
:1008700063E0CE0106960E949F2065E0CE010196BE
:100880000E949F2065E0CE0101960E94CC201D8130
:100890000C81FB80EA8089EF97E00E94B41BB701CE
:1008A000C80128960FB6F894DEBF0FBECDBFDF910A
:1008B000CF911F910F91FF90EF9008951F93CF93C9
:1008C000DF9310E0C12F012E000CDD0B8091A807F3
:1008D00090E0C817D90724F0DF91CF911F910895B8
:1008E000FE01EC53F94F80810E941504FE01EE0FCA
:1008F000FF1FEE0FFF1FE45CF84F6083718382835C
:10090000938361E070E080E090E00E94D01C1F5F64
:10091000D9CF89EF97E00E94CA1A0E948A2040E04E
:1009200050E0BA0189EF97E00E941C1B0E949A03D5
:100930000E940D0264E670E080E090E00E94D01C0E
:100940000E945E0489EF97E00C94B41B40E060E0E5
:1009500080E80E942B020E946A0264E183E097E033
:100960000E94B40264E18CE797E00E94B40264E163
:1009700088E896E00E94B40264E18FED97E00C9461
:10098000B4022F923F924F925F926F927F928F921A
:100990009F92AF92BF92CF92DF92EF92FF920F930E
:1009A0001F93CF93DF93CDB7DEB7C456D1090FB6EF
:1009B000F894DEBF0FBECDBF84E1E9E0F1E0DE01D7
:1009C000DD9601900D928A95E1F784E1EDE1F1E089
:1009D000DE01999601900D928A95E1F784E1E1E3B9
:1009E000F1E0DE01559601900D928A95E1F784E1E0
:1009F000E5E4F1E0DE01119601900D928A95E1F7B0
:100A00008091F1069091F2068230910509F432C28C
:100A100040F4009709F43DC2019771F067E672E077
:100A20000DC08430910509F42BC208F426C2069744
:100A3000A9F764E872E002C06CE672E0FB01019085
:100A40000020E9F73197AF01461B570BCE018D5BB4
:100A50009F4F0E94332A8091870624E6622F0E94CE
:100A60004F27805D2E968FAF2E97809187060E942C
:100A70004F27892F2AE0622F0E944F27805D2F96F3
:100A80008FAF2F97809187060E944F27905D6096C9
:100A90009FAF609780919B0790919C0764E670E000
:100AA0000E947D27605D6D966FAF6D9780919B076B
:100AB00090919C072AE030E0B9010E947D27CB018C
:100AC000B9010E947D27805D6E968FAF6E978091F1
:100AD0009B0790919C07B9010E947D27805D6F96CE
:100AE0008FAF6F97C090D606D090D706E090D8060B
:100AF000F090D9066091D6067091D7068091D806FD
:100B00009091D9060E94112920E030E0A9010E94AD
:100B1000622887FFC1C1C701B6010E941129905800
:100B20000E94D9286B017C011DE2C701B60120EAB1
:100B300036E841E050E00E94B3276AE0862E912C0F
:100B4000A12CB12CCA01B901A50194010E94B327BF
:100B5000605DA0966FAFA097C701B60120E137E2B4
:100B600040E050E00E94B327CA01B901A5019401F9
:100B70000E94B327605DA1966FAFA197C701B60130
:100B800028EE33E040E050E00E94B327CA01B901EB
:100B9000A50194010E94B327605DA2966FAFA29752
:100BA000C701B60124E630E040E050E00E94B327E0
:100BB000CA01B901A50194010E94B327605DA39603
:100BC0006FAFA397C701B601A50194010E94B32797
:100BD000062FCA01B901A50194010E94B327605DE7
:100BE000A4966FAFA497005DA5960FAFA5978091CF
:100BF000DC06811153C180E26C968FAF6C9790E256
:100C00006B969FAF6B978EE46A968FAF6A9745E4B9
:100C1000242E50E5352E0FE40E946A1C6B017C01E6
:100C200024E630E040E050E00E94912765962CAF2A
:100C30003DAF4EAF5FAF6597C701B60120E737E123
:100C400040E050E00E94912729013A01C701B60116
:100C500020E43EE745E050E00E94912769962CAFE2
:100C60003DAF4EAF5FAF69978CE3882E912CA12CDE
:100C7000B12C65966CAD7DAD8EAD9FAD6597A50130
:100C800094010E94912765966CAF7DAF8EAF9FAFA8
:100C90006597C301B201A50194010E9491272B0120
:100CA0003C0169966CAD7DAD8EAD9FAD699728E135
:100CB00030E040E050E00E94912769966CAF7DAF34
:100CC0008EAF9FAF699784E1FE01FD96A3E0B7E088
:100CD00001900D928A95E1F76D968FAD6D978BA778
:100CE0006E969FAD6E979CA78EE28DA76F969FAD77
:100CF0006F979EA71AABA0969FADA0979BABA196AE
:100D00009FADA1979CABA2969FADA2979DAB8EABDA
:100D1000A3969FADA3979FABA4969FADA49798AFC2
:100D2000A5969FADA59799AF94E1FE01B996ACE762
:100D3000B7E001900D929A95E1F70AA33BA22CA28D
:100D40006A969FAD6A979DA36B969FAD6B979EA386
:100D50006C969FAD6C979FA394E1FE017596A8E8F1
:100D6000B6E001900D929A95E1F796E79B8390E3A8
:100D70009C838D8381E38E8385E38F83C701B601D6
:100D800020E038E94FE753E30E949127205D29874F
:100D9000C701B60120E03CE546E255E00E949127FC
:100DA0009AE0892E912CA12CB12CCA01B901A50180
:100DB00094010E949127605D6A87C701B60120E017
:100DC00036ED43E850E00E949127CA01B901A50120
:100DD00094010E949127605D6B871AE31C876996D6
:100DE0006CAD7DAD8EAD9FAD6997A50194010E945C
:100DF0009127205D2D87605D6E871F87C301B2013B
:100E0000A50194010E949127205D288B605D698B6C
:100E10001A8B65966CAD7DAD8EAD9FAD6597A501C6
:100E200094010E949127205D2B8B605D6C8B84E187
:100E3000FE013196AFEDB7E001900D928A95E1F792
:100E4000CC59DF4F0FB6F894DEBF0FBECDBFDF9198
:100E5000CF911F910F91FF90EF90DF90CF90BF90B7
:100E6000AF909F908F907F906F905F904F903F904A
:100E70002F90089561E772E0E1CD67E772E0DECD83
:100E800080913807805D28968FAF28976BE772E0D6
:100E9000D5CD6FE772E0D2CD10E247CE94E46C96E8
:100EA0009FAF6C9785E46B968FAF6B9793E56A96CF
:100EB0009FAF6A972FE4222E3CE4332E03E4ACCE9E
:100EC000CF93DF93CDB7DEB7C055D1090FB6F894F5
:100ED000DEBF0FBECDBF84E1E9E5F1E0DE01DD96C6
:100EE00001900D928A95E1F784E1EDE6F1E0DE01F3
:100EF000999601900D928A95E1F784E1E1E8F1E09D
:100F0000DE01559601900D928A95E1F784E1E5E9BD
:100F1000F1E0DE01119601900D928A95E1F78DE2E4
:100F200023968FAF23979FE224969FAF24979EE24C
:100F300025969FAF259726968FAF269784E1FE01D1
:100F4000FD96A3E0B7E001900D928A95E1F784E168
:100F5000FE01B996ACE7B7E001900D928A95E1F7F2
:100F600084E1FE017596A8E8B6E001900D928A959D
:100F7000E1F784E1FE013196AFEDB7E001900D920B
:100F80008A95E1F7C05BDF4F0FB6F894DEBF0FBE66
:100F9000CDBFDF91CF9108952F923F924F925F92F4
:100FA0006F927F928F929F92AF92BF92CF92DF9279
:100FB000EF92FF920F931F93CF93DF93CDB7DEB7DE
:100FC00064970FB6F894DEBF0FBECDBF94E1E9EA97
:100FD000F1E0DE01119601900D929A95E1F790E310
:100FE000392E380EE82FF0E0EE0FFF1FDF01A2557B
:100FF000B84F8D919C911197AD90BC901197CD9069
:10100000DC901197ED90FC90E152F94F0081118135
:1010100020813181608071804080518044E1FE01F7
:101020003196A3E0B7E001900D924A95E1F7ECE725
:10103000F7E043E4408331825FE5252E228256E5C6
:1010400053835AE3548368EE862E63E0962EB401F0
:101050000E946927605D65838EE28683C501B401C5
:101060000E94692774E6A72EB12CB5010E9469275A
:10107000605D6783C601B4010E946927B5010E94C3
:101080006927AAE0CA2ED12CB6010E946927605DAB
:101090006087C701B6010E946927805D8187B0E241
:1010A000FB2EF286F386F486F586F686F786F08ABE
:1010B000F18AF28AF38AE8E8F6E0408331822282FC
:1010C00084E583835AE35483C801B4010E946927ED
:1010D000605D6583C901B4010E946927B5010E9462
:1010E0006927605D6683C301B4010E946927B50169
:1010F0000E946927B6010E946927605D67838EE2BE
:101100008087C201B6010E946927805D8187F286CF
:10111000F386F486F586F686F786F08AF18AF28AF7
:10112000F38AEFEDF7E080E580838FE281834283ED
:1011300033828EE38483F582F682F782F086F1862D
:10114000F286F386F486F586F686F786F08AF18ACB
:10115000F28AF38A64960FB6F894DEBF0FBECDBF55
:10116000DF91CF911F910F91FF90EF90DF90CF9083
:10117000BF90AF909F908F907F906F905F904F90B7
:101180003F902F9008952F923F924F925F926F92CF
:101190007F928F929F92AF92BF92CF92DF92EF9207
:1011A000FF920F931F93CF93DF93CDB7DEB7C35456
:1011B000D1090FB6F894DEBF0FBECDBF94E1EDEBC1
:1011C000F1E0DE01999601900D929A95E1F794E194
:1011D000E1EDF1E0DE01559601900D929A95E1F76F
:1011E00094E1E5EEF1E0DE01119601900D929A9501
:1011F000E1F720E3280F2DAF73EAE72E77E0F72E13
:10120000EFE1AE2EE7E0BE2EF501670190E2D601D8
:101210009D936D019193B8EACB16B7E0DB06B9F761
:10122000082F10E04801880C991CF401EF52F84F88
:10123000808191814AE063EA77E00E943C2AF401D0
:10124000EB50F94F808191814AE06FE177E00E9495
:101250003C2A80E2F7019081911101C08083D50181
:101260009C91911101C08C93BFEFEB1AFB0AEFEF39
:10127000AE1ABE0ACE14DF0469F77090A3078090FF
:10128000A4079090A507F091A607FEAFC090A7070E
:1012900020901F0730902007409021075090220790
:1012A00060902307F801EE0FFF1FE054F84F808194
:1012B000918164E670E00E9469272AE030E0B9017C
:1012C0000E946927605D6FAF80819181B9010E94A2
:1012D0006927805D21968FAF21975801AA0CBB1C0E
:1012E000AA0CBB1CC5018456994F7C01DC016D9191
:1012F0007D918D919C910E94D928605D22966FAF5F
:101300002297F701608171818281938120E030E032
:1013100040E251E40E94C6290E94D928862F5AE053
:10132000D52E6D2D0E945B27905D23969FAF23974E
:10133000D7016D917D918D919C9120E030E048EC3A
:1013400052E40E94C6290E94D928862F6D2D0E9442
:101350005B27905D24969FAF2497F7016081718190
:101360008281938120E030E04AE754E40E94C6295C
:101370000E94D928862F6D2D0E945B2797FDCBC038
:10138000F70180819181A281B38160817181828125
:10139000938120E030E04AE754E40E94C6290E948D
:1013A000D928862F6D2D0E945B2720E3F22EF90E9F
:1013B000F801EC53F94F80811F928F9388E892E0F7
:1013C0009F938F9388EB96E09F938F930E94612A5F
:1013D0005091B8064091B9063091BA06F501E45C27
:1013E000F84F20819181828163812EA63FA648AA71
:1013F00059AA6AAAFFADF8AF21967FAD219779AFC0
:1014000074E1FE01B996A3E0B7E001900D927A95E0
:10141000E1F77A8E8B8E9C8EAEADAD8FCE8E2296FE
:10142000BFAD2297BCA37EE27DA32396EFAD2397A9
:10143000EEA32496FFAD2497FFA3F8A674E1FE0166
:101440007596ACE7B7E001900D927A95E1F7205DD3
:101450002E83905D9F83805D8887605D69875A8B4E
:101460004B8B3C8B84E1FE013196A8E8B6E00190FD
:101470000D928A95E1F780E58093DF079FE29093D4
:10148000E00783E48093E1072DAD2093E20790937A
:10149000E3078093E40781E48093E5078CE480937D
:1014A000E6078EE38093E70780E28093E807809366
:1014B000E9078093EA078093EB078093EC0780931A
:1014C000ED078093EE078093EF078093F0078093FA
:1014D000F1078093F2070F900F900F900F900F90ED
:1014E0000F90CD5BDF4F0FB6F894DEBF0FBECDBFC0
:1014F000DF91CF911F910F91FF90EF90DF90CF90F0
:10150000BF90AF909F908F907F906F905F904F9023
:101510003F902F90089580E2F82E4ACF2F923F926D
:101520004F925F926F927F928F929F92AF92BF92F3
:10153000CF92DF92EF92FF920F931F93CF93DF939F
:10154000CDB7DEB7EC970FB6F894DEBF0FBECDBFB8
:1015500084E1E9EFF1E0DE01999601900D928A9520
:10156000E1F784E1EDE0F2E0DE01559601900D92A5
:101570008A95E1F784E1E1E2F2E0DE011196019063
:101580000D928A95E1F783E58093030785E48093C4
:10159000040784E58093050780E28093060790E5C1
:1015A0009093070791E49093080793E490930907B9
:1015B0009BE490930A0780930B0799E490930C07A0
:1015C00094E490930D0780930E0780930F07809308
:1015D000100780931107809312078093130780935D
:1015E0001407809315078093160794E1FE01B996BE
:1015F000ACE7B7E001900D929A95E1F794E1FE0116
:101600007596A8E8B6E001900D929A95E1F7888763
:10161000898B84E1FE013196AFEDB7E001900D9228
:101620008A95E1F764E670E080E090E00E94D01CCB
:101630008091C306809336078091C3061F928F93D3
:101640000DE812E01F930F9387E197E09F938F932C
:101650000E94612A809136071F928F931F930F93E8
:1016600083EF97E09F938F930E94612A62E370E07B
:1016700080E090E00E94D01C81E0809391070FB63B
:10168000F894DEBF0FBECDBF780193EFC92E97E06F
:10169000D92E2FE0422E3324339433E5A32E45E494
:1016A000B42E04E510E250E5552E61E4662E73E495
:1016B000772EEBE48E2EF9E49F2E8091D0078823BD
:1016C00009F4E2C0809191078F5F80939107809128
:1016D00091078093360780913607803131F430923C
:1016E00091078091910780933607809136071F926A
:1016F0008F93FF92EF92DF92CF920E94612A109215
:10170000D0070F900F900F900F900F900F90209197
:1017100017079091F307A0920307B0920407009374
:10172000050710930607509207076092080770920A
:10173000090780920A0710930B0790920C0784E424
:10174000282E20920D0710930E0710930F07109369
:10175000100710931107109312071093130710939B
:101760001407109315071093160784E1FE01B9962C
:10177000ACE7B7E001900D928A95E1F784E1FE01B4
:101780007596A8E8B6E001900D928A95E1F7288752
:10179000998B84E1FE013196AFEDB7E001900D9297
:1017A0008A95E1F7189989CF6091360788E090E033
:1017B0000E94682D88E090E00E945A2D8093C30615
:1017C0005092030760920407709205078092060703
:1017D00010930707909208072092090710930A07B1
:1017E000A0920B07B0920C0700930D0781E2809343
:1017F0000E0710930F071093100710931107109303
:1018000012071093130710931407109315071093E2
:10181000160784E1FE01B996ACE7B7E001900D929E
:101820008A95E1F784E1FE017596A8E8B6E001909B
:101830000D928A95E1F784E1FE013196AFEDB7E0B4
:1018400001900D928A95E1F764E670E080E090E007
:101850000E94D01C80E0EC960FB6F894DEBF0FBE5D
:10186000CDBFDF91CF911F910F91FF90EF90DF904F
:10187000CF90BF90AF909F908F907F906F905F9030
:101880004F903F902F9008958091A107882309F4ED
:101890003ECF80919107815080939107809191076D
:1018A000811102C040929107809191078093360781
:1018B000809136071F928F93FF92EF92DF92CF9223
:1018C0000E94612A1092A1071CCF3F924F925F9213
:1018D0006F927F928F929F92AF92BF92CF92DF9240
:1018E000EF92FF920F931F93CF93DF93CDB7DEB7A5
:1018F000EC970FB6F894DEBF0FBECDBF84E1E9EFE1
:10190000F1E0DE01999601900D928A95E1F784E16C
:10191000EDE0F2E0DE01559601900D928A95E1F737
:1019200084E1E5E3F2E0DE01119601900D928A95E3
:10193000E1F78091BF069091C0069093BD07809318
:10194000BC078091BF069091C0069F938F9302E9D8
:1019500012E01F930F9381E397E09F938F930E9470
:10196000612A8091BC079091BD079F938F931F932D
:101970000F9384EF97E09F938F930E94612A62E315
:1019800070E080E090E00E94D01C109291070FB6AA
:10199000F894DEBF0FBECDBF680184EFA82E87E0AC
:1019A000B82E812C95E0992E03E525E4F22E34E53E
:1019B000632E10E243E4342E51E4752E6EE4462E7D
:1019C00074E4E72EE2E55E2E8091D007882309F4C7
:1019D00020C1809191078F5F80939107809191073B
:1019E00090E09B5F9093BD078093BC078091BC07FC
:1019F0009091BD079F938F93DF92CF92BF92AF924A
:101A00000E94612A8091BC079091BD070F900F90B2
:101A10000F900F900F900F908115964031F4109217
:101A200091079092BD078092BC071092D0076091F9
:101A3000320750913307409134073091F5072091D8
:101A4000F6079091F70700930307F092040760925E
:101A50000507109306073092070770920807409217
:101A6000090710930A0770920B07E0920C07E092A7
:101A70000D0750920E07F0920F0700931007009386
:101A80001107109312071093130710931407109364
:101A900015071093160784E1FE01B996ACE7B7E08D
:101AA00001900D928A95E1F784E1FE017596A8E810
:101AB000B6E001900D928A95E1F7688759874A87C9
:101AC000398B2A8B9B8B84E1FE013196AFEDB7E019
:101AD00001900D928A95E1F7189976CF8091BF0613
:101AE0009091C00601969093BF078093BE078091A6
:101AF000BF069091C00602969093DE068093DD06A5
:101B00006091BC077091BD0782E090E00E94752D46
:101B10006091BE077091BF0784E090E00E94752D30
:101B20006091DD067091DE0686E090E00E94752DE2
:101B300082E090E00E94622D9093C0068093BF06E1
:101B4000309203077092040740920507109306072E
:101B500070920707E0920807E092090750920A077F
:101B6000F0920B0700930C0700930D0710930E07DC
:101B700000930F07F09210076092110781E28093A3
:101B8000120710931307109314071093150710935F
:101B9000160784E1FE01B996ACE7B7E001900D921B
:101BA0008A95E1F784E1FE017596A8E8B6E0019018
:101BB0000D928A95E1F784E1FE013196AFEDB7E031
:101BC00001900D928A95E1F764E670E080E090E084
:101BD0000E94D01C64E670E080E090E00E94D01C7F
:101BE00080E0EC960FB6F894DEBF0FBECDBFDF915C
:101BF000CF911F910F91FF90EF90DF90CF90BF900A
:101C0000AF909F908F907F906F905F904F903F909C
:101C100008958091A107882309F409CF8091910745
:101C20008823F9F0809191078150809391078091EA
:101C3000910790E09B5F9093BD078093BC078091D4
:101C4000BC079091BD079F938F93DF92CF92BF9275
:101C5000AF920E94612A0F900F900F900F900F90FB
:101C60000F901092A107E3CE87B18C6087B9159AC7
:101C7000269A85B1806585B908950E94340E62E385
:101C800070E080E090E00E94D01C22E030E043E071
:101C900050E061E070E01D9B13C0439A8091F30611
:101CA0009091F4068130910501F164F4892BB1F033
:101CB0008091BD069091BE06892B79F1429AEBCFB7
:101CC0004398ECCF8230910509F1039789F7059984
:101CD00018C01092F4061092F306EACF059BE8CFE5
:101CE0007093F4066093F306E3CF059BF2CF8091E7
:101CF000BD069091BE06809590959093BE06809308
:101D0000BD063093F4062093F306D2CF0599D0CFC9
:101D10005093F4064093F306CBCF4298BCCFEF929A
:101D2000FF920F931F93CF93DF93CDB7DEB74DB7DD
:101D30005EB78091A8072DB73EB7281B31090FB6B3
:101D4000F8943EBF0FBE2DBF2F5F3F4F8091F1062D
:101D50009091F206019709F092C0809119078823AB
:101D600009F48DC01092190780E09091A807891797
:101D700060F0A0E08091A8076A2F70E090E00197E2
:101D800068177907BCF5B0E029C0F901E80FF11D2B
:101D900080838F5FEACFB901680F791FFB01E08074
:101DA000EE2DF0E0EE0FFF1FE255F84F008111819C
:101DB0000196820F931FFC01F080EF2DF0E0EE0FF3
:101DC000FF1FE255F84F0190F081E02DE017F10779
:101DD00020F4FC01E082FB01F082BF5F8B2F90E0DA
:101DE0006091A80770E061507109861797079CF20F
:101DF000AF5FC0CF8091A807815097E0811111C0DB
:101E0000A1E06091A807861748F10FB6F8945EBF6D
:101E10000FBE4DBFDF91CF911F910F91FF90EF90BB
:101E20000895D901A80FB11DEC91F0E0EE0FFF1F4E
:101E3000E255F84F608171811197EC91F0E0EE0F5F
:101E4000FF1FE255F84F0190F081E02D6E1B7F0BD4
:101E50006931710508F0982F8150D0CF682F70E05C
:101E6000620F731FFB016081E62FF0E0E058F94F2D
:101E7000891718F0A0838F5FC4CF1082FCCF8091A8
:101E8000F1069091F206019709F4BFCF80E090919E
:101E9000A807891708F0B9CFE82FF0E0E058F94F0C
:101EA00010828F5FF4CFCF93DF9300D000D000D0AB
:101EB000CDB7DEB70E9489040E94A3000E94D7001C
:101EC0000E94790281E08093BC061092190734E6E3
:101ED000432E512C612C712C222423940E946A1CC5
:101EE000A30192010E949127633371058105910539
:101EF00008F4EDC08091BC06882331F01092BC0636
:101F0000209219070E94A60465E070E080E090E04E
:101F10000E94D01C312C8091A807381608F4DAC032
:101F20000E948301BC01990F880B990B0E94112913
:101F30002AE037ED43EA5AE30E94C62921EC3AEC45
:101F400041E85FE30E94C6292AE939E949E95EE3ED
:101F50000E94F52720E030E040E251E40E94C629CB
:101F60000E94E02870939C0760939B070E946B007F
:101F70000E942E01092E000CAA0BBB0BB095A09558
:101F8000909581959F4FAF4FBF4F8093ED069093F3
:101F9000EE06A093EF06B093F0068091ED069091C7
:101FA000EE06A091EF06B091F006803E9E42A1059C
:101FB000B105CCF48091ED069091EE06A091EF066C
:101FC000B091F0068132914DAF4FBF4F64F08091D8
:101FD000ED069091EE06A091EF06B091F006909379
:101FE000CF078093CE078091F1069091F206069775
:101FF00009F0FAC08091DC06882309F4F5C00E943C
:10200000EF010E94BA01092E000CAA0BBB0B8093B2
:10201000ED069093EE06A093EF06B093F00640E035
:1020200050E0BA018AE197E00E941C1B8091ED0606
:102030009091EE06A091EF06B091F0069C01AD01E3
:1020400066277727CB01621B730B840B950B0E94CD
:1020500011292FE632E143E059E30E94C62923ED1E
:102060003EEF46ED52E40E94C62924EA30E74DE2F5
:102070005FE30E94F62720E030E04AE754E40E9444
:10208000C6290E94D9286093D6067093D7068093FC
:10209000D8069093D9068AE197E00E94B41B0E946B
:1020A0008F0E10E08091A807181708F017CFE12FC6
:1020B000F0E0DF01A058B94F8C91EC53F94F81301B
:1020C00009F0E8C080810E94E7021F5FEBCF2092F9
:1020D000BC061ACF032D10E0F801EC53F94F8081B4
:1020E0000E9405036B017C019801220F331F3E8380
:1020F0002D83F901EF52F84F408151815A83498372
:10210000F901EB50F94F808191819C838B8396E09C
:102110009E9DB0019F9D700D112480E090E00E9473
:102120000F294B015C01A981BA81BD0180E090E0DB
:102130000E940F2920E030E040E85AE30E94C629BF
:102140009B01AC01C501B4010E94C6294B015C0191
:10215000EB81FC81BF0180E090E00E940F299B0190
:10216000AC01C501B4010E94F6270E94E028ED8170
:10217000FE81E255F84F71836083000F111F000F3D
:10218000111FF801E456F94F80809180A280B3803E
:10219000ED81FE81E054F84F00811181FAEFCF1AF2
:1021A000F0E8DF0ACC0CDD1CB60180E090E00E9474
:1021B0000F29A50194010E94C6296B017C01B80179
:1021C00080E090E00E940F299B01AC01C701B6019D
:1021D0000E94F6270E94E028ED81FE81E152F94F2E
:1021E00071836083339497CE0E940D020E94BA01DE
:1021F000092E000CAA0BBB0B8093ED069093EE0604
:10220000A093EF06B093F0068091ED069091EE0654
:10221000A091EF06B091F0068C3B9240A105B1056C
:102220000CF03DCF8091ED069091EE06A091EF0667
:10223000B091F00685349D4FAF4FBF4F0CF42FCFB8
:1022400040E050E0BA018AE197E00E941C1B6091D7
:10225000CE077091CF07072E000C880B990B0E94B8
:1022600011292CEA35EC47E256E30E94C6292FE6F5
:1022700032E143E85AE30E9467282DE73EEA46E749
:102280005FE30E94C62929E839E241E15CE30E944C
:10229000F527F1CE80810E94CA0217CF1092FF0766
:1022A0001092FE078091FE079091FF07079708F4B0
:1022B00094C087E080932B0782E997E090932D07E5
:1022C00080932C0781E090E0909326078093250768
:1022D0001092300782E090E00E94622D9093C00639
:1022E0008093BF068091BF069091C006892B31F084
:1022F0008091BF069091C006019671F460E075E090
:1023000082E090E00E94752D82E090E00E94622DB4
:102310009093C0068093BF0684E090E00E94622DF7
:102320009093BF078093BE078091BE079091BF072F
:10233000892B31F08091BE079091BF07019671F40F
:1023400061E075E084E090E00E94752D84E090E00B
:102350000E94622D9093BF078093BE0786E090E0B5
:102360000E94622D9093DE068093DD068091DD064B
:102370009091DE06892B31F08091DD069091DE068A
:10238000019671F462E075E086E090E00E94752DA0
:1023900086E090E00E94622D9093DE068093DD0639
:1023A00088E090E00E945A2D8093C3068091C30676
:1023B000882321F08091C3068F3F59F461E088E0C3
:1023C00090E00E94682D88E090E00E945A2D809352
:1023D000C30687E0809300080895E091FE07F0911E
:1023E000FF07EE56F84F10828091FE079091FF078D
:1023F00001969093FF078093FE0754CF0E944E11E1
:1024000080E00E94562118E08091C30690E0982F4A
:1024100088279770909328078093270710932B079E
:102420008091F1069091F2068093920780919B072C
:1024300090919C079093930780919B0790919C07A4
:10244000809394078091D6069091D706A091D806E4
:10245000B091D9068B2FBB2787FDB0959B2FAB2F53
:10246000809395078091D6069091D706A091D806C3
:10247000B091D906CD01BB2797FDB095AB2F8093C6
:1024800096078091D6069091D706A091D806B09174
:10249000D906892F9A2FAB2FBB27A7FDBA9580931A
:1024A00097078091D6069091D706A091D806B09153
:1024B000D90680939807809187068093990784E2D4
:1024C00097E00E9463218111FACF84E297E00E9495
:1024D0003E268130D1F380919D0790919E07A09177
:1024E0009F07B091A0078B2FBB2787FDB0959B2F2F
:1024F000AB2F8093920780919D0790919E07A091AA
:102500009F07B091A007CD01BB2797FDB095AB2FDA
:102510008093930780919D0790919E07A0919F07BC
:10252000B091A007892F9A2FAB2FBB27A7FDBA9593
:102530008093940780919D0790919E07A0919F079B
:10254000B091A0078093950784E001E0C4E0D1E05A
:10255000909100089017B8F401E09091000890174E
:10256000B8F12C2F280F2AC0EC2FF0E0A02FB0E0FC
:10257000A058B94F9C91EE56F84F9083CF5F0F5FF4
:10258000815009F454C090910008901768F7E0CF8B
:102590004C2F50E0E02FF0E0EE0FFF1FE255F84F18
:1025A00060817181DA01AE56B84F7C936081718190
:1025B000FA01ED56F84F60830F5F8250C22FC81B9F
:1025C000823008F450C090910008901708F7C5CFEA
:1025D00001E090910008901718F14C2F480F16C099
:1025E0002C2F30E0E02FF0E0EE0FFF1FE152F94F0B
:1025F00060817181D901AE56B84F7C936081718141
:10260000F901ED56F84F60830F5F8250C42FC81B4D
:10261000823008F444C090910008901708F7D9CF91
:1026200064E670E080E090E00E94D01CEDCE209146
:10263000C3068D2F90E0922B97709093280780937C
:102640002707C0932B0784E297E00E946321C82FDD
:102650008111F9CF84E297E00E943E268130D1F3C8
:10266000DF5F88E075CF2091C3068D2F90E0922B1D
:1026700097709093280780932707C0932B0784E2D5
:1026800097E00E946321C82F8111F9CF84E297E07F
:102690000E943E268130D1F3DF5F88E05ECF20913B
:1026A000C3068D2F90E0922B97709093280780930C
:1026B0002707C0932B0784E297E00E946321C82F6D
:1026C0008111F9CF84E297E00E943E268130D1F358
:1026D000DF5F88E07ECF0C94C1040E94C10464E6F1
:1026E00070E080E090E00E94D01CC0E08C2F0C2EA7
:1026F000000C990BC8303CF4C1307CF40E94C1043A
:1027000016C0CFE0F3CFCF30FCF0CF30B9F70E9446
:102710008E0A81110CC0C0E00AC02091A80730E0E9
:102720002817390724F08FEF8C0F0E94CC07189BD5
:10273000E8CF8091A107882399F0CF5FCF3009F4CB
:10274000CEE01092A107D2CF2091A807079730E0E2
:102750002817390764F388EF8C0F0E94C308E7CF6E
:102760008091D007882311F2C15008F4C0E0109284
:10277000D007BCCF089A109863E070E080E090E04A
:102780000E94D01C109A63E070E080E090E00E940C
:10279000D01CF1CF1092AD0710929A0780E0909173
:1027A000A807891720F08AE197E00C94CA1AE82F4D
:1027B000F0E0E058F94F10828F5FF1CF81E090E0B8
:1027C0000E945A2D8093870680918706882321F0E6
:1027D000809187068F3F59F462E381E090E00E9488
:1027E000682D81E090E00E945A2D809387068091A9
:1027F0008706089590919A0780918706981751F05F
:102800008091870680939A076091870681E090E027
:102810000C94682D0895CF93DF9300D000D0CDB7EE
:10282000DEB70E94CA13412C512C320114E63CE958
:10283000832E99249A94A92CB92C8091F106909119
:10284000F206892BD1F38091F1069091F20601975F
:1028500021F482B1806382B908C08091F106909121
:10286000F206039709F0B7C0149A80E09091A80788
:10287000891708F4B3C080E09091A807891708F47D
:10288000C8C00E946A1C6B017C01DC01CB01841969
:102890009509A609B7092C013D0140E050E0BA01B5
:1028A0008AE197E00E941C1B6091D6067091D706C2
:1028B0008091D8069091D90620919D0730919E076E
:1028C00040919F075091A00729833A834B835C83F3
:1028D000A30192010E943F27A50194010E94B32702
:1028E00089819A81AB81BC81280F391F4A1F5B1FE8
:1028F00057FD2CC06091D6067091D7068091D806FE
:102900009091D90620919D0730919E0740919F0795
:102910005091A00729833A834B835C83A3019201E2
:102920000E943F27A50194010E94B32789819A81C3
:10293000AB81BC81280F391F4A1F5B1F20939D0765
:1029400030939E0740939F075093A0078AE197E03A
:102950000E94B41B60919D0770919E0780919F0714
:102960009091A0070E94112920E036ED43E05AE43F
:102970000E94C129181664F560919D0770919E0709
:1029800080919F079091A0070E94112928E03FEEB7
:102990004BE45DE40E94622887FF1AC060919D07A6
:1029A00070919E0780919F079091A0070E94112926
:1029B00020E63EEF4DE45DE40E94672820E030E031
:1029C00048EC52E40E94C6290E94E02860938706E2
:1029D0002601370132CF82B18F7C3DCFE82FF0E066
:1029E000EE0FFF1FE255F84F2081318125373E4021
:1029F00070F020E036EE4FED5CE020939D073093C1
:102A00009E0740939F075093A007109387068F5F00
:102A10002DCFE82FF0E0EE0FFF1FE255F84F208199
:102A200031812C383A4050F410929D0710929E0745
:102A300010929F071092A007109287068F5F1CCFFD
:102A4000139A81B1896381B91092DC0608950E94BE
:102A5000201591E080B182FB882780F98927809337
:102A6000DC062091F1063091F2062630310521F482
:102A700013988091DC06EECF139AECCF8EE390E0B2
:102A80009093C1078093C00786E490E09093C307BA
:102A90008093C2078BE290E09093C5078093C407B0
:102AA00089E390E09093C7078093C60780E290E0A7
:102AB0009093C9078093C80781E390E09093CB0778
:102AC0008093CA078EE190E09093CD078093CC0766
:102AD00087E79EEBAFE3BFE380939C0690939D0650
:102AE000A0939E06B0939F068AEA91EFA2E3BFE30C
:102AF0008093A0069093A106A093A206B093A3068C
:102B00008FE892ECA5E5BFE38093A4069093A50619
:102B1000A093A606B093A70684E69BE3AFE3BFE3CA
:102B20008093A8069093A906A093AA06B093AB063B
:102B30008FE395E3AEE5BFE38093AC069093AD06DB
:102B4000A093AE06B093AF068CE497E3A9E4BFE38D
:102B50008093B0069093B106A093B206B093B306EB
:102B60008FE29DEDA4E6BFE38093B4069093B50693
:102B7000A093B606B093B7061092370710923807A5
:102B800010923B0710923A0710923907C0E0D0E04C
:102B90008091A80790E0C817D9070CF47AC010926A
:102BA000F2061092F1060E94DE1380938706609170
:102BB000870670E080E090E00E940F2920E030E07E
:102BC00048EC52E40E94672820E63EEF4DE45DE4C5
:102BD0000E94C6290E94E02860939D0770939E077B
:102BE00080939F079093A0070E94FA13C4E0D0E05F
:102BF0007724739462E0662E06E010E0EE24E394FE
:102C0000F12CE3E08E2E912CF5E0CF2ED12CA2E01A
:102C1000AA2EB12C0E94FA1340E08091A807481711
:102C200008F44CC080919B0790919C07813491459A
:102C3000A4F0D093F206C093F10660921807709248
:102C400037076092380780919B0790919C0790937B
:102C50003B0780933A07109239078091F1069091D3
:102C6000F206049709F4B6C08091F1069091F2063D
:102C70008230910509F4A9C008F05AC0009709F400
:102C800069C0019709F493C0D093F206C093F1068E
:102C9000C1CFFE01EC53F94F80810E94C6039E0113
:102CA000220F331FF901EF52F84F71836083F9014E
:102CB000EB50F94F9183808321966ACF842F90E067
:102CC000880F991FFC01E152F94F2081318129358C
:102CD000324090F0D093F206C093F106109218079C
:102CE00070923707109238072081318130933B076B
:102CF00020933A0740933907FC01E255F84F808151
:102D00009181813A9F4090F0D093F206C093F106F2
:102D100070921807709237077092380780819181FE
:102D200090933B0780933A07409339074F5F75CFE5
:102D300085309105B1F186309105B9F0039709F01E
:102D4000A3CF80919007882359F080918706811145
:102D500061CF0FC068EC70E080E090E00E94D01C72
:102D60001093F2060093F10655CF809187068111EA
:102D700005C0D092F206C092F1064CCF8091AD070B
:102D8000882329F0F092F206E092F10643CF809179
:102D90009007882309F43ECF9092F2068092F106C4
:102DA00039CF8091AD07882309F434CFEBCF8091E0
:102DB000AD078823A9F280918706843608F42ACFCC
:102DC000B092F206A092F10625CF8091AD07811155
:102DD00021CFC6CF1092370726E030E060E0809127
:102DE000A807681790F080919B0790919C07813409
:102DF000914534F0609218077092370724E030E074
:102E00003093F2062093F10605CF862F90E0880FCD
:102E1000991FFC01E152F94F4081518149355240DF
:102E200030F0109218077092370724E030E0825596
:102E3000984FFC0180819181813A9F4030F07092DF
:102E400018077092370724E030E06F5FC8CF399AD7
:102E500008950E942717419A69E170E080E090E0B0
:102E60000E94D01C419869E170E080E090E00E94EF
:102E7000D01CF1CFAF92BF92CF92DF92EF92FF9230
:102E80000F931F93CF93DF93C9E4D2E0AB84BC844C
:102E9000CD84DE84E984FA840D811E812F813885FA
:102EA0004B815C816A81888199810E94DA18811145
:102EB00005C02F9692E0C736D90741F7DF91CF9131
:102EC0001F910F91FF90EF90DF90CF90BF90AF9048
:102ED00008952F923F924F925F926F927F928F92BE
:102EE0009F92AF92BF92CF92DF92EF92FF920F9399
:102EF0001F93CF93DF930DB71EB7C82FD92F088329
:102F00001983C62FD72F088119810DBF1EBFDF91EE
:102F1000CF911F910F91FF90EF90DF90CF90BF90D6
:102F2000AF909F908F907F906F905F904F903F9069
:102F30002F900895C82FD92F088119810DBF1EBF6A
:102F4000DF91CF911F910F91FF90EF90DF90CF9085
:102F5000BF90AF909F908F907F906F905F904F90B9
:102F60003F902F901895FFCF80914D0690914E067F
:102F7000019690934E0680934D06089580914D06DC
:102F800090914E06892B29F48091600690916106FC
:102F9000089580E090E00895CF93DF93FB010097C0
:102FA00059F1309749F1DC01CD91DC91DE019E01B0
:102FB000109731F112965C91129742814517B0F447
:102FC000CA17DB0739F5DC01ED93FC9312861186F5
:102FD000D487C387FA87E98780E00FC032872187CB
:102FE00014861386E901FC87EB87F6CF9D011B96BB
:102FF0000D90BC91A02DDCCF89ECDF91CF9108958D
:10300000CD2B61F7DC01ED93FC93128611861486BB
:103010001386E2CF32872187B487A387E901FC8733
:10302000EB871A96FC93EE931997D6CFCF93DF9345
:103030000097C1F0DC01ED91FC91309779F0A38508
:10304000B485EC01B983A883109721F01A961C92DD
:103050001E9219971286118614861386CF01DF916E
:10306000CF910895E0E0F0E0F9CFCF93DF93AC018A
:10307000FB010097A9F1DC012D913C91211531054F
:1030800079F1D901E901EA17FB0709F5A385B485B0
:103090002E173F0789F4EA01B983A883109721F01E
:1030A0001A961C921E921997148613861286118600
:1030B000CF01DF91CF910895BC87AB87A385B485FD
:1030C000109791F31A96DC93CE931997EDCF1B9638
:1030D0008D919C911C97ED01009759F3DC01D3CFA2
:1030E00080E090E0E6CFCF93DF930097C9F0DC015A
:1030F000ED91FC91309781F02281621788F0A385D1
:10310000B485EC01B983A883109731F01A961C920C
:103110001E92199714861386CF01DF91CF910895DF
:10312000E0E0F0E0F9CFFF920F931F93CF93DF938E
:1031300090914A069923D1F0FFB6F894C0916006A9
:10314000D09161069D859130B9F48BE496E00E94A0
:103150001618C817D90741F090936106809360064E
:10316000BC01CE010E9469171D86FFBEDF91CF9181
:103170001F910F91FF9008956A818130A9F48BE42B
:1031800096E00E9473188C01892B79F3BE018BE4C1
:1031900096E00E94CC17C017D10731F31093610657
:1031A00000936006B801DDCF6623F9F270E061504C
:1031B0007109E5CFAF92BF92CF92DF92EF92FF926B
:1031C0000F931F93CF93DF93EC01009709F43FC057
:1031D00041155105E1F1E114F104C9F1AB28AC2826
:1031E000AD28A9F11D866A831A8619861C861B865E
:1031F000188A1F865C834B830D831E832F83388739
:10320000B7010E9416201FB7F894BE018BE496E028
:103210000E94CC17C82F1FBF882369F0CCEC8C2FDD
:10322000DF91CF911F910F91FF90EF90DF90CF90A2
:10323000BF90AF90089580914A06813081F70E9437
:10324000BE17892B61F380E00E949318E8CFC9EC88
:10325000E6CFAF92BF92CF92DF92EF92FF920F93A1
:103260001F93109261061092600610924C06109205
:103270004B0610924A065A016B017C0100E010E0F7
:10328000980143EB57E16FEF8FE496E00E94DA1864
:103290001F910F91FF90EF90DF90CF90BF90AF9074
:1032A000089520914D0630914E06215031093093FA
:1032B0004E0620934D060C94931881E080934A06A5
:1032C0006FEF8BE496E00E947318009731F09093B3
:1032D0006106809360060C949A1708951F93CF930C
:1032E000DF93EC01892BA1F01FB7F89468817981F5
:1032F00082E0FB018687108A17868A819B810E9463
:103300003518688179818BE496E00E94CC171FBF45
:10331000DF91CF911F910895009731F0FC016283F6
:103320001182108280E0089589EC0895DF92EF9277
:10333000FF920F931F93CF93DF937C01892BD1F1E1
:1033400000E08AECD82E1FB7F894C7010E94161827
:10335000EC01009761F1DE86BC018BE496E00E94EF
:10336000CC178823A1F01FBFCCEC013039F40E94A8
:10337000BE17892B19F080E00E9493188C2FDF91E3
:10338000CF911F910F91FF90EF90DF9008958F855F
:103390009889009749F00E94401C882319F01FBFAC
:1033A000CDECE3CF188A1F861FBF01E0CCCF1FBF33
:1033B000C0E0DBCFC9ECE2CF8F929F92AF92BF9279
:1033C000DF92EF92FF920F931F93CF93DF93CDB7CE
:1033D000DEB72E970FB6F894DEBF0FBECDBF7C01CF
:1033E0004A015B01009709F468C0DFB6F894FC015C
:1033F000828181115CC077FD57C00E94BE178C018D
:10340000009709F44EC0BC01C7010E94CC17882365
:10341000A1F0DFBE8CEC2E960FB6F894DEBF0FBE87
:10342000CDBFDF91CF911F910F91FF90EF90DF9073
:10343000BF90AF909F908F90089591E0F80195878D
:1034400081149104A104B10441F11C870B87FE860D
:10345000ED868EE699E19A838983CE010B969C8353
:103460008B838D829E82AF82B8860A97908B8787E6
:103470000E941B1C882349F0B801C7010E9435181F
:10348000F8011586108A17868DECDFBE8111C3CF37
:103490000E949318F8018685BECFF801108A17861E
:1034A000F4CFDFBE88ECB7CFDFBE83E0B4CF81506E
:1034B000F7018283DFBE80E0AECF89ECACCF0F9303
:1034C0001F93CF93DF930097E9F1DFB7F894FC01E6
:1034D00020813181232B59F10E9416188C01BC01E7
:1034E0008BE496E00E94CC17C82F882341F0DFBF01
:1034F000CCEC8C2FDF91CF911F910F910895F801A3
:10350000168687859089009761F4F801108A1786DE
:10351000DFBF0E94BE17892B61F380E00E949318E1
:10352000E8CF0E94401C882381F3CDECF1CFFC0151
:1035300022812F3F29F02F5F2283C0E0DFBFD9CF48
:10354000CBECFCCFC9ECD5CF009721F0FC01628316
:1035500080E0089589EC08951F93CF93DF93EC01E9
:10356000892BA1F01FB7F8946881798182E0FB0173
:103570008687108A17868A819B810E943518688108
:1035800079818BE496E00E94CC171FBFDF91CF9129
:103590001F910895FC01892B39F013821282148245
:1035A0001182108280E0089589EC0895DF92EF92F5
:1035B000FF920F931F93CF93DF937C01892BD1F15F
:1035C00000E08AECD82E1FB7F894C7010E941618A5
:1035D000EC01009761F1DE86BC018BE496E00E946D
:1035E000CC178823A1F01FBFCCEC013039F40E9426
:1035F000BE17892B19F080E00E9493188C2FDF9161
:10360000CF911F910F91FF90EF90DF9008958F85DC
:103610009889009749F00E94401C882319F01FBF29
:10362000CDECE3CF188A1F861FBF01E0CCCF1FBFB0
:10363000C0E0DBCFC9ECE2CF8F929F92AF92BF92F6
:10364000DF92EF92FF920F931F93CF93DF93CDB74B
:10365000DEB72E970FB6F894DEBF0FBECDBF7C014C
:103660004A015B01892B09F47DC00E94BE178C01C1
:10367000DFB6F8940097A1F4DFBE88EC2E960FB663
:10368000F894DEBF0FBECDBFDF91CF911F910F9198
:10369000FF90EF90DF90BF90AF909F908F90089534
:1036A000F701228133812115310509F44CC08217BD
:1036B000930709F448C0B7FC43C0BC01C7010E948E
:1036C000CC17882319F0DFBE8CECD8CF91E0F8013D
:1036D000958781149104A104B10471F11C870B87B3
:1036E000FE86ED868CEA9AE19A838983CE010B9659
:1036F0009C838B838D829E82AF82B8860A97908B43
:1037000087870E941B1C882349F0B801C7010E94CB
:103710003518F8011586108A17868DECDFBE8111E9
:10372000ADCF0E949318F80186858111A7CFF701CC
:1037300094819F5F9483A2CFF801108A1786EECF01
:10374000DFBE83E09BCFF70184818F3F41F08F5F25
:103750008483232B11F41383028380E001C08BEC5C
:10376000DFBE8CCF89EC8ACFEF92FF920F931F932D
:10377000CF93DF938C01892B09F44CC00E94BE17B4
:10378000DFB7F894F801228133818217930751F053
:10379000DFBFCFEC8C2FDF91CF911F910F91FF9066
:1037A000EF900895F801C481C150C483C1112FC0A6
:1037B0001382128280819181892B39F1C8010E9484
:1037C00016187C01BC018BE496E00E94CC17C82F30
:1037D000882319F0DFBFCCECDDCFF7011686F801A6
:1037E000F382E282F70187859089009741F4F7011F
:1037F000108A1786DFBF80E00E949318CBCF0E940B
:10380000401C8823A1F3CDECF5CFDFBFC3CFDFBFD2
:10381000C0E0C0CFC9ECBECFCF93009751F0CFB777
:10382000F894FC01608171818BE496E00E94CC17D2
:10383000CFBFCF910895FC01892B01F18081918147
:10384000892BE1F084819581A681B781892B8A2B10
:103850008B2BA1F02FB7F8948091660690916706A4
:10386000009749F411861086F0936706E093660688
:103870002FBF80E0089591878087F6CF89EC089567
:10388000BC01892B29F15FB7F8942091660630912D
:103890006706F901D901309711F48EEC0DC040850F
:1038A0009185E617F70781F4E217F30739F440939F
:1038B00066069093670680E05FBF089518964C9364
:1038C000189719969C93F7CFDF01E42FF92FE3CFD8
:1038D00089EC089560916206709163068091640698
:1038E00090916506089560936206709363068093D5
:1038F00064069093650608950F931F93CF93DF930B
:1039000080914A068823D1F08091620690916306E7
:10391000A0916406B09165060196A11DB11D80932A
:10392000620690936306A0936406B09365060091C7
:10393000660610916706E801209729F4DF91CF9180
:103940001F910F9108958C819D81AE81BF81019758
:10395000A109B1098C839D83AE83BF83892B8A2BF8
:103960008B2BE1F420916606309167068885998556
:10397000C217D30779F49093670680936606E881AF
:10398000F981309719F08A819B8109950884D9853E
:10399000C02DD2CFF80191878087F1CF8E01F6CF6D
:1039A000CF92DF92EF92FF920F931F93CF93DF930B
:1039B000CDB7DEB72C970FB6F894DEBF0FBECDBFE4
:1039C0006B017C010E94BE17FC01C114D104E1040B
:1039D000F10491F1892B91F10FB7F89481E085877B
:1039E000FC87EB878CE09CE19A838983CE010B9660
:1039F0009C838B83CD82DE82EF82F8860A97908B40
:103A000087870E941B1C182F0FBF882389F01DEC8D
:103A1000812F2C960FB6F894DEBF0FBECDBFDF917D
:103A2000CF911F910F91FF90EF90DF90CF9008956D
:103A300080E00E949318ECCF19ECEACF18ECE8CFA5
:103A40001F93CF93DF93EC01892BA1F01FB7F8945C
:103A50006881798182E0FB018687108A17868C81D4
:103A60009D810E943518688179818BE496E00E94DF
:103A7000CC171FBFDF91CF911F910895CF92DF9296
:103A8000EF92FF920F931F93CF93DF93EC01CB0143
:103A90006C817D812A893B89620F731F4E815F8112
:103AA0000E94332A2E813F8148855985CA88DB8848
:103AB000EC88FD88C20ED31EE41EF51ECA8ADB8A7E
:103AC000EC8AFD8A8E899F89A88DB98D0197A109FD
:103AD000B1098E8B9F8BA88FB98F6A857B858C856A
:103AE0009D850E943F27C616D706E806F90620F0F6
:103AF0001A8A1B8A1C8A1D8ACE010E9416188C0104
:103B0000009709F1BC018BE496E00E94CC17C82F06
:103B100081111BC0F801168687859089009769F48A
:103B2000F801108A17868C2FDF91CF911F910F918A
:103B3000FF90EF90DF90CF9008950E94401C882363
:103B400079F3CDECF0CFC0E0EECFCCECECCFCF9260
:103B5000DF92EF92FF920F931F93CF93DF93EC01CD
:103B60002C813D818E859F854E815F81820F931FC1
:103B70000E94332A2E813F8148855985CE84DF8477
:103B8000E888F988C20ED31EE41EF51ECE86DF86B5
:103B9000E88AF98A8E899F89A88DB98D0196A11D21
:103BA000B11D8E8B9F8BA88FB98F6A857B858C8585
:103BB0009D850E943F27C616D706E806F90620F025
:103BC0001E861F86188A198ACE0102960E94161830
:103BD0008C01009709F1BC018BE496E00E94CC17A0
:103BE000C82F81111BC0F801168687859089009720
:103BF00069F4F801108A17868C2FDF91CF911F91FD
:103C00000F91FF90EF90DF90CF9008950E94401C9D
:103C1000882379F3CDECF0CFC0E0EECFCCECECCF45
:103C2000EF92FF920F931F93FC01892B69F16115AD
:103C3000710551F1211531054105510529F1E114B5
:103C4000F1040105110501F175836483268337832F
:103C500040875187E286F386048715871182108298
:103C60001382128216861786108A118A128A138A84
:103C7000148A158A168A178A108E118E80E01F9179
:103C80000F91FF90EF90089589ECF9CFBF92CF92FA
:103C9000DF92EF92FF920F931F93CF93DF937C01FC
:103CA000009709F446C000E06C0182E0C80ED11C08
:103CB0008AECB82E1FB7F894C6010E941618EC01C2
:103CC000892B31F4C7010E941618EC01892B71F180
:103CD000BE86BE018BE496E00E94CC178823B1F02B
:103CE0001FBFCCEC013039F40E94BE17892B19F0AC
:103CF00080E00E9493188C2FDF91CF911F910F913C
:103D0000FF90EF90DF90CF90BF9008958F859889B6
:103D1000009749F00E94401C882319F01FBFCDEC8A
:103D2000E1CF188A1F861FBF01E0C4CF1FBFC0E0CC
:103D3000D9CFC9ECE0CF4F925F926F927F928F9272
:103D40009F92AF92BF92CF92DF92EF92FF920F932A
:103D50001F93CF93DF93CDB7DEB760970FB6F8947C
:103D6000DEBF0FBECDBF6C012A013B015901009798
:103D700009F494C02115310509F490C00FB7F894E7
:103D8000FC0186899789A08DB18D892B8A2B8B2B7D
:103D900009F076C077FD71C00E94BE177C010097C4
:103DA00009F468C04601F2E08F0E911CBC01C40109
:103DB0000E94CC17182F81115AC081E0F701858726
:103DC000411451046104710409F44DC0FC86EB8672
:103DD000DE86CD86988A8F8680E29DE19A838983EC
:103DE000CE010B969C838B834D825E826F82788698
:103DF0000A97908B87870E941B1C182F882349F0F5
:103E0000B701C4010E943518F7011586108A17867C
:103E10001DEC0FBF11110FC080E00E949318F70135
:103E20001685111108C00FB7F894B501C6010E949C
:103E30003E1D182F0FBF812F60960FB6F894DEBF7E
:103E40000FBECDBFDF91CF911F910F91FF90EF90EB
:103E5000DF90CF90BF90AF909F908F907F906F90AA
:103E60005F904F900895F701108A1786D2CF0FBF49
:103E70001CECE1CF0FBF18ECDECF0FBF13E0DBCFA0
:103E8000B901C6010E943E1D182F0FBF0E94BE1728
:103E9000892B89F280E00E949318CDCF19ECCBCF0B
:103EA0004F925F926F927F92AF92BF92CF92DF92CA
:103EB000EF92FF920F931F93CF93DF93CDB7DEB7AF
:103EC00060970FB6F894DEBF0FBECDBF6C012A011C
:103ED0003B015901009709F493C02115310509F4FC
:103EE0008FC00FB7F894FC0146895789608D718D9A
:103EF00082859385A485B585481759076A077B078E
:103F000009F070C077FC6BC00E94BE177C0100975F
:103F100009F462C0BC01C6010E94CC17182F8111A0
:103F200058C081E0F7018587411451046104710490
:103F300009F44BC0FC86EB86DE86CD86D88ACF8618
:103F400080E29DE19A838983CE010B969C838B83CB
:103F50004D825E826F8278860A97908B87870E9457
:103F60001B1C182F882349F0B701C6010E94351881
:103F7000F7011586108A17861DEC0FBF11110FC0AF
:103F800080E00E949318F7011685111108C00FB741
:103F9000F894B501C6010E94A71D182F0FBF812FED
:103FA00060960FB6F894DEBF0FBECDBFDF91CF9104
:103FB0001F910F91FF90EF90DF90CF90BF90AF9047
:103FC0007F906F905F904F900895F701108A178649
:103FD000D4CF0FBF1CECE3CF0FBF18ECE0CF0FBF67
:103FE00013E0DDCFB901C6010E94A71D182F0FBF36
:103FF0000E94BE17892B99F280E00E949318CFCFC0
:1040000019ECCDCF0E94BE177894009771F0DC01B7
:104010001396ED91FC911497309739F015966D91A8
:104020007D918D919C9118970994089522E030E23A
:10403000FB012083319730833197108231971082B2
:104040003197108231971082319710823197108208
:1040500031971082319710823197108231971082F8
:1040600031971082319710823197108231971082E8
:1040700031971082319710823197108231971082D8
:1040800064517109FC0171836083089586E891E0B1
:10409000909389008093880082E080936F008CE089
:1040A0008093810008951F920F920FB60F921124F2
:1040B0000BB60F922F933F934F935F936F937F9322
:1040C0008F939F93AF93BF93EF93FF930E94B41787
:1040D0000E947C1C81E00E945119FF91EF91BF91D9
:1040E000AF919F918F917F916F915F914F913F9190
:1040F0002F910F900BBE0F900FBE0F901F90189531
:104100001F920F920FB60F9211240F900FBE0F90B7
:104110001F9018958AE28093B8008FEF8093BB00C0
:1041200084E08093BC0008958091BC008170089564
:104130008091BC0080FDFCCF80910001089520910A
:10414000BC0020FDFCCF60936A06FC012081209317
:104150006B0620FF09C01092680688EF809300016B
:1041600085EA8093BC000895FC013196ACE6B6E088
:1041700081E0861780F791919D938F5FFACF8091B0
:10418000BC0080FDFCCF1092680688EF8093000190
:1041900085EA8093BC0008952091BC0020FDFCCFEF
:1041A0002091680620FD04C0809168068170089502
:1041B000ABE6B6E0282FFC018E2F821B8617A0F7F6
:1041C0008D918193F9CF1F920F920FB60F92112408
:1041D0000BB60F922F933F938F939F93EF93FF9381
:1041E0008091B900883249F0D0F4803121F08831D3
:1041F00021F08830D1F410926906E091690680912F
:104200006A06E81720F581E08E0F80936906F0E0DA
:10421000E559F94F80818093BB0085E836C0803432
:1042200049F148F4883309F43FC08091B900809384
:10423000000184E02AC0803589F08835B1F780918B
:10424000BB00E0916906F0E0E559F94F8083809169
:10425000680681608093680684E917C0E09169066A
:1042600081E08E0F809369068091BB00F0E0E559F4
:10427000F94F80832091690630E080916A0690E0D2
:104280000197281739074CF685EC8093BC00FF9105
:10429000EF919F918F913F912F910F900BBE0F90B7
:1042A0000FBE0F901F90189585EAEFCF0E940E2742
:1042B000882341F00E94C5268091D80082608093B7
:1042C000D80081E008950F931F93CF93DF9300D020
:1042D00000D0CDB7DEB78C01DC0111968D919C9199
:1042E00012970C97F1F41A968C911A97803669F40C
:1042F0008C918295807F8093ED008091EF008F7389
:104300008093EF001092EE001C92F801128680E07C
:104310000F900F900F900F90DF91CF911F910F9101
:1043200008950E94D2268F3F09F4A4C490E6D801D4
:104330001A969C931A978C938295807F8093ED00B8
:10434000EEEEF0E01192E83FF105E1F7D8011196A9
:10435000ED91FC9112973197EB30F10508F086C48E
:10436000EC54FE4D0C94D227FD216622D422372333
:104370006923A123DC237224F024BF21932580E04C
:10438000F8019781891708F4C2C319821A821B8227
:104390001C821092F7008B81880F880F880F9A81FA
:1043A000929596959770890F8093F6008A81880F71
:1043B000880F880F9981929596959770890F8093B1
:1043C000F5008981880F880F880F8093F400809111
:1043D000EF009781892B8093EF0081E083878091A4
:1043E000F40084608093F4008091F00084608093F6
:1043F000F0008091EF008062DCC1F80184858823A1
:1044000009F43FC08681880F880F880F95819295A7
:1044100096959770890F8093F3008581880F880F98
:10442000880F9481929596959770890F8093F200EA
:104430008481880F880F880F938192959695977045
:10444000890F8093F1008381880F880F880F8093F4
:10445000F0008091EF0080618093EF0080E0F80130
:104460009781891718F18385882361F18091F00085
:1044700084608093F0008091EF00D80117969C91A2
:1044800064C084818295880F807E938196959695ED
:104490009695890F8093F30083818295880F807EA3
:1044A0008093F2008091EF008F7ED6CFD8011896CE
:1044B000ED91FC911997E80FF11D90819093FA000E
:1044C0008F5FCDCF8091F0008B7FD3CFF8018485B3
:1044D000882309F448C08681880F880F880F95814A
:1044E000929596959770890F8093F3008581880F38
:1044F000880F880F9481929596959770890F809375
:10450000F2008481880F880F880F93819295969589
:104510009770890F8093F1008381880F880F880F2F
:104520008093F0008091EF0080618093EF0080E045
:10453000F8019781891760F113868091F0008B7FD5
:104540008093F0008091EF009781892B8093EF009A
:104550008091EF008F738093EF008091EF00806473
:104560008093EF00D4CE84818295880F807E9381E2
:10457000969596959695890F8093F3008381829501
:10458000880F807E8093F2008091EF008F7ECDCFE8
:10459000D8011896ED91FC911997E80FF11D9081C3
:1045A0009093FA008F5FC4CFD8011C968C911C9712
:1045B000882309F446C016968C911697880F880FA9
:1045C000880F15969C911597929596959770890FDF
:1045D0008093F30015968C911597880F880F880F9C
:1045E00014969C911497929596959770890F809345
:1045F000F20014968C911497880F880F880F1396E9
:104600009C911397929596959770890F8093F100DE
:1046100013968C91880F880F880F8093F0008091FB
:10462000EF0080618093EF0081E0D8011B968C93AE
:104630001B978091F00084608093F0008091EF00E0
:104640001DCFF80184818295880F807E9381969595
:1046500096959695890F8093F30083818295880FB4
:10466000807E8093F2008091EF008F7EDBCF1982F5
:104670001A821B821C821092F7008B81880F880F90
:10468000880F9A81929596959770890F8093F6007E
:104690008A81880F880F880F9981929596959770D7
:1046A000890F8093F5008981880F880F880F809388
:1046B000F4008091EF00F8019781892B8093EF003F
:1046C0008091F4008B7F8093F4008091F4008E7FC2
:1046D000E8C019821A821B821C821092F7008B811B
:1046E000880F880F880F9A81929596959770890FF9
:1046F0008093F6008A81880F880F880F99819295A0
:1047000096959770890F8093F5008981880F880F9F
:10471000880F8093F4008091EF00D80117969C9148
:104720001797892B8093EF001B961C928091F400C1
:1047300084608093F4008091F0008B7F8093F00080
:10474000C4CF19821A821B821C821092F7008B81BF
:10475000880F880F880F9A81929596959770890F88
:104760008093F6008A81880F880F880F998192952F
:1047700096959770890F8093F5008981880F880F2F
:10478000880F8093F4008091EF00F8019781892BC6
:104790008093EF0081E083878091F40084608093B0
:1047A000F4008091F00084608093F0008091EF002D
:1047B0008F7D8093EF0089CFD8011C968C911C9738
:1047C000882309F479C016968C911697880F880F64
:1047D000880F15969C911597929596959770890FCD
:1047E0008093F30015968C911597880F880F880F8A
:1047F00014969C911497929596959770890F809333
:10480000F20014968C911497880F880F880F1396D6
:104810009C911397929596959770890F8093F100CC
:1048200013968C91880F880F880F8093F0008091E9
:10483000EF0080618093EF008FEF9FEFDC018983B1
:104840009A83AB83BC838093F7008B81880F880F9A
:10485000880F9A81929596959770890F8093F600AC
:104860008A81880F880F880F998192959695977005
:10487000890F8093F5008981880F880F880F8093B6
:10488000F4008091EF00D80117969C91892B8093BA
:10489000EF008091F4008B7F8093F4008091F4000E
:1048A00081608093F4008091EF008F738093EF001C
:1048B0008091EF00806854CEF80184818295880F42
:1048C000807E9381969596959695890F8093F300B7
:1048D00083818295880F807E8093F2008091EF0023
:1048E0008F7EA8CFF8018485882309F464C086816F
:1048F000880F880F880F9581929596959770890FEC
:104900008093F3008581880F880F880F948192959A
:1049100096959770890F8093F2008481880F880F95
:10492000880F9381929596959770890F8093F100E7
:104930008381880F880F880F8093F0008091EF00AB
:1049400080618093EF008FEF9FEFDC0189839A8372
:10495000AB83BC838093F7008B81880F880F880F0F
:104960009A81929596959770890F8093F6008A8127
:10497000880F880F880F9981929596959770890F67
:104980008093F5008981880F880F880F8093F40049
:104990008091EF00F8019781892B8093EF001386B7
:1049A0008091F40084608093F4008091F0008B7F0C
:1049B0008093F00073CF84818295880F807E9381ED
:1049C000969596959695890F8093F30083818295AD
:1049D000880F807E8093F2008091EF008F7EB1CFB0
:1049E000D8011C968C911C97882309F47AC01696DE
:1049F0008C911697880F880F880F15969C911597A4
:104A0000929596959770890F8093F30015968C91E7
:104A10001597880F880F880F14969C91149792957C
:104A200096959770890F8093F20014968C91149745
:104A3000880F880F880F13969C91139792959695DF
:104A40009770890F8093F10013968C91880F880FCF
:104A5000880F8093F0008091EF0080618093EF00D9
:104A60008FEF9FEFDC0189839A83AB83BC838093B4
:104A7000F7008B81880F880F880F9A819295969501
:104A80009770890F8093F6008A81880F880F880FAE
:104A90009981929596959770890F8093F5008981F9
:104AA000880F880F880F8093F4008091EF00D80161
:104AB00017969C911797892B8093EF0081E01B96A6
:104AC0008C938091F40084608093F4008091F000D6
:104AD00084608093F0008091EF008F7D8093EF00E1
:104AE000DDCEF80184818295880F807E9381969532
:104AF00096959695890F8093F30083818295880F10
:104B0000807E8093F2008091EF008F7EA7CFD80146
:104B10001896ED91FC911997E80FF11D90819093F3
:104B2000FA008F5F2DCCD8011C968C911C9788239E
:104B300009F47AC016968C911697880F880F880F03
:104B400015969C911597929596959770890F8093DD
:104B5000F30015968C911597880F880F880F14967F
:104B60009C911497929596959770890F8093F20077
:104B700014968C911497880F880F880F13969C9128
:104B80001397929596959770890F8093F1001396DD
:104B90008C91880F880F880F8093F0008091EF0030
:104BA00080618093EF0080E0F8019781891708F415
:104BB00051C08FEF9FEFDC0189839A83AB83BC8365
:104BC0008093F7008B81880F880F880F9A819295C8
:104BD00096959770890F8093F6008A81880F880FC9
:104BE000880F9981929596959770890F8093F5001B
:104BF0008981880F880F880F8093F4008091EF00DF
:104C00009781892B8093EF0081E083878091F40066
:104C100084608093F4008091F00084608093F000C1
:104C20008091EF0080625ACFF80184818295880FCD
:104C3000807E9381969596959695890F8093F30043
:104C400083818295880F807E8093F2008091EF00AF
:104C50008F7EA7CFD8011896ED91FC911997E80F98
:104C6000F11D90819093FA008F5F9ECFD8011A9624
:104C70001C924DCB9FE1F80192874ACB1F93CF93B3
:104C8000DF93EC018A858823D1F08F31C1F08F3F0B
:104C9000B1F088818295807F8093ED000E94E726A5
:104CA000182F803299F068F4882309F46CC01A87B1
:104CB0008091EF008F738093EF001092EE0082E0FE
:104CC0004CC0803409F440C0803A89F78091EF00ED
:104CD0008F708F83888599850E94FA268091F000D5
:104CE00082FB882780F98B878091EF0084FF39C091
:104CF00081E08C878091F3008695869586958E83DA
:104D00008091F2009091F300869586958695929514
:104D1000990F907E890F8D838091F1009091F20020
:104D20008695869586959295990F907E890F8C83AE
:104D30008091F0009091F1008695869586959295E8
:104D4000990F907E890F8B831A878091EF008F7364
:104D50008093EF001092EE0080E0DF91CF911F91E1
:104D600008951C868091F3008295869587708C83C8
:104D70008091F2009091F300829586958770990F4B
:104D8000990F990FDFCF81E0E8CF80E08093ED00AD
:104D9000EEEEF0E01192E83FF105E1F7805F80363A
:104DA000A9F708953091ED0090E080E09093ED0038
:104DB0002091EF00207C19F43093ED0008958F5F6F
:104DC000905F863099F73093ED008FEF08958091D2
:104DD000EF00807C69F09091EE00892F807E803218
:104DE00041F0803431F0803A21F0892F8F7108959D
:104DF0008FEF0895BC0190E02091EF00492F50E023
:104E00002F7030E0421753070CF008958091FA009C
:104E1000460F571FFA0180839F5FEECF81E080939A
:104E2000D80088E08093E2008CE08093E30087E381
:104E30008093E40081E00895681708F4682F862FB6
:104E4000089587E993E09EBF8DBF40E051E060E0A8
:104E500070E087E994E00E942919811108C00E943E
:104E600046200E943A17811102C00E945D198FEFFF
:104E700081B992B181E0911180E082B9FACFDB0172
:104E80008F939F930E94DB27BF91AF91A29F800DCC
:104E9000911DA39F900DB29F900D11240895991B11
:104EA00079E004C0991F961708F0961B881F7A9521
:104EB000C9F78095089587FB082E062687FD819502
:104EC00067FD61950E944F270EF4919507FC81952F
:104ED0000895AA1BBB1B51E107C0AA1FBB1FA61741
:104EE000B70710F0A61BB70B881F991F5A95A9F793
:104EF00080959095BC01CD01089597FB072E16F47F
:104F0000009407D077FD09D00E94692707FC05D0DF
:104F10003EF4909581959F4F0895709561957F4FD0
:104F20000895A1E21A2EAA1BBB1BFD010DC0AA1FEA
:104F3000BB1FEE1FFF1FA217B307E407F50720F002
:104F4000A21BB30BE40BF50B661F771F881F991F7D
:104F50001A9469F760957095809590959B01AC01C6
:104F6000BD01CF010895052E97FB1EF400940E9409
:104F7000CA2757FD07D00E94912707FC03D04EF4A3
:104F80000C94CA2750954095309521953F4F4F4F2F
:104F90005F4F089590958095709561957F4F8F4FE5
:104FA0009F4F0895EE0FFF1F0024001C0BBE0790BB
:104FB000F691E02D09940E94E627A59F900DB49FDD
:104FC000900DA49F800D911D11240895A29FB00102
:104FD000B39FC001A39F700D811D1124911DB29F2D
:104FE000700D811D1124911D08955058BB27AA27CB
:104FF0000E940D280C9487290E94792938F00E947C
:10500000802920F039F49F3F19F426F40C94762976
:105010000EF4E095E7FB0C947029E92F0E94982983
:1050200058F3BA17620773078407950720F079F4DD
:10503000A6F50C94BA290EF4E0950B2EBA2FA02DEC
:105040000B01B90190010C01CA01A0011124FF2735
:10505000591B99F0593F50F4503E68F11A16F04030
:10506000A22F232F342F4427585FF3CF469537952F
:105070002795A795F0405395C9F77EF41F16BA0BF4
:10508000620B730B840BBAF09150A1F0FF0FBB1FA2
:10509000661F771F881FC2F70EC0BA0F621F731FEB
:1050A000841F48F4879577956795B795F7959E3F48
:1050B00008F0B0CF9395880F08F09927EE0F9795D9
:1050C000879508950E944C2908F481E008950E9474
:1050D0007B280C9487290E94802958F00E94792906
:1050E00040F029F45F3F29F00C94702951110C9481
:1050F000BB290C9476290E94982968F39923B1F36F
:10510000552391F3951B550BBB27AA2762177307ED
:10511000840738F09F5F5F4F220F331F441FAA1F81
:10512000A9F335D00E2E3AF0E0E832D0915050403D
:10513000E695001CCAF72BD0FE2F29D0660F771FEB
:10514000881FBB1F261737074807AB07B0E809F0D1
:10515000BB0B802DBF01FF2793585F4F3AF09E3F56
:10516000510578F00C9470290C94BB295F3FE4F34F
:10517000983ED4F3869577956795B795F7959F5F99
:10518000C9F7880F911D9695879597F90895E1E0E5
:10519000660F771F881FBB1F621773078407BA0744
:1051A00020F0621B730B840BBA0BEE1F88F7E0959F
:1051B00008950E94E0286894B1110C94BB290895C9
:1051C0000E94A02988F09F5798F0B92F9927B751CE
:1051D000B0F0E1F0660F771F881F991F1AF0BA959B
:1051E000C9F714C0B13091F00E94BA29B1E0089516
:1051F0000C94BA29672F782F8827B85F39F0B93F08
:10520000CCF3869577956795B395D9F73EF490954D
:105210008095709561957F4F8F4F9F4F0895E894CB
:1052200009C097FB3EF490958095709561957F4FEE
:105230008F4F9F4F9923A9F0F92F96E9BB2793959C
:10524000F695879577956795B795F111F8CFFAF4AC
:10525000BB0F11F460FF1BC06F5F7F4F8F4F9F4FDD
:1052600016C0882311F096E911C0772321F09EE83B
:10527000872F762F05C0662371F096E8862F70E0A1
:1052800060E02AF09A95660F771F881FDAF7880F7B
:105290009695879597F90895990F0008550FAA0BD1
:1052A000E0E8FEEF16161706E807F907C0F0121639
:1052B0001306E407F50798F0621B730B840B950B3C
:1052C00039F40A2661F0232B242B252B21F4089591
:1052D0000A2609F4A140A6958FEF811D811D08952E
:1052E00097F99F6780E870E060E008959FEF80EC99
:1052F000089500240A94161617061806090608953C
:1053000000240A9412161306140605060895092EA1
:105310000394000C11F4882352F0BB0F40F4BF2B10
:1053200011F460FF04C06F5F7F4F8F4F9F4F089550
:1053300057FD9058440F551F59F05F3F71F0479546
:10534000880F97FB991F61F09F3F79F0879508952B
:10535000121613061406551FF2CF4695F1DF08C04A
:10536000161617061806991FF1CF86957105610567
:1053700008940895E894BB2766277727CB0197F90F
:1053800008950E944C2908F48FEF08950E94D929AE
:105390000C9487290E94792938F00E94802920F0F6
:1053A000952311F00C9470290C94762911240C94F7
:1053B000BB290E94982970F3959FC1F3950F50E087
:1053C000551F629FF001729FBB27F00DB11D639FB7
:1053D000AA27F00DB11DAA1F649F6627B00DA11D5D
:1053E000661F829F2227B00DA11D621F739FB00D03
:1053F000A11D621F839FA00D611D221F749F332773
:10540000A00D611D231F849F600D211D822F762F0B
:105410006A2F11249F5750409AF0F1F088234AF0E8
:10542000EE0FFF1FBB1F661F771F881F9150504054
:10543000A9F79E3F510580F00C9470290C94BB296C
:105440005F3FE4F3983ED4F3869577956795B795DB
:10545000F795E7959F5FC1F7FE2B880F911D9695F5
:10546000879597F90895FB01DC0102C001900D9228
:1054700041505040D8F70895BB274A3031F4992362
:1054800022F4BDE2909581959F4F0C94482ABB274A
:10549000FB015527AA27880F991FAA1FA41710F0F0
:1054A000A41B83955051B9F7A05DAA3308F0A95DFC
:1054B000A193009779F7B111B1931192CB010C949C
:1054C000BC2C0F931F93CF93DF93CDB7DEB72E97EE
:1054D0000FB6F894DEBF0FBECDBF0D891E8986E0E2
:1054E0008C831A8309838FEF9FE79E838D83AE01A0
:1054F000475E5F4F6F89788DCE0101960E94912A99
:105500002F813885020F131FF80110822E960FB6D7
:10551000F894DEBF0FBECDBFDF91CF911F910F91E9
:1055200008952F923F924F925F926F927F928F9247
:105530009F92AF92BF92CF92DF92EF92FF920F9322
:105540001F93CF93DF93CDB7DEB72B970FB6F894A9
:10555000DEBF0FBECDBF7C013B018A01FC0117827B
:105560001682838181FFEFC1CE0101965C01F701B4
:105570009381F30193FD859193FF81913F018823EE
:1055800009F42FC1853239F493FD859193FF819100
:105590003F01853229F4B70190E00E94CC2CE7CF7F
:1055A000912C212C312CFFE1F31538F08B32D9F0FE
:1055B00090F48032D9F0833249F137FC41C020EDBC
:1055C000280F2A3070F536FE24C08AE0989E200D00
:1055D0001124922E0EC08D32A9F0803371F7232D45
:1055E0002160322E06C0832D8260382EE32DE460C8
:1055F0003E2EF30193FD859193FF81913F0181112F
:10560000D2CF1EC0F32DF8603F2EF3CF232D2061A3
:10561000E8CFEAE02E9E200D1124222EF32DF06219
:10562000F3CF8E3229F436FCDCC0232D2064D9CF91
:105630008C3621F4832D8068382EDBCF8836C9F272
:10564000982F9F7D95549330D8F08336C9F18337D6
:10565000E9F1833509F068C0280122E0420E511CAF
:10566000F801C080D18036FE45C0692D70E0C601CA
:105670000E94A62C4C01F32DF0683F2E82010BC036
:105680000C5F1F4F9FE3998388248394912C6501BD
:10569000F32DFF773F2E33FC05C0822D90E0881656
:1056A000990658F1522C8114910471F5552009F492
:1056B0005ECFB70180E290E00E94CC2C5A94F6CFE6
:1056C000F801808189830E5F1F4FDECF2801F2E051
:1056D0004F0E511CF801C080D18036FE08C0692DE4
:1056E00070E0C6010E94B12C4C018201D1CF6FEF56
:1056F0007FEFF7CF6FEF7FEFBACFB70180E290E097
:105700000E94CC2C2A94C9CFF60137FC859137FE34
:1057100081916F01B70190E00E94CC2C51105A94F6
:1057200021E0821A9108BFCF843611F08936C1F585
:10573000F80137FE2CC060817181828193810C5FFA
:105740001F4FF32DFF763F2E97FF09C09095809550
:10575000709561957F4F8F4F9F4FF0683F2E2AE0E5
:1057600030E0A5010E94FC2CC82ECA1836FE77C076
:10577000232D2E7F422EC91408F0B0C034FE05C080
:1057800032FC03C0832D8E7E482E892C6AC0608136
:105790007181072E000C880B990B0E5F1F4FD1CF24
:1057A0008537B9F4232D2F7ED22E2AE030E0F80180
:1057B000D7FE4EC060817181828193810C5F1F4F43
:1057C000A5010E94FC2CC82ECA18FD2DFF773F2E84
:1057D000CDCF932D997FD92E8F36B9F1F0F488353E
:1057E00061F1F701868197812B960FB6F894DEBFA1
:1057F0000FBECDBFDF91CF911F910F91FF90EF9022
:10580000DF90CF90BF90AF909F908F907F906F90E0
:105810005F904F903F902F900895803751F08837D8
:1058200001F7D4FE03C0FD2DF460DF2E20E130E04F
:10583000BECFE92FE061DE2EF4CF34FE03C0292F66
:105840002660D22E20E132E0B2CF28E030E0AFCFA8
:105850006081718180E090E00E5F1F4FB1CF8C2C92
:10586000432C44FE44C0FE01EC0DF11D80818033C9
:10587000B9F5942D997E492EE42DE8705E2E43FCF7
:1058800044C040FE3EC0821408F044C02C0C922C50
:10589000981844FE44C0B70180E390E00E94CC2CED
:1058A00042FE07C041FC38C088E790E0B7010E9483
:1058B000CC2CC91408F440C0CA94D12CFFEFCF1AE5
:1058C000DF0ACA0CDB1CF60182916F01B70190E080
:1058D0000E94CC2CAC14BD04B1F7E8CE8C2CC1CF07
:1058E00042FC02C08394C8CF83948394C5CF842D97
:1058F000867811F2F7CFB70180E290E00E94CC2CBD
:1059000083948214C0F3512CC4CF8214E0F7522C3C
:105910005818BFCF9C2CBDCF88E590E0C7CF842D11
:10592000867839F241FE06C08BE247FC8DE2B70172
:1059300090E0BDCF80E2F9CFB70180E390E00E9414
:10594000CC2C9A94B6CF8FEF9FEF4ECFFC010590F1
:10595000615070400110D8F7809590958E0F9F1F71
:105960000895FC016150704001900110D8F78095B6
:1059700090958E0F9F1F0895DC01FC01672F719198
:105980007723E1F7329704C07C916D937083629125
:10599000AE17BF07C8F308950F931F93CF93DF93FC
:1059A000182F092FEB018B8181FD09C01FEF0FEF2D
:1059B000812F902FDF91CF911F910F91089582FF3A
:1059C00014C02E813F818C819D81281739073CF4BA
:1059D000E881F981CF0101969983888310838E81B4
:1059E0009F8101969F838E83E3CFE885F985812F80
:1059F0000995892BA1F3DACFFA01AA27283051F1B2
:105A0000203181F1E8946F936E7F6E5F7F4F8F4FEF
:105A10009F4FAF4FB1E03ED0B4E03CD0670F781F4E
:105A2000891F9A1FA11D680F791F8A1F911DA11D33
:105A30006A0F711D811D911DA11D20D009F468946C
:105A40003F912AE0269F11243019305D3193DEF614
:105A5000CF010895462F4770405D4193B3E00FD0CA
:105A6000C9F7F6CF462F4F70405D4A3318F0495DB5
:105A700031FD4052419302D0A9F7EACFB4E0A69598
:105A80009795879577956795BA95C9F700976105BA
:105A9000710508959B01AC010A2E06945795479510
:105AA00037952795BA95C9F7620F731F841F951F05
:105AB000A01D0895F999FECF92BD81BDF89A99274E
:105AC00080B50895A8E1B0E042E050E00C947C2D50
:105AD000262FF999FECF92BD81BD20BD0FB6F89457
