:100000000C944A000C9469000C9469000C946900EB
:100010000C9469000C9469000C9469000C946900BC
:100020000C9469000C9469000C9469000C946900AC
:100030000C943F0A0C9469000C9469000C946900BC
:100040000C9469000C9469000C9469000C9469008C
:100050000C9469000C9469000C9469000C9469007C
:100060000C9469000C9469000C9469000C9469006C
:100070000C9469000C9469000C9469000C9469005C
:100080000C9469000C9469000C9469000C94CF0ADC
:100090000C94690011241FBECFEFD0E1DEBFCDBFAD
:1000A00011E0A0E0B1E0E2EDF2E200E00BBF02C03F
:1000B00007900D92A234B107D9F727E0A2E4B1E08E
:1000C00001C01D92A830B207E1F70E940D110C94F7
:1000D00067110C946C0A83E097E00E94B6040E94BA
:1000E000760A40E050E0BA0183E097E00E940805FC
:1000F00064E670E080E090E00E94BC0683E097E058
:100100000C94A0051F93CF93DF9300D000D01F92D3
:10011000CDB7DEB7182F40E050E0BA0183E097E09A
:100120000E94080585E58983812F807F8A8328E0E6
:100130002B8330E1139FC00111248C832D8365E054
:10014000CE0101960E948B0A83E097E00E94A005F1
:100150000F900F900F900F900F90DF91CF911F9104
:10016000089584B1887F84B985B1876085B9089581
:100170000E94B10062E370E080E090E00E94BC0663
:10018000C1E01A9909C0C09302076EE170E080E0F7
:1001900090E00E94BC06F5CF199903C0C093FB06FE
:1001A000F4CF1899EECFC093CB06EFCFCF93DF9368
:1001B00000D000D0CDB7DEB70E94760A8091010151
:1001C00090910201A0910301B091040189839A8367
:1001D000AB83BC8364E0CE0101960E948B0A64E687
:1001E00070E080E090E00E94BC060E94AB0AF7CF6E
:1001F000139A81B1896381B91092D60608950E943D
:10020000F80091E080B182FB882780F989278093EC
:10021000D6062091DD063091DE062630310521F428
:1002200013988091D606EECF139AECCF87B18E60EB
:1002300087B9269A85B1806585B908950E9416010F
:100240001C99429A1D99439A08950895AF92BF92BE
:10025000CF92DF92EF92FF920F931F93CF93DF9392
:10026000C5E0D1E0AB84BC84CD84DE84E984FA842B
:100270000D811E812F8138854B815C816A81888147
:1002800099810E94C602811105C02F9691E0C13468
:10029000D90741F7DF91CF911F910F91FF90EF9018
:1002A000DF90CF90BF90AF9008952F923F924F92E2
:1002B0005F926F927F928F929F92AF92BF92CF92F6
:1002C000DF92EF92FF920F931F93CF93DF930DB7BF
:1002D0001EB7C82FD92F08831983C62FD72F08819F
:1002E00019810DBF1EBFDF91CF911F910F91FF901C
:1002F000EF90DF90CF90BF90AF909F908F907F90C6
:100300006F905F904F903F902F900895C82FD92FF6
:10031000088119810DBF1EBFDF91CF911F910F91F1
:10032000FF90EF90DF90CF90BF90AF909F908F9015
:100330007F906F905F904F903F902F901895FFCFD8
:100340008091A9069091AA0601969093AA0680939F
:10035000A90608958091A9069091AA06892B29F4EF
:100360008091BC069091BD06089580E090E00895CC
:10037000CF93DF93FB01009759F1309749F1DC01EE
:10038000CD91DC91DE019E01109731F112965C91C6
:10039000129742814517B0F4CA17DB0739F5DC0123
:1003A000ED93FC9312861186D487C387FA87E98779
:1003B00080E00FC03287218714861386E901FC870D
:1003C000EB87F6CF9D011B960D90BC91A02DDCCF45
:1003D00089ECDF91CF910895CD2B61F7DC01ED938E
:1003E000FC931286118614861386E2CF328721870A
:1003F000B487A387E901FC87EB871A96FC93EE93F9
:100400001997D6CFCF93DF930097C1F0DC01ED9120
:10041000FC91309779F0A385B485EC01B983A8836A
:10042000109721F01A961C921E9219971286118627
:1004300014861386CF01DF91CF910895E0E0F0E0BC
:10044000F9CFCF93DF93AC01FB010097A9F1DC0159
:100450002D913C912115310579F1D901E901EA1776
:10046000FB0709F5A385B4852E173F0789F4EA0138
:10047000B983A883109721F01A961C921E9219979F
:100480001486138612861186CF01DF91CF910895CD
:10049000BC87AB87A385B485109791F31A96DC933C
:1004A000CE931997EDCF1B968D919C911C97ED01E2
:1004B000009759F3DC01D3CF80E090E0E6CFCF93F3
:1004C000DF930097C9F0DC01ED91FC91309781F04A
:1004D0002281621788F0A385B485EC01B983A883D3
:1004E000109731F01A961C921E9219971486138653
:1004F000CF01DF91CF910895E0E0F0E0F9CFFF92D6
:100500000F931F93CF93DF939091A6069923D1F079
:10051000FFB6F894C091BC06D091BD069D85913080
:10052000B9F487EA96E00E940202C817D90741F0A1
:100530009093BD068093BC06BC01CE010E9455017C
:100540001D86FFBEDF91CF911F910F91FF900895FF
:100550006A818130A9F487EA96E00E945F028C01EB
:10056000892B79F3BE0187EA96E00E94B801C01793
:10057000D10731F31093BD060093BC06B801DDCF5F
:100580006623F9F270E061507109E5CFAF92BF9236
:10059000CF92DF92EF92FF920F931F93CF93DF934F
:1005A000EC01009709F43FC041155105E1F1E11458
:1005B000F104C9F1AB28AC28AD28A9F11D866A83E6
:1005C0001A8619861C861B86188A1F865C834B83B5
:1005D0000D831E832F833887B7010E94020A1FB73D
:1005E000F894BE0187EA96E00E94B801C82F1FBFA9
:1005F000882369F0CCEC8C2FDF91CF911F910F9164
:10060000FF90EF90DF90CF90BF90AF9008958091D2
:10061000A606813081F70E94AA01892B61F380E050
:100620000E947F02E8CFC9ECE6CFAF92BF92CF9293
:10063000DF92EF92FF920F931F931092BD061092DC
:10064000BC061092A8061092A7061092A6065A01A0
:100650006B017C0100E010E098014FE951E06FEF81
:100660008BEA96E00E94C6021F910F91FF90EF90D7
:10067000DF90CF90BF90AF9008952091A906309160
:10068000AA06215031093093AA062093A9060C949A
:100690007F0281E08093A6066FEF87EA96E00E94D2
:1006A0005F02009731F09093BD068093BC060C94D6
:1006B000860108951F93CF93DF93EC01892BA1F05E
:1006C0001FB7F8946881798182E0FB018687108AE0
:1006D00017868A819B810E9421026881798187EA3D
:1006E00096E00E94B8011FBFDF91CF911F9108953E
:1006F000009731F0FC0162831182108280E008953E
:1007000089EC0895DF92EF92FF920F931F93CF939E
:10071000DF937C01892BD1F100E08AECD82E1FB742
:10072000F894C7010E940202EC01009761F1DE8695
:10073000BC0187EA96E00E94B8018823A1F01FBFA0
:10074000CCEC013039F40E94AA01892B19F080E029
:100750000E947F028C2FDF91CF911F910F91FF900C
:10076000EF90DF9008958F859889009749F00E9457
:100770002C06882319F01FBFCDECE3CF188A1F8603
:100780001FBF01E0CCCF1FBFC0E0DBCFC9ECE2CF81
:100790008F929F92AF92BF92DF92EF92FF920F9350
:1007A0001F93CF93DF93CDB7DEB72E970FB6F89494
:1007B000DEBF0FBECDBF7C014A015B01009709F48B
:1007C00068C0DFB6F894FC01828181115CC077FDBE
:1007D00057C00E94AA018C01009709F44EC0BC01C9
:1007E000C7010E94B8018823A1F0DFBE8CEC2E96D1
:1007F0000FB6F894DEBF0FBECDBFDF91CF911F9132
:100800000F91FF90EF90DF90BF90AF909F908F90EF
:10081000089591E0F801958781149104A104B10431
:1008200041F11C870B87FE86ED868AE593E09A836B
:100830008983CE010B969C838B838D829E82AF82AF
:10084000B8860A97908B87870E940706882349F00D
:10085000B801C7010E942102F8011586108A178687
:100860008DECDFBE8111C3CF0E947F02F801868527
:10087000BECFF801108A1786F4CFDFBE88ECB7CF61
:10088000DFBE83E0B4CF8150F7018283DFBE80E01A
:10089000AECF89ECACCF0F931F93CF93DF9300972C
:1008A000E9F1DFB7F894FC0120813181232B59F164
:1008B0000E9402028C01BC0187EA96E00E94B80106
:1008C000C82F882341F0DFBFCCEC8C2FDF91CF9174
:1008D0001F910F910895F8011686878590890097DA
:1008E00061F4F801108A1786DFBF0E94AA01892BE4
:1008F00061F380E00E947F02E8CF0E942C068823EB
:1009000081F3CDECF1CFFC0122812F3F29F02F5F45
:100910002283C0E0DFBFD9CFCBECFCCFC9ECD5CF71
:10092000009721F0FC01628380E0089589EC08952E
:100930001F93CF93DF93EC01892BA1F01FB7F8949D
:100940006881798182E0FB018687108A17868A8117
:100950009B810E9421026881798187EA96E00E944A
:10096000B8011FBFDF91CF911F910895FC01892B22
:1009700039F01382128214821182108280E008956D
:1009800089EC0895DF92EF92FF920F931F93CF931C
:10099000DF937C01892BD1F100E08AECD82E1FB7C0
:1009A000F894C7010E940202EC01009761F1DE8613
:1009B000BC0187EA96E00E94B8018823A1F01FBF1E
:1009C000CCEC013039F40E94AA01892B19F080E0A7
:1009D0000E947F028C2FDF91CF911F910F91FF908A
:1009E000EF90DF9008958F859889009749F00E94D5
:1009F0002C06882319F01FBFCDECE3CF188A1F8681
:100A00001FBF01E0CCCF1FBFC0E0DBCFC9ECE2CFFE
:100A10008F929F92AF92BF92DF92EF92FF920F93CD
:100A20001F93CF93DF93CDB7DEB72E970FB6F89411
:100A3000DEBF0FBECDBF7C014A015B01892B09F4EB
:100A40007DC00E94AA018C01DFB6F8940097A1F442
:100A5000DFBE88EC2E960FB6F894DEBF0FBECDBF7A
:100A6000DF91CF911F910F91FF90EF90DF90BF909A
:100A7000AF909F908F900895F701228133812115C7
:100A8000310509F44CC08217930709F448C0B7FC3C
:100A900043C0BC01C7010E94B801882319F0DFBE22
:100AA0008CECD8CF91E0F801958781149104A104D2
:100AB000B10471F11C870B87FE86ED8688E994E00E
:100AC0009A838983CE010B969C838B838D829E8231
:100AD000AF82B8860A97908B87870E940706882383
:100AE00049F0B801C7010E942102F8011586108A59
:100AF00017868DECDFBE8111ADCF0E947F02F80119
:100B000086858111A7CFF70194819F5F9483A2CF3F
:100B1000F801108A1786EECFDFBE83E09BCFF70186
:100B200084818F3F41F08F5F8483232B11F41383E3
:100B3000028380E001C08BECDFBE8CCF89EC8ACFD2
:100B4000EF92FF920F931F93CF93DF938C01892B2A
:100B500009F44CC00E94AA01DFB7F894F801228181
:100B600033818217930751F0DFBFCFEC8C2FDF91D9
:100B7000CF911F910F91FF90EF900895F801C481DC
:100B8000C150C483C1112FC0138212828081918110
:100B9000892B39F1C8010E9402027C01BC0187EA5D
:100BA00096E00E94B801C82F882319F0DFBFCCEC73
:100BB000DDCFF7011686F801F382E282F70187851F
:100BC0009089009741F4F701108A1786DFBF80E013
:100BD0000E947F02CBCF0E942C068823A1F3CDEC8C
:100BE000F5CFDFBFC3CFDFBFC0E0C0CFC9ECBECF02
:100BF000CF93009751F0CFB7F894FC0160817181D9
:100C000087EA96E00E94B801CFBFCF910895FC011A
:100C1000892B01F180819181892BE1F0848195817B
:100C2000A681B781892B8A2B8B2BA1F02FB7F89443
:100C30008091C2069091C306009749F411861086F0
:100C4000F093C306E093C2062FBF80E0089591871A
:100C50008087F6CF89EC0895BC01892B29F15FB715
:100C6000F8942091C2063091C306F901D90130975A
:100C700011F48EEC0DC040859185E617F70781F4DD
:100C8000E217F30739F44093C2069093C30680E05D
:100C90005FBF089518964C93189719969C93F7CFB9
:100CA000DF01E42FF92FE3CF89EC08956091BE06B0
:100CB0007091BF068091C0069091C106089560931F
:100CC000BE067093BF068093C0069093C106089538
:100CD0000F931F93CF93DF938091A6068823D1F0C3
:100CE0008091BE069091BF06A091C006B091C1064A
:100CF0000196A11DB11D8093BE069093BF06A093DF
:100D0000C006B093C1060091C2061091C306E80167
:100D1000209729F4DF91CF911F910F9108958C8135
:100D20009D81AE81BF810197A109B1098C839D830B
:100D3000AE83BF83892B8A2B8B2BE1F42091C206D3
:100D40003091C30688859985C217D30779F49093AB
:100D5000C3068093C206E881F981309719F08A8131
:100D60009B8109950884D985C02DD2CFF801918740
:100D70008087F1CF8E01F6CFCF92DF92EF92FF9274
:100D80000F931F93CF93DF93CDB7DEB72C970FB69A
:100D9000F894DEBF0FBECDBF6B017C010E94AA019B
:100DA000FC01C114D104E104F10491F1892B91F10A
:100DB0000FB7F89481E08587FC87EB8788EF95E093
:100DC0009A838983CE010B969C838B83CD82DE82AE
:100DD000EF82F8860A97908B87870E940706182F64
:100DE0000FBF882389F01DEC812F2C960FB6F89445
:100DF000DEBF0FBECDBFDF91CF911F910F91FF904E
:100E0000EF90DF90CF90089580E00E947F02ECCFBA
:100E100019ECEACF18ECE8CF1F93CF93DF93EC01E6
:100E2000892BA1F01FB7F8946881798182E0FB01DA
:100E30008687108A17868C819D810E942102688195
:100E4000798187EA96E00E94B8011FBFDF91CF91B8
:100E50001F910895CF92DF92EF92FF920F931F930D
:100E6000CF93DF93EC01CB016C817D812A893B8993
:100E7000620F731F4E815F810E945E112E813F8140
:100E800048855985CA88DB88EC88FD88C20ED31E48
:100E9000E41EF51ECA8ADB8AEC8AFD8A8E899F8948
:100EA000A88DB98D0197A109B1098E8B9F8BA88F51
:100EB000B98F6A857B858C859D850E942B11C6160E
:100EC000D706E806F90620F01A8A1B8A1C8A1D8AB2
:100ED000CE010E9402028C01009709F1BC0187EA51
:100EE00096E00E94B801C82F81111BC0F801168638
:100EF00087859089009769F4F801108A17868C2FEE
:100F0000DF91CF911F910F91FF90EF90DF90CF90E5
:100F100008950E942C06882379F3CDECF0CFC0E031
:100F2000EECFCCECECCFCF92DF92EF92FF920F930B
:100F30001F93CF93DF93EC012C813D818E859F859C
:100F40004E815F81820F931F0E945E112E813F812F
:100F500048855985CE84DF84E888F988C20ED31E7F
:100F6000E41EF51ECE86DF86E88AF98A8E899F897F
:100F7000A88DB98D0196A11DB11D8E8B9F8BA88F59
:100F8000B98F6A857B858C859D850E942B11C6163D
:100F9000D706E806F90620F01E861F86188A198AE9
:100FA000CE0102960E9402028C01009709F1BC0159
:100FB00087EA96E00E94B801C82F81111BC0F80192
:100FC000168687859089009769F4F801108A17863C
:100FD0008C2FDF91CF911F910F91FF90EF90DF90B9
:100FE000CF9008950E942C06882379F3CDECF0CFA2
:100FF000C0E0EECFCCECECCFEF92FF920F931F93BB
:10100000FC01892B69F16115710551F1211531053B
:101010004105510529F1E114F1040105110501F122
:10102000758364832683378340875187E286F386FE
:101030000487158711821082138212821686178602
:10104000108A118A128A138A148A158A168A178AB4
:10105000108E118E80E01F910F91FF90EF900895F8
:1010600089ECF9CFBF92CF92DF92EF92FF920F936C
:101070001F93CF93DF937C01009709F446C000E0F3
:101080006C0182E0C80ED11C8AECB82E1FB7F89410
:10109000C6010E940202EC01892B31F4C7010E94B3
:1010A0000202EC01892B71F1BE86BE0187EA96E04F
:1010B0000E94B8018823B1F01FBFCCEC013039F495
:1010C0000E94AA01892B19F080E00E947F028C2FD8
:1010D000DF91CF911F910F91FF90EF90DF90CF9014
:1010E000BF9008958F859889009749F00E942C063B
:1010F000882319F01FBFCDECE1CF188A1F861FBFD0
:1011000001E0C4CF1FBFC0E0D9CFC9ECE0CF4F9200
:101110005F926F927F928F929F92AF92BF92CF9287
:10112000DF92EF92FF920F931F93CF93DF93CDB790
:10113000DEB760970FB6F894DEBF0FBECDBF6C016F
:101140002A013B015901009709F494C0211531058A
:1011500009F490C00FB7F894FC0186899789A08D97
:10116000B18D892B8A2B8B2B09F076C077FD71C04E
:101170000E94AA017C01009709F468C04601F2E0D0
:101180008F0E911CBC01C4010E94B801182F81115F
:101190005AC081E0F701858741145104610471044C
:1011A00009F44DC0FC86EB86DE86CD86988A8F8654
:1011B0008CE097E09A838983CE010B969C838B8386
:1011C0004D825E826F8278860A97908B87870E9415
:1011D0000706182F882349F0B701C4010E94210295
:1011E000F7011586108A17861DEC0FBF11110FC06D
:1011F00080E00E947F02F7011685111108C00FB729
:10120000F894B501C6010E942A07182F0FBF812F3D
:1012100060960FB6F894DEBF0FBECDBFDF91CF91C1
:101220001F910F91FF90EF90DF90CF90BF90AF9004
:101230009F908F907F906F905F904F900895F701EF
:10124000108A1786D2CF0FBF1CECE1CF0FBF18EC6E
:10125000DECF0FBF13E0DBCFB901C6010E942A0722
:10126000182F0FBF0E94AA01892B89F280E00E94EB
:101270007F02CDCF19ECCBCF4F925F926F927F92CE
:10128000AF92BF92CF92DF92EF92FF920F931F9394
:10129000CF93DF93CDB7DEB760970FB6F894DEBF7C
:1012A0000FBECDBF6C012A013B015901009709F423
:1012B00093C02115310509F48FC00FB7F894FC01D4
:1012C00046895789608D718D82859385A485B58502
:1012D000481759076A077B0709F070C077FC6BC095
:1012E0000E94AA017C01009709F462C0BC01C601FA
:1012F0000E94B801182F811158C081E0F70185873D
:10130000411451046104710409F44BC0FC86EB865E
:10131000DE86CD86D88ACF868CE097E09A83898353
:10132000CE010B969C838B834D825E826F82788682
:101330000A97908B87870E940706182F882349F009
:10134000B701C6010E942102F7011586108A17868F
:101350001DEC0FBF11110FC080E00E947F02F7014A
:101360001685111108C00FB7F894B501C6010E9487
:101370009307182F0FBF812F60960FB6F894DEBF2A
:101380000FBECDBFDF91CF911F910F91FF90EF90D6
:10139000DF90CF90BF90AF907F906F905F904F9015
:1013A0000895F701108A1786D4CF0FBF1CECE3CF46
:1013B0000FBF18ECE0CF0FBF13E0DDCFB901C601BE
:1013C0000E949307182F0FBF0E94AA01892B99F240
:1013D00080E00E947F02CFCF19ECCDCF0E94AA01FE
:1013E0007894009771F0DC011396ED91FC911497BD
:1013F000309739F015966D917D918D919C9118974C
:10140000099408952EEE39E0FB0120833197308353
:101410003197108231971082319710823197108264
:101420003197108231971082319710823197108254
:101430003197108231971082319710823197108244
:101440003197108231971082319710823197108234
:10145000319710823197108264517109FC017183B8
:101460006083089586E891E09093890080938800D6
:1014700082E080936F008CE08093810008951F923A
:101480000F920FB60F9211240BB60F922F933F932A
:101490004F935F936F937F938F939F93AF93BF937C
:1014A000EF93FF930E94A0010E94680681E00E94D2
:1014B0003D03FF91EF91BF91AF919F918F917F91EC
:1014C0006F915F914F913F912F910F900BBE0F90B5
:1014D0000FBE0F901F9018951F920F920FB60F928C
:1014E00011240F900FBE0F901F9018958AE28093E1
:1014F000B8008FEF8093BB0084E08093BC00089518
:101500008091BC00817008958091BC0080FDFCCF6B
:101510008091000108952091BC0020FDFCCF6093D4
:10152000C606FC0120812093C70620FF09C0109247
:10153000C40688EF8093000185EA8093BC0008957B
:10154000FC013196A8ECB6E081E0861780F7919116
:101550009D938F5FFACF8091BC0080FDFCCF1092ED
:10156000C40688EF8093000185EA8093BC0008954B
:101570002091BC0020FDFCCF2091C40620FD04C0BA
:101580008091C40681700895A7ECB6E0282FFC0175
:101590008E2F821B8617A0F78D918193F9CF1F9212
:1015A0000F920FB60F9211240BB60F922F933F9309
:1015B0008F939F93EF93FF938091B900883249F006
:1015C000D0F4803121F0883121F08830D1F41092AC
:1015D000C506E091C5068091C606E81720F581E0B2
:1015E0008E0F8093C506F0E0E953F94F8081809318
:1015F000BB0085E836C0803449F148F4883309F4EB
:101600003FC08091B9008093000184E02AC08035FA
:1016100089F08835B1F78091BB00E091C506F0E014
:10162000E953F94F80838091C40681608093C4069A
:1016300084E917C0E091C50681E08E0F8093C5064E
:101640008091BB00F0E0E953F94F80832091C506FB
:1016500030E08091C60690E00197281739074CF6D4
:1016600085EC8093BC00FF91EF919F918F913F910A
:101670002F910F900BBE0F900FBE0F901F901895DB
:1016800085EAEFCF0E94FA10882341F00E94B11042
:101690008091D80082608093D80081E008950F93F4
:1016A0001F93CF93DF9300D000D0CDB7DEB78C016E
:1016B000DC0111968D919C9112970C97F1F41A967A
:1016C0008C911A97803669F48C918295807F8093F3
:1016D000ED008091EF008F738093EF001092EE0089
:1016E0001C92F801128680E00F900F900F900F90DF
:1016F000DF91CF911F910F9108950E94BE108F3FEF
:1017000009F4A4C490E6D8011A969C931A978C9376
:101710008295807F8093ED00EEEEF0E01192E83F3D
:10172000F105E1F7D8011196ED91FC9112973197EF
:10173000EB30F10508F086C4E056F44F0C943B11F1
:10174000E90B520CC00C230D550D8D0DC80D5E0E0E
:10175000DC0EAB0B7F0F80E0F8019781891708F44E
:10176000C2C319821A821B821C821092F7008B81DD
:10177000880F880F880F9A81929596959770890F98
:101780008093F6008A81880F880F880F998192953F
:1017900096959770890F8093F5008981880F880F3F
:1017A000880F8093F4008091EF009781892B8093BC
:1017B000EF0081E083878091F40084608093F400DF
:1017C0008091F00084608093F0008091EF0080624F
:1017D000DCC1F8018485882309F43FC08681880F25
:1017E000880F880F9581929596959770890F8093B1
:1017F000F3008581880F880F880F948192959695C4
:101800009770890F8093F2008481880F880F880F6A
:101810009381929596959770890F8093F1008381BB
:10182000880F880F880F8093F0008091EF0080610F
:101830008093EF0080E0F8019781891718F1838584
:10184000882361F18091F00084608093F0008091A2
:10185000EF00D80117969C9164C084818295880F0F
:10186000807E9381969596959695890F8093F30047
:1018700083818295880F807E8093F2008091EF00B3
:101880008F7ED6CFD8011896ED91FC911997E80F6D
:10189000F11D90819093FA008F5FCDCF8091F00081
:1018A0008B7FD3CFF8018485882309F448C08681D3
:1018B000880F880F880F9581929596959770890F5C
:1018C0008093F3008581880F880F880F948192950B
:1018D00096959770890F8093F2008481880F880F06
:1018E000880F9381929596959770890F8093F10058
:1018F0008381880F880F880F8093F0008091EF001C
:1019000080618093EF0080E0F8019781891760F192
:1019100013868091F0008B7F8093F0008091EF0020
:101920009781892B8093EF008091EF008F738093D4
:10193000EF008091EF0080648093EF00D4CE84812B
:101940008295880F807E9381969596959695890FBE
:101950008093F30083818295880F807E8093F200CC
:101960008091EF008F7ECDCFD8011896ED91FC913C
:101970001997E80FF11D90819093FA008F5FC4CF03
:10198000D8011C968C911C97882309F446C01696A2
:101990008C911697880F880F880F15969C91159734
:1019A000929596959770890F8093F30015968C9178
:1019B0001597880F880F880F14969C91149792950D
:1019C00096959770890F8093F20014968C911497D6
:1019D000880F880F880F13969C9113979295969570
:1019E0009770890F8093F10013968C91880F880F60
:1019F000880F8093F0008091EF0080618093EF006A
:101A000081E0D8011B968C931B978091F000846035
:101A10008093F0008091EF001DCFF80184818295C2
:101A2000880F807E9381969596959695890F8093E1
:101A3000F30083818295880F807E8093F2008091ED
:101A4000EF008F7EDBCF19821A821B821C821092DC
:101A5000F7008B81880F880F880F9A819295969551
:101A60009770890F8093F6008A81880F880F880FFE
:101A70009981929596959770890F8093F500898149
:101A8000880F880F880F8093F4008091EF00F80191
:101A90009781892B8093EF008091F4008B7F809356
:101AA000F4008091F4008E7FE8C019821A821B82B4
:101AB0001C821092F7008B81880F880F880F9A8103
:101AC000929596959770890F8093F6008A81880F7A
:101AD000880F880F9981929596959770890F8093BA
:101AE000F5008981880F880F880F8093F40080911A
:101AF000EF00D80117969C911797892B8093EF00E0
:101B00001B961C928091F40084608093F400809175
:101B1000F0008B7F8093F000C4CF19821A821B8261
:101B20001C821092F7008B81880F880F880F9A8192
:101B3000929596959770890F8093F6008A81880F09
:101B4000880F880F9981929596959770890F809349
:101B5000F5008981880F880F880F8093F4008091A9
:101B6000EF00F8019781892B8093EF0081E0838754
:101B70008091F40084608093F4008091F000846090
:101B80008093F0008091EF008F7D8093EF0089CFEC
:101B9000D8011C968C911C97882309F479C016965D
:101BA0008C911697880F880F880F15969C91159722
:101BB000929596959770890F8093F30015968C9166
:101BC0001597880F880F880F14969C9114979295FB
:101BD00096959770890F8093F20014968C911497C4
:101BE000880F880F880F13969C911397929596955E
:101BF0009770890F8093F10013968C91880F880F4E
:101C0000880F8093F0008091EF0080618093EF0057
:101C10008FEF9FEFDC0189839A83AB83BC83809332
:101C2000F7008B81880F880F880F9A81929596957F
:101C30009770890F8093F6008A81880F880F880F2C
:101C40009981929596959770890F8093F500898177
:101C5000880F880F880F8093F4008091EF00D801DF
:101C600017969C91892B8093EF008091F4008B7FD5
:101C70008093F4008091F40081608093F40080915F
:101C8000EF008F738093EF008091EF00806854CE57
:101C9000F80184818295880F807E93819695969530
:101CA0009695890F8093F30083818295880F807EBB
:101CB0008093F2008091EF008F7EA8CFF801848599
:101CC000882309F464C08681880F880F880F958166
:101CD000929596959770890F8093F3008581880F70
:101CE000880F880F9481929596959770890F8093AD
:101CF000F2008481880F880F880F938192959695C2
:101D00009770890F8093F1008381880F880F880F67
:101D10008093F0008091EF0080618093EF008FEF5F
:101D20009FEFDC0189839A83AB83BC838093F700A8
:101D30008B81880F880F880F9A819295969597705E
:101D4000890F8093F6008A81880F880F880F998108
:101D5000929596959770890F8093F5008981880FE9
:101D6000880F880F8093F4008091EF00F80197812D
:101D7000892B8093EF0013868091F4008460809318
:101D8000F4008091F0008B7F8093F00073CF84810A
:101D90008295880F807E9381969596959695890F6A
:101DA0008093F30083818295880F807E8093F20078
:101DB0008091EF008F7EB1CFD8011C968C911C973B
:101DC000882309F47AC016968C911697880F880F8D
:101DD000880F15969C911597929596959770890FF7
:101DE0008093F30015968C911597880F880F880FB4
:101DF00014969C911497929596959770890F80935D
:101E0000F20014968C911497880F880F880F139600
:101E10009C911397929596959770890F8093F100F6
:101E200013968C91880F880F880F8093F000809113
:101E3000EF0080618093EF008FEF9FEFDC018983DB
:101E40009A83AB83BC838093F7008B81880F880FC4
:101E5000880F9A81929596959770890F8093F600D6
:101E60008A81880F880F880F99819295969597702F
:101E7000890F8093F5008981880F880F880F8093E0
:101E8000F4008091EF00D80117969C911797892B49
:101E90008093EF0081E01B968C938091F400846026
:101EA0008093F4008091F00084608093F000809132
:101EB000EF008F7D8093EF00DDCEF8018481829565
:101EC000880F807E9381969596959695890F80933D
:101ED000F30083818295880F807E8093F200809149
:101EE000EF008F7EA7CFD8011896ED91FC9119973E
:101EF000E80FF11D90819093FA008F5F2DCCD801EF
:101F00001C968C911C97882309F47AC016968C91A4
:101F10001697880F880F880F15969C9115979295A4
:101F200096959770890F8093F30015968C9115976D
:101F3000880F880F880F14969C9114979295969508
:101F40009770890F8093F20014968C911497880FE4
:101F5000880F880F13969C9113979295969597707A
:101F6000890F8093F10013968C91880F880F880F4A
:101F70008093F0008091EF0080618093EF0080E01B
:101F8000F8019781891708F451C08FEF9FEFDC01AA
:101F900089839A83AB83BC838093F7008B81880FFE
:101FA000880F880F9A81929596959770890F8093E4
:101FB000F6008A81880F880F880F998192959695EF
:101FC0009770890F8093F5008981880F880F880F9B
:101FD0008093F4008091EF009781892B8093EF002C
:101FE00081E083878091F40084608093F400809185
:101FF000F00084608093F0008091EF0080625ACFFF
:10200000F80184818295880F807E938196959695BC
:102010009695890F8093F30083818295880F807E47
:102020008093F2008091EF008F7EA7CFD8011896A1
:10203000ED91FC911997E80FF11D90819093FA00B2
:102040008F5F9ECFD8011A961C924DCB9FE1F8016D
:1020500092874ACB1F93CF93DF93EC018A85882325
:10206000D1F08F31C1F08F3FB1F088818295807FB0
:102070008093ED000E94D310182F803299F068F4FD
:10208000882309F46CC01A878091EF008F738093C6
:10209000EF001092EE0082E04CC0803409F440C0A2
:1020A000803A89F78091EF008F708F8388859985BA
:1020B0000E94E6108091F00082FB882780F98B87D0
:1020C0008091EF0084FF39C081E08C878091F3001C
:1020D0008695869586958E838091F2009091F30087
:1020E0008695869586959295990F907E890F8D831A
:1020F0008091F1009091F200869586958695929553
:10210000990F907E890F8C838091F0009091F1005F
:102110008695869586959295990F907E890F8B83EB
:102120001A878091EF008F738093EF001092EE007A
:1021300080E0DF91CF911F9108951C868091F3007C
:102140008295869587708C838091F2009091F30040
:10215000829586958770990F990F990FDFCF81E04F
:10216000E8CF80E08093ED00EEEEF0E01192E83FE2
:10217000F105E1F7805F8036A9F708953091ED0011
:1021800090E080E09093ED002091EF00207C19F426
:102190003093ED0008958F5F905F863099F730930C
:1021A000ED008FEF08958091EF00807C69F09091B1
:1021B000EE00892F807E803241F0803431F0803A09
:1021C00021F0892F8F7108958FEF0895BC0190E061
:1021D0002091EF00492F50E02F7030E04217530755
:1021E0000CF008958091FA00460F571FFA01808382
:1021F0009F5FEECF81E08093D80088E08093E2007B
:102200008CE08093E30087E38093E40081E008950D
:10221000681708F4682F862F089581E492E09EBF26
:102220008DBF40E051E060E070E081E493E00E9407
:102230001503811108C00E94320A0E9426018111F3
:1022400002C00E9449038FEF81B992B181E09111E0
:1022500080E082B9FACFDB018F939F930E944411F3
:10226000BF91AF91A29F800D911DA39F900DB29F32
:10227000900D11240895EE0FFF1F0024001C0BBECB
:102280000790F691E02D09940E944F11A59F900DA3
:10229000B49F900DA49F800D911D11240895A29FBD
:1022A000B001B39FC001A39F700D811D1124911D2A
:1022B000B29F700D811D1124911D0895FB01DC0159
:1022C00002C001900D9241505040D8F70895F89403
:0222D000FFCF3E
:1022D200F8AB123456950610D600000000006106D5
:1022E200C80000008406101E01000000009905C805
:1022F200000000730610B80000000000D104C800FE
:1023020000006206102501000000000904C8000058
:022312000000C9
:00000001FF
